{
  "address": "0xDBf79b6eA80E9E77124B4cb8aFD5A3d892dAD868",
  "abi": [
    {
      "anonymous": false,
      "inputs": [
        {
          "indexed": true,
          "internalType": "uint256",
          "name": "tokenId",
          "type": "uint256"
        },
        {
          "indexed": false,
          "internalType": "uint256",
          "name": "initialBalance",
          "type": "uint256"
        }
      ],
      "name": "CarbonCreditsInitialized",
      "type": "event"
    },
    {
      "anonymous": false,
      "inputs": [
        {
          "indexed": true,
          "internalType": "uint256",
          "name": "tokenId",
          "type": "uint256"
        },
        {
          "indexed": false,
          "internalType": "uint256",
          "name": "amount",
          "type": "uint256"
        },
        {
          "indexed": false,
          "internalType": "uint256",
          "name": "remainingBalance",
          "type": "uint256"
        }
      ],
      "name": "CarbonCreditsRetired",
      "type": "event"
    },
    {
      "inputs": [
        {
          "internalType": "uint256[]",
          "name": "tokenIds",
          "type": "uint256[]"
        },
        {
          "internalType": "uint256[]",
          "name": "initialBalances",
          "type": "uint256[]"
        }
      ],
      "name": "batchInitializeCarbonCredits",
      "outputs": [],
      "stateMutability": "nonpayable",
      "type": "function"
    },
    {
      "inputs": [
        {
          "internalType": "uint256[]",
          "name": "tokenIds",
          "type": "uint256[]"
        }
      ],
      "name": "getAllCarbonCreditBalances",
      "outputs": [
        {
          "internalType": "uint256[]",
          "name": "",
          "type": "uint256[]"
        }
      ],
      "stateMutability": "view",
      "type": "function"
    },
    {
      "inputs": [
        {
          "internalType": "uint256",
          "name": "tokenId",
          "type": "uint256"
        }
      ],
      "name": "getCarbonCreditBalance",
      "outputs": [
        {
          "internalType": "uint256",
          "name": "",
          "type": "uint256"
        }
      ],
      "stateMutability": "view",
      "type": "function"
    },
    {
      "inputs": [
        {
          "internalType": "uint256",
          "name": "tokenId",
          "type": "uint256"
        }
      ],
      "name": "getCarbonCreditStatus",
      "outputs": [
        {
          "internalType": "enum CarbonCreditStatus",
          "name": "",
          "type": "uint8"
        }
      ],
      "stateMutability": "view",
      "type": "function"
    },
    {
      "inputs": [
        {
          "internalType": "uint256",
          "name": "tokenId",
          "type": "uint256"
        },
        {
          "internalType": "uint256",
          "name": "initialBalance",
          "type": "uint256"
        }
      ],
      "name": "initializeCarbonCredit",
      "outputs": [],
      "stateMutability": "nonpayable",
      "type": "function"
    },
    {
      "inputs": [
        {
          "internalType": "uint256",
          "name": "tokenId",
          "type": "uint256"
        },
        {
          "internalType": "uint256",
          "name": "amount",
          "type": "uint256"
        }
      ],
      "name": "retireCarbonCredits",
      "outputs": [],
      "stateMutability": "nonpayable",
      "type": "function"
    }
  ],
  "transactionHash": "0x6505b51aece96f0b06ce20fc513da5d7c7ffcef202987a935e1980820e8a8997",
  "args": [],
  "numDeployments": 1,
  "solcInputHash": "f3692121488f56f72e7047b22b2520f2",
  "bytecode": "0x6080604052348015600f57600080fd5b50610ef38061001f6000396000f3fe608060405234801561001057600080fd5b50600436106100625760003560e01c80631f182973146100675780631ff275f1146100905780632a8ed06f146100a5578063543300fe146100c5578063cd86fab3146100d8578063fee99035146100eb575b600080fd5b61007a610075366004610b97565b61010c565b6040516100879190610bb0565b60405180910390f35b6100a361009e366004610c23565b61012a565b005b6100b86100b3366004610c92565b610320565b6040516100879190610cd3565b6100a36100d3366004610d16565b6103da565b6100a36100e6366004610d16565b61066d565b6100fe6100f9366004610b97565b6108c4565b604051908152602001610087565b6000806101176108db565b905061012381846108ff565b9392505050565b33610133610923565b6001600160a01b0316148061014757503033145b61016c5760405162461bcd60e51b815260040161016390610d38565b60405180910390fd5b8281146101b65760405162461bcd60e51b8152602060048201526018602482015277082e4e4c2f240d8cadccee8d0e640daeae6e840dac2e8c6d60431b6044820152606401610163565b60006101c06108db565b905060005b8481101561031857600030636352211e8888858181106101e7576101e7610d6f565b905060200201356040518263ffffffff1660e01b815260040161020c91815260200190565b602060405180830381865afa158015610229573d6000803e3d6000fd5b505050506040513d601f19601f8201168201806040525081019061024d9190610d85565b6001600160a01b0316036102735760405162461bcd60e51b815260040161016390610dae565b6102b886868381811061028857610288610d6f565b905060200201358585848181106102a1576102a1610d6f565b90506020020135846109519092919063ffffffff16565b8585828181106102ca576102ca610d6f565b90506020020135600080516020610e9e8339815191528585848181106102f2576102f2610d6f565b9050602002013560405161030891815260200190565b60405180910390a26001016101c5565b505050505050565b6060600061032c6108db565b90506000836001600160401b0381111561034857610348610ddc565b604051908082528060200260200182016040528015610371578160200160208202803683370190505b50905060005b848110156103cf576103aa86868381811061039457610394610d6f565b9050602002013584610a5190919063ffffffff16565b8282815181106103bc576103bc610d6f565b6020908102919091010152600101610377565b509150505b92915050565b336103e3610923565b6001600160a01b031614806103f757503033145b6104135760405162461bcd60e51b815260040161016390610d38565b600082116104335760405162461bcd60e51b815260040161016390610df2565b600081116104bc5760405162461bcd60e51b815260206004820152604a60248201527f434152424f4e5f4352454449543a20494e56414c49445f42414c414e4345202d60448201527f20496e697469616c2062616c616e6365206d7573742062652067726561746572606482015269207468616e207a65726f60b01b608482015260a401610163565b6040516331a9108f60e11b8152600481018390526000903090636352211e90602401602060405180830381865afa1580156104fb573d6000803e3d6000fd5b505050506040513d601f19601f8201168201806040525081019061051f9190610d85565b6001600160a01b0316036105955760405162461bcd60e51b815260206004820152603760248201527f434152424f4e5f4352454449543a204e4f4e4558495354454e545f544f4b454e604482015276080b48151bdad95b88191bd95cc81b9bdd08195e1a5cdd604a1b6064820152608401610163565b600061059f6108db565b90506105ab8184610a51565b156106355760405162461bcd60e51b815260206004820152604e60248201527f434152424f4e5f4352454449543a20414c52454144595f494e495449414c495a60448201527f4544202d20546f6b656e20616c726561647920686173206120636172626f6e2060648201526d6372656469742062616c616e636560901b608482015260a401610163565b610640818484610951565b82600080516020610e9e8339815191528360405161066091815260200190565b60405180910390a2505050565b6040516331a9108f60e11b81526004810183905282903090636352211e90602401602060405180830381865afa1580156106ab573d6000803e3d6000fd5b505050506040513d601f19601f820116820180604052508101906106cf9190610d85565b6001600160a01b0316336001600160a01b03161461073f5760405162461bcd60e51b815260206004820152602760248201527f4f6e6c7920746f6b656e206f776e65722063616e2063616c6c207468697320666044820152663ab731ba34b7b760c91b6064820152608401610163565b6000831161075f5760405162461bcd60e51b815260040161016390610df2565b600082116107c5576040805162461bcd60e51b81526020600482015260248101919091527f434152424f4e5f4352454449543a20494e56414c49445f414d4f554e54202d206044820152600080516020610e7e8339815191526064820152608401610163565b60006107cf6108db565b905060006107dd8286610a51565b9050838110156108675760405162461bcd60e51b815260206004820152604960248201527f434152424f4e5f4352454449543a20494e53554646494349454e545f42414c4160448201527f4e4345202d204e6f7420656e6f75676820636172626f6e206372656469747320606482015268617661696c61626c6560b81b608482015260a401610163565b610872828686610a64565b600061087e8387610a51565b604080518781526020810183905291925087917fe3320ebc9096bdda0cb987763df59caa860417c61ac1725fa91523d1ab8b297a910160405180910390a2505050505050565b6000806108cf6108db565b90506101238184610a51565b7fa7530886f770be1a2d9f7845fb24135da6a334864119d065ed91a38a62919f7090565b6000818152602083905260408120541561091a576000610123565b60019392505050565b7fc8fcad8db84d3cc18b4c41d551ea0ee66dd599cde068d998e57d5e09332c1320546001600160a01b031690565b600082815260208490526040902054156109b85760405162461bcd60e51b815260206004820152602260248201527f436172626f6e206372656469747320616c726561647920696e697469616c697a604482015261195960f21b6064820152608401610163565b6109c182610b1f565b6109dd5760405162461bcd60e51b815260040161016390610dae565b60008111610a3f5760405162461bcd60e51b815260206004820152602960248201527f496e697469616c2062616c616e6365206d7573742062652067726561746572206044820152687468616e207a65726f60b81b6064820152608401610163565b60009182526020929092526040902055565b6000908152602091909152604090205490565b60008111610aa25760405162461bcd60e51b81526020600482018190526024820152600080516020610e7e8339815191526044820152606401610163565b600082815260208490526040902054811115610af75760405162461bcd60e51b8152602060048201526014602482015273496e73756666696369656e742062616c616e636560601b6044820152606401610163565b60008281526020849052604081208054839290610b15908490610e5c565b9091555050505050565b6040516331a9108f60e11b8152600481018290526000903090636352211e90602401602060405180830381865afa925050508015610b7a575060408051601f3d908101601f19168201909252610b7791810190610d85565b60015b610b8657506000919050565b6001600160a01b0316151592915050565b600060208284031215610ba957600080fd5b5035919050565b6020810160028310610bd257634e487b7160e01b600052602160045260246000fd5b91905290565b60008083601f840112610bea57600080fd5b5081356001600160401b03811115610c0157600080fd5b6020830191508360208260051b8501011115610c1c57600080fd5b9250929050565b60008060008060408587031215610c3957600080fd5b84356001600160401b03811115610c4f57600080fd5b610c5b87828801610bd8565b90955093505060208501356001600160401b03811115610c7a57600080fd5b610c8687828801610bd8565b95989497509550505050565b60008060208385031215610ca557600080fd5b82356001600160401b03811115610cbb57600080fd5b610cc785828601610bd8565b90969095509350505050565b602080825282518282018190526000918401906040840190835b81811015610d0b578351835260209384019390920191600101610ced565b509095945050505050565b60008060408385031215610d2957600080fd5b50508035926020909101359150565b6020808252601f908201527f6e6f7420617574686f72697a656420746f2063616c6c2066756e6374696f6e00604082015260600190565b634e487b7160e01b600052603260045260246000fd5b600060208284031215610d9757600080fd5b81516001600160a01b038116811461012357600080fd5b602080825260149082015273151bdad95b88191bd95cc81b9bdd08195e1a5cdd60621b604082015260600190565b634e487b7160e01b600052604160045260246000fd5b60208082526044908201527f434152424f4e5f4352454449543a20494e56414c49445f544f4b454e5f49442060408201527f2d20546f6b656e204944206d7573742062652067726561746572207468616e206060820152637a65726f60e01b608082015260a00190565b818103818111156103d457634e487b7160e01b600052601160045260246000fdfe416d6f756e74206d7573742062652067726561746572207468616e207a65726f181209f5a594950bcc5984235e2464fcbd7023ecf54abee8bdb3391937210426a2646970667358221220c30c7d80cee0b4b9897665bfa5400aac7513bb8f75ff4a313469da6fa6ec260f64736f6c634300081c0033",
  "libraries": {
    "AddressSet": "0x8aB21bf41B908d9CBee3E78e97033E3916840cA8",
    "AttributeLib": "0x9d0749b64bEDB024B1AaF596c84029E67635D43c",
    "Base64": "0x8d10857B6d2bEA12d67A888F3E995ea142Db701E",
    "Bytes32Set": "0xB01Cf1Baf9ABFa5309AE3ff649B31ae87A80AE62",
    "CarbonCreditLib": "0x44520E8dA039d4D7D460f5DBF6C1eC347De53A7C",
    "DiamondFactoryLib": "0x50353159348c63A448eDAfC6d5ef81CF9C1cdE9a",
    "DiamondLib": "0x2Be86045394c8096b3b9d9449A08Cc74afEd5717",
    "ERC721AEnumerationLib": "0x6a9A6D75AECEfB8dC969D5Ef5ea3EcF57e29706d",
    "ERC721ALib": "0x8F980CBDb943c2794FdA47D82d81a71d31A815DE",
    "Identity": "0x4C6fE457018d32B9aEc2aA99F655b5aCD7d0D658",
    "IdentityFactory": "0x5c970fD1E772548Be3Dc3de62381Fd8b2b3fAb96",
    "IdentitySystemStorage": "0x05d7966Acfa90f529e3844B1d1b7702dBde7789c",
    "LibDiamond": "0x30Fb10d923CfFC1151B8CFe683A937F414854570",
    "MerkleProver": "0x6361c8F2C7Fb1498C15C5e90Ed477ee8cEeC9f5f",
    "MetadataLib": "0xEA17bE869d528F2c3e4F7cae231ebE4BE42BeB75",
    "MultiSaleLib": "0x3b12B21202DaC69552E7b1f9D4D3E31085c7a378",
    "Strings": "0x26375f3210F1F8C90f53c663AC44F3d4a86b12A6",
    "StringsLib": "0x928c0A50586514D291087403befe3540E3631ECd",
    "SVGTemplatesLib": "0xFD3DfE346d5d5c8C90313036BC1b1E3De29FCb33",
    "UInt256Set": "0x908B9bE15117446dE01d076Ecb75D9210E182D97",
    "VariablePriceLib": "0x92E3cBf7226518CF757c48446067de1485CCCcBb"
  },
  "devdoc": {
    "details": "Carbon credits are a mechanism to track and retire environmental credits      represented as balances attached to ERC721 tokens. This facet implements      the ICarbonCredit interface and leverages the CarbonCreditLib for storage      management. Carbon credits can be initialized with balances and then retired,      which represents their use for offsetting carbon emissions.",
    "events": {
      "CarbonCreditsInitialized(uint256,uint256)": {
        "params": {
          "initialBalance": "The initial balance of carbon credits",
          "tokenId": "The ID of the ERC721 token"
        }
      },
      "CarbonCreditsRetired(uint256,uint256,uint256)": {
        "params": {
          "amount": "The amount of carbon credits retired",
          "remainingBalance": "The remaining balance of carbon credits for the token",
          "tokenId": "The ID of the ERC721 token"
        }
      }
    },
    "kind": "dev",
    "methods": {
      "batchInitializeCarbonCredits(uint256[],uint256[])": {
        "custom:emission": "Emits CarbonCreditsInitialized event for each token individually",
        "details": "Batch version of initializeCarbonCredit to save gas and transaction costs when      setting up multiple tokens at once. Each token is verified to exist before initialization.      This function is more efficient than calling initializeCarbonCredit multiple times.",
        "params": {
          "initialBalances": "An array of initial balances corresponding to the token IDs",
          "tokenIds": "An array of ERC721 token IDs to initialize"
        }
      },
      "getAllCarbonCreditBalances(uint256[])": {
        "details": "Efficiently retrieves balances for multiple tokens at once to minimize      the number of external calls needed. This is a gas-saving alternative to      calling getCarbonCreditBalance multiple times. Returns 0 for any token      that doesn't exist or hasn't been initialized with carbon credits.",
        "params": {
          "tokenIds": "An array of ERC721 token IDs to query"
        },
        "returns": {
          "_0": "An array of carbon credit balances in the same order as the input tokenIds"
        }
      },
      "getCarbonCreditBalance(uint256)": {
        "details": "Returns the amount of carbon credits available to be retired for a given token.      Will return 0 if the token doesn't exist or hasn't been initialized with credits.",
        "params": {
          "tokenId": "The ID of the ERC721 token"
        },
        "returns": {
          "_0": "The current balance of carbon credits for the token"
        }
      },
      "getCarbonCreditStatus(uint256)": {
        "details": "Returns an enum value representing the token's carbon credit status:      - NONE: The token has not been initialized with any carbon credits      - ACTIVE: The token has carbon credits available for retirement      - RETIRED: All carbon credits for the token have been retired",
        "params": {
          "tokenId": "The ID of the ERC721 token"
        },
        "returns": {
          "_0": "Status enum representing the carbon credit state for the token"
        }
      },
      "initializeCarbonCredit(uint256,uint256)": {
        "custom:security": "Non-reentrant due to direct storage manipulation",
        "details": "This function can only be called by the contract owner to set up initial carbon credit balances      for ERC721 tokens. It ensures the token exists and hasn't already been initialized with a balance.      Carbon credits cannot be re-initialized once set.",
        "params": {
          "initialBalance": "The initial balance of carbon credits (must be greater than zero)",
          "tokenId": "The ID of the ERC721 token"
        }
      },
      "retireCarbonCredits(uint256,uint256)": {
        "custom:emission": "This operation emits CarbonCreditsRetired event with remaining balance",
        "details": "This function allows the token owner to permanently retire (use) carbon credits,      which can represent offsetting carbon emissions in real-world applications.      Once credits are retired, they cannot be recovered or reused. The function      ensures the token has sufficient balance before proceeding with the retirement.",
        "params": {
          "amount": "The amount of carbon credits to retire (must be a whole number)",
          "tokenId": "The ID of the ERC721 token"
        }
      }
    },
    "title": "CarbonCreditFacet",
    "version": 1
  },
  "userdoc": {
    "events": {
      "CarbonCreditsInitialized(uint256,uint256)": {
        "notice": "Event emitted when carbon credits are initialized"
      },
      "CarbonCreditsRetired(uint256,uint256,uint256)": {
        "notice": "Event emitted when carbon credits are retired"
      }
    },
    "kind": "user",
    "methods": {
      "batchInitializeCarbonCredits(uint256[],uint256[])": {
        "notice": "Initialize carbon credit balances for multiple ERC721 tokens in a single transaction"
      },
      "getAllCarbonCreditBalances(uint256[])": {
        "notice": "Get the carbon credit balances for multiple ERC721 tokens in a single call"
      },
      "getCarbonCreditBalance(uint256)": {
        "notice": "Get the current carbon credit balance for an ERC721 token"
      },
      "getCarbonCreditStatus(uint256)": {
        "notice": "Get the status of carbon credits for an ERC721 token"
      },
      "initializeCarbonCredit(uint256,uint256)": {
        "notice": "Initialize carbon credit balance for an ERC721 token"
      },
      "retireCarbonCredits(uint256,uint256)": {
        "notice": "Retire carbon credits for an ERC721 token"
      }
    },
    "notice": "This contract manages carbon credits associated with ERC721 tokens",
    "version": 1
  },
  "storageLayout": {
    "storage": [],
    "types": null
  }
}