{
  "address": "0xc5f7d926f16419dc2FD68ae792EC6E9c30fD0bD9",
  "abi": [
    {
      "anonymous": false,
      "inputs": [
        {
          "indexed": true,
          "internalType": "uint256",
          "name": "tradeDealId",
          "type": "uint256"
        },
        {
          "indexed": true,
          "internalType": "address",
          "name": "tokenAddress",
          "type": "address"
        },
        {
          "indexed": false,
          "internalType": "string",
          "name": "name",
          "type": "string"
        },
        {
          "indexed": false,
          "internalType": "string",
          "name": "symbol",
          "type": "string"
        }
      ],
      "name": "CollateralTokenCreated",
      "type": "event"
    },
    {
      "anonymous": false,
      "inputs": [
        {
          "indexed": true,
          "internalType": "address",
          "name": "factoryAddress",
          "type": "address"
        }
      ],
      "name": "CollateralTokenFactoryInitialized",
      "type": "event"
    },
    {
      "inputs": [],
      "name": "CollateralTokenFactoryFacet_init",
      "outputs": [],
      "stateMutability": "nonpayable",
      "type": "function"
    },
    {
      "inputs": [
        {
          "internalType": "uint256",
          "name": "_tradeDealId",
          "type": "uint256"
        },
        {
          "internalType": "string",
          "name": "_name",
          "type": "string"
        },
        {
          "internalType": "string",
          "name": "_symbol",
          "type": "string"
        },
        {
          "internalType": "bool",
          "name": "_restrictionsEnabled",
          "type": "bool"
        }
      ],
      "name": "createCollateralToken",
      "outputs": [
        {
          "internalType": "address",
          "name": "",
          "type": "address"
        }
      ],
      "stateMutability": "nonpayable",
      "type": "function"
    },
    {
      "inputs": [
        {
          "internalType": "uint256",
          "name": "_tradeDealId",
          "type": "uint256"
        }
      ],
      "name": "getCollateralTokenAddress",
      "outputs": [
        {
          "internalType": "address",
          "name": "",
          "type": "address"
        }
      ],
      "stateMutability": "view",
      "type": "function"
    },
    {
      "inputs": [],
      "name": "getCollateralTokenFactory",
      "outputs": [
        {
          "internalType": "address",
          "name": "",
          "type": "address"
        }
      ],
      "stateMutability": "view",
      "type": "function"
    },
    {
      "inputs": [
        {
          "internalType": "uint256",
          "name": "_tradeDealId",
          "type": "uint256"
        },
        {
          "internalType": "address",
          "name": "_address",
          "type": "address"
        }
      ],
      "name": "isCollateralTokenParticipant",
      "outputs": [
        {
          "internalType": "bool",
          "name": "",
          "type": "bool"
        }
      ],
      "stateMutability": "view",
      "type": "function"
    },
    {
      "inputs": [
        {
          "internalType": "uint256",
          "name": "_tradeDealId",
          "type": "uint256"
        },
        {
          "internalType": "bool",
          "name": "_restrictionsEnabled",
          "type": "bool"
        }
      ],
      "name": "setCollateralTokenRestrictions",
      "outputs": [],
      "stateMutability": "nonpayable",
      "type": "function"
    }
  ],
  "transactionHash": "0x3bc8ca850547b90facb44c5b4a8c271d46d155ce9eb82456bb6efde17321173f",
  "args": [],
  "numDeployments": 1,
  "solcInputHash": "8f714809dc181e313d6212a43540f041",
  "bytecode": "0x6080604052348015600f57600080fd5b506128798061001f6000396000f3fe608060405234801561001057600080fd5b50600436106100625760003560e01c80630d6186cd14610067578063347174681461008f5780634aee985b146100a45780637bc5c335146100c45780639ddbd110146100cc578063fa6b51cd146100df575b600080fd5b61007a6100753660046108d2565b6100e7565b60405190151581526020015b60405180910390f35b6100a261009d366004610910565b61022b565b005b6100b76100b2366004610935565b6103f8565b604051610086919061094e565b6100a26104ce565b6100b76100da366004610a05565b610604565b6100b7610833565b6000806100f261084e565b60008581526001820160205260409020549091506001600160a01b031680158015610126575081546001600160a01b031615155b1561019a578154604051630cf99be760e31b8152600481018790526001600160a01b03909116906367ccdf3890602401602060405180830381865afa158015610173573d6000803e3d6000fd5b505050506040513d601f19601f820116820180604052508101906101979190610a88565b90505b6001600160a01b0381166101b357600092505050610225565b60405163929066f560e01b81526001600160a01b0382169063929066f5906101df90879060040161094e565b602060405180830381865afa1580156101fc573d6000803e3d6000fd5b505050506040513d601f19601f820116820180604052508101906102209190610aa5565b925050505b92915050565b33610234610872565b6001600160a01b0316148061024857503033145b61026d5760405162461bcd60e51b815260040161026490610ac2565b60405180910390fd5b600061027761084e565b60008481526001820160205260409020549091506001600160a01b0316801580156102ab575081546001600160a01b031615155b1561031f578154604051630cf99be760e31b8152600481018690526001600160a01b03909116906367ccdf3890602401602060405180830381865afa1580156102f8573d6000803e3d6000fd5b505050506040513d601f19601f8201168201806040525081019061031c9190610a88565b90505b6001600160a01b0381166103975760405162461bcd60e51b8152602060048201526045602482015260008051602061282483398151915260448201527f656e20646f6573206e6f7420657869737420666f722074686973207472616465606482015264081919585b60da1b608482015260a401610264565b60405163680bb6d560e01b815283151560048201526001600160a01b0382169063680bb6d590602401600060405180830381600087803b1580156103da57600080fd5b505af11580156103ee573d6000803e3d6000fd5b5050505050505050565b60008061040361084e565b60008481526001820160205260409020549091506001600160a01b0316156104425760009283526001016020525060409020546001600160a01b031690565b80546001600160a01b0316156104c5578054604051630cf99be760e31b8152600481018590526001600160a01b03909116906367ccdf3890602401602060405180830381865afa15801561049a573d6000803e3d6000fd5b505050506040513d601f19601f820116820180604052508101906104be9190610a88565b9392505050565b50600092915050565b60006104d861084e565b546001600160a01b0316146105485760405162461bcd60e51b815260206004820152603060248201527f436f6c6c61746572616c546f6b656e466163746f727946616365743a20616c7260448201526f1958591e481a5b9a5d1a585b1a5e995960821b6064820152608401610264565b6000604051610556906108a0565b604051809103906000f080158015610572573d6000803e3d6000fd5b509050600081604051610584906108ad565b61058e919061094e565b604051809103906000f0801580156105aa573d6000803e3d6000fd5b50905060006105b761084e565b80546001600160a01b0319166001600160a01b0384169081178255604051919250907ffa34eed64da238c2407dd7738e3b5eea47ec86201786fd3090272f064be4995c90600090a2505050565b60003361060f610872565b6001600160a01b0316148061062357503033145b61063f5760405162461bcd60e51b815260040161026490610ac2565b600061064961084e565b80549091506001600160a01b03166106b85760405162461bcd60e51b815260206004820152602c60248201527f436f6c6c61746572616c546f6b656e466163746f727946616365743a2066616360448201526b1d1bdc9e481b9bdd081cd95d60a21b6064820152608401610264565b60008681526001820160205260409020546001600160a01b0316156107415760405162461bcd60e51b8152602060048201526045602482015260008051602061282483398151915260448201527f656e20616c72656164792065786973747320666f722074686973207472616465606482015264081919585b60da1b608482015260a401610264565b805460405163fd26a8dd60e01b81526000916001600160a01b03169063fd26a8dd90610779908990899033908d908b90600401610b3f565b6020604051808303816000875af1158015610798573d6000803e3d6000fd5b505050506040513d601f19601f820116820180604052508101906107bc9190610a88565b60008881526001840160205260409081902080546001600160a01b0319166001600160a01b03841690811790915590519192509088907f7c056e9ab0bee5455a0e9047d18fb2d08e9dae77d786f32367d6367464d7f45590610821908a908a90610b8d565b60405180910390a39695505050505050565b60008061083e61084e565b546001600160a01b031692915050565b7f61ce3bdf32458cdf3b9732607e7c97fc7d2af4ada4c6d0b8dd9b9d9aea9ba9c390565b7fc8fcad8db84d3cc18b4c41d551ea0ee66dd599cde068d998e57d5e09332c1320546001600160a01b031690565b6112b180610bbc83390190565b6109b780611e6d83390190565b6001600160a01b03811681146108cf57600080fd5b50565b600080604083850312156108e557600080fd5b8235915060208301356108f7816108ba565b809150509250929050565b80151581146108cf57600080fd5b6000806040838503121561092357600080fd5b8235915060208301356108f781610902565b60006020828403121561094757600080fd5b5035919050565b6001600160a01b0391909116815260200190565b634e487b7160e01b600052604160045260246000fd5b600082601f83011261098957600080fd5b81356001600160401b038111156109a2576109a2610962565b604051601f8201601f19908116603f011681016001600160401b03811182821017156109d0576109d0610962565b6040528181528382016020018510156109e857600080fd5b816020850160208301376000918101602001919091529392505050565b60008060008060808587031215610a1b57600080fd5b8435935060208501356001600160401b03811115610a3857600080fd5b610a4487828801610978565b93505060408501356001600160401b03811115610a6057600080fd5b610a6c87828801610978565b9250506060850135610a7d81610902565b939692955090935050565b600060208284031215610a9a57600080fd5b81516104be816108ba565b600060208284031215610ab757600080fd5b81516104be81610902565b6020808252601f908201527f6e6f7420617574686f72697a656420746f2063616c6c2066756e6374696f6e00604082015260600190565b6000815180845260005b81811015610b1f57602081850181015186830182015201610b03565b506000602082860101526020601f19601f83011685010191505092915050565b60a081526000610b5260a0830188610af9565b8281036020840152610b648188610af9565b6001600160a01b0396909616604084015250506060810192909252151560809091015292915050565b604081526000610ba06040830185610af9565b8281036020840152610bb28185610af9565b9594505050505056fe6080604052348015600f57600080fd5b5060166020565b601c6020565b60d0565b7ff0c57e16840df040f15088dc2f81fe391c3923bec73e23a9662efc9c229c6a00805468010000000000000000900460ff1615606f5760405163f92ee8a960e01b815260040160405180910390fd5b80546001600160401b039081161460cd5780546001600160401b0319166001600160401b0390811782556040519081527fc7f505b2f371ae2175ee4913f4499e1f2633a7b5936321eed1cdaeb6115181d29060200160405180910390a15b50565b6111d2806100df6000396000f3fe608060405234801561001057600080fd5b50600436106100fc5760003560e01c806306fdde0314610101578063095ea7b31461011f57806318160ddd146101425780631c04fa941461015857806323b872dd14610161578063313ce5671461017457806340c10f1914610183578063680bb6d5146101985780636a60c3b7146101ab57806370a08231146101cb578063715018a6146101de5780638da5cb5b146101e6578063929066f5146101ee57806395d89b41146102015780639dc29fac14610209578063a9059cbb1461021c578063db6f43651461022f578063dd62ed3e14610242578063f2fde38b14610255578063f31d942b14610268575b600080fd5b610109610275565b6040516101169190610cf9565b60405180910390f35b61013261012d366004610d48565b610316565b6040519015158152602001610116565b61014a61032b565b604051908152602001610116565b61014a60015481565b61013261016f366004610d72565b61033a565b60405160128152602001610116565b610196610191366004610d48565b61038b565b005b6101966101a6366004610dbd565b6103d3565b6000546101be906001600160a01b031681565b6040516101169190610de1565b61014a6101d9366004610df5565b6103ee565b6101966103f9565b6101be61040d565b6101326101fc366004610df5565b610428565b610109610503565b610196610217366004610d48565b610520565b61013261022a366004610d48565b610532565b61019661023d366004610eb3565b610571565b61014a610250366004610f56565b6106a7565b610196610263366004610df5565b6106b3565b6002546101329060ff1681565b606060006102816106f1565b905080600301805461029290610f89565b80601f01602080910402602001604051908101604052809291908181526020018280546102be90610f89565b801561030b5780601f106102e05761010080835404028352916020019161030b565b820191906000526020600020905b8154815290600101906020018083116102ee57829003601f168201915b505050505091505090565b60006103228383610715565b90505b92915050565b6000610335610721565b905090565b60025460009060ff161580610353575061035383610428565b6103785760405162461bcd60e51b815260040161036f90610fc3565b60405180910390fd5b61038384848461072b565b949350505050565b610393610738565b60025460ff1615806103a957506103a982610428565b6103c55760405162461bcd60e51b815260040161036f90610fc3565b6103cf828261076a565b5050565b6103db610738565b6002805460ff1916911515919091179055565b6000610325826107a0565b610401610738565b61040b60006107ab565b565b600080610418610807565b546001600160a01b031692915050565b60025460009060ff1661043d57506001919050565b6000805460015460405160248101919091526001600160a01b0385811660448301528392169060640160408051601f198184030181529181526020820180516001600160e01b0316631718d7af60e01b1790525161049b919061101c565b600060405180830381855afa9150503d80600081146104d6576040519150601f19603f3d011682016040523d82523d6000602084013e6104db565b606091505b5091509150816104ef575060009392505050565b808060200190518101906103839190611038565b6060600061050f6106f1565b905080600401805461029290610f89565b610528610738565b6103cf828261082b565b60025460009060ff16158061054b575061054b83610428565b6105675760405162461bcd60e51b815260040161036f90610fc3565b6103228383610861565b600061057b61086d565b805490915060ff600160401b82041615906001600160401b03166000811580156105a25750825b90506000826001600160401b031660011480156105be5750303b155b9050811580156105cc575080155b156105ea5760405163f92ee8a960e01b815260040160405180910390fd5b84546001600160401b0319166001178555831561061357845460ff60401b1916600160401b1785555b61061d8b8b610896565b610626866108a8565b600080546001600160a01b0319166001600160a01b038b1617905560018890556002805460ff1916881515179055831561069a57845460ff60401b19168555604051600181527fc7f505b2f371ae2175ee4913f4499e1f2633a7b5936321eed1cdaeb6115181d29060200160405180910390a15b5050505050505050505050565b600061032283836108b9565b6106bb610738565b6001600160a01b0381166106e5576000604051631e4fbdf760e01b815260040161036f9190610de1565b6106ee816107ab565b50565b7f52c63247e1f47db19d5ce0460030c497f067ca4cebf71ba98eeadabe20bace0090565b600061032283836108c5565b60006103356108dd565b60006103838484846108f2565b3361074161040d565b6001600160a01b03161461040b573360405163118cdaa760e01b815260040161036f9190610de1565b6001600160a01b03821661079457600060405163ec442f0560e01b815260040161036f9190610de1565b6103cf60008383610916565b600061032582610a3e565b60006107b5610807565b80546001600160a01b038481166001600160a01b031983168117845560405193945091169182907f8be0079c531659141344cd1fd0a4f28419497f9722a3daafe3b4186f6b6457e090600090a3505050565b7f9016d09d72d40fdae2fd8ceac6b6234c7706214fd39c1cd1e609a0528c19930090565b6001600160a01b038216610855576000604051634b637e8f60e11b815260040161036f9190610de1565b6103cf82600083610916565b60006103228383610a69565b6000807ff0c57e16840df040f15088dc2f81fe391c3923bec73e23a9662efc9c229c6a00610325565b61089e610a77565b6103cf8282610a9c565b6108b0610a77565b6106ee81610ad3565b60006103228383610adb565b6000336108d3818585610b17565b5060019392505050565b6000806108e86106f1565b6002015492915050565b600033610900858285610b29565b61090b858585610b77565b506001949350505050565b60006109206106f1565b90506001600160a01b03841661094f57818160020160008282546109449190611055565b909155506109ae9050565b6001600160a01b0384166000908152602082905260409020548281101561098f5784818460405163391434e360e21b815260040161036f93929190611076565b6001600160a01b03851660009081526020839052604090209083900390555b6001600160a01b0383166109cc5760028101805483900390556109eb565b6001600160a01b03831660009081526020829052604090208054830190555b826001600160a01b0316846001600160a01b03167fddf252ad1be2c89b69c2b068fc378daa952ba7f163c4a11628f55a4df523b3ef84604051610a3091815260200190565b60405180910390a350505050565b600080610a496106f1565b6001600160a01b0390931660009081526020939093525050604090205490565b6000336108d3818585610b77565b610a7f610bd6565b61040b57604051631afcd79f60e31b815260040160405180910390fd5b610aa4610a77565b6000610aae6106f1565b905060038101610abe84826110de565b5060048101610acd83826110de565b50505050565b6106bb610a77565b600080610ae66106f1565b6001600160a01b03948516600090815260019190910160209081526040808320959096168252939093525050205490565b610b248383836001610bf0565b505050565b6000610b3584846106a7565b9050600019811015610acd5781811015610b6857828183604051637dc7a0d960e11b815260040161036f93929190611076565b610acd84848484036000610bf0565b6001600160a01b038316610ba1576000604051634b637e8f60e11b815260040161036f9190610de1565b6001600160a01b038216610bcb57600060405163ec442f0560e01b815260040161036f9190610de1565b610b24838383610916565b6000610be061086d565b54600160401b900460ff16919050565b6000610bfa6106f1565b90506001600160a01b038516610c2657600060405163e602df0560e01b815260040161036f9190610de1565b6001600160a01b038416610c50576000604051634a1406b160e11b815260040161036f9190610de1565b6001600160a01b03808616600090815260018301602090815260408083209388168352929052208390558115610cce57836001600160a01b0316856001600160a01b03167f8c5be1e5ebec7d5bd14f71427d1e84f3dd0314c0f7b2291e5b200ac8c7c3b92585604051610cc591815260200190565b60405180910390a35b5050505050565b60005b83811015610cf0578181015183820152602001610cd8565b50506000910152565b6020815260008251806020840152610d18816040850160208701610cd5565b601f01601f19169190910160400192915050565b80356001600160a01b0381168114610d4357600080fd5b919050565b60008060408385031215610d5b57600080fd5b610d6483610d2c565b946020939093013593505050565b600080600060608486031215610d8757600080fd5b610d9084610d2c565b9250610d9e60208501610d2c565b929592945050506040919091013590565b80151581146106ee57600080fd5b600060208284031215610dcf57600080fd5b8135610dda81610daf565b9392505050565b6001600160a01b0391909116815260200190565b600060208284031215610e0757600080fd5b61032282610d2c565b634e487b7160e01b600052604160045260246000fd5b600082601f830112610e3757600080fd5b81356001600160401b03811115610e5057610e50610e10565b604051601f8201601f19908116603f011681016001600160401b0381118282101715610e7e57610e7e610e10565b604052818152838201602001851015610e9657600080fd5b816020850160208301376000918101602001919091529392505050565b60008060008060008060c08789031215610ecc57600080fd5b86356001600160401b03811115610ee257600080fd5b610eee89828a01610e26565b96505060208701356001600160401b03811115610f0a57600080fd5b610f1689828a01610e26565b955050610f2560408801610d2c565b9350606087013592506080870135610f3c81610daf565b9150610f4a60a08801610d2c565b90509295509295509295565b60008060408385031215610f6957600080fd5b610f7283610d2c565b9150610f8060208401610d2c565b90509250929050565b600181811c90821680610f9d57607f821691505b602082108103610fbd57634e487b7160e01b600052602260045260246000fd5b50919050565b60208082526039908201527f52657374726963746564436f6c6c61746572616c546f6b656e3a2072656369706040820152781a595b9d081a5cc81b9bdd0818481c185c9d1a58da5c185b9d603a1b606082015260800190565b6000825161102e818460208701610cd5565b9190910192915050565b60006020828403121561104a57600080fd5b8151610dda81610daf565b8082018082111561032557634e487b7160e01b600052601160045260246000fd5b6001600160a01b039390931683526020830191909152604082015260600190565b601f821115610b2457806000526020600020601f840160051c810160208510156110be5750805b601f840160051c820191505b81811015610cce57600081556001016110ca565b81516001600160401b038111156110f7576110f7610e10565b61110b816111058454610f89565b84611097565b6020601f82116001811461113f57600083156111275750848201515b600019600385901b1c1916600184901b178455610cce565b600084815260208120601f198516915b8281101561116f578785015182556020948501946001909201910161114f565b508482101561118d5786840151600019600387901b60f8161c191681555b50505050600190811b0190555056fea2646970667358221220ec7ce5476eb46c1df9b0264382a0d2f4514ee6fe2a047aecff6af1bde350852f64736f6c634300081c0033608060405234801561001057600080fd5b506040516109b73803806109b783398101604081905261002f916100d4565b338061005557604051631e4fbdf760e01b81526000600482015260240160405180910390fd5b61005e81610084565b50600180546001600160a01b0319166001600160a01b0392909216919091179055610104565b600080546001600160a01b038381166001600160a01b0319831681178455604051919092169283917f8be0079c531659141344cd1fd0a4f28419497f9722a3daafe3b4186f6b6457e09190a35050565b6000602082840312156100e657600080fd5b81516001600160a01b03811681146100fd57600080fd5b9392505050565b6108a4806101136000396000f3fe608060405234801561001057600080fd5b50600436106100995760003560e01c80635c60da1b1461009e578063634282af146100c7578063644b7a43146100da57806367ccdf38146100ed578063715018a61461011657806378a89567146101205780638da5cb5b14610131578063d456254814610139578063d784d42614610162578063f2fde38b14610175578063fd26a8dd14610188575b600080fd5b6001546100b1906001600160a01b031681565b6040516100be91906105e2565b60405180910390f35b6100b16100d53660046105f6565b61019b565b6100b16100e83660046105f6565b6101c5565b6100b16100fb3660046105f6565b6000908152600260205260409020546001600160a01b031690565b61011e610260565b005b6003546040519081526020016100be565b6100b1610274565b6100b16101473660046105f6565b6002602052600090815260409020546001600160a01b031681565b61011e61017036600461062b565b610283565b61011e61018336600461062b565b6102ad565b6100b16101963660046106f0565b6102eb565b600381815481106101ab57600080fd5b6000918252602090912001546001600160a01b0316905081565b60035460009082106102325760405162461bcd60e51b815260206004820152602b60248201527f436f6c6c61746572616c546f6b656e466163746f72793a20696e646578206f7560448201526a74206f6620626f756e647360a81b60648201526084015b60405180910390fd5b600382815481106102455761024561078b565b6000918252602090912001546001600160a01b031692915050565b6102686104b7565b61027260006104e9565b565b6000546001600160a01b031690565b61028b6104b7565b600180546001600160a01b0319166001600160a01b0392909216919091179055565b6102b56104b7565b6001600160a01b0381166102df576000604051631e4fbdf760e01b815260040161022991906105e2565b6102e8816104e9565b50565b60006102f56104b7565b6000838152600260205260409020546001600160a01b031615610382576040805162461bcd60e51b81526020600482015260248101919091527f436f6c6c61746572616c546f6b656e466163746f72793a20746f6b656e20616c60448201527f72656164792065786973747320666f722074686973207472616465206465616c6064820152608401610229565b60015460009061039a906001600160a01b0316610539565b9050806001600160a01b031663db6f436588888888886103b8610274565b6040518763ffffffff1660e01b81526004016103d9969594939291906107e7565b600060405180830381600087803b1580156103f357600080fd5b505af1158015610407573d6000803e3d6000fd5b50505060008581526002602052604080822080546001600160a01b0386166001600160a01b031991821681179092556003805460018101825594527fc2575a0e9e593c00f959f8c92f12db2869c3395a3b0502d05e2516446f71f85b909301805490931681179092555190915085907fcc6bab703d778894c5a2492ec687c950f3a2b101a32ca70efec1a6d547285c49906104a5908b908b90610840565b60405180910390a39695505050505050565b336104c0610274565b6001600160a01b031614610272573360405163118cdaa760e01b815260040161022991906105e2565b600080546001600160a01b038381166001600160a01b0319831681178455604051919092169283917f8be0079c531659141344cd1fd0a4f28419497f9722a3daafe3b4186f6b6457e09190a35050565b600061054682600061054c565b92915050565b6000814710156105785760405163cf47918160e01b815247600482015260248101839052604401610229565b763d602d80600a3d3981f3363d3d373d3d3d363d730000008360601b60e81c176000526e5af43d82803e903d91602b57fd5bf38360781b176020526037600983f090506001600160a01b0381166105465760405163b06ebf3d60e01b815260040160405180910390fd5b6001600160a01b0391909116815260200190565b60006020828403121561060857600080fd5b5035919050565b80356001600160a01b038116811461062657600080fd5b919050565b60006020828403121561063d57600080fd5b6106468261060f565b9392505050565b634e487b7160e01b600052604160045260246000fd5b600082601f83011261067457600080fd5b81356001600160401b0381111561068d5761068d61064d565b604051601f8201601f19908116603f011681016001600160401b03811182821017156106bb576106bb61064d565b6040528181528382016020018510156106d357600080fd5b816020850160208301376000918101602001919091529392505050565b600080600080600060a0868803121561070857600080fd5b85356001600160401b0381111561071e57600080fd5b61072a88828901610663565b95505060208601356001600160401b0381111561074657600080fd5b61075288828901610663565b9450506107616040870161060f565b9250606086013591506080860135801515811461077d57600080fd5b809150509295509295909350565b634e487b7160e01b600052603260045260246000fd5b6000815180845260005b818110156107c7576020818501810151868301820152016107ab565b506000602082860101526020601f19601f83011685010191505092915050565b60c0815260006107fa60c08301896107a1565b828103602084015261080c81896107a1565b6001600160a01b03978816604085015260608401969096525050911515608083015290921660a09092019190915292915050565b60408152600061085360408301856107a1565b828103602084015261086581856107a1565b9594505050505056fea2646970667358221220f5594cad93faecabd0f099e7b6ba85306d910912bf933bd30c291fc0e4616d9864736f6c634300081c0033436f6c6c61746572616c546f6b656e466163746f727946616365743a20746f6ba2646970667358221220db41cf8213055b7d32ec113595b516beb1aeea2f3972b7a583f120fdd23899b364736f6c634300081c0033",
  "libraries": {
    "AddressSet": "0x8aB21bf41B908d9CBee3E78e97033E3916840cA8",
    "AttributeLib": "0x9d0749b64bEDB024B1AaF596c84029E67635D43c",
    "Base64": "0x8d10857B6d2bEA12d67A888F3E995ea142Db701E",
    "Bytes32Set": "0xB01Cf1Baf9ABFa5309AE3ff649B31ae87A80AE62",
    "CarbonCreditLib": "0x44520E8dA039d4D7D460f5DBF6C1eC347De53A7C",
    "DiamondFactoryLib": "0x50353159348c63A448eDAfC6d5ef81CF9C1cdE9a",
    "DiamondLib": "0x2Be86045394c8096b3b9d9449A08Cc74afEd5717",
    "ERC721AEnumerationLib": "0x6a9A6D75AECEfB8dC969D5Ef5ea3EcF57e29706d",
    "ERC721ALib": "0x8F980CBDb943c2794FdA47D82d81a71d31A815DE",
    "Identity": "0x4C6fE457018d32B9aEc2aA99F655b5aCD7d0D658",
    "IdentityFactory": "0x5c970fD1E772548Be3Dc3de62381Fd8b2b3fAb96",
    "IdentitySystemStorage": "0x05d7966Acfa90f529e3844B1d1b7702dBde7789c",
    "LibDiamond": "0x30Fb10d923CfFC1151B8CFe683A937F414854570",
    "MerkleProver": "0x6361c8F2C7Fb1498C15C5e90Ed477ee8cEeC9f5f",
    "MetadataLib": "0xEA17bE869d528F2c3e4F7cae231ebE4BE42BeB75",
    "MultiSaleLib": "0x3b12B21202DaC69552E7b1f9D4D3E31085c7a378",
    "Strings": "0x26375f3210F1F8C90f53c663AC44F3d4a86b12A6",
    "StringsLib": "0x928c0A50586514D291087403befe3540E3631ECd",
    "SVGTemplatesLib": "0xFD3DfE346d5d5c8C90313036BC1b1E3De29FCb33",
    "UInt256Set": "0x908B9bE15117446dE01d076Ecb75D9210E182D97",
    "VariablePriceLib": "0x92E3cBf7226518CF757c48446067de1485CCCcBb"
  },
  "devdoc": {
    "details": "Diamond facet for creating and managing RestrictedCollateralToken instances",
    "kind": "dev",
    "methods": {
      "CollateralTokenFactoryFacet_init()": {
        "details": "Constructor - initializes the factory This is automatically called when the facet is added to the diamond"
      },
      "createCollateralToken(uint256,string,string,bool)": {
        "details": "Create a new RestrictedCollateralToken for a trade deal",
        "params": {
          "_name": "The name of the token",
          "_restrictionsEnabled": "Whether to enforce restrictions on transfers",
          "_symbol": "The symbol of the token",
          "_tradeDealId": "The ID of the trade deal"
        },
        "returns": {
          "_0": "The address of the new token"
        }
      },
      "getCollateralTokenAddress(uint256)": {
        "details": "Get the token address for a trade deal",
        "params": {
          "_tradeDealId": "The ID of the trade deal"
        },
        "returns": {
          "_0": "The address of the token"
        }
      },
      "getCollateralTokenFactory()": {
        "details": "Get the CollateralTokenFactory contract address",
        "returns": {
          "_0": "The address of the CollateralTokenFactory contract (automatically created in the constructor)"
        }
      },
      "isCollateralTokenParticipant(uint256,address)": {
        "details": "Check if an address is a participant in a trade deal",
        "params": {
          "_address": "The address to check",
          "_tradeDealId": "The ID of the trade deal"
        },
        "returns": {
          "_0": "Whether the address is a participant"
        }
      },
      "setCollateralTokenRestrictions(uint256,bool)": {
        "details": "Set restrictions for a token",
        "params": {
          "_restrictionsEnabled": "Whether to enforce restrictions on transfers",
          "_tradeDealId": "The ID of the trade deal"
        }
      }
    },
    "title": "CollateralTokenFactoryFacet",
    "version": 1
  },
  "userdoc": {
    "kind": "user",
    "methods": {},
    "version": 1
  },
  "storageLayout": {
    "storage": [],
    "types": null
  }
}