{
  "address": "0x2277bF15E42E91Bf23e2055950133E36b6cDA5e0",
  "abi": [
    {
      "anonymous": false,
      "inputs": [
        {
          "components": [
            {
              "internalType": "address",
              "name": "facetAddress",
              "type": "address"
            },
            {
              "internalType": "enum IDiamondCut.FacetCutAction",
              "name": "action",
              "type": "uint8"
            },
            {
              "internalType": "bytes4[]",
              "name": "functionSelectors",
              "type": "bytes4[]"
            }
          ],
          "indexed": false,
          "internalType": "struct IDiamondCut.FacetCut[]",
          "name": "_diamondCut",
          "type": "tuple[]"
        },
        {
          "indexed": false,
          "internalType": "address",
          "name": "_init",
          "type": "address"
        },
        {
          "indexed": false,
          "internalType": "bytes",
          "name": "_calldata",
          "type": "bytes"
        }
      ],
      "name": "DiamondCut",
      "type": "event"
    },
    {
      "anonymous": false,
      "inputs": [
        {
          "indexed": true,
          "internalType": "address",
          "name": "canceller",
          "type": "address"
        }
      ],
      "name": "DiamondCutCancelled",
      "type": "event"
    },
    {
      "anonymous": false,
      "inputs": [
        {
          "indexed": true,
          "internalType": "address",
          "name": "proposer",
          "type": "address"
        },
        {
          "indexed": true,
          "internalType": "uint256",
          "name": "proposalTime",
          "type": "uint256"
        },
        {
          "indexed": false,
          "internalType": "uint256",
          "name": "executionTime",
          "type": "uint256"
        }
      ],
      "name": "DiamondCutProposed",
      "type": "event"
    },
    {
      "inputs": [],
      "name": "cancelDiamondCut",
      "outputs": [],
      "stateMutability": "nonpayable",
      "type": "function"
    },
    {
      "inputs": [
        {
          "components": [
            {
              "internalType": "address",
              "name": "facetAddress",
              "type": "address"
            },
            {
              "internalType": "enum IDiamondCut.FacetCutAction",
              "name": "action",
              "type": "uint8"
            },
            {
              "internalType": "bytes4[]",
              "name": "functionSelectors",
              "type": "bytes4[]"
            }
          ],
          "internalType": "struct IDiamondCut.FacetCut[]",
          "name": "",
          "type": "tuple[]"
        },
        {
          "internalType": "address",
          "name": "",
          "type": "address"
        },
        {
          "internalType": "bytes",
          "name": "",
          "type": "bytes"
        }
      ],
      "name": "diamondCut",
      "outputs": [],
      "stateMutability": "pure",
      "type": "function"
    },
    {
      "inputs": [],
      "name": "executeDiamondCut",
      "outputs": [],
      "stateMutability": "nonpayable",
      "type": "function"
    },
    {
      "inputs": [
        {
          "components": [
            {
              "internalType": "address",
              "name": "facetAddress",
              "type": "address"
            },
            {
              "internalType": "enum IDiamondCut.FacetCutAction",
              "name": "action",
              "type": "uint8"
            },
            {
              "internalType": "bytes4[]",
              "name": "functionSelectors",
              "type": "bytes4[]"
            }
          ],
          "internalType": "struct IDiamondCut.FacetCut[]",
          "name": "_diamondCut",
          "type": "tuple[]"
        },
        {
          "internalType": "address",
          "name": "_init",
          "type": "address"
        },
        {
          "internalType": "bytes",
          "name": "_calldata",
          "type": "bytes"
        }
      ],
      "name": "proposeDiamondCut",
      "outputs": [],
      "stateMutability": "nonpayable",
      "type": "function"
    }
  ],
  "transactionHash": "0x56a2959138ee9b1cdbb7647af3d1ef20797ea632597c8693598645e5ab03e29e",
  "args": [],
  "numDeployments": 1,
  "solcInputHash": "f3692121488f56f72e7047b22b2520f2",
  "bytecode": "0x6080604052348015600f57600080fd5b506120488061001f6000396000f3fe608060405234801561001057600080fd5b506004361061004c5760003560e01c80631f931c1c146100515780636fb0599814610066578063bbf2358e1461006e578063f37a5da014610081575b600080fd5b61006461005f3660046118dc565b610089565b005b61006461010f565b61006461007c3660046118dc565b610121565b61006461017a565b60405162461bcd60e51b815260206004820152604a60248201527f46756e6374696f6e20646570726563617465643a205573652070726f706f736560448201527f4469616d6f6e644375742829202b20657865637574654469616d6f6e644375746064820152690a0a481a5b9cdd19585960b21b608482015260a4015b60405180910390fd5b61011761018a565b61011f6101f8565b565b61012961018a565b6101736101368587611a23565b8484848080601f01602080910402602001604051908101604052809392919081815260200183838082843760009201919091525061029b92505050565b5050505050565b61018261018a565b61011f6107d6565b610192610a90565b600401546001600160a01b0316331461011f5760405162461bcd60e51b815260206004820152602260248201527f4c69624469616d6f6e643a204d75737420626520636f6e7472616374206f776e60448201526132b960f11b6064820152608401610106565b6000610202610a90565b600a81015490915060ff166102295760405162461bcd60e51b815260040161010690611b65565b60068101600061023982826117ae565b6001820180546001600160a01b03191690556102596002830160006117d2565b506000600382018190556004909101805460ff1916905560405133917fde8f30fefd36ba49bcf89e333c7bafb2b3b3bad08938db1630376b2a66b15f6c91a250565b60006102a5610a90565b600a81015490915060ff16156103095760405162461bcd60e51b8152602060048201526024808201527f4c69624469616d6f6e643a205570677261646520616c72656164792070726f706044820152631bdcd95960e21b6064820152608401610106565b60008160050154116103695760405162461bcd60e51b8152602060048201526024808201527f4c69624469616d6f6e643a2054696d656c6f636b206e6f7420696e697469616c6044820152631a5e995960e21b6064820152608401610106565b600084516001600160401b0381111561038457610384611992565b6040519080825280602002602001820160405280156103d157816020015b604080516060808201835260008083526020830152918101919091528152602001906001900390816103a25790505b50905060005b855181101561053a578581815181106103f2576103f2611bab565b602002602001015182828151811061040c5761040c611bab565b6020026020010181905250600086828151811061042b5761042b611bab565b602002602001015160400151516001600160401b0381111561044f5761044f611992565b604051908082528060200260200182016040528015610478578160200160208202803683370190505b50905060005b87838151811061049057610490611bab565b6020026020010151604001515181101561050e578783815181106104b6576104b6611bab565b60200260200101516040015181815181106104d3576104d3611bab565b60200260200101518282815181106104ed576104ed611bab565b6001600160e01b03199092166020928302919091019091015260010161047e565b508083838151811061052257610522611bab565b602090810291909101015160400152506001016103d7565b506105496006830160006117ae565b60005b8551811015610747576006830180546001018155600052855186908290811061057757610577611bab565b60200260200101516000015183600601600001828154811061059b5761059b611bab565b906000526020600020906002020160000160006101000a8154816001600160a01b0302191690836001600160a01b031602179055508581815181106105e2576105e2611bab565b60200260200101516020015183600601600001828154811061060657610606611bab565b906000526020600020906002020160000160146101000a81548160ff0219169083600281111561063857610638611bc1565b02179055506006830180548290811061065357610653611bab565b90600052602060002090600202016001016000610670919061180c565b60005b86828151811061068557610685611bab565b6020026020010151604001515181101561073e57600684018054839081106106af576106af611bab565b90600052602060002090600202016001018783815181106106d2576106d2611bab565b60200260200101516040015182815181106106ef576106ef611bab565b6020908102919091018101518254600180820185556000948552929093206008840401805463ffffffff60079095166004026101000a948502191660e09290921c939093021790915501610673565b5060010161054c565b506007820180546001600160a01b0319166001600160a01b038616179055600882016107738482611c58565b504260098301819055600a8301805460ff19166001179055600583015433907f11c0a67eabfbe53177aaac87bbbb2f9c5730614d4c5c6a6ec177e86ddfe5c7e0906107be9084611d2c565b60405190815260200160405180910390a35050505050565b60006107e0610a90565b600a81015490915060ff166108075760405162461bcd60e51b815260040161010690611b65565b6005810154600982015461081b9190611d2c565b42101561087a5760405162461bcd60e51b815260206004820152602760248201527f4c69624469616d6f6e643a2054696d656c6f636b20706572696f64206e6f7420604482015266195b185c1cd95960ca1b6064820152608401610106565b610a4a81600601600001805480602002602001604051908101604052809291908181526020016000905b828210156109a35760008481526020908190206040805160608101909152600285810290920180546001600160a01b03811683529193909290840191600160a01b900460ff16908111156108fa576108fa611bc1565b600281111561090b5761090b611bc1565b81526020016001820180548060200260200160405190810160405280929190818152602001828054801561098b57602002820191906000526020600020906000905b82829054906101000a900460e01b6001600160e01b0319168152602001906004019060208260030104928301926001038202915080841161094d5790505b505050505081525050815260200190600101906108a4565b5050505060078301546008840180546001600160a01b03909216916109c790611bd7565b80601f01602080910402602001604051908101604052809291908181526020018280546109f390611bd7565b8015610a405780601f10610a1557610100808354040283529160200191610a40565b820191906000526020600020905b815481529060010190602001808311610a2357829003601f168201915b5050505050610ab4565b600681016000610a5a82826117ae565b6001820180546001600160a01b0319169055610a7a6002830160006117d2565b5060006003820155600401805460ff1916905550565b7fc8fcad8db84d3cc18b4c41d551ea0ee66dd599cde068d998e57d5e09332c131c90565b60005b8351811015610c70576000848281518110610ad457610ad4611bab565b602002602001015160200151905060006002811115610af557610af5611bc1565b816002811115610b0757610b07611bc1565b03610b5557610b50858381518110610b2157610b21611bab565b602002602001015160000151868481518110610b3f57610b3f611bab565b602002602001015160400151610cbb565b610c67565b6001816002811115610b6957610b69611bc1565b03610bb257610b50858381518110610b8357610b83611bab565b602002602001015160000151868481518110610ba157610ba1611bab565b602002602001015160400151610e29565b6002816002811115610bc657610bc6611bc1565b03610c0f57610b50858381518110610be057610be0611bab565b602002602001015160000151868481518110610bfe57610bfe611bab565b602002602001015160400151610faa565b60405162461bcd60e51b815260206004820152602760248201527f4c69624469616d6f6e644375743a20496e636f727265637420466163657443756044820152663a20b1ba34b7b760c91b6064820152608401610106565b50600101610ab7565b507f8faa70878671ccd212d20771b795c50af8fd3ff6cf27f4bde57e5d4de0aeb673838383604051610ca493929190611d95565b60405180910390a1610cb682826110ba565b505050565b6000815111610cdc5760405162461bcd60e51b815260040161010690611ea4565b6000610ce6610a90565b90506001600160a01b038316610d0e5760405162461bcd60e51b815260040161010690611eef565b6001600160a01b0383166000908152600182016020526040812054906001600160601b0382169003610d4457610d4482856112c6565b60005b8351811015610173576000848281518110610d6457610d64611bab565b6020908102919091018101516001600160e01b031981166000908152918690526040909120549091506001600160a01b03168015610e025760405162461bcd60e51b815260206004820152603560248201527f4c69624469616d6f6e644375743a2043616e2774206164642066756e6374696f6044820152746e207468617420616c72656164792065786973747360581b6064820152608401610106565b610e0e8583868a611330565b83610e1881611f3b565b94505060019092019150610d479050565b6000815111610e4a5760405162461bcd60e51b815260040161010690611ea4565b6000610e54610a90565b90506001600160a01b038316610e7c5760405162461bcd60e51b815260040161010690611eef565b6001600160a01b0383166000908152600182016020526040812054906001600160601b0382169003610eb257610eb282856112c6565b60005b8351811015610173576000848281518110610ed257610ed2611bab565b6020908102919091018101516001600160e01b031981166000908152918690526040909120549091506001600160a01b039081169087168103610f785760405162461bcd60e51b815260206004820152603860248201527f4c69624469616d6f6e644375743a2043616e2774207265706c6163652066756e60448201527731ba34b7b7103bb4ba341039b0b6b290333ab731ba34b7b760411b6064820152608401610106565b610f838582846113d0565b610f8f8583868a611330565b83610f9981611f3b565b94505060019092019150610eb59050565b6000815111610fcb5760405162461bcd60e51b815260040161010690611ea4565b6000610fd5610a90565b90506001600160a01b0383161561104d5760405162461bcd60e51b815260206004820152603660248201527f4c69624469616d6f6e644375743a2052656d6f76652066616365742061646472604482015275657373206d757374206265206164647265737328302960501b6064820152608401610106565b60005b82518110156110b457600083828151811061106d5761106d611bab565b6020908102919091018101516001600160e01b031981166000908152918590526040909120549091506001600160a01b03166110aa8482846113d0565b5050600101611050565b50505050565b6001600160a01b0382166111405780511561113c5760405162461bcd60e51b815260206004820152603c60248201527f4c69624469616d6f6e644375743a205f696e697420697320616464726573732860448201527b3029206275745f63616c6c64617461206973206e6f7420656d70747960201b6064820152608401610106565b5050565b60008151116111b75760405162461bcd60e51b815260206004820152603d60248201527f4c69624469616d6f6e644375743a205f63616c6c6461746120697320656d707460448201527f7920627574205f696e6974206973206e6f7420616464726573732830290000006064820152608401610106565b6001600160a01b03821630146111e9576111e982604051806060016040528060288152602001611fc76028913961178d565b600080836001600160a01b0316836040516112049190611f67565b600060405180830381855af49150503d806000811461123f576040519150601f19603f3d011682016040523d82523d6000602084013e611244565b606091505b5091509150816110b45780511561126f578060405162461bcd60e51b81526004016101069190611f83565b60405162461bcd60e51b815260206004820152602660248201527f4c69624469616d6f6e644375743a205f696e69742066756e6374696f6e2072656044820152651d995c9d195960d21b6064820152608401610106565b6112e881604051806060016040528060248152602001611fef6024913961178d565b6002820180546001600160a01b0390921660008181526001948501602090815260408220860185905594840183559182529290200180546001600160a01b0319169091179055565b6001600160e01b0319831660008181526020868152604080832080546001600160601b03909716600160a01b026001600160a01b0397881617815594909516808352600180890183529583208054968701815583528183206008870401805460e09890981c60046007909816979097026101000a96870263ffffffff9097021990971695909517909555529290915281546001600160a01b031916179055565b6001600160a01b0382166114465760405162461bcd60e51b815260206004820152603760248201527f4c69624469616d6f6e644375743a2043616e27742072656d6f76652066756e636044820152761d1a5bdb881d1a185d08191bd95cdb89dd08195e1a5cdd604a1b6064820152608401610106565b306001600160a01b038316036114b55760405162461bcd60e51b815260206004820152602e60248201527f4c69624469616d6f6e644375743a2043616e27742072656d6f766520696d6d7560448201526d3a30b1363290333ab731ba34b7b760911b6064820152608401610106565b6001600160e01b03198116600090815260208481526040808320546001600160a01b0386168452600180880190935290832054600160a01b9091046001600160601b0316929161150491611f9d565b90508082146115f6576001600160a01b0384166000908152600186016020526040812080548390811061153957611539611bab565b600091825260208083206008830401546001600160a01b038916845260018a019091526040909220805460079092166004026101000a90920460e01b92508291908590811061158a5761158a611bab565b600091825260208083206008830401805463ffffffff60079094166004026101000a938402191660e09590951c929092029390931790556001600160e01b03199290921682528690526040902080546001600160a01b0316600160a01b6001600160601b038516021790555b6001600160a01b0384166000908152600186016020526040902080548061161f5761161f611fb0565b60008281526020808220600860001990940193840401805463ffffffff600460078716026101000a0219169055919092556001600160e01b0319851682528690526040812081905581900361017357600285015460009061168290600190611f9d565b6001600160a01b03861660009081526001808901602052604090912001549091508082146117315760008760020183815481106116c1576116c1611bab565b6000918252602090912001546002890180546001600160a01b0390921692508291849081106116f2576116f2611bab565b600091825260208083209190910180546001600160a01b0319166001600160a01b03948516179055929091168152600189810190925260409020018190555b8660020180548061174457611744611fb0565b60008281526020808220830160001990810180546001600160a01b03191690559092019092556001600160a01b0388168252600189810190915260408220015550505050505050565b813b81816110b45760405162461bcd60e51b81526004016101069190611f83565b50805460008255600202906000526020600020908101906117cf9190611831565b50565b5080546117de90611bd7565b6000825580601f106117ee575050565b601f0160209004906000526020600020908101906117cf9190611863565b5080546000825560070160089004906000526020600020908101906117cf9190611863565b8082111561185f5780546001600160a81b03191681556000611856600183018261180c565b50600201611831565b5090565b5b8082111561185f5760008155600101611864565b80356001600160a01b038116811461188f57600080fd5b919050565b60008083601f8401126118a657600080fd5b5081356001600160401b038111156118bd57600080fd5b6020830191508360208285010111156118d557600080fd5b9250929050565b6000806000806000606086880312156118f457600080fd5b85356001600160401b0381111561190a57600080fd5b8601601f8101881361191b57600080fd5b80356001600160401b0381111561193157600080fd5b8860208260051b840101111561194657600080fd5b60209182019650945061195a908701611878565b925060408601356001600160401b0381111561197557600080fd5b61198188828901611894565b969995985093965092949392505050565b634e487b7160e01b600052604160045260246000fd5b604051606081016001600160401b03811182821017156119ca576119ca611992565b60405290565b604051601f8201601f191681016001600160401b03811182821017156119f8576119f8611992565b604052919050565b60006001600160401b03821115611a1957611a19611992565b5060051b60200190565b6000611a36611a3184611a00565b6119d0565b8381526020810190600585901b840136811115611a5257600080fd5b845b81811015611b5a5780356001600160401b03811115611a7257600080fd5b86016060368290031215611a8557600080fd5b611a8d6119a8565b611a9682611878565b8152602082013560038110611aaa57600080fd5b602082015260408201356001600160401b03811115611ac857600080fd5b919091019036601f830112611adc57600080fd5b8135611aea611a3182611a00565b8082825260208201915060208360051b860101925036831115611b0c57600080fd5b6020850194505b82851015611b445784356001600160e01b031981168114611b3357600080fd5b825260209485019490910190611b13565b6040840152505085525060209384019301611a54565b509095945050505050565b60208082526026908201527f4c69624469616d6f6e643a204e6f20757067726164652070726f706f73616c2060408201526565786973747360d01b606082015260800190565b634e487b7160e01b600052603260045260246000fd5b634e487b7160e01b600052602160045260246000fd5b600181811c90821680611beb57607f821691505b602082108103611c0b57634e487b7160e01b600052602260045260246000fd5b50919050565b601f821115610cb657806000526020600020601f840160051c81016020851015611c385750805b601f840160051c820191505b818110156101735760008155600101611c44565b81516001600160401b03811115611c7157611c71611992565b611c8581611c7f8454611bd7565b84611c11565b6020601f821160018114611cb95760008315611ca15750848201515b600019600385901b1c1916600184901b178455610173565b600084815260208120601f198516915b82811015611ce95787850151825560209485019460019092019101611cc9565b5084821015611d075786840151600019600387901b60f8161c191681555b50505050600190811b01905550565b634e487b7160e01b600052601160045260246000fd5b80820180821115611d3f57611d3f611d16565b92915050565b60005b83811015611d60578181015183820152602001611d48565b50506000910152565b60008151808452611d81816020860160208601611d45565b601f01601f19169290920160200192915050565b6000606082016060835280865180835260808501915060808160051b86010192506020880160005b82811015611e7557868503607f19018452815180516001600160a01b031686526020810151606087019060038110611e0557634e487b7160e01b600052602160045260246000fd5b806020890152506040820151915060606040880152808251808352608089019150602084019350600092505b80831015611e5d5783516001600160e01b03191682526020938401936001939093019290910190611e31565b50965050506020938401939190910190600101611dbd565b5050506001600160a01b0386166020850152508281036040840152611e9a8185611d69565b9695505050505050565b6020808252602b908201527f4c69624469616d6f6e644375743a204e6f2073656c6563746f727320696e206660408201526a1858d95d081d1bc818dd5d60aa1b606082015260800190565b6020808252602c908201527f4c69624469616d6f6e644375743a204164642066616365742063616e2774206260408201526b65206164647265737328302960a01b606082015260800190565b60006001600160601b0382166002600160601b03198101611f5e57611f5e611d16565b60010192915050565b60008251611f79818460208701611d45565b9190910192915050565b602081526000611f966020830184611d69565b9392505050565b81810381811115611d3f57611d3f611d16565b634e487b7160e01b600052603160045260246000fdfe4c69624469616d6f6e644375743a205f696e6974206164647265737320686173206e6f20636f64654c69624469616d6f6e644375743a204e657720666163657420686173206e6f20636f6465a264697066735822122012cd657036b877188397fdd9f87ceac7e6f29fccdac36ef566070af8517a5b8464736f6c634300081c0033",
  "libraries": {
    "AddressSet": "0x8aB21bf41B908d9CBee3E78e97033E3916840cA8",
    "AttributeLib": "0x9d0749b64bEDB024B1AaF596c84029E67635D43c",
    "Base64": "0x8d10857B6d2bEA12d67A888F3E995ea142Db701E",
    "Bytes32Set": "0xB01Cf1Baf9ABFa5309AE3ff649B31ae87A80AE62",
    "CarbonCreditLib": "0x44520E8dA039d4D7D460f5DBF6C1eC347De53A7C",
    "DiamondFactoryLib": "0x50353159348c63A448eDAfC6d5ef81CF9C1cdE9a",
    "DiamondLib": "0x2Be86045394c8096b3b9d9449A08Cc74afEd5717",
    "ERC721AEnumerationLib": "0x6a9A6D75AECEfB8dC969D5Ef5ea3EcF57e29706d",
    "ERC721ALib": "0x8F980CBDb943c2794FdA47D82d81a71d31A815DE",
    "Identity": "0x4C6fE457018d32B9aEc2aA99F655b5aCD7d0D658",
    "IdentityFactory": "0x5c970fD1E772548Be3Dc3de62381Fd8b2b3fAb96",
    "IdentitySystemStorage": "0x05d7966Acfa90f529e3844B1d1b7702dBde7789c",
    "LibDiamond": "0x30Fb10d923CfFC1151B8CFe683A937F414854570",
    "MerkleProver": "0x6361c8F2C7Fb1498C15C5e90Ed477ee8cEeC9f5f",
    "MetadataLib": "0xEA17bE869d528F2c3e4F7cae231ebE4BE42BeB75",
    "MultiSaleLib": "0x3b12B21202DaC69552E7b1f9D4D3E31085c7a378",
    "Strings": "0x26375f3210F1F8C90f53c663AC44F3d4a86b12A6",
    "StringsLib": "0x928c0A50586514D291087403befe3540E3631ECd",
    "SVGTemplatesLib": "0xFD3DfE346d5d5c8C90313036BC1b1E3De29FCb33",
    "UInt256Set": "0x908B9bE15117446dE01d076Ecb75D9210E182D97",
    "VariablePriceLib": "0x92E3cBf7226518CF757c48446067de1485CCCcBb"
  },
  "devdoc": {
    "details": "Implementation of the diamond cut functionality with a timelock mechanism.      The diamond cut operation allows adding, replacing, or removing facets and functions      from the diamond proxy contract. This implementation adds a security timelock      that requires a two-step process (propose and execute) for diamond cuts,      enhancing security by allowing time for review before execution.      Based on the EIP-2535 Diamond Standard.",
    "kind": "dev",
    "methods": {
      "cancelDiamondCut()": {
        "custom:security": "Only callable by the contract owner",
        "details": "Allows the contract owner to cancel a pending diamond cut proposal      before it is executed. This is useful if errors are found in the      proposed changes during the timelock period or if the changes      are no longer desired. Once cancelled, the proposal is completely      removed and a new proposal would need to be submitted if needed."
      },
      "diamondCut((address,uint8,bytes4[])[],address,bytes)": {
        "custom:security": "Always reverts with an error message directing to the new functions",
        "details": "THIS FUNCTION IS DEPRECATED and will always revert when called.      It has been replaced by the more secure two-step process using      proposeDiamondCut() followed by executeDiamondCut(), which adds a timelock      security feature. This function remains to maintain compatibility with      the IDiamondCut interface but cannot be used."
      },
      "executeDiamondCut()": {
        "custom:security": "Reverts if no diamond cut is proposed, if the timelock period                  hasn't expired, or if the initialization call fails",
        "details": "Second and final step in the two-step diamond modification process.      This executes the changes that were previously proposed, but only if      the required timelock period has passed. The timelock period is a      security measure to allow stakeholders time to review proposed changes.      Only the contract owner can execute the diamond cut."
      },
      "proposeDiamondCut((address,uint8,bytes4[])[],address,bytes)": {
        "details": "First step in the two-step process for modifying the diamond. This queues up      changes that can only be executed after a predefined timelock period.      Only the contract owner can propose changes.",
        "params": {
          "_calldata": "A function call, including function selector and arguments, for initialization",
          "_diamondCut": "Contains the facet addresses and function selectors to add, replace, or remove",
          "_init": "The address of the contract or facet to execute initialization code"
        }
      }
    },
    "title": "DiamondCutFacet",
    "version": 1
  },
  "userdoc": {
    "kind": "user",
    "methods": {
      "cancelDiamondCut()": {
        "notice": "Cancel a previously proposed diamond cut"
      },
      "diamondCut((address,uint8,bytes4[])[],address,bytes)": {
        "notice": "Add/replace/remove any number of functions and optionally execute initialization code"
      },
      "executeDiamondCut()": {
        "notice": "Execute a previously proposed diamond cut after the timelock period has elapsed"
      },
      "proposeDiamondCut((address,uint8,bytes4[])[],address,bytes)": {
        "notice": "Propose a diamond cut to be executed after the timelock period"
      }
    },
    "version": 1
  },
  "storageLayout": {
    "storage": [],
    "types": null
  }
}