{
  "address": "0x3421fcCa9c15D9564AD8aFBC75516D70Ff74Cb0b",
  "abi": [
    {
      "inputs": [
        {
          "internalType": "bytes4",
          "name": "_functionSelector",
          "type": "bytes4"
        }
      ],
      "name": "facetAddress",
      "outputs": [
        {
          "internalType": "address",
          "name": "facetAddress_",
          "type": "address"
        }
      ],
      "stateMutability": "view",
      "type": "function"
    },
    {
      "inputs": [],
      "name": "facetAddresses",
      "outputs": [
        {
          "internalType": "address[]",
          "name": "facetAddresses_",
          "type": "address[]"
        }
      ],
      "stateMutability": "view",
      "type": "function"
    },
    {
      "inputs": [
        {
          "internalType": "address",
          "name": "_facet",
          "type": "address"
        }
      ],
      "name": "facetFunctionSelectors",
      "outputs": [
        {
          "internalType": "bytes4[]",
          "name": "facetFunctionSelectors_",
          "type": "bytes4[]"
        }
      ],
      "stateMutability": "view",
      "type": "function"
    },
    {
      "inputs": [],
      "name": "facets",
      "outputs": [
        {
          "components": [
            {
              "internalType": "address",
              "name": "facetAddress",
              "type": "address"
            },
            {
              "internalType": "bytes4[]",
              "name": "functionSelectors",
              "type": "bytes4[]"
            }
          ],
          "internalType": "struct IDiamondLoupe.Facet[]",
          "name": "facets_",
          "type": "tuple[]"
        }
      ],
      "stateMutability": "view",
      "type": "function"
    },
    {
      "inputs": [
        {
          "internalType": "bytes4",
          "name": "_interfaceId",
          "type": "bytes4"
        }
      ],
      "name": "supportsInterface",
      "outputs": [
        {
          "internalType": "bool",
          "name": "",
          "type": "bool"
        }
      ],
      "stateMutability": "view",
      "type": "function"
    }
  ],
  "transactionHash": "0xbbb4c0a176237c73360a5caadd75dd80b4e872962c17bb7727b11a67d04bf474",
  "args": [],
  "numDeployments": 1,
  "solcInputHash": "f3692121488f56f72e7047b22b2520f2",
  "bytecode": "0x6080604052348015600f57600080fd5b5061064d8061001f6000396000f3fe608060405234801561001057600080fd5b50600436106100575760003560e01c806301ffc9a71461005c57806352ef6b2c146100845780637a0ed62714610099578063adfca15e146100ae578063cdffacc6146100ce575b600080fd5b61006f61006a36600461046e565b6100f9565b60405190151581526020015b60405180910390f35b61008c610162565b60405161007b9190610498565b6100a16101ce565b60405161007b919061052a565b6100c16100bc3660046105af565b61036b565b60405161007b91906105d8565b6100e16100dc36600461046e565b610415565b6040516001600160a01b03909116815260200161007b565b60008061010461044a565b90506001600160e01b031983166301ffc9a760e01b148061013557506001600160e01b031983166348e2b09360e01b145b8061015b57506001600160e01b03198316600090815260038201602052604090205460ff165b9392505050565b6060600061016e61044a565b600281018054604080516020808402820181019092528281529394508301828280156101c357602002820191906000526020600020905b81546001600160a01b031681526001909101906020018083116101a5575b505050505091505090565b606060006101da61044a565b6002810154909150806001600160401b038111156101fa576101fa6105eb565b60405190808252806020026020018201604052801561024057816020015b6040805180820190915260008152606060208201528152602001906001900390816102185790505b50925060005b8181101561036557600083600201828154811061026557610265610601565b9060005260206000200160009054906101000a90046001600160a01b031690508085838151811061029857610298610601565b6020908102919091018101516001600160a01b03928316905290821660009081526001860182526040908190208054825181850281018501909352808352919290919083018282801561033757602002820191906000526020600020906000905b82829054906101000a900460e01b6001600160e01b031916815260200190600401906020826003010492830192600103820291508084116102f95790505b505050505085838151811061034e5761034e610601565b602090810291909101810151015250600101610246565b50505090565b6060600061037761044a565b6001600160a01b0384166000908152600182016020908152604091829020805483518184028101840190945280845293945091929083018282801561040857602002820191906000526020600020906000905b82829054906101000a900460e01b6001600160e01b031916815260200190600401906020826003010492830192600103820291508084116103ca5790505b5050505050915050919050565b60008061042061044a565b6001600160e01b03199093166000908152602093909352505060409020546001600160a01b031690565b7fc8fcad8db84d3cc18b4c41d551ea0ee66dd599cde068d998e57d5e09332c131c90565b60006020828403121561048057600080fd5b81356001600160e01b03198116811461015b57600080fd5b602080825282518282018190526000918401906040840190835b818110156104d95783516001600160a01b03168352602093840193909201916001016104b2565b509095945050505050565b600081518084526020840193506020830160005b828110156105205781516001600160e01b0319168652602095860195909101906001016104f8565b5093949350505050565b6000602082016020835280845180835260408501915060408160051b86010192506020860160005b828110156105a357868503603f19018452815180516001600160a01b0316865260209081015160409187018290529061058d908701826104e4565b9550506020938401939190910190600101610552565b50929695505050505050565b6000602082840312156105c157600080fd5b81356001600160a01b038116811461015b57600080fd5b60208152600061015b60208301846104e4565b634e487b7160e01b600052604160045260246000fd5b634e487b7160e01b600052603260045260246000fdfea264697066735822122003dfccfcbab55c2bcc16293492bc08cc255dbef2a8afe5a172fc48e117f5630e64736f6c634300081c0033",
  "libraries": {
    "AddressSet": "0x8aB21bf41B908d9CBee3E78e97033E3916840cA8",
    "AttributeLib": "0x9d0749b64bEDB024B1AaF596c84029E67635D43c",
    "Base64": "0x8d10857B6d2bEA12d67A888F3E995ea142Db701E",
    "Bytes32Set": "0xB01Cf1Baf9ABFa5309AE3ff649B31ae87A80AE62",
    "CarbonCreditLib": "0x44520E8dA039d4D7D460f5DBF6C1eC347De53A7C",
    "DiamondFactoryLib": "0x50353159348c63A448eDAfC6d5ef81CF9C1cdE9a",
    "DiamondLib": "0x2Be86045394c8096b3b9d9449A08Cc74afEd5717",
    "ERC721AEnumerationLib": "0x6a9A6D75AECEfB8dC969D5Ef5ea3EcF57e29706d",
    "ERC721ALib": "0x8F980CBDb943c2794FdA47D82d81a71d31A815DE",
    "Identity": "0x4C6fE457018d32B9aEc2aA99F655b5aCD7d0D658",
    "IdentityFactory": "0x5c970fD1E772548Be3Dc3de62381Fd8b2b3fAb96",
    "IdentitySystemStorage": "0x05d7966Acfa90f529e3844B1d1b7702dBde7789c",
    "LibDiamond": "0x30Fb10d923CfFC1151B8CFe683A937F414854570",
    "MerkleProver": "0x6361c8F2C7Fb1498C15C5e90Ed477ee8cEeC9f5f",
    "MetadataLib": "0xEA17bE869d528F2c3e4F7cae231ebE4BE42BeB75",
    "MultiSaleLib": "0x3b12B21202DaC69552E7b1f9D4D3E31085c7a378",
    "Strings": "0x26375f3210F1F8C90f53c663AC44F3d4a86b12A6",
    "StringsLib": "0x928c0A50586514D291087403befe3540E3631ECd",
    "SVGTemplatesLib": "0xFD3DfE346d5d5c8C90313036BC1b1E3De29FCb33",
    "UInt256Set": "0x908B9bE15117446dE01d076Ecb75D9210E182D97",
    "VariablePriceLib": "0x92E3cBf7226518CF757c48446067de1485CCCcBb"
  },
  "devdoc": {
    "details": "Implementation of the DiamondLoupe standard which provides introspection functions      to view what facets and functions are available in the diamond contract.      The Diamond Loupe functions make it possible to look up facets and functions      implemented by a diamond. This implementation is based on the EIP-2535 Diamond Standard.",
    "kind": "dev",
    "methods": {
      "facetAddress(bytes4)": {
        "details": "Used to determine which implementation contract handles a particular function.      This function is critical for understanding the diamond's current function routing.      If no facet is found for the selector, returns address(0).",
        "params": {
          "_functionSelector": "The 4-byte function selector to find the implementation for"
        },
        "returns": {
          "facetAddress_": "The facet address implementing the function, or address(0) if not found"
        }
      },
      "facetAddresses()": {
        "details": "Provides a complete list of implementation contracts that make up the diamond's functionality",
        "returns": {
          "facetAddresses_": "Array of all registered facet addresses"
        }
      },
      "facetFunctionSelectors(address)": {
        "details": "Used to retrieve all function selectors managed by a single facet implementation",
        "params": {
          "_facet": "The facet address to query"
        },
        "returns": {
          "facetFunctionSelectors_": "Array of function selectors (bytes4) supported by the facet"
        }
      },
      "facets()": {
        "details": "This function is used to inspect the full facet structure of the diamond",
        "returns": {
          "facets_": "An array of Facet structs containing the facet addresses and         their associated function selectors"
        }
      },
      "supportsInterface(bytes4)": {
        "details": "ERC-165 implementation that checks if the diamond supports a specific interface.      Returns true for IDiamondLoupe and IERC165 interfaces, and any additional      interfaces registered with the diamond.",
        "params": {
          "_interfaceId": "The interface identifier to check, as specified in ERC-165"
        },
        "returns": {
          "_0": "True if the contract implements the interface, false otherwise"
        }
      }
    },
    "title": "DiamondLoupeFacet",
    "version": 1
  },
  "userdoc": {
    "kind": "user",
    "methods": {
      "facetAddress(bytes4)": {
        "notice": "Gets the facet address that implements a specific function"
      },
      "facetAddresses()": {
        "notice": "Get all the facet addresses registered in the diamond"
      },
      "facetFunctionSelectors(address)": {
        "notice": "Gets all the function selectors supported by a specific facet"
      },
      "facets()": {
        "notice": "Gets all facets and their selectors that are registered with the diamond"
      },
      "supportsInterface(bytes4)": {
        "notice": "Checks if the contract implements an interface"
      }
    },
    "version": 1
  },
  "storageLayout": {
    "storage": [],
    "types": null
  }
}