{
  "address": "0x4376001036419D5713F08a708BDC28c10a74AEea",
  "abi": [
    {
      "inputs": [],
      "stateMutability": "nonpayable",
      "type": "constructor"
    },
    {
      "inputs": [],
      "name": "Create2EmptyBytecode",
      "type": "error"
    },
    {
      "inputs": [],
      "name": "FailedDeployment",
      "type": "error"
    },
    {
      "inputs": [
        {
          "internalType": "uint256",
          "name": "balance",
          "type": "uint256"
        },
        {
          "internalType": "uint256",
          "name": "needed",
          "type": "uint256"
        }
      ],
      "name": "InsufficientBalance",
      "type": "error"
    },
    {
      "inputs": [],
      "name": "InvalidInitialization",
      "type": "error"
    },
    {
      "inputs": [],
      "name": "NotInitializing",
      "type": "error"
    },
    {
      "anonymous": false,
      "inputs": [
        {
          "indexed": true,
          "internalType": "address",
          "name": "contractAddress",
          "type": "address"
        },
        {
          "indexed": true,
          "internalType": "address",
          "name": "controllerAddress",
          "type": "address"
        }
      ],
      "name": "ControllerAdded",
      "type": "event"
    },
    {
      "anonymous": false,
      "inputs": [
        {
          "indexed": true,
          "internalType": "address",
          "name": "contractAddress",
          "type": "address"
        },
        {
          "indexed": true,
          "internalType": "address",
          "name": "controllerAddress",
          "type": "address"
        }
      ],
      "name": "ControllerRemoved",
      "type": "event"
    },
    {
      "anonymous": false,
      "inputs": [
        {
          "indexed": true,
          "internalType": "address",
          "name": "factory",
          "type": "address"
        },
        {
          "indexed": true,
          "internalType": "string",
          "name": "symbol",
          "type": "string"
        },
        {
          "indexed": true,
          "internalType": "address",
          "name": "diamond",
          "type": "address"
        }
      ],
      "name": "DiamondAdd",
      "type": "event"
    },
    {
      "anonymous": false,
      "inputs": [
        {
          "indexed": true,
          "internalType": "address",
          "name": "factory",
          "type": "address"
        },
        {
          "indexed": true,
          "internalType": "address",
          "name": "diamond",
          "type": "address"
        },
        {
          "indexed": true,
          "internalType": "string",
          "name": "symbol",
          "type": "string"
        },
        {
          "components": [
            {
              "internalType": "address",
              "name": "owner",
              "type": "address"
            },
            {
              "internalType": "address",
              "name": "factory",
              "type": "address"
            },
            {
              "internalType": "address",
              "name": "svgManager",
              "type": "address"
            },
            {
              "internalType": "string",
              "name": "symbol",
              "type": "string"
            },
            {
              "internalType": "string",
              "name": "name",
              "type": "string"
            }
          ],
          "indexed": false,
          "internalType": "struct DiamondSettings",
          "name": "settings",
          "type": "tuple"
        }
      ],
      "name": "DiamondCreated",
      "type": "event"
    },
    {
      "anonymous": false,
      "inputs": [
        {
          "indexed": true,
          "internalType": "address",
          "name": "factory",
          "type": "address"
        },
        {
          "indexed": true,
          "internalType": "string",
          "name": "symbol",
          "type": "string"
        },
        {
          "indexed": true,
          "internalType": "address",
          "name": "diamond",
          "type": "address"
        }
      ],
      "name": "DiamondRemoved",
      "type": "event"
    },
    {
      "anonymous": false,
      "inputs": [
        {
          "indexed": false,
          "internalType": "uint64",
          "name": "version",
          "type": "uint64"
        }
      ],
      "name": "Initialized",
      "type": "event"
    },
    {
      "inputs": [
        {
          "internalType": "address",
          "name": "_controller",
          "type": "address"
        }
      ],
      "name": "addController",
      "outputs": [],
      "stateMutability": "nonpayable",
      "type": "function"
    },
    {
      "inputs": [
        {
          "components": [
            {
              "internalType": "address",
              "name": "owner",
              "type": "address"
            },
            {
              "internalType": "address",
              "name": "factory",
              "type": "address"
            },
            {
              "internalType": "address",
              "name": "svgManager",
              "type": "address"
            },
            {
              "internalType": "string",
              "name": "symbol",
              "type": "string"
            },
            {
              "internalType": "string",
              "name": "name",
              "type": "string"
            }
          ],
          "internalType": "struct DiamondSettings",
          "name": "params",
          "type": "tuple"
        },
        {
          "internalType": "address",
          "name": "diamondInit",
          "type": "address"
        },
        {
          "internalType": "bytes",
          "name": "_calldata",
          "type": "bytes"
        },
        {
          "internalType": "string",
          "name": "facets",
          "type": "string"
        }
      ],
      "name": "createFromSet",
      "outputs": [
        {
          "internalType": "address payable",
          "name": "diamondAddress",
          "type": "address"
        }
      ],
      "stateMutability": "nonpayable",
      "type": "function"
    },
    {
      "inputs": [
        {
          "internalType": "string",
          "name": "symbol",
          "type": "string"
        }
      ],
      "name": "exists",
      "outputs": [
        {
          "internalType": "bool",
          "name": "",
          "type": "bool"
        }
      ],
      "stateMutability": "view",
      "type": "function"
    },
    {
      "inputs": [
        {
          "internalType": "string",
          "name": "symbol",
          "type": "string"
        }
      ],
      "name": "getDiamondAddress",
      "outputs": [
        {
          "internalType": "address",
          "name": "",
          "type": "address"
        }
      ],
      "stateMutability": "view",
      "type": "function"
    },
    {
      "inputs": [
        {
          "internalType": "string",
          "name": "facetSet",
          "type": "string"
        }
      ],
      "name": "getFacets",
      "outputs": [
        {
          "components": [
            {
              "internalType": "address",
              "name": "facetAddress",
              "type": "address"
            },
            {
              "internalType": "enum IDiamondCut.FacetCutAction",
              "name": "action",
              "type": "uint8"
            },
            {
              "internalType": "bytes4[]",
              "name": "functionSelectors",
              "type": "bytes4[]"
            }
          ],
          "internalType": "struct IDiamondCut.FacetCut[]",
          "name": "",
          "type": "tuple[]"
        }
      ],
      "stateMutability": "view",
      "type": "function"
    },
    {
      "inputs": [
        {
          "components": [
            {
              "internalType": "string",
              "name": "setName",
              "type": "string"
            },
            {
              "components": [
                {
                  "internalType": "address",
                  "name": "facetAddress",
                  "type": "address"
                },
                {
                  "internalType": "enum IDiamondCut.FacetCutAction",
                  "name": "action",
                  "type": "uint8"
                },
                {
                  "internalType": "bytes4[]",
                  "name": "functionSelectors",
                  "type": "bytes4[]"
                }
              ],
              "internalType": "struct IDiamondCut.FacetCut[]",
              "name": "facetAddresses",
              "type": "tuple[]"
            },
            {
              "internalType": "bytes",
              "name": "diamondBytecode",
              "type": "bytes"
            }
          ],
          "internalType": "struct DiamondFactoryInit",
          "name": "initData",
          "type": "tuple"
        }
      ],
      "name": "initialize",
      "outputs": [],
      "stateMutability": "nonpayable",
      "type": "function"
    },
    {
      "inputs": [
        {
          "internalType": "address",
          "name": "_address",
          "type": "address"
        }
      ],
      "name": "isController",
      "outputs": [
        {
          "internalType": "bool",
          "name": "allowed",
          "type": "bool"
        }
      ],
      "stateMutability": "view",
      "type": "function"
    },
    {
      "inputs": [],
      "name": "relinquishControl",
      "outputs": [],
      "stateMutability": "nonpayable",
      "type": "function"
    },
    {
      "inputs": [
        {
          "internalType": "string",
          "name": "facetSet",
          "type": "string"
        }
      ],
      "name": "removeFacets",
      "outputs": [],
      "stateMutability": "nonpayable",
      "type": "function"
    },
    {
      "inputs": [
        {
          "internalType": "string",
          "name": "facetSet",
          "type": "string"
        },
        {
          "components": [
            {
              "internalType": "address",
              "name": "facetAddress",
              "type": "address"
            },
            {
              "internalType": "enum IDiamondCut.FacetCutAction",
              "name": "action",
              "type": "uint8"
            },
            {
              "internalType": "bytes4[]",
              "name": "functionSelectors",
              "type": "bytes4[]"
            }
          ],
          "internalType": "struct IDiamondCut.FacetCut[]",
          "name": "facetAddress",
          "type": "tuple[]"
        }
      ],
      "name": "setFacets",
      "outputs": [],
      "stateMutability": "nonpayable",
      "type": "function"
    },
    {
      "inputs": [],
      "name": "symbols",
      "outputs": [
        {
          "internalType": "string[]",
          "name": "",
          "type": "string[]"
        }
      ],
      "stateMutability": "view",
      "type": "function"
    }
  ],
  "transactionHash": "0xd84a59f17d0eef4d4ad7c3e97f2fdb4a191c1f5ac6b55b74e280a52482297d6a",
  "args": [],
  "numDeployments": 1,
  "solcInputHash": "e39248fcba6c46a8a0b49ab62402d196",
  "bytecode": "0x6080604052348015600f57600080fd5b506037336001600160a01b03166000908152602081905260409020805460ff19166001179055565b6138f1806100466000396000f3fe608060405234801561001057600080fd5b50600436106100995760003560e01c806307039ff91461009e5780631d034c6b146100bc578063261a323e146100d157806358a9ba37146100f45780637b5e3a5e1461011f5780639c3516bc14610132578063a7fc7a0714610145578063b429afeb14610158578063e100ce511461016b578063e1c28bef1461018b578063f3821a8714610193575b600080fd5b6100a66101a6565b6040516100b39190610ec0565b60405180910390f35b6100cf6100ca366004611030565b610286565b005b6100e46100df366004611030565b610306565b60405190151581526020016100b3565b6101076101023660046110d0565b610340565b6040516001600160a01b0390911681526020016100b3565b6100cf61012d366004611392565b610499565b610107610140366004611030565b6105d2565b6100cf61015336600461146e565b610612565b6100e461016636600461146e565b610678565b61017e610179366004611030565b610699565b6040516100b391906114cf565b6100cf6107ef565b6100cf6101a1366004611598565b610837565b60606101b061089e565b60010180546040805160208084028201810190925282815292919060009084015b8282101561027d5783829060005260206000200180546101f0906115ff565b80601f016020809104026020016040519081016040528092919081815260200182805461021c906115ff565b80156102695780601f1061023e57610100808354040283529160200191610269565b820191906000526020600020905b81548152906001019060200180831161024c57829003601f168201915b5050505050815260200190600101906101d1565b50505050905090565b3360009081526020819052604090205460ff161515600114806102a857503033145b6102cd5760405162461bcd60e51b81526004016102c490611639565b60405180910390fd5b6102d561089e565b600001600201816040516102e9919061166d565b908152602001604051809103902060006103039190610d2e565b50565b60008061031161089e565b60405161031f90859061166d565b908152604051908190036020019020546001600160a01b0316141592915050565b3360009081526020819052604081205460ff1615156001148061036257503033145b61037e5760405162461bcd60e51b81526004016102c490611639565b600061038861089e565b606088015160405161039a919061166d565b908152604051908190036020019020546001600160a01b0316146103e95760405162461bcd60e51b815260206004820152600660248201526565786973747360d01b60448201526064016102c4565b61042930878787876040518060200161040190610d4f565b601f1982820381018352601f909101166040528861041d61089e565b969594939291906108c2565b9050856060015160405161043d919061166d565b6040518091039020816001600160a01b0316306001600160a01b03167f4f2c5a087f1c980b963a6e3e4265622b6c0d2df4ad839a8394a4e68bdf814a938960405161048891906116e7565b60405180910390a495945050505050565b7ff0c57e16840df040f15088dc2f81fe391c3923bec73e23a9662efc9c229c6a008054600160401b810460ff1615906001600160401b03166000811580156104de5750825b90506000826001600160401b031660011480156104fa5750303b155b905081158015610508575080155b156105265760405163f92ee8a960e01b815260040160405180910390fd5b84546001600160401b0319166001178555831561054f57845460ff60401b1916600160401b1785555b61056b8660000151876020015161056461089e565b9190610a4a565b855161057561089e565b600401906105839082611749565b5083156105ca57845460ff60401b19168555604051600181527fc7f505b2f371ae2175ee4913f4499e1f2633a7b5936321eed1cdaeb6115181d29060200160405180910390a15b505050505050565b600061060c3083604051806020016105e990610d4f565b601f1982820381018352601f9091011660405261060461089e565b929190610bba565b92915050565b3360009081526020819052604090205460ff1615156001148061063457503033145b6106505760405162461bcd60e51b81526004016102c490611639565b610303816001600160a01b03166000908152602081905260409020805460ff19166001179055565b6001600160a01b03811660009081526020819052604081205460ff1661060c565b60606106a361089e565b600001600201826040516106b7919061166d565b9081526020016040518091039020805480602002602001604051908101604052809291908181526020016000905b828210156107e45760008481526020908190206040805160608101909152600285810290920180546001600160a01b03811683529193909290840191600160a01b900460ff169081111561073b5761073b611489565b600281111561074c5761074c611489565b8152602001600182018054806020026020016040519081016040528092919081815260200182805480156107cc57602002820191906000526020600020906000905b82829054906101000a900460e01b6001600160e01b0319168152602001906004019060208260030104928301926001038202915080841161078e5790505b505050505081525050815260200190600101906106e5565b505050509050919050565b3360009081526020819052604090205460ff1615156001148061081157503033145b61082d5760405162461bcd60e51b81526004016102c490611639565b610835610bfe565b565b3360009081526020819052604090205460ff1615156001148061085957503033145b6108755760405162461bcd60e51b81526004016102c490611639565b8161087e61089e565b6004019061088c9082611749565b5061089a828261056461089e565b5050565b7fc0847719db856b4649f5945ac2d5ad21b3a9b6cc6e5915f5e0d7e81737456def90565b60006108fc60008989606001516040516020016108e0929190611807565b6040516020818303038152906040528051906020012085610c55565b90506001600160a01b0381166109445760405162461bcd60e51b815260206004820152600d60248201526c18dc99585d1957d9985a5b1959609a1b60448201526064016102c4565b606087015160405182918b9161095a919061166d565b9081526040516020918190038201902080546001600160a01b0319166001600160a01b039390931692909217909155606088015160018b810180549182018155600090815292909220909101906109b19082611749565b50806001600160a01b031663cde7b2c133898c600001600201866040516109d8919061166d565b9081526040519081900360200181206001600160e01b031960e086901b168252610a0c9392918c908c908c90600401611865565b600060405180830381600087803b158015610a2657600080fd5b505af1158015610a3a573d6000803e3d6000fd5b5050505098975050505050505050565b805160005b81811015610b25576040516002860190610a6a90869061166d565b9081526020016040518091039020838281518110610a8a57610a8a611b9a565b60209081029190910181015182546001810184556000938452928290208151600294850290910180546001600160a01b039092166001600160a01b0319831681178255938301519294909384926001600160a81b0319161790600160a01b908490811115610afa57610afa611489565b021790555060408201518051610b1a916001840191602090910190610d5c565b505050600101610a4f565b506003840154600090815b81811015610b8a578551602087012060038801805483908110610b5557610b55611b9a565b90600052602060002001604051610b6c9190611bb0565b604051809103902003610b825760019250610b8a565b600101610b30565b50816105ca576003860180546001810182556000918252602090912001610bb18682611749565b50505050505050565b6000610bf58484604051602001610bd2929190611807565b604051602081830303815290604052805190602001208380519060200120610cf3565b95945050505050565b3360009081526020819052604090205460ff16151560011480610c2057503033145b610c3c5760405162461bcd60e51b81526004016102c490611639565b336000908152602081905260409020805460ff19169055565b600083471015610c815760405163cf47918160e01b8152476004820152602481018590526044016102c4565b8151600003610ca357604051631328927760e21b815260040160405180910390fd5b8282516020840186f590503d151981151615610cc5576040513d6000823e3d81fd5b6001600160a01b038116610cec5760405163b06ebf3d60e01b815260040160405180910390fd5b9392505050565b6000610cec8383306000604051836040820152846020820152828152600b8101905060ff8153605590206001600160a01b0316949350505050565b50805460008255600202906000526020600020908101906103039190610e08565b611c9680611c2683390190565b82805482825590600052602060002090600701600890048101928215610df85791602002820160005b83821115610dc657835183826101000a81548163ffffffff021916908360e01c02179055509260200192600401602081600301049283019260010302610d85565b8015610df65782816101000a81549063ffffffff0219169055600401602081600301049283019260010302610dc6565b505b50610e04929150610e36565b5090565b80821115610e045780546001600160a81b03191681556000610e2d6001830182610e4b565b50600201610e08565b5b80821115610e045760008155600101610e37565b5080546000825560070160089004906000526020600020908101906103039190610e36565b60005b83811015610e8b578181015183820152602001610e73565b50506000910152565b60008151808452610eac816020860160208601610e70565b601f01601f19169290920160200192915050565b6000602082016020835280845180835260408501915060408160051b86010192506020860160005b82811015610f1957603f19878603018452610f04858351610e94565b94506020938401939190910190600101610ee8565b50929695505050505050565b634e487b7160e01b600052604160045260246000fd5b60405160a081016001600160401b0381118282101715610f5d57610f5d610f25565b60405290565b604051606081016001600160401b0381118282101715610f5d57610f5d610f25565b604051601f8201601f191681016001600160401b0381118282101715610fad57610fad610f25565b604052919050565b6000806001600160401b03841115610fcf57610fcf610f25565b50601f8301601f1916602001610fe481610f85565b915050828152838383011115610ff957600080fd5b828260208301376000602084830101529392505050565b600082601f83011261102157600080fd5b610cec83833560208501610fb5565b60006020828403121561104257600080fd5b81356001600160401b0381111561105857600080fd5b61106484828501611010565b949350505050565b80356001600160a01b038116811461108357600080fd5b919050565b60008083601f84011261109a57600080fd5b5081356001600160401b038111156110b157600080fd5b6020830191508360208285010111156110c957600080fd5b9250929050565b6000806000806000608086880312156110e857600080fd5b85356001600160401b038111156110fe57600080fd5b860160a0818903121561111057600080fd5b611118610f3b565b6111218261106c565b815261112f6020830161106c565b60208201526111406040830161106c565b604082015260608201356001600160401b0381111561115e57600080fd5b61116a8a828501611010565b60608301525060808201356001600160401b0381111561118957600080fd5b6111958a828501611010565b60808301525095506111ab90506020870161106c565b935060408601356001600160401b038111156111c657600080fd5b6111d288828901611088565b90945092505060608601356001600160401b038111156111f157600080fd5b6111fd88828901611010565b9150509295509295909350565b60006001600160401b0382111561122357611223610f25565b5060051b60200190565b600082601f83011261123e57600080fd5b813561125161124c8261120a565b610f85565b8082825260208201915060208360051b86010192508583111561127357600080fd5b602085015b838110156113885780356001600160401b0381111561129657600080fd5b86016060818903601f190112156112ac57600080fd5b6112b4610f63565b6112c06020830161106c565b81526040820135600381106112d457600080fd5b602082015260608201356001600160401b038111156112f257600080fd5b60208184010192505088601f83011261130a57600080fd5b813561131861124c8261120a565b8082825260208201915060208360051b86010192508b83111561133a57600080fd5b6020850194505b828510156113725784356001600160e01b03198116811461136157600080fd5b825260209485019490910190611341565b6040840152505084525060209283019201611278565b5095945050505050565b6000602082840312156113a457600080fd5b81356001600160401b038111156113ba57600080fd5b8201606081850312156113cc57600080fd5b6113d4610f63565b81356001600160401b038111156113ea57600080fd5b6113f686828501611010565b82525060208201356001600160401b0381111561141257600080fd5b61141e8682850161122d565b60208301525060408201356001600160401b0381111561143d57600080fd5b80830192505084601f83011261145257600080fd5b61146185833560208501610fb5565b6040820152949350505050565b60006020828403121561148057600080fd5b610cec8261106c565b634e487b7160e01b600052602160045260246000fd5b600381106114bd57634e487b7160e01b600052602160045260246000fd5b9052565b6001600160e01b0319169052565b6000602082016020835280845180835260408501915060408160051b86010192506020860160005b82811015610f1957868503603f19018452815180516001600160a01b03168652602080820151606088019161152e9089018261149f565b506040820151915060606040880152808251808352608089019150602084019350600092505b808310156115805783516001600160e01b03191682526020938401936001939093019290910190611554565b509650505060209384019391909101906001016114f7565b600080604083850312156115ab57600080fd5b82356001600160401b038111156115c157600080fd5b6115cd85828601611010565b92505060208301356001600160401b038111156115e957600080fd5b6115f58582860161122d565b9150509250929050565b600181811c9082168061161357607f821691505b60208210810361163357634e487b7160e01b600052602260045260246000fd5b50919050565b6020808252601a908201527931b0b63632b91034b9903737ba10309031b7b73a3937b63632b960311b604082015260600190565b6000825161167f818460208701610e70565b9190910192915050565b80516001600160a01b0390811683526020808301518216908401526040808301519091169083015260608082015160a09184018290526000916116ce90850182610e94565b905060808301518482036080860152610bf58282610e94565b602081526000610cec6020830184611689565b601f82111561174457806000526020600020601f840160051c810160208510156117215750805b601f840160051c820191505b81811015611741576000815560010161172d565b50505b505050565b81516001600160401b0381111561176257611762610f25565b6117768161177084546115ff565b846116fa565b6020601f8211600181146117aa57600083156117925750848201515b600019600385901b1c1916600184901b178455611741565b600084815260208120601f198516915b828110156117da57878501518255602094850194600190920191016117ba565b50848210156117f85786840151600019600387901b60f8161c191681555b50505050600190811b01905550565b606083901b6001600160601b0319168152815160009061182e816014850160208701610e70565b919091016014019392505050565b81835281816020850137506000828201602090810191909152601f909101601f19169091010190565b6001600160a01b038716815260a06020820181905260009061188990830188611689565b828103604084015280875480835260208301915060208160051b84010189600052602060002060005b83811015611b6657858303601f1901855281546001600160a01b038116845260608401906118ea6020860160a083901c60ff1661149f565b5060606040850152600183018054808352600091825260208083209301905b806007840110156119f5578354611923838260e01b6114c1565b61193e6020840160c083901b6001600160e01b0319166114c1565b6119596040840160a083901b6001600160e01b0319166114c1565b61197460608401608083901b6001600160e01b0319166114c1565b61198f60808401606083901b6001600160e01b0319166114c1565b6119aa60a08401604083901b6001600160e01b0319166114c1565b6119c560c08401602083901b6001600160e01b0319166114c1565b6119dc60e084016001600160e01b031983166114c1565b5061010082019150600184019350600883019250611909565b92549280831015611a1a57611a0d828560e01b6114c1565b6020820191506001830192505b80831015611a4757611a3a8260c086901b6001600160e01b0319166114c1565b6020820191506001830192505b80831015611a7457611a678260a086901b6001600160e01b0319166114c1565b6020820191506001830192505b80831015611aa157611a9482608086901b6001600160e01b0319166114c1565b6020820191506001830192505b80831015611ace57611ac182606086901b6001600160e01b0319166114c1565b6020820191506001830192505b80831015611afb57611aee82604086901b6001600160e01b0319166114c1565b6020820191506001830192505b80831015611b2857611b1b82602086901b6001600160e01b0319166114c1565b6020820191506001830192505b80831015611b4b57611b44826001600160e01b031986166114c1565b6020820191505b506020979097019694505050600291909101906001016118b2565b50506001600160a01b03891660608701528581036080870152611b8a81888a61183c565b9c9b505050505050505050505050565b634e487b7160e01b600052603260045260246000fd5b6000808354611bbe816115ff565b600182168015611bd55760018114611bea57611c1a565b60ff1983168652811515820286019350611c1a565b86600052602060002060005b83811015611c1257815488820152600190910190602001611bf6565b505081860193505b50919594505050505056fe6080604052348015600f57600080fd5b50611c778061001f6000396000f3fe6080604052600436106100435760003560e01c80636a60c3b7146100f75780638da5cb5b14610122578063cde7b2c114610137578063f2fde38b146101575761004a565b3661004a57005b600080356001600160e01b0319168152600080516020611bd6833981519152602081905260409091205481906001600160a01b0316806100d15760405162461bcd60e51b815260206004820181905260248201527f4469616d6f6e643a2046756e6374696f6e20646f6573206e6f7420657869737460448201526064015b60405180910390fd5b3660008037600080366000845af43d6000803e8080156100f0573d6000f35b3d6000fd5b005b34801561010357600080fd5b50305b6040516001600160a01b03909116815260200160405180910390f35b34801561012e57600080fd5b50610106610177565b34801561014357600080fd5b506100f5610152366004611668565b610186565b34801561016357600080fd5b506100f56101723660046117b2565b6104b9565b60006101816104cd565b905090565b7ff0c57e16840df040f15088dc2f81fe391c3923bec73e23a9662efc9c229c6a008054600160401b810460ff1615906001600160401b03166000811580156101cb5750825b90506000826001600160401b031660011480156101e75750303b155b9050811580156101f5575080155b156102135760405163f92ee8a960e01b815260040160405180910390fd5b84546001600160401b0319166001178555831561023c57845460ff60401b1916600160401b1785555b60016102466104e9565b6301ffc9a760e01b600090815260039190910160205260409020805460ff191691151591909117905560016102796104e9565b631c5596d560e11b600090815260039190910160205260409020805460ff191691151591909117905560016102ac6104e9565b6307f5828d60e41b600090815260039190910160205260409020805460ff191691151591909117905560016102df6104e9565b6380ac58cd60e01b600090815260039190910160205260409020805460ff191691151591909117905560016103126104e9565b635b5e139f60e01b600090815260039190910160205260409020805460ff191691151591909117905560016103456104e9565b63780e9d6360e01b60009081526003919091016020908152604091829020805460ff1916931515939093179092558051601f89018390048302810183019091528781526103b0918b918b918b908b90819084018382808284376000920191909152506104fb92505050565b6103b98b610702565b8a6103c2610762565b80546001600160a01b0319166001600160a01b039290921691909117905560608a01516103ed610762565b60408051651cde5b589bdb60d21b81526005929092016006830152519081900360260190209061041d9082611855565b50896080015161042b610762565b60408051636e616d6560e01b8152600592909201600483015251908190036024019020906104599082611855565b506104666202a300610786565b83156104ac57845460ff60401b19168555604051600181527fc7f505b2f371ae2175ee4913f4499e1f2633a7b5936321eed1cdaeb6115181d29060200160405180910390a15b5050505050505050505050565b6104c1610813565b6104ca81610702565b50565b60006104d76104e9565b600401546001600160a01b0316919050565b600080516020611bd683398151915290565b60005b83518110156106b757600084828151811061051b5761051b611913565b60200260200101516020015190506000600281111561053c5761053c611929565b81600281111561054e5761054e611929565b0361059c5761059785838151811061056857610568611913565b60200260200101516000015186848151811061058657610586611913565b602002602001015160400151610883565b6106ae565b60018160028111156105b0576105b0611929565b036105f9576105978583815181106105ca576105ca611913565b6020026020010151600001518684815181106105e8576105e8611913565b6020026020010151604001516109f8565b600281600281111561060d5761060d611929565b036106565761059785838151811061062757610627611913565b60200260200101516000015186848151811061064557610645611913565b602002602001015160400151610b79565b60405162461bcd60e51b815260206004820152602760248201527f4c69624469616d6f6e644375743a20496e636f727265637420466163657443756044820152663a20b1ba34b7b760c91b60648201526084016100c8565b506001016104fe565b507f8faa70878671ccd212d20771b795c50af8fd3ff6cf27f4bde57e5d4de0aeb6738383836040516106eb9392919061198f565b60405180910390a16106fd8282610c89565b505050565b600061070c6104e9565b6004810180546001600160a01b038581166001600160a01b031983168117909355604051939450169182907f8be0079c531659141344cd1fd0a4f28419497f9722a3daafe3b4186f6b6457e090600090a3505050565b7f3b28ada7424160f36dba04e603ff68d11ac4a3eeb1ef7a9911d79d949607b74090565b60006107906104e9565b905080600501546000146107f75760405162461bcd60e51b815260206004820152602860248201527f4c69624469616d6f6e643a2054696d656c6f636b20616c726561647920696e696044820152671d1a585b1a5e995960c21b60648201526084016100c8565b60008211610808576202a30061080a565b815b60059091015550565b61081b6104e9565b600401546001600160a01b031633146108815760405162461bcd60e51b815260206004820152602260248201527f4c69624469616d6f6e643a204d75737420626520636f6e7472616374206f776e60448201526132b960f11b60648201526084016100c8565b565b60008151116108a45760405162461bcd60e51b81526004016100c890611a9e565b60006108ae6104e9565b90506001600160a01b0383166108d65760405162461bcd60e51b81526004016100c890611ae9565b6001600160a01b0383166000908152600182016020526040812054906001600160601b038216900361090c5761090c8285610e95565b60005b83518110156109f157600084828151811061092c5761092c611913565b6020908102919091018101516001600160e01b031981166000908152918690526040909120549091506001600160a01b031680156109ca5760405162461bcd60e51b815260206004820152603560248201527f4c69624469616d6f6e644375743a2043616e2774206164642066756e6374696f6044820152746e207468617420616c72656164792065786973747360581b60648201526084016100c8565b6109d68583868a610eff565b836109e081611b4b565b9450506001909201915061090f9050565b5050505050565b6000815111610a195760405162461bcd60e51b81526004016100c890611a9e565b6000610a236104e9565b90506001600160a01b038316610a4b5760405162461bcd60e51b81526004016100c890611ae9565b6001600160a01b0383166000908152600182016020526040812054906001600160601b0382169003610a8157610a818285610e95565b60005b83518110156109f1576000848281518110610aa157610aa1611913565b6020908102919091018101516001600160e01b031981166000908152918690526040909120549091506001600160a01b039081169087168103610b475760405162461bcd60e51b815260206004820152603860248201527f4c69624469616d6f6e644375743a2043616e2774207265706c6163652066756e60448201527731ba34b7b7103bb4ba341039b0b6b290333ab731ba34b7b760411b60648201526084016100c8565b610b52858284610f9f565b610b5e8583868a610eff565b83610b6881611b4b565b94505060019092019150610a849050565b6000815111610b9a5760405162461bcd60e51b81526004016100c890611a9e565b6000610ba46104e9565b90506001600160a01b03831615610c1c5760405162461bcd60e51b815260206004820152603660248201527f4c69624469616d6f6e644375743a2052656d6f76652066616365742061646472604482015275657373206d757374206265206164647265737328302960501b60648201526084016100c8565b60005b8251811015610c83576000838281518110610c3c57610c3c611913565b6020908102919091018101516001600160e01b031981166000908152918590526040909120549091506001600160a01b0316610c79848284610f9f565b5050600101610c1f565b50505050565b6001600160a01b038216610d0f57805115610d0b5760405162461bcd60e51b815260206004820152603c60248201527f4c69624469616d6f6e644375743a205f696e697420697320616464726573732860448201527b3029206275745f63616c6c64617461206973206e6f7420656d70747960201b60648201526084016100c8565b5050565b6000815111610d865760405162461bcd60e51b815260206004820152603d60248201527f4c69624469616d6f6e644375743a205f63616c6c6461746120697320656d707460448201527f7920627574205f696e6974206973206e6f74206164647265737328302900000060648201526084016100c8565b6001600160a01b0382163014610db857610db882604051806060016040528060288152602001611bf66028913961135c565b600080836001600160a01b031683604051610dd39190611b77565b600060405180830381855af49150503d8060008114610e0e576040519150601f19603f3d011682016040523d82523d6000602084013e610e13565b606091505b509150915081610c8357805115610e3e578060405162461bcd60e51b81526004016100c89190611b93565b60405162461bcd60e51b815260206004820152602660248201527f4c69624469616d6f6e644375743a205f696e69742066756e6374696f6e2072656044820152651d995c9d195960d21b60648201526084016100c8565b610eb781604051806060016040528060248152602001611c1e6024913961135c565b6002820180546001600160a01b0390921660008181526001948501602090815260408220860185905594840183559182529290200180546001600160a01b0319169091179055565b6001600160e01b0319831660008181526020868152604080832080546001600160601b03909716600160a01b026001600160a01b0397881617815594909516808352600180890183529583208054968701815583528183206008870401805460e09890981c60046007909816979097026101000a96870263ffffffff9097021990971695909517909555529290915281546001600160a01b031916179055565b6001600160a01b0382166110155760405162461bcd60e51b815260206004820152603760248201527f4c69624469616d6f6e644375743a2043616e27742072656d6f76652066756e636044820152761d1a5bdb881d1a185d08191bd95cdb89dd08195e1a5cdd604a1b60648201526084016100c8565b306001600160a01b038316036110845760405162461bcd60e51b815260206004820152602e60248201527f4c69624469616d6f6e644375743a2043616e27742072656d6f766520696d6d7560448201526d3a30b1363290333ab731ba34b7b760911b60648201526084016100c8565b6001600160e01b03198116600090815260208481526040808320546001600160a01b0386168452600180880190935290832054600160a01b9091046001600160601b031692916110d391611ba6565b90508082146111c5576001600160a01b0384166000908152600186016020526040812080548390811061110857611108611913565b600091825260208083206008830401546001600160a01b038916845260018a019091526040909220805460079092166004026101000a90920460e01b92508291908590811061115957611159611913565b600091825260208083206008830401805463ffffffff60079094166004026101000a938402191660e09590951c929092029390931790556001600160e01b03199290921682528690526040902080546001600160a01b0316600160a01b6001600160601b038516021790555b6001600160a01b038416600090815260018601602052604090208054806111ee576111ee611bbf565b60008281526020808220600860001990940193840401805463ffffffff600460078716026101000a0219169055919092556001600160e01b031985168252869052604081208190558190036109f157600285015460009061125190600190611ba6565b6001600160a01b038616600090815260018089016020526040909120015490915080821461130057600087600201838154811061129057611290611913565b6000918252602090912001546002890180546001600160a01b0390921692508291849081106112c1576112c1611913565b600091825260208083209190910180546001600160a01b0319166001600160a01b03948516179055929091168152600189810190925260409020018190555b8660020180548061131357611313611bbf565b60008281526020808220830160001990810180546001600160a01b03191690559092019092556001600160a01b0388168252600189810190915260408220015550505050505050565b813b8181610c835760405162461bcd60e51b81526004016100c89190611b93565b80356001600160a01b038116811461139457600080fd5b919050565b634e487b7160e01b600052604160045260246000fd5b604051606081016001600160401b03811182821017156113d1576113d1611399565b60405290565b60405160a081016001600160401b03811182821017156113d1576113d1611399565b604051601f8201601f191681016001600160401b038111828210171561142157611421611399565b604052919050565b600082601f83011261143a57600080fd5b81356001600160401b0381111561145357611453611399565b611466601f8201601f19166020016113f9565b81815284602083860101111561147b57600080fd5b816020850160208301376000918101602001919091529392505050565b60006001600160401b038211156114b1576114b1611399565b5060051b60200190565b600082601f8301126114cc57600080fd5b81356114df6114da82611498565b6113f9565b8082825260208201915060208360051b86010192508583111561150157600080fd5b602085015b838110156116165780356001600160401b0381111561152457600080fd5b86016060818903601f1901121561153a57600080fd5b6115426113af565b61154e6020830161137d565b815260408201356003811061156257600080fd5b602082015260608201356001600160401b0381111561158057600080fd5b60208184010192505088601f83011261159857600080fd5b81356115a66114da82611498565b8082825260208201915060208360051b86010192508b8311156115c857600080fd5b6020850194505b828510156116005784356001600160e01b0319811681146115ef57600080fd5b8252602094850194909101906115cf565b6040840152505084525060209283019201611506565b5095945050505050565b60008083601f84011261163257600080fd5b5081356001600160401b0381111561164957600080fd5b60208301915083602082850101111561166157600080fd5b9250929050565b60008060008060008060a0878903121561168157600080fd5b61168a8761137d565b955060208701356001600160401b038111156116a557600080fd5b870160a0818a0312156116b757600080fd5b6116bf6113d7565b6116c88261137d565b81526116d66020830161137d565b60208201526116e76040830161137d565b604082015260608201356001600160401b0381111561170557600080fd5b6117118b828501611429565b60608301525060808201356001600160401b0381111561173057600080fd5b61173c8b828501611429565b60808301525095505060408701356001600160401b0381111561175e57600080fd5b61176a89828a016114bb565b9450506117796060880161137d565b925060808701356001600160401b0381111561179457600080fd5b6117a089828a01611620565b979a9699509497509295939492505050565b6000602082840312156117c457600080fd5b6117cd8261137d565b9392505050565b600181811c908216806117e857607f821691505b60208210810361180857634e487b7160e01b600052602260045260246000fd5b50919050565b601f8211156106fd57806000526020600020601f840160051c810160208510156118355750805b601f840160051c820191505b818110156109f15760008155600101611841565b81516001600160401b0381111561186e5761186e611399565b6118828161187c84546117d4565b8461180e565b6020601f8211600181146118b6576000831561189e5750848201515b600019600385901b1c1916600184901b1784556109f1565b600084815260208120601f198516915b828110156118e657878501518255602094850194600190920191016118c6565b50848210156119045786840151600019600387901b60f8161c191681555b50505050600190811b01905550565b634e487b7160e01b600052603260045260246000fd5b634e487b7160e01b600052602160045260246000fd5b60005b8381101561195a578181015183820152602001611942565b50506000910152565b6000815180845261197b81602086016020860161193f565b601f01601f19169290920160200192915050565b6000606082016060835280865180835260808501915060808160051b86010192506020880160005b82811015611a6f57868503607f19018452815180516001600160a01b0316865260208101516060870190600381106119ff57634e487b7160e01b600052602160045260246000fd5b806020890152506040820151915060606040880152808251808352608089019150602084019350600092505b80831015611a575783516001600160e01b03191682526020938401936001939093019290910190611a2b565b509650505060209384019391909101906001016119b7565b5050506001600160a01b0386166020850152508281036040840152611a948185611963565b9695505050505050565b6020808252602b908201527f4c69624469616d6f6e644375743a204e6f2073656c6563746f727320696e206660408201526a1858d95d081d1bc818dd5d60aa1b606082015260800190565b6020808252602c908201527f4c69624469616d6f6e644375743a204164642066616365742063616e2774206260408201526b65206164647265737328302960a01b606082015260800190565b634e487b7160e01b600052601160045260246000fd5b60006001600160601b0382166002600160601b03198101611b6e57611b6e611b35565b60010192915050565b60008251611b8981846020870161193f565b9190910192915050565b6020815260006117cd6020830184611963565b81810381811115611bb957611bb9611b35565b92915050565b634e487b7160e01b600052603160045260246000fdfec8fcad8db84d3cc18b4c41d551ea0ee66dd599cde068d998e57d5e09332c131c4c69624469616d6f6e644375743a205f696e6974206164647265737320686173206e6f20636f64654c69624469616d6f6e644375743a204e657720666163657420686173206e6f20636f6465a264697066735822122033e829527f8795379ee5bfafaf4e6e85c30d7f7251e3bf1db7718016342f585b64736f6c634300081c0033a2646970667358221220798320c43026247f145ea2ed2e00c32b1ca337e6081761395e2245afee28778b64736f6c634300081c0033",
  "libraries": {
    "AddressSet": "0x8aB21bf41B908d9CBee3E78e97033E3916840cA8",
    "AttributeLib": "0x9d0749b64bEDB024B1AaF596c84029E67635D43c",
    "Base64": "0x8d10857B6d2bEA12d67A888F3E995ea142Db701E",
    "Bytes32Set": "0xB01Cf1Baf9ABFa5309AE3ff649B31ae87A80AE62",
    "CarbonCreditLib": "0x44520E8dA039d4D7D460f5DBF6C1eC347De53A7C",
    "DiamondFactoryLib": "0x50353159348c63A448eDAfC6d5ef81CF9C1cdE9a",
    "DiamondLib": "0x2Be86045394c8096b3b9d9449A08Cc74afEd5717",
    "ERC721AEnumerationLib": "0x6a9A6D75AECEfB8dC969D5Ef5ea3EcF57e29706d",
    "ERC721ALib": "0x8F980CBDb943c2794FdA47D82d81a71d31A815DE",
    "Identity": "0x4C6fE457018d32B9aEc2aA99F655b5aCD7d0D658",
    "IdentityFactory": "0x5c970fD1E772548Be3Dc3de62381Fd8b2b3fAb96",
    "IdentitySystemStorage": "0x05d7966Acfa90f529e3844B1d1b7702dBde7789c",
    "LibDiamond": "0x30Fb10d923CfFC1151B8CFe683A937F414854570",
    "MerkleProver": "0x6361c8F2C7Fb1498C15C5e90Ed477ee8cEeC9f5f",
    "MetadataLib": "0xEA17bE869d528F2c3e4F7cae231ebE4BE42BeB75",
    "MultiSaleLib": "0x3b12B21202DaC69552E7b1f9D4D3E31085c7a378",
    "Strings": "0x26375f3210F1F8C90f53c663AC44F3d4a86b12A6",
    "StringsLib": "0x928c0A50586514D291087403befe3540E3631ECd",
    "SVGTemplatesLib": "0xFD3DfE346d5d5c8C90313036BC1b1E3De29FCb33",
    "UInt256Set": "0x908B9bE15117446dE01d076Ecb75D9210E182D97",
    "VariablePriceLib": "0x92E3cBf7226518CF757c48446067de1485CCCcBb"
  },
  "devdoc": {
    "errors": {
      "Create2EmptyBytecode()": [
        {
          "details": "There's no code to deploy."
        }
      ],
      "FailedDeployment()": [
        {
          "details": "The deployment failed."
        }
      ],
      "InsufficientBalance(uint256,uint256)": [
        {
          "details": "The ETH balance of the account is not enough to perform the operation."
        }
      ],
      "InvalidInitialization()": [
        {
          "details": "The contract is already initialized."
        }
      ],
      "NotInitializing()": [
        {
          "details": "The contract is not initializing."
        }
      ]
    },
    "events": {
      "Initialized(uint64)": {
        "details": "Triggered when the contract has been initialized or reinitialized."
      }
    },
    "kind": "dev",
    "methods": {
      "addController(address)": {
        "details": "Add an address allowed to control this contract"
      },
      "createFromSet((address,address,address,string,string),address,bytes,string)": {
        "params": {
          "_calldata": "the calldata to pass to the diamond init contract",
          "diamondInit": "the diamond init contract",
          "params": "diamond init parameters"
        }
      },
      "exists(string)": {
        "params": {
          "symbol": "the symbol of the diamond to check"
        }
      },
      "getDiamondAddress(string)": {
        "params": {
          "symbol": "the symbol of the diamond"
        },
        "returns": {
          "_0": "the address of the diamond"
        }
      },
      "initialize((string,(address,uint8,bytes4[])[],bytes))": {
        "params": {
          "initData": "the initialization data for the factory"
        }
      },
      "isController(address)": {
        "details": "Check if this address is a controller"
      },
      "relinquishControl()": {
        "details": "Remove the sender address from the list of controllers"
      },
      "removeFacets(string)": {
        "params": {
          "facetSet": "the facet set to remove"
        }
      },
      "setFacets(string,(address,uint8,bytes4[])[])": {
        "params": {
          "facetAddress": "the facet to set",
          "facetSet": "the index of the facet to set"
        }
      },
      "symbols()": {
        "returns": {
          "_0": "the symbols"
        }
      }
    },
    "title": "Diamond Factory",
    "version": 1
  },
  "userdoc": {
    "events": {
      "ControllerAdded(address,address)": {
        "notice": "emitted when a controller is added."
      },
      "ControllerRemoved(address,address)": {
        "notice": "emitted when a controller is removed."
      }
    },
    "kind": "user",
    "methods": {
      "createFromSet((address,address,address,string,string),address,bytes,string)": {
        "notice": "create a new diamond token with the given symbol"
      },
      "exists(string)": {
        "notice": "check if the token exists"
      },
      "getDiamondAddress(string)": {
        "notice": "get the address of the diamond"
      },
      "getFacets(string)": {
        "notice": "get the facets for the diamond"
      },
      "initialize((string,(address,uint8,bytes4[])[],bytes))": {
        "notice": "initiiate the factory"
      },
      "removeFacets(string)": {
        "notice": "remote a facet set from the factory"
      },
      "setFacets(string,(address,uint8,bytes4[])[])": {
        "notice": "set a number of template facets on this factory"
      },
      "symbols()": {
        "notice": "get all the symbols from the factory"
      }
    },
    "notice": "This contract is used to create new Diamond contracts.",
    "version": 1
  },
  "storageLayout": {
    "storage": [
      {
        "astId": 36753,
        "contract": "contracts/DiamondFactory.sol:DiamondFactory",
        "label": "_controllers",
        "offset": 0,
        "slot": "0",
        "type": "t_mapping(t_address,t_bool)"
      }
    ],
    "types": {
      "t_address": {
        "encoding": "inplace",
        "label": "address",
        "numberOfBytes": "20"
      },
      "t_bool": {
        "encoding": "inplace",
        "label": "bool",
        "numberOfBytes": "1"
      },
      "t_mapping(t_address,t_bool)": {
        "encoding": "mapping",
        "key": "t_address",
        "label": "mapping(address => bool)",
        "numberOfBytes": "32",
        "value": "t_bool"
      }
    }
  }
}