{
  "address": "0x3c06E1EB88217964799566E85773C2E9c03DEB4b",
  "abi": [
    {
      "inputs": [],
      "stateMutability": "nonpayable",
      "type": "constructor"
    },
    {
      "inputs": [],
      "name": "ApprovalCallerNotOwnerNorApproved",
      "type": "error"
    },
    {
      "inputs": [],
      "name": "ApprovalQueryForNonexistentToken",
      "type": "error"
    },
    {
      "inputs": [],
      "name": "ApprovalToCurrentOwner",
      "type": "error"
    },
    {
      "inputs": [],
      "name": "ApproveToCaller",
      "type": "error"
    },
    {
      "inputs": [],
      "name": "BalanceQueryForZeroAddress",
      "type": "error"
    },
    {
      "inputs": [],
      "name": "InvalidInitialization",
      "type": "error"
    },
    {
      "inputs": [],
      "name": "MintToZeroAddress",
      "type": "error"
    },
    {
      "inputs": [],
      "name": "MintZeroQuantity",
      "type": "error"
    },
    {
      "inputs": [],
      "name": "NotInitializing",
      "type": "error"
    },
    {
      "inputs": [],
      "name": "OwnerQueryForNonexistentToken",
      "type": "error"
    },
    {
      "inputs": [],
      "name": "TransferCallerNotOwnerNorApproved",
      "type": "error"
    },
    {
      "inputs": [],
      "name": "TransferFromIncorrectOwner",
      "type": "error"
    },
    {
      "inputs": [],
      "name": "TransferToNonERC721ReceiverImplementer",
      "type": "error"
    },
    {
      "inputs": [],
      "name": "TransferToZeroAddress",
      "type": "error"
    },
    {
      "anonymous": false,
      "inputs": [
        {
          "indexed": true,
          "internalType": "address",
          "name": "owner",
          "type": "address"
        },
        {
          "indexed": true,
          "internalType": "address",
          "name": "approved",
          "type": "address"
        },
        {
          "indexed": true,
          "internalType": "uint256",
          "name": "tokenId",
          "type": "uint256"
        }
      ],
      "name": "Approval",
      "type": "event"
    },
    {
      "anonymous": false,
      "inputs": [
        {
          "indexed": true,
          "internalType": "address",
          "name": "owner",
          "type": "address"
        },
        {
          "indexed": true,
          "internalType": "address",
          "name": "operator",
          "type": "address"
        },
        {
          "indexed": false,
          "internalType": "bool",
          "name": "approved",
          "type": "bool"
        }
      ],
      "name": "ApprovalForAll",
      "type": "event"
    },
    {
      "anonymous": false,
      "inputs": [
        {
          "indexed": true,
          "internalType": "address",
          "name": "from",
          "type": "address"
        },
        {
          "indexed": true,
          "internalType": "uint256",
          "name": "tokenId",
          "type": "uint256"
        }
      ],
      "name": "Burn",
      "type": "event"
    },
    {
      "anonymous": false,
      "inputs": [
        {
          "indexed": true,
          "internalType": "address",
          "name": "newDelegatedMinter",
          "type": "address"
        }
      ],
      "name": "DelegatedMinterSet",
      "type": "event"
    },
    {
      "anonymous": false,
      "inputs": [
        {
          "indexed": true,
          "internalType": "address",
          "name": "from",
          "type": "address"
        },
        {
          "indexed": true,
          "internalType": "address",
          "name": "to",
          "type": "address"
        },
        {
          "indexed": true,
          "internalType": "uint256",
          "name": "tokenId",
          "type": "uint256"
        },
        {
          "indexed": false,
          "internalType": "bytes",
          "name": "data",
          "type": "bytes"
        }
      ],
      "name": "ERC721ATransfer",
      "type": "event"
    },
    {
      "anonymous": false,
      "inputs": [
        {
          "indexed": true,
          "internalType": "address",
          "name": "from",
          "type": "address"
        },
        {
          "indexed": true,
          "internalType": "uint256",
          "name": "tokenId",
          "type": "uint256"
        }
      ],
      "name": "Freeze",
      "type": "event"
    },
    {
      "anonymous": false,
      "inputs": [
        {
          "indexed": true,
          "internalType": "address",
          "name": "from",
          "type": "address"
        },
        {
          "indexed": false,
          "internalType": "uint256[]",
          "name": "tokenIds",
          "type": "uint256[]"
        }
      ],
      "name": "FreezeBatch",
      "type": "event"
    },
    {
      "anonymous": false,
      "inputs": [
        {
          "indexed": false,
          "internalType": "uint64",
          "name": "version",
          "type": "uint64"
        }
      ],
      "name": "Initialized",
      "type": "event"
    },
    {
      "anonymous": false,
      "inputs": [
        {
          "indexed": true,
          "internalType": "address",
          "name": "to",
          "type": "address"
        },
        {
          "indexed": true,
          "internalType": "uint256",
          "name": "tokenId",
          "type": "uint256"
        }
      ],
      "name": "Mint",
      "type": "event"
    },
    {
      "anonymous": false,
      "inputs": [
        {
          "indexed": true,
          "internalType": "address",
          "name": "from",
          "type": "address"
        },
        {
          "indexed": true,
          "internalType": "uint256",
          "name": "tokenId",
          "type": "uint256"
        }
      ],
      "name": "Release",
      "type": "event"
    },
    {
      "anonymous": false,
      "inputs": [
        {
          "indexed": true,
          "internalType": "address",
          "name": "from",
          "type": "address"
        },
        {
          "indexed": true,
          "internalType": "address",
          "name": "to",
          "type": "address"
        },
        {
          "indexed": true,
          "internalType": "uint256",
          "name": "tokenId",
          "type": "uint256"
        }
      ],
      "name": "Transfer",
      "type": "event"
    },
    {
      "anonymous": false,
      "inputs": [
        {
          "indexed": true,
          "internalType": "address",
          "name": "from",
          "type": "address"
        },
        {
          "indexed": true,
          "internalType": "address",
          "name": "to",
          "type": "address"
        },
        {
          "indexed": true,
          "internalType": "uint256",
          "name": "tokenId",
          "type": "uint256"
        }
      ],
      "name": "TransferForced",
      "type": "event"
    },
    {
      "inputs": [
        {
          "internalType": "address",
          "name": "to",
          "type": "address"
        },
        {
          "internalType": "uint256",
          "name": "tokenId",
          "type": "uint256"
        }
      ],
      "name": "approve",
      "outputs": [],
      "stateMutability": "nonpayable",
      "type": "function"
    },
    {
      "inputs": [
        {
          "internalType": "address",
          "name": "owner",
          "type": "address"
        }
      ],
      "name": "balanceOf",
      "outputs": [
        {
          "internalType": "uint256",
          "name": "",
          "type": "uint256"
        }
      ],
      "stateMutability": "view",
      "type": "function"
    },
    {
      "inputs": [
        {
          "internalType": "uint256",
          "name": "_tokenId",
          "type": "uint256"
        }
      ],
      "name": "burn",
      "outputs": [
        {
          "internalType": "bool",
          "name": "",
          "type": "bool"
        }
      ],
      "stateMutability": "nonpayable",
      "type": "function"
    },
    {
      "inputs": [],
      "name": "delegatedMinter",
      "outputs": [
        {
          "internalType": "address",
          "name": "",
          "type": "address"
        }
      ],
      "stateMutability": "view",
      "type": "function"
    },
    {
      "inputs": [
        {
          "internalType": "address",
          "name": "_from",
          "type": "address"
        },
        {
          "internalType": "address",
          "name": "_to",
          "type": "address"
        },
        {
          "internalType": "uint256",
          "name": "_tokenId",
          "type": "uint256"
        },
        {
          "internalType": "bytes",
          "name": "_data",
          "type": "bytes"
        }
      ],
      "name": "forcedTransfer",
      "outputs": [
        {
          "internalType": "bool",
          "name": "",
          "type": "bool"
        }
      ],
      "stateMutability": "nonpayable",
      "type": "function"
    },
    {
      "inputs": [
        {
          "internalType": "uint256",
          "name": "tokenID",
          "type": "uint256"
        }
      ],
      "name": "freeze",
      "outputs": [],
      "stateMutability": "nonpayable",
      "type": "function"
    },
    {
      "inputs": [
        {
          "internalType": "uint256",
          "name": "tokenId",
          "type": "uint256"
        }
      ],
      "name": "getApproved",
      "outputs": [
        {
          "internalType": "address",
          "name": "",
          "type": "address"
        }
      ],
      "stateMutability": "view",
      "type": "function"
    },
    {
      "inputs": [
        {
          "internalType": "address",
          "name": "owner",
          "type": "address"
        },
        {
          "internalType": "address",
          "name": "operator",
          "type": "address"
        }
      ],
      "name": "isApprovedForAll",
      "outputs": [
        {
          "internalType": "bool",
          "name": "",
          "type": "bool"
        }
      ],
      "stateMutability": "view",
      "type": "function"
    },
    {
      "inputs": [
        {
          "internalType": "address",
          "name": "_to",
          "type": "address"
        },
        {
          "internalType": "bytes",
          "name": "data",
          "type": "bytes"
        }
      ],
      "name": "mint",
      "outputs": [
        {
          "internalType": "uint256",
          "name": "tokenId",
          "type": "uint256"
        }
      ],
      "stateMutability": "nonpayable",
      "type": "function"
    },
    {
      "inputs": [
        {
          "internalType": "uint256",
          "name": "tokenId",
          "type": "uint256"
        }
      ],
      "name": "ownerOf",
      "outputs": [
        {
          "internalType": "address",
          "name": "",
          "type": "address"
        }
      ],
      "stateMutability": "view",
      "type": "function"
    },
    {
      "inputs": [
        {
          "internalType": "uint256",
          "name": "tokenID",
          "type": "uint256"
        }
      ],
      "name": "release",
      "outputs": [],
      "stateMutability": "nonpayable",
      "type": "function"
    },
    {
      "inputs": [
        {
          "internalType": "address",
          "name": "from",
          "type": "address"
        },
        {
          "internalType": "address",
          "name": "to",
          "type": "address"
        },
        {
          "internalType": "uint256",
          "name": "tokenId",
          "type": "uint256"
        }
      ],
      "name": "safeTransferFrom",
      "outputs": [],
      "stateMutability": "nonpayable",
      "type": "function"
    },
    {
      "inputs": [
        {
          "internalType": "address",
          "name": "from",
          "type": "address"
        },
        {
          "internalType": "address",
          "name": "to",
          "type": "address"
        },
        {
          "internalType": "uint256",
          "name": "tokenId",
          "type": "uint256"
        },
        {
          "internalType": "bytes",
          "name": "_data",
          "type": "bytes"
        }
      ],
      "name": "safeTransferFrom",
      "outputs": [],
      "stateMutability": "nonpayable",
      "type": "function"
    },
    {
      "inputs": [
        {
          "internalType": "address",
          "name": "operator",
          "type": "address"
        },
        {
          "internalType": "bool",
          "name": "approved",
          "type": "bool"
        }
      ],
      "name": "setApprovalForAll",
      "outputs": [],
      "stateMutability": "nonpayable",
      "type": "function"
    },
    {
      "inputs": [
        {
          "internalType": "address",
          "name": "_newDelegatedMinter",
          "type": "address"
        }
      ],
      "name": "setDelegatedMinter",
      "outputs": [
        {
          "internalType": "bool",
          "name": "",
          "type": "bool"
        }
      ],
      "stateMutability": "nonpayable",
      "type": "function"
    },
    {
      "inputs": [
        {
          "internalType": "uint256",
          "name": "index",
          "type": "uint256"
        }
      ],
      "name": "tokenByIndex",
      "outputs": [
        {
          "internalType": "uint256",
          "name": "",
          "type": "uint256"
        }
      ],
      "stateMutability": "view",
      "type": "function"
    },
    {
      "inputs": [
        {
          "internalType": "address",
          "name": "owner",
          "type": "address"
        },
        {
          "internalType": "uint256",
          "name": "index",
          "type": "uint256"
        }
      ],
      "name": "tokenOfOwnerByIndex",
      "outputs": [
        {
          "internalType": "uint256",
          "name": "",
          "type": "uint256"
        }
      ],
      "stateMutability": "view",
      "type": "function"
    },
    {
      "inputs": [
        {
          "internalType": "address",
          "name": "owner",
          "type": "address"
        }
      ],
      "name": "tokensOfOwner",
      "outputs": [
        {
          "internalType": "uint256[]",
          "name": "",
          "type": "uint256[]"
        }
      ],
      "stateMutability": "view",
      "type": "function"
    },
    {
      "inputs": [],
      "name": "totalSupply",
      "outputs": [
        {
          "internalType": "uint256",
          "name": "",
          "type": "uint256"
        }
      ],
      "stateMutability": "view",
      "type": "function"
    },
    {
      "inputs": [
        {
          "internalType": "address",
          "name": "from",
          "type": "address"
        },
        {
          "internalType": "address",
          "name": "to",
          "type": "address"
        },
        {
          "internalType": "uint256",
          "name": "tokenId",
          "type": "uint256"
        }
      ],
      "name": "transferFrom",
      "outputs": [],
      "stateMutability": "nonpayable",
      "type": "function"
    },
    {
      "inputs": [
        {
          "internalType": "address",
          "name": "from",
          "type": "address"
        },
        {
          "internalType": "address",
          "name": "to",
          "type": "address"
        },
        {
          "internalType": "uint256",
          "name": "tokenId",
          "type": "uint256"
        },
        {
          "internalType": "bytes",
          "name": "data",
          "type": "bytes"
        }
      ],
      "name": "transferFrom",
      "outputs": [],
      "stateMutability": "nonpayable",
      "type": "function"
    }
  ],
  "transactionHash": "0xdcd3441935d4676df45de52e2babb19acf5daa1a9ba246b0f2ab4735d1d66560",
  "args": [],
  "numDeployments": 1,
  "solcInputHash": "e39248fcba6c46a8a0b49ab62402d196",
  "bytecode": "0x6080604052348015600f57600080fd5b506126a88061001f6000396000f3fe608060405234801561001057600080fd5b50600436106101075760003560e01c8063081812fc1461010c578063095ea7b31461013557806318160ddd1461014a57806323b872dd146101605780632f745c591461017357806337bdc99b1461018657806342842e0e1461019957806342966c68146101ac5780634d5592ea146101cf5780634f6ccce7146101e25780636352211e146101f557806370a082311461020857806380de54fb1461021b5780638462151c1461022c578063a22cb4651461024c578063ab67aa581461025f578063b0f2362714610272578063b510391f14610285578063b88d4fde14610298578063d7a78db8146102ab578063e985e9c5146102be575b600080fd5b61011f61011a366004611fea565b6102d1565b60405161012c9190612003565b60405180910390f35b61014861014336600461202e565b6102ef565b005b61015261037c565b60405190815260200161012c565b61014861016e366004612058565b61039a565b61015261018136600461202e565b6104c0565b610148610194366004611fea565b6104e2565b6101486101a7366004612058565b61056a565b6101bf6101ba366004611fea565b61064e565b604051901515815260200161012c565b6101bf6101dd3660046120dd565b6106cb565b6101526101f0366004611fea565b610805565b61011f610203366004611fea565b61081c565b61015261021636600461214b565b61082e565b6000546001600160a01b031661011f565b61023f61023a36600461214b565b610845565b60405161012c9190612166565b61014861025a3660046121a9565b61085d565b61014861026d3660046120dd565b61089e565b6101bf61028036600461214b565b6109b2565b6101526102933660046121e5565b610a20565b6101486102a636600461224d565b610af3565b6101486102b9366004611fea565b610c2d565b6101bf6102cc36600461232e565b610c76565b6000806102dc610c8e565b90506102e88184610cb2565b9392505050565b60006102fa8261081c565b9050806001600160a01b0316836001600160a01b03160361032e5760405163250fdee360e21b815260040160405180910390fd5b336001600160a01b0382161480159061034e575061034c8133610c76565b155b1561036c576040516367d9dca160e11b815260040160405180910390fd5b610377838383610cfb565b505050565b600080610387610c8e565b905061039481600b015490565b91505090565b600081815260016020526040902054819060ff16156103d45760405162461bcd60e51b81526004016103cb90612361565b60405180910390fd5b8260006103df610c8e565b905060006103ef335b8390610d58565b905080806103fc57503330145b6104185760405162461bcd60e51b81526004016103cb90612392565b856000610423610c8e565b905060006104318284610d58565b9050808061044757506001600160a01b03831630145b6104635760405162461bcd60e51b81526004016103cb906123ed565b6104708a8a8a6000610da4565b87896001600160a01b03168b6001600160a01b03166000805160206126138339815191526040516104ac90602080825260009082015260400190565b60405180910390a450505050505050505050565b6000806104cb610c8e565b90506104d8818585610dc5565b9150505b92915050565b6000546001600160a01b0316336001600160a01b0316148061050357503330145b61051f5760405162461bcd60e51b81526004016103cb90612449565b6000546001600160a01b0316336001600160a01b0316146105525760405162461bcd60e51b81526004016103cb90612449565b6000908152600160205260409020805460ff19169055565b600081815260016020526040902054819060ff161561059b5760405162461bcd60e51b81526004016103cb90612361565b8260006105a6610c8e565b905060006105b3336103e8565b905080806105c057503330145b6105dc5760405162461bcd60e51b81526004016103cb90612392565b8560006105e7610c8e565b905060006105f58284610d58565b9050808061060b57506001600160a01b03831630145b6106275760405162461bcd60e51b81526004016103cb906123ed565b6106428a8a8a60405180602001604052806000815250610af3565b50505050505050505050565b600080546001600160a01b0316336001600160a01b0316148061067057503330145b61068c5760405162461bcd60e51b81526004016103cb90612449565b61069582610ebc565b604051829033907fcc16f5dbb4873280815c1ee09dbd06736cffcc184412cf7a71a0fdb75d397ca590600090a35060015b919050565b6000806106d6610c8e565b90506106e28186610ee1565b61072d5760405162461bcd60e51b815260206004820152601c60248201527b115490cdcc8c4e881d1bdad95b88191bd95cc81b9bdd08195e1a5cdd60221b60448201526064016103cb565b60006107398287610f11565b9050876001600160a01b0316816001600160a01b0316146107aa5760405162461bcd60e51b815260206004820152602560248201527f4552433732313a207472616e736665722066726f6d20696e636f72726563742060448201526437bbb732b960d91b60648201526084016103cb565b6107b982338a8a8a6001610f25565b85876001600160a01b0316896001600160a01b031660008051602061261383398151915288886040516107ed929190612493565b60405180910390a46001925050505b95945050505050565b600080610810610c8e565b90506102e881846111e4565b60006108278261127d565b5192915050565b600080610839610c8e565b90506102e8818461129b565b60606000610851610c8e565b90506102e881846112ed565b336001600160a01b038316036108865760405163b06307db60e01b815260040160405180910390fd5b6000610890610c8e565b905061037781338585611489565b600083815260016020526040902054839060ff16156108cf5760405162461bcd60e51b81526004016103cb90612361565b8460006108da610c8e565b905060006108e7336103e8565b905080806108f457503330145b6109105760405162461bcd60e51b81526004016103cb90612392565b87600061091b610c8e565b905060006109298284610d58565b9050808061093f57506001600160a01b03831630145b61095b5760405162461bcd60e51b81526004016103cb906123ed565b6109688c8c8c6000610da4565b898b6001600160a01b03168d6001600160a01b03166000805160206126138339815191528c8c60405161099c929190612493565b60405180910390a4505050505050505050505050565b600080546001600160a01b0316336001600160a01b031614806109de57506000546001600160a01b0316155b6109fa5760405162461bcd60e51b81526004016103cb90612449565b50600080546001600160a01b0319166001600160a01b0392909216919091179055600190565b600080546001600160a01b0316336001600160a01b03161480610a4257503330145b610a5e5760405162461bcd60e51b81526004016103cb90612449565b610aa384600185858080601f016020809104026020016040519081016040528093929190818152602001838380828437600092019190915250600192506114f9915050565b6000610aad610c8e565b805460405190935090915082906001600160a01b038716907f0f6798a560793a54c3bcfe86a93cde1e73087d944c0ea20544137d412139688590600090a3509392505050565b826000610afe610c8e565b90506000610b0c8284610d58565b90508080610b2257506001600160a01b03831630145b610b3e5760405162461bcd60e51b81526004016103cb906123ed565b600085815260016020526040902054859060ff1615610b6f5760405162461bcd60e51b81526004016103cb90612361565b866000610b7a610c8e565b90506000610b87336103e8565b90508080610b9457503330145b610bb05760405162461bcd60e51b81526004016103cb90612392565b610bbd8b8b8b6000610da4565b610bc98b8b8b8b611513565b610be6576040516368d2bf6b60e11b815260040160405180910390fd5b888a6001600160a01b03168c6001600160a01b03166000805160206126138339815191528b604051610c189190612508565b60405180910390a45050505050505050505050565b6000546001600160a01b0316336001600160a01b03161480610c4e57503330145b610c6a5760405162461bcd60e51b81526004016103cb90612449565b610c7381611522565b50565b600080610c81610c8e565b90506104d88185856115a7565b7fbd516eb36b5d4489adb2e717e7d0ce56c1b814eda85e78ad9d8f240b24dd830d90565b6000610cbe8383610ee1565b610cdb576040516333d1c03960e21b815260040160405180910390fd5b50600090815260079190910160205260409020546001600160a01b031690565b6000610d05610c8e565b600084815260078201602052604080822080546001600160a01b0319166001600160a01b03898116918217909255915193945086939192908616916000805160206126538339815191529190a450505050565b6001600160a01b038082166000908152601384016020526040812054909116151580156102e857506001600160a01b0380831660009081526013850160205260409020541615156102e8565b6000610dae610c8e565b9050610dbe813387878787610f25565b5050505050565b6040516370a0823160e01b815260009030906370a0823190610deb908690600401612003565b602060405180830381865afa158015610e08573d6000803e3d6000fd5b505050506040513d601f19601f82011682018060405250810190610e2c919061251b565b8210610e8e5760405162461bcd60e51b815260206004820152602b60248201527f455243373231456e756d657261626c653a206f776e657220696e646578206f7560448201526a74206f6620626f756e647360a81b60648201526084016103cb565b506001600160a01b038216600090815260098401602090815260408083208484529091529020549392505050565b6000610ec6610c8e565b9050610edd610ed58284610f11565b8290846115d7565b5050565b8154600090821080156102e857505060009081526005919091016020526040902054600160e01b900460ff161590565b6000610f1d838361176d565b519392505050565b6000610f31878461176d565b9050600081600001516001600160a01b0316876001600160a01b03161480610f6257508151610f62908990896115a7565b80610f8757506001600160a01b038716610f7c8986610cb2565b6001600160a01b0316145b905080158015610f95575082155b15610fb357604051632ce44b5f60e11b815260040160405180910390fd5b856001600160a01b031682600001516001600160a01b031614158015610fd7575082155b15610ff45760405162a1148160e81b815260040160405180910390fd5b6001600160a01b03851661101b57604051633a954ecd60e21b815260040160405180910390fd5b611028888787878761187a565b6001600160a01b038616611045576110408885611962565b611069565b846001600160a01b0316866001600160a01b031614611069576110698887866119a0565b6001600160a01b038516611086576110818885611aaa565b6110aa565b856001600160a01b0316856001600160a01b0316146110aa576110aa888686611b69565b81516110bc9089906000908790611c0b565b6001600160a01b03868116600090815260068a016020908152604080832080546001600160401b03198082166001600160401b03928316600019018316179092558a86168086528386208054938416938316600190810184169490941790558a865260058f0190945282852080546001600160e01b031916909417600160a01b4290921691909102179092559087018083529120549091166111aa5788548110156111aa578251600082815260058b01602090815260409091208054918601516001600160401b0316600160a01b026001600160e01b03199092166001600160a01b03909316929092171790555b5083856001600160a01b0316876001600160a01b031660008051602061263383398151915260405160405180910390a45050505050505050565b60006111f183600b015490565b82106112545760405162461bcd60e51b815260206004820152602c60248201527f455243373231456e756d657261626c653a20676c6f62616c20696e646578206f60448201526b7574206f6620626f756e647360a01b60648201526084016103cb565b600b830180548390811061126a5761126a612534565b9060005260206000200154905092915050565b611285611fca565b600061128f610c8e565b90506102e8818461176d565b60006001600160a01b0382166112c4576040516323d3ad8160e21b815260040160405180910390fd5b506001600160a01b0316600090815260069190910160205260409020546001600160401b031690565b60606001600160a01b03821661135b5760405162461bcd60e51b815260206004820152602d60248201527f4964656e7469747953746f726167653a206f776e657220717565727920666f7260448201526c207a65726f206164647265737360981b60648201526084016103cb565b6040516370a0823160e01b815260009030906370a0823190611381908690600401612003565b602060405180830381865afa15801561139e573d6000803e3d6000fd5b505050506040513d601f19601f820116820180604052508101906113c2919061251b565b9050806000036113e25750506040805160008152602081019091526104dc565b6000816001600160401b038111156113fc576113fc612237565b604051908082528060200260200182016040528015611425578160200160208202803683370190505b50905060005b82811015611480576001600160a01b03851660009081526009870160209081526040808320848452909152902054825183908390811061146d5761146d612534565b602090810291909101015260010161142b565b50949350505050565b6001600160a01b038381166000818152600887016020908152604080832094871680845294825291829020805460ff191686151590811790915591519182527f17307eab39ab6107e8899845ad3d59bd9653f200f220920489ca2b5937696c31910160405180910390a350505050565b6000611503610c8e565b9050610dbe813387878787611c58565b60006107fc3386868686611dc5565b61152c3382611ebb565b6115895760405162461bcd60e51b815260206004820152602860248201527f4552433732313a2063616c6c6572206973206e6f74206f776e6572206e6f7220604482015267185c1c1c9bdd995960c21b60648201526084016103cb565b6000908152600160208190526040909120805460ff19169091179055565b6001600160a01b039182166000908152600893909301602090815260408085209290931684525290205460ff1690565b6115e68383600084600161187a565b6115f38360008385611c0b565b6115fe8383836119a0565b6116088382611aaa565b6001600160a01b03808316600081815260068601602090815260408083208054600160801b6000196001600160401b038084169190910181166001600160401b0319841681178390048216600190810183169093026001600160401b03600160801b03600160c01b0319909416179290921790925587855260058a01909352818420805460ff60e01b1942909516600160a01b026001600160e01b03199091169096179590951792909216600160e01b1790935584018082529190205490911661173657835481101561173657600081815260058501602052604080822080546001600160a01b031981166001600160a01b038816908117835586855292842054938590526001600160e01b031916909117600160a01b928390046001600160401b03169092029190911790555b5060405181906000906001600160a01b03851690600080516020612633833981519152908390a45050600190810180549091019055565b611775611fca565b82548290811015611861576000818152600585016020908152604091829020825160608101845290546001600160a01b0381168252600160a01b81046001600160401b031692820192909252600160e01b90910460ff1615159181018290529061185f5780516001600160a01b0316156117f25791506104dc9050565b50600019016000818152600585016020908152604091829020825160608101845290546001600160a01b038116808352600160a01b82046001600160401b031693830193909352600160e01b900460ff161515928101929092521561185a5791506104dc9050565b6117f2565b505b604051636f96cda160e11b815260040160405180910390fd5b80610dbe57600060015b816118ed576000611896888884611f0e565b806118a957506001600160a01b03871630145b90508080156118be57506118be888784611f0e565b156118cc57600192506118e7565b816118d681612560565b925050816000036118e757506118ed565b50611884565b816119595760405162461bcd60e51b815260206004820152603660248201527f4552433732313a2073656e64657220616e6420726563656976657220646f206e6044820152756f742068617665206120636f6d6d6f6e20636c61696d60501b60648201526084016103cb565b50505050505050565b600b820154611972906001612579565b6000828152600c840160209081526040822092909255600b9093018054600181018255908452922090910155565b6040516370a0823160e01b8152309060009060019083906370a08231906119cb908890600401612003565b602060405180830381865afa1580156119e8573d6000803e3d6000fd5b505050506040513d601f19601f82011682018060405250810190611a0c919061251b565b611a16919061258c565b6000848152600a87016020526040902054909150808214611a6f576001600160a01b038516600090815260098701602090815260408083208584528252808320548484528184208190558352600a890190915290208190555b506000928352600a8501602090815260408085208590556001600160a01b039095168452600990950185528383209083529093529081205550565b600b820154600090611abe9060019061258c565b6000838152600c85016020526040812054600b86018054939450909284908110611aea57611aea612534565b906000526020600020015490508085600001600b018381548110611b1057611b10612534565b6000918252602080832090910192909255828152600c87019091526040808220849055858252812055600b8501805480611b4c57611b4c61259f565b600190038181906000526020600020016000905590555050505050565b6040516370a0823160e01b815260009030906370a0823190611b8f908690600401612003565b602060405180830381865afa158015611bac573d6000803e3d6000fd5b505050506040513d601f19601f82011682018060405250810190611bd0919061251b565b6001600160a01b03909316600090815260098501602090815260408083208684528252808320859055938252600a9095019094525090912055565b600082815260078501602052604080822080546001600160a01b0319166001600160a01b03878116918217909255915185939185169160008051602061265383398151915291a450505050565b85546001600160a01b038516611c8057604051622e076360e81b815260040160405180910390fd5b83600003611ca15760405163b562e8dd60e01b815260040160405180910390fd5b611cb08760008784600161187a565b6001600160a01b0385166000818152600689016020908152604080832080546001600160801b031981166001600160401b038083168c018116918217600160401b6001600160401b031990941690921783900481168c0181169092021790915585845260058c01909252822080546001600160e01b031916909317600160a01b42909216919091021790915581905b85811015611dbe5760405182906001600160a01b03891690600090600080516020612633833981519152908290a4838015611d855750611d83886000898589611dc5565b155b15611da3576040516368d2bf6b60e11b815260040160405180910390fd5b600190910180895590611db68983611962565b600101611d3f565b5050611959565b6000833b15611eb357604051630a85bd0160e11b81526001600160a01b0385169063150b7a0290611e009089908990889088906004016125b5565b6020604051808303816000875af1925050508015611e3b575060408051601f3d908101601f19168201909252611e38918101906125e8565b60015b611e99573d808015611e69576040519150601f19603f3d011682016040523d82523d6000602084013e611e6e565b606091505b508051600003611e91576040516368d2bf6b60e11b815260040160405180910390fd5b805181602001fd5b6001600160e01b031916630a85bd0160e11b1490506107fc565b5060016107fc565b600080611ec6610c8e565b600084815260058201602090815260408083205460078501909252909120549192506001600160a01b0386811691811682149216148180611f045750805b9695505050505050565b600080611f1b8585611fa0565b905060005b6001600160a01b0382166000908152601787016020526040902054811015611f94576001600160a01b03821660009081526017870160205260409020805485919083908110611f7157611f71612534565b906000526020600020015403611f8c576001925050506102e8565b600101611f20565b50600095945050505050565b6001600160a01b038181166000908152601384016020526040812054909116806102e857826104d8565b604080516060810182526000808252602082018190529181019190915290565b600060208284031215611ffc57600080fd5b5035919050565b6001600160a01b0391909116815260200190565b80356001600160a01b03811681146106c657600080fd5b6000806040838503121561204157600080fd5b61204a83612017565b946020939093013593505050565b60008060006060848603121561206d57600080fd5b61207684612017565b925061208460208501612017565b929592945050506040919091013590565b60008083601f8401126120a757600080fd5b5081356001600160401b038111156120be57600080fd5b6020830191508360208285010111156120d657600080fd5b9250929050565b6000806000806000608086880312156120f557600080fd5b6120fe86612017565b945061210c60208701612017565b93506040860135925060608601356001600160401b0381111561212e57600080fd5b61213a88828901612095565b969995985093965092949392505050565b60006020828403121561215d57600080fd5b6102e882612017565b602080825282518282018190526000918401906040840190835b8181101561219e578351835260209384019390920191600101612180565b509095945050505050565b600080604083850312156121bc57600080fd5b6121c583612017565b9150602083013580151581146121da57600080fd5b809150509250929050565b6000806000604084860312156121fa57600080fd5b61220384612017565b925060208401356001600160401b0381111561221e57600080fd5b61222a86828701612095565b9497909650939450505050565b634e487b7160e01b600052604160045260246000fd5b6000806000806080858703121561226357600080fd5b61226c85612017565b935061227a60208601612017565b92506040850135915060608501356001600160401b0381111561229c57600080fd5b8501601f810187136122ad57600080fd5b80356001600160401b038111156122c6576122c6612237565b604051601f8201601f19908116603f011681016001600160401b03811182821017156122f4576122f4612237565b60405281815282820160200189101561230c57600080fd5b8160208401602083013760006020838301015280935050505092959194509250565b6000806040838503121561234157600080fd5b61234a83612017565b915061235860208401612017565b90509250929050565b60208082526017908201527622a9219b99189d103a37b5b2b71034b990333937bd32b760491b604082015260600190565b6020808252603b908201527f4552433732313a2063616c6c6572206973206e6f74207265676973746572656460408201527a1037b9103737ba103a34329031b7b73a3930b1ba1034ba39b2b63360291b606082015260800190565b6020808252603c908201527f4552433732313a2061646472657373206973206e6f742072656769737465726560408201527b321037b9103737ba103a34329031b7b73a3930b1ba1034ba39b2b63360211b606082015260800190565b6020808252602a908201527f4552433732313a2063616c6c6572206973206e6f74207468652064656c6567616040820152693a32b21036b4b73a32b960b11b606082015260800190565b60208152816020820152818360408301376000818301604090810191909152601f909201601f19160101919050565b6000815180845260005b818110156124e8576020818501810151868301820152016124cc565b506000602082860101526020601f19601f83011685010191505092915050565b6020815260006102e860208301846124c2565b60006020828403121561252d57600080fd5b5051919050565b634e487b7160e01b600052603260045260246000fd5b634e487b7160e01b600052601160045260246000fd5b6000600182016125725761257261254a565b5060010190565b808201808211156104dc576104dc61254a565b818103818111156104dc576104dc61254a565b634e487b7160e01b600052603160045260246000fd5b6001600160a01b0385811682528416602082015260408101839052608060608201819052600090611f04908301846124c2565b6000602082840312156125fa57600080fd5b81516001600160e01b0319811681146102e857600080fdfe5217aa86c8654468635893eb5313c447995a9a4fd1a5db5f44c98d589084f628ddf252ad1be2c89b69c2b068fc378daa952ba7f163c4a11628f55a4df523b3ef8c5be1e5ebec7d5bd14f71427d1e84f3dd0314c0f7b2291e5b200ac8c7c3b925a264697066735822122008588c081abc160a96d31b2630a6d871520fe199652c44b3535a870b2f04f64b64736f6c634300081c0033",
  "libraries": {
    "AddressSet": "0x8aB21bf41B908d9CBee3E78e97033E3916840cA8",
    "AttributeLib": "0x9d0749b64bEDB024B1AaF596c84029E67635D43c",
    "Base64": "0x8d10857B6d2bEA12d67A888F3E995ea142Db701E",
    "Bytes32Set": "0xB01Cf1Baf9ABFa5309AE3ff649B31ae87A80AE62",
    "CarbonCreditLib": "0x44520E8dA039d4D7D460f5DBF6C1eC347De53A7C",
    "DiamondFactoryLib": "0x50353159348c63A448eDAfC6d5ef81CF9C1cdE9a",
    "DiamondLib": "0x2Be86045394c8096b3b9d9449A08Cc74afEd5717",
    "ERC721AEnumerationLib": "0x6a9A6D75AECEfB8dC969D5Ef5ea3EcF57e29706d",
    "ERC721ALib": "0x8F980CBDb943c2794FdA47D82d81a71d31A815DE",
    "Identity": "0x4C6fE457018d32B9aEc2aA99F655b5aCD7d0D658",
    "IdentityFactory": "0x5c970fD1E772548Be3Dc3de62381Fd8b2b3fAb96",
    "IdentitySystemStorage": "0x05d7966Acfa90f529e3844B1d1b7702dBde7789c",
    "LibDiamond": "0x30Fb10d923CfFC1151B8CFe683A937F414854570",
    "MerkleProver": "0x6361c8F2C7Fb1498C15C5e90Ed477ee8cEeC9f5f",
    "MetadataLib": "0xEA17bE869d528F2c3e4F7cae231ebE4BE42BeB75",
    "MultiSaleLib": "0x3b12B21202DaC69552E7b1f9D4D3E31085c7a378",
    "Strings": "0x26375f3210F1F8C90f53c663AC44F3d4a86b12A6",
    "StringsLib": "0x928c0A50586514D291087403befe3540E3631ECd",
    "SVGTemplatesLib": "0xFD3DfE346d5d5c8C90313036BC1b1E3De29FCb33",
    "UInt256Set": "0x908B9bE15117446dE01d076Ecb75D9210E182D97",
    "VariablePriceLib": "0x92E3cBf7226518CF757c48446067de1485CCCcBb"
  },
  "devdoc": {
    "errors": {
      "InvalidInitialization()": [
        {
          "details": "The contract is already initialized."
        }
      ],
      "NotInitializing()": [
        {
          "details": "The contract is not initializing."
        }
      ]
    },
    "events": {
      "Approval(address,address,uint256)": {
        "details": "Emitted when `owner` enables `approved` to manage the `tokenId` token."
      },
      "ApprovalForAll(address,address,bool)": {
        "details": "Emitted when `owner` enables or disables (`approved`) `operator` to manage all of its assets."
      },
      "Initialized(uint64)": {
        "details": "Triggered when the contract has been initialized or reinitialized."
      },
      "Transfer(address,address,uint256)": {
        "details": "Emitted when `tokenId` token is transferred from `from` to `to`."
      }
    },
    "kind": "dev",
    "methods": {
      "approve(address,uint256)": {
        "details": "See {IERC721-approve}."
      },
      "balanceOf(address)": {
        "details": "See {IERC721-balanceOf}."
      },
      "delegatedMinter()": {
        "details": "Returns the address of the current delegated minter."
      },
      "forcedTransfer(address,address,uint256,bytes)": {
        "details": "See {IERC721A-getApproved}."
      },
      "getApproved(uint256)": {
        "details": "See {IERC721-getApproved}."
      },
      "isApprovedForAll(address,address)": {
        "details": "See {IERC721-isApprovedForAll}."
      },
      "ownerOf(uint256)": {
        "details": "See {IERC721-ownerOf}."
      },
      "safeTransferFrom(address,address,uint256)": {
        "details": "See {IERC721-safeTransferFrom}."
      },
      "safeTransferFrom(address,address,uint256,bytes)": {
        "details": "See {IERC721-safeTransferFrom}."
      },
      "setApprovalForAll(address,bool)": {
        "details": "See {IERC721-setApprovalForAll}."
      },
      "setDelegatedMinter(address)": {
        "details": "Throws if called by any account other than the owner."
      },
      "tokenByIndex(uint256)": {
        "details": "See {IERC721Enumerable-tokenByIndex}."
      },
      "tokenOfOwnerByIndex(address,uint256)": {
        "details": "See {IERC721Enumerable-tokenOfOwnerByIndex}."
      },
      "totalSupply()": {
        "details": "See {IERC721Enumerable-totalSupply}."
      },
      "transferFrom(address,address,uint256)": {
        "details": "See {IERC721-transferFrom}."
      },
      "transferFrom(address,address,uint256,bytes)": {
        "details": "See {IERC721-transferFrom}."
      }
    },
    "version": 1
  },
  "userdoc": {
    "kind": "user",
    "methods": {},
    "version": 1
  },
  "storageLayout": {
    "storage": [
      {
        "astId": 35337,
        "contract": "contracts/tokens/ERC721/ERC721PermissionedTokenFacet.sol:ERC721PermissionedTokenFacet",
        "label": "_delegatedMinter",
        "offset": 0,
        "slot": "0",
        "type": "t_address"
      },
      {
        "astId": 35341,
        "contract": "contracts/tokens/ERC721/ERC721PermissionedTokenFacet.sol:ERC721PermissionedTokenFacet",
        "label": "_frozen",
        "offset": 0,
        "slot": "1",
        "type": "t_mapping(t_uint256,t_bool)"
      }
    ],
    "types": {
      "t_address": {
        "encoding": "inplace",
        "label": "address",
        "numberOfBytes": "20"
      },
      "t_bool": {
        "encoding": "inplace",
        "label": "bool",
        "numberOfBytes": "1"
      },
      "t_mapping(t_uint256,t_bool)": {
        "encoding": "mapping",
        "key": "t_uint256",
        "label": "mapping(uint256 => bool)",
        "numberOfBytes": "32",
        "value": "t_bool"
      },
      "t_uint256": {
        "encoding": "inplace",
        "label": "uint256",
        "numberOfBytes": "32"
      }
    }
  }
}