{
  "address": "0xbD8fa04CfB6e697bEC22cd616f8067582A5aB352",
  "abi": [
    {
      "inputs": [
        {
          "internalType": "uint256",
          "name": "id",
          "type": "uint256"
        },
        {
          "internalType": "string",
          "name": "key",
          "type": "string"
        }
      ],
      "name": "getAttribute",
      "outputs": [
        {
          "components": [
            {
              "internalType": "string",
              "name": "key",
              "type": "string"
            },
            {
              "internalType": "enum AttributeType",
              "name": "attributeType",
              "type": "uint8"
            },
            {
              "internalType": "string",
              "name": "value",
              "type": "string"
            }
          ],
          "internalType": "struct Attribute",
          "name": "",
          "type": "tuple"
        }
      ],
      "stateMutability": "view",
      "type": "function"
    },
    {
      "inputs": [
        {
          "internalType": "uint256",
          "name": "id",
          "type": "uint256"
        }
      ],
      "name": "getAttributeKeys",
      "outputs": [
        {
          "internalType": "string[]",
          "name": "",
          "type": "string[]"
        }
      ],
      "stateMutability": "view",
      "type": "function"
    },
    {
      "inputs": [
        {
          "internalType": "uint256",
          "name": "id",
          "type": "uint256"
        }
      ],
      "name": "getAttributes",
      "outputs": [
        {
          "components": [
            {
              "internalType": "string",
              "name": "key",
              "type": "string"
            },
            {
              "internalType": "enum AttributeType",
              "name": "attributeType",
              "type": "uint8"
            },
            {
              "internalType": "string",
              "name": "value",
              "type": "string"
            }
          ],
          "internalType": "struct Attribute[]",
          "name": "",
          "type": "tuple[]"
        }
      ],
      "stateMutability": "view",
      "type": "function"
    },
    {
      "inputs": [
        {
          "internalType": "uint256",
          "name": "id",
          "type": "uint256"
        },
        {
          "components": [
            {
              "internalType": "string",
              "name": "key",
              "type": "string"
            },
            {
              "internalType": "enum AttributeType",
              "name": "attributeType",
              "type": "uint8"
            },
            {
              "internalType": "string",
              "name": "value",
              "type": "string"
            }
          ],
          "internalType": "struct Attribute",
          "name": "attrib",
          "type": "tuple"
        }
      ],
      "name": "setAttribute",
      "outputs": [],
      "stateMutability": "nonpayable",
      "type": "function"
    }
  ],
  "transactionHash": "0x016addea4ae23d6fcb254becdfa07b94a6813df61139b43348c4ffc716088854",
  "args": [],
  "numDeployments": 1,
  "solcInputHash": "ccf876918ad4728259522ce4e695c811",
  "bytecode": "0x6080604052348015600f57600080fd5b50610ef38061001f6000396000f3fe608060405234801561001057600080fd5b506004361061004c5760003560e01c806325d0d9f6146100515780634378a6e314610066578063c536080a1461008f578063eaf1c6d3146100af575b600080fd5b61006461005f3660046109cc565b6100cf565b005b610079610074366004610a89565b610174565b6040516100869190610b69565b60405180910390f35b6100a261009d366004610a89565b6103d7565b6040516100869190610bce565b6100c26100bd366004610c27565b6103e8565b6040516100869190610c6d565b336101017fc8fcad8db84d3cc18b4c41d551ea0ee66dd599cde068d998e57d5e09332c1320546001600160a01b031690565b6001600160a01b0316148061011557503033145b6101665760405162461bcd60e51b815260206004820152601f60248201527f6e6f7420617574686f72697a656420746f2063616c6c2066756e6374696f6e0060448201526064015b60405180910390fd5b6101708282610401565b5050565b6060600061018061041d565b6000848152600282016020526040812054919250816001600160401b038111156101ac576101ac610901565b6040519080825280602002602001820160405280156101e557816020015b6101d26108e2565b8152602001906001900390816101ca5790505b50905060005b828110156103ce57600086815260018501602090815260408083206002880190925290912080548390811061022257610222610c80565b906000526020600020016040516102399190610cd0565b908152602001604051809103902060405180606001604052908160008201805461026290610c96565b80601f016020809104026020016040519081016040528092919081815260200182805461028e90610c96565b80156102db5780601f106102b0576101008083540402835291602001916102db565b820191906000526020600020905b8154815290600101906020018083116102be57829003601f168201915b5050509183525050600182015460209091019060ff16600681111561030257610302610af2565b600681111561031357610313610af2565b815260200160028201805461032790610c96565b80601f016020809104026020016040519081016040528092919081815260200182805461035390610c96565b80156103a05780601f10610375576101008083540402835291602001916103a0565b820191906000526020600020905b81548152906001019060200180831161038357829003601f168201915b5050505050815250508282815181106103bb576103bb610c80565b60209081029190910101526001016101eb565b50949350505050565b60606103e282610441565b92915050565b6103f06108e2565b6103fa8383610535565b9392505050565b600061040b61041d565b905061041881848461055c565b505050565b7f264f51f07aa3d51ea784d74d6ff6227c6463cf789f1512b893918a8860f146e490565b6060600061044d61041d565b60008481526002820160209081526040808320805482518185028101850190935280835294955090939092909184015b8282101561052957838290600052602060002001805461049c90610c96565b80601f01602080910402602001604051908101604052809291908181526020018280546104c890610c96565b80156105155780601f106104ea57610100808354040283529160200191610515565b820191906000526020600020905b8154815290600101906020018083116104f857829003601f168201915b50505050508152602001906001019061047d565b50505050915050919050565b61053d6108e2565b600061054761041d565b9050610554818585610713565b949350505050565b60008281526020849052604090205460ff161561058b5760405162461bcd60e51b815260040161015d90610d45565b6000828152600384016020526040908190208251915190916105ac91610d74565b908152602001604051809103902054600014801561060657506000828152600184016020526040908190208251915190916105e691610d74565b9081526020016040518091039020600201805461060290610c96565b1590505b1561068c5760008281526002840160209081526040822083518154600181018355918452919092209091019061063c9082610dde565b50600082815260028401602052604090205461065a90600190610e9c565b60008381526003850160205260409081902083519151909161067b91610d74565b908152604051908190036020019020555b6000828152600184016020526040908190208251915183926106ad91610d74565b908152604051908190036020019020815181906106ca9082610dde565b50602082015160018083018054909160ff19909116908360068111156106f2576106f2610af2565b02179055506040820151600282019061070b9082610dde565b505050505050565b61071b6108e2565b60008381526020859052604090205460ff161561074a5760405162461bcd60e51b815260040161015d90610d45565b6000838152600185016020526040908190209051610769908490610d74565b908152602001604051809103902060405180606001604052908160008201805461079290610c96565b80601f01602080910402602001604051908101604052809291908181526020018280546107be90610c96565b801561080b5780601f106107e05761010080835404028352916020019161080b565b820191906000526020600020905b8154815290600101906020018083116107ee57829003601f168201915b5050509183525050600182015460209091019060ff16600681111561083257610832610af2565b600681111561084357610843610af2565b815260200160028201805461085790610c96565b80601f016020809104026020016040519081016040528092919081815260200182805461088390610c96565b80156108d05780601f106108a5576101008083540402835291602001916108d0565b820191906000526020600020905b8154815290600101906020018083116108b357829003601f168201915b50505050508152505090509392505050565b6040805160608082018352808252600060208301529181019190915290565b634e487b7160e01b600052604160045260246000fd5b604051606081016001600160401b038111828210171561093957610939610901565b60405290565b600082601f83011261095057600080fd5b81356001600160401b0381111561096957610969610901565b604051601f8201601f19908116603f011681016001600160401b038111828210171561099757610997610901565b6040528181528382016020018510156109af57600080fd5b816020850160208301376000918101602001919091529392505050565b600080604083850312156109df57600080fd5b8235915060208301356001600160401b038111156109fc57600080fd5b830160608186031215610a0e57600080fd5b610a16610917565b81356001600160401b03811115610a2c57600080fd5b610a388782850161093f565b825250602082013560078110610a4d57600080fd5b602082015260408201356001600160401b03811115610a6b57600080fd5b610a778782850161093f565b60408301525080925050509250929050565b600060208284031215610a9b57600080fd5b5035919050565b60005b83811015610abd578181015183820152602001610aa5565b50506000910152565b60008151808452610ade816020860160208601610aa2565b601f01601f19169290920160200192915050565b634e487b7160e01b600052602160045260246000fd5b6000815160608452610b1d6060850182610ac6565b9050602083015160078110610b4257634e487b7160e01b600052602160045260246000fd5b8060208601525060408301518482036040860152610b608282610ac6565b95945050505050565b6000602082016020835280845180835260408501915060408160051b86010192506020860160005b82811015610bc257603f19878603018452610bad858351610b08565b94506020938401939190910190600101610b91565b50929695505050505050565b6000602082016020835280845180835260408501915060408160051b86010192506020860160005b82811015610bc257603f19878603018452610c12858351610ac6565b94506020938401939190910190600101610bf6565b60008060408385031215610c3a57600080fd5b8235915060208301356001600160401b03811115610c5757600080fd5b610c638582860161093f565b9150509250929050565b6020815260006103fa6020830184610b08565b634e487b7160e01b600052603260045260246000fd5b600181811c90821680610caa57607f821691505b602082108103610cca57634e487b7160e01b600052602260045260246000fd5b50919050565b6000808354610cde81610c96565b600182168015610cf55760018114610d0a57610d3a565b60ff1983168652811515820286019350610d3a565b86600052602060002060005b83811015610d3257815488820152600190910190602001610d16565b505081860193505b509195945050505050565b602080825260159082015274151bdad95b881a185cc81899595b88189d5c9b9959605a1b604082015260600190565b60008251610d86818460208701610aa2565b9190910192915050565b601f82111561041857806000526020600020601f840160051c81016020851015610db75750805b601f840160051c820191505b81811015610dd75760008155600101610dc3565b5050505050565b81516001600160401b03811115610df757610df7610901565b610e0b81610e058454610c96565b84610d90565b6020601f821160018114610e3f5760008315610e275750848201515b600019600385901b1c1916600184901b178455610dd7565b600084815260208120601f198516915b82811015610e6f5787850151825560209485019460019092019101610e4f565b5084821015610e8d5786840151600019600387901b60f8161c191681555b50505050600190811b01905550565b818103818111156103e257634e487b7160e01b600052601160045260246000fdfea26469706673582212208226ff1c98f6b7673cb183aa6b5b7dc4ee44524c0d8e004187f9ce4802880add64736f6c634300081c0033",
  "libraries": {
    "AddressSet": "0x8aB21bf41B908d9CBee3E78e97033E3916840cA8",
    "AttributeLib": "0x9d0749b64bEDB024B1AaF596c84029E67635D43c",
    "Base64": "0x8d10857B6d2bEA12d67A888F3E995ea142Db701E",
    "Bytes32Set": "0xB01Cf1Baf9ABFa5309AE3ff649B31ae87A80AE62",
    "CarbonCreditLib": "0x44520E8dA039d4D7D460f5DBF6C1eC347De53A7C",
    "DiamondFactoryLib": "0x50353159348c63A448eDAfC6d5ef81CF9C1cdE9a",
    "DiamondLib": "0x2Be86045394c8096b3b9d9449A08Cc74afEd5717",
    "ERC721AEnumerationLib": "0x6a9A6D75AECEfB8dC969D5Ef5ea3EcF57e29706d",
    "ERC721ALib": "0x8F980CBDb943c2794FdA47D82d81a71d31A815DE",
    "Identity": "0x4C6fE457018d32B9aEc2aA99F655b5aCD7d0D658",
    "IdentityFactory": "0x5c970fD1E772548Be3Dc3de62381Fd8b2b3fAb96",
    "IdentitySystemStorage": "0x05d7966Acfa90f529e3844B1d1b7702dBde7789c",
    "LibDiamond": "0x30Fb10d923CfFC1151B8CFe683A937F414854570",
    "MerkleProver": "0x6361c8F2C7Fb1498C15C5e90Ed477ee8cEeC9f5f",
    "MetadataLib": "0xEA17bE869d528F2c3e4F7cae231ebE4BE42BeB75",
    "MultiSaleLib": "0x3b12B21202DaC69552E7b1f9D4D3E31085c7a378",
    "Strings": "0x26375f3210F1F8C90f53c663AC44F3d4a86b12A6",
    "StringsLib": "0x928c0A50586514D291087403befe3540E3631ECd",
    "SVGTemplatesLib": "0xFD3DfE346d5d5c8C90313036BC1b1E3De29FCb33",
    "UInt256Set": "0x908B9bE15117446dE01d076Ecb75D9210E182D97",
    "VariablePriceLib": "0x92E3cBf7226518CF757c48446067de1485CCCcBb"
  },
  "devdoc": {
    "kind": "dev",
    "methods": {},
    "title": "ERC721AAttributes",
    "version": 1
  },
  "userdoc": {
    "kind": "user",
    "methods": {
      "setAttribute(uint256,(string,uint8,string))": {
        "notice": "set an attribute value"
      }
    },
    "notice": "the total balance of a token type",
    "version": 1
  },
  "storageLayout": {
    "storage": [],
    "types": null
  }
}