{
  "address": "0x4e366182f42150b93214e898A3a6b03eE027bb8a",
  "abi": [
    {
      "inputs": [
        {
          "internalType": "uint256",
          "name": "value",
          "type": "uint256"
        },
        {
          "internalType": "uint256",
          "name": "length",
          "type": "uint256"
        }
      ],
      "name": "StringsInsufficientHexLength",
      "type": "error"
    },
    {
      "inputs": [],
      "name": "URIQueryForNonexistentToken",
      "type": "error"
    },
    {
      "anonymous": false,
      "inputs": [
        {
          "indexed": true,
          "internalType": "address",
          "name": "tokenAddress",
          "type": "address"
        },
        {
          "indexed": false,
          "internalType": "uint256",
          "name": "tokenId",
          "type": "uint256"
        },
        {
          "indexed": false,
          "internalType": "string",
          "name": "attributeKey",
          "type": "string"
        }
      ],
      "name": "AttributeRemoved",
      "type": "event"
    },
    {
      "anonymous": false,
      "inputs": [
        {
          "indexed": false,
          "internalType": "string",
          "name": "key",
          "type": "string"
        }
      ],
      "name": "ContractMetadataDeleted",
      "type": "event"
    },
    {
      "anonymous": false,
      "inputs": [
        {
          "indexed": false,
          "internalType": "string",
          "name": "key",
          "type": "string"
        },
        {
          "components": [
            {
              "internalType": "string",
              "name": "key",
              "type": "string"
            },
            {
              "internalType": "enum AttributeType",
              "name": "attributeType",
              "type": "uint8"
            },
            {
              "internalType": "string",
              "name": "value",
              "type": "string"
            }
          ],
          "indexed": false,
          "internalType": "struct Attribute",
          "name": "value",
          "type": "tuple"
        }
      ],
      "name": "ContractMetadataSet",
      "type": "event"
    },
    {
      "anonymous": false,
      "inputs": [
        {
          "indexed": true,
          "internalType": "uint256",
          "name": "tokenId",
          "type": "uint256"
        },
        {
          "indexed": false,
          "internalType": "string",
          "name": "key",
          "type": "string"
        }
      ],
      "name": "TokenMetadataDeleted",
      "type": "event"
    },
    {
      "anonymous": false,
      "inputs": [
        {
          "indexed": true,
          "internalType": "uint256",
          "name": "tokenId",
          "type": "uint256"
        },
        {
          "indexed": false,
          "internalType": "string",
          "name": "key",
          "type": "string"
        },
        {
          "components": [
            {
              "internalType": "string",
              "name": "key",
              "type": "string"
            },
            {
              "internalType": "enum AttributeType",
              "name": "attributeType",
              "type": "uint8"
            },
            {
              "internalType": "string",
              "name": "value",
              "type": "string"
            }
          ],
          "indexed": false,
          "internalType": "struct Attribute",
          "name": "value",
          "type": "tuple"
        }
      ],
      "name": "TokenMetadataSet",
      "type": "event"
    },
    {
      "inputs": [],
      "name": "baseUri",
      "outputs": [
        {
          "internalType": "string",
          "name": "",
          "type": "string"
        }
      ],
      "stateMutability": "view",
      "type": "function"
    },
    {
      "inputs": [],
      "name": "contractURI",
      "outputs": [
        {
          "internalType": "string",
          "name": "",
          "type": "string"
        }
      ],
      "stateMutability": "view",
      "type": "function"
    },
    {
      "inputs": [
        {
          "internalType": "string",
          "name": "key",
          "type": "string"
        }
      ],
      "name": "deleteContractMetadata",
      "outputs": [],
      "stateMutability": "nonpayable",
      "type": "function"
    },
    {
      "inputs": [
        {
          "internalType": "uint256",
          "name": "tokenId",
          "type": "uint256"
        },
        {
          "internalType": "string",
          "name": "key",
          "type": "string"
        }
      ],
      "name": "deleteTokenMetadata",
      "outputs": [],
      "stateMutability": "nonpayable",
      "type": "function"
    },
    {
      "inputs": [],
      "name": "description",
      "outputs": [
        {
          "internalType": "string",
          "name": "",
          "type": "string"
        }
      ],
      "stateMutability": "view",
      "type": "function"
    },
    {
      "inputs": [],
      "name": "externalUri",
      "outputs": [
        {
          "internalType": "string",
          "name": "",
          "type": "string"
        }
      ],
      "stateMutability": "view",
      "type": "function"
    },
    {
      "inputs": [],
      "name": "getAllContractMetadata",
      "outputs": [
        {
          "internalType": "string[]",
          "name": "keys",
          "type": "string[]"
        },
        {
          "internalType": "string[]",
          "name": "values",
          "type": "string[]"
        }
      ],
      "stateMutability": "view",
      "type": "function"
    },
    {
      "inputs": [
        {
          "internalType": "uint256",
          "name": "tokenId",
          "type": "uint256"
        }
      ],
      "name": "getAllTokenMetadata",
      "outputs": [
        {
          "internalType": "string[]",
          "name": "keys",
          "type": "string[]"
        },
        {
          "internalType": "string[]",
          "name": "values",
          "type": "string[]"
        }
      ],
      "stateMutability": "view",
      "type": "function"
    },
    {
      "inputs": [],
      "name": "getContractKeys",
      "outputs": [
        {
          "internalType": "string[]",
          "name": "",
          "type": "string[]"
        }
      ],
      "stateMutability": "view",
      "type": "function"
    },
    {
      "inputs": [
        {
          "internalType": "string",
          "name": "key",
          "type": "string"
        }
      ],
      "name": "getContractMetadata",
      "outputs": [
        {
          "components": [
            {
              "internalType": "string",
              "name": "key",
              "type": "string"
            },
            {
              "internalType": "enum AttributeType",
              "name": "attributeType",
              "type": "uint8"
            },
            {
              "internalType": "string",
              "name": "value",
              "type": "string"
            }
          ],
          "internalType": "struct Attribute",
          "name": "",
          "type": "tuple"
        }
      ],
      "stateMutability": "view",
      "type": "function"
    },
    {
      "inputs": [
        {
          "internalType": "uint256",
          "name": "tokenId",
          "type": "uint256"
        }
      ],
      "name": "getTokenKeys",
      "outputs": [
        {
          "internalType": "string[]",
          "name": "",
          "type": "string[]"
        }
      ],
      "stateMutability": "view",
      "type": "function"
    },
    {
      "inputs": [
        {
          "internalType": "uint256",
          "name": "tokenId",
          "type": "uint256"
        },
        {
          "internalType": "string",
          "name": "key",
          "type": "string"
        }
      ],
      "name": "getTokenMetadata",
      "outputs": [
        {
          "components": [
            {
              "internalType": "string",
              "name": "key",
              "type": "string"
            },
            {
              "internalType": "enum AttributeType",
              "name": "attributeType",
              "type": "uint8"
            },
            {
              "internalType": "string",
              "name": "value",
              "type": "string"
            }
          ],
          "internalType": "struct Attribute",
          "name": "",
          "type": "tuple"
        }
      ],
      "stateMutability": "view",
      "type": "function"
    },
    {
      "inputs": [],
      "name": "image",
      "outputs": [
        {
          "internalType": "string",
          "name": "",
          "type": "string"
        }
      ],
      "stateMutability": "view",
      "type": "function"
    },
    {
      "inputs": [],
      "name": "name",
      "outputs": [
        {
          "internalType": "string",
          "name": "",
          "type": "string"
        }
      ],
      "stateMutability": "view",
      "type": "function"
    },
    {
      "inputs": [
        {
          "internalType": "string",
          "name": "_baseUri",
          "type": "string"
        }
      ],
      "name": "setBaseUri",
      "outputs": [],
      "stateMutability": "nonpayable",
      "type": "function"
    },
    {
      "inputs": [
        {
          "internalType": "string",
          "name": "key",
          "type": "string"
        },
        {
          "components": [
            {
              "internalType": "string",
              "name": "key",
              "type": "string"
            },
            {
              "internalType": "enum AttributeType",
              "name": "attributeType",
              "type": "uint8"
            },
            {
              "internalType": "string",
              "name": "value",
              "type": "string"
            }
          ],
          "internalType": "struct Attribute",
          "name": "value",
          "type": "tuple"
        }
      ],
      "name": "setContractMetadata",
      "outputs": [],
      "stateMutability": "nonpayable",
      "type": "function"
    },
    {
      "inputs": [
        {
          "components": [
            {
              "internalType": "string",
              "name": "_name",
              "type": "string"
            },
            {
              "internalType": "string",
              "name": "_symbol",
              "type": "string"
            },
            {
              "internalType": "string",
              "name": "_description",
              "type": "string"
            },
            {
              "internalType": "string",
              "name": "_imageName",
              "type": "string"
            },
            {
              "internalType": "string[]",
              "name": "_imageColors",
              "type": "string[]"
            },
            {
              "internalType": "string",
              "name": "_externalUri",
              "type": "string"
            },
            {
              "internalType": "enum MetadataSource",
              "name": "_metadataSource",
              "type": "uint8"
            },
            {
              "internalType": "string",
              "name": "_baseUri",
              "type": "string"
            }
          ],
          "internalType": "struct MetadataContract",
          "name": "_contract",
          "type": "tuple"
        }
      ],
      "name": "setMetadata",
      "outputs": [],
      "stateMutability": "nonpayable",
      "type": "function"
    },
    {
      "inputs": [
        {
          "internalType": "enum MetadataSource",
          "name": "_source",
          "type": "uint8"
        }
      ],
      "name": "setMetadataSource",
      "outputs": [],
      "stateMutability": "nonpayable",
      "type": "function"
    },
    {
      "inputs": [
        {
          "internalType": "uint256",
          "name": "tokenId",
          "type": "uint256"
        },
        {
          "components": [
            {
              "internalType": "string",
              "name": "key",
              "type": "string"
            },
            {
              "internalType": "enum AttributeType",
              "name": "attributeType",
              "type": "uint8"
            },
            {
              "internalType": "string",
              "name": "value",
              "type": "string"
            }
          ],
          "internalType": "struct Attribute",
          "name": "value",
          "type": "tuple"
        }
      ],
      "name": "setTokenMetadata",
      "outputs": [],
      "stateMutability": "nonpayable",
      "type": "function"
    },
    {
      "inputs": [],
      "name": "symbol",
      "outputs": [
        {
          "internalType": "string",
          "name": "",
          "type": "string"
        }
      ],
      "stateMutability": "view",
      "type": "function"
    },
    {
      "inputs": [
        {
          "internalType": "uint256",
          "name": "tokenId",
          "type": "uint256"
        }
      ],
      "name": "tokenURI",
      "outputs": [
        {
          "internalType": "string",
          "name": "",
          "type": "string"
        }
      ],
      "stateMutability": "view",
      "type": "function"
    }
  ],
  "transactionHash": "0x1892d9724d2090644dfe08ee241eb9fd58ee6c4a9c2b8b29e6c355de04ffb60f",
  "args": [],
  "numDeployments": 1,
  "solcInputHash": "e39248fcba6c46a8a0b49ab62402d196",
  "bytecode": "0x6080604052348015600f57600080fd5b506145758061001f6000396000f3fe608060405234801561001057600080fd5b50600436106101075760003560e01c806306fdde031461010c57806308ea73551461012a578063465996f31461013f57806349659eba146101605780636016272d146101735780637284e416146101885780637405eb78146101905780638e324aa6146101a357806395d89b41146101b6578063980ee2b4146101be5780639abc8320146101c65780639e574b14146101ce578063a0bcfc7f146101ee578063c07ecaa414610201578063c87b56dd14610214578063cdb490d514610227578063e89e6075146101c6578063e8a3d4851461023a578063efb0aefc14610242578063f3ccaac014610255578063f9f268211461025d575b600080fd5b610114610270565b60405161012191906134bd565b60405180910390f35b610132610287565b6040516101219190613520565b61015261014d366004613533565b61029b565b60405161012192919061354c565b61013261016e366004613533565b6102ea565b61018661018136600461370e565b610323565b005b6101146103d0565b61018661019e366004613754565b6103e2565b6101866101b13660046137a5565b61046b565b610114610506565b610152610518565b610114610538565b6101e16101dc3660046137e1565b6105d3565b6040516101219190613883565b6101866101fc3660046137e1565b6105ee565b61018661020f3660046137e1565b61060b565b610114610222366004613533565b610691565b6101e16102353660046137a5565b61078a565b6101146107cb565b610186610250366004613946565b610d0b565b610114610d25565b61018661026b366004613ac9565b610d37565b606061028261027d610d51565b610d75565b905090565b6060610282610294610e0b565b6000610e2f565b606080600083116102c75760405162461bcd60e51b81526004016102be90613ae4565b60405180910390fd5b6102d86102d2610e0b565b84610e2f565b91506102e383610f44565b9050915091565b60606000821161030c5760405162461bcd60e51b81526004016102be90613ae4565b61031d610317610e0b565b83610e2f565b92915050565b3361032c611195565b6001600160a01b0316148061034057503033145b61035c5760405162461bcd60e51b81526004016102be90613b0d565b6000821161037c5760405162461bcd60e51b81526004016102be90613ae4565b61038e610387610e0b565b83836111b1565b817faa6a47e716291e129fb3776da260039dd0cfc5f8e7defbbf1486cccc3cfbcff78260000151836040516103c4929190613b44565b60405180910390a25050565b60606102826103dd610d51565b611368565b336103eb611195565b6001600160a01b031614806103ff57503033145b61041b5760405162461bcd60e51b81526004016102be90613b0d565b61042e610426610e0b565b6000836111b1565b7fe26972c40d6f776e94ae71e157d87732378d0567ae26f5bf9cab369f5c3ce332828260405161045f929190613b44565b60405180910390a15050565b33610474611195565b6001600160a01b0316148061048857503033145b6104a45760405162461bcd60e51b81526004016102be90613b0d565b600082116104c45760405162461bcd60e51b81526004016102be90613ae4565b6104d66104cf610e0b565b8383611379565b817f524e7a90569dd00ff635367dbf760b89d8d549a8a8be671a948583d4dccf18b5826040516103c491906134bd565b6060610282610513610d51565b6115b6565b606080610526610294610e0b565b91506105326000610f44565b90509091565b6060610542610d51565b600501805461055090613b69565b80601f016020809104026020016040519081016040528092919081815260200182805461057c90613b69565b80156105c95780601f1061059e576101008083540402835291602001916105c9565b820191906000526020600020905b8154815290600101906020018083116105ac57829003601f168201915b5050505050905090565b6105db613372565b61031d6105e6610e0b565b6000846115c7565b6105f6611796565b61060881610602610d51565b90611806565b50565b33610614611195565b6001600160a01b0316148061062857503033145b6106445760405162461bcd60e51b81526004016102be90613b0d565b61065761064f610e0b565b600083611379565b7f1ef914939e1dce0ea50fc4a9ad05cf091375d9c6f364f2a4f3876ef6030bd3378160405161068691906134bd565b60405180910390a150565b60607fbd516eb36b5d4489adb2e717e7d0ce56c1b814eda85e78ad9d8f240b24dd830d6106be8184611819565b6106db57604051630a14c4b560e41b815260040160405180910390fd5b60006106e5610d51565b90506000600682015460ff16600181111561070257610702613815565b03610747576007810161071430611849565b61071d866118c3565b60405160200161072f93929190613c15565b60405160208183030381529060405292505050919050565b6000610751610e0b565b90507f3b28ada7424160f36dba04e603ff68d11ac4a3eeb1ef7a9911d79d949607b74061078083828489611955565b9695505050505050565b610792613372565b600083116107b25760405162461bcd60e51b81526004016102be90613ae4565b6107c46107bd610e0b565b84846115c7565b9392505050565b606060006107d7610d51565b905060606000600683015460ff1660018111156107f6576107f6613815565b0361082f576007820161080830611849565b604051602001610819929190613c5b565b6040516020818303038152906040529250505090565b600061083a8361208a565b9150506000610ce0610cdb8484876040518061010001604052908160008201805461086490613b69565b80601f016020809104026020016040519081016040528092919081815260200182805461089090613b69565b80156108dd5780601f106108b2576101008083540402835291602001916108dd565b820191906000526020600020905b8154815290600101906020018083116108c057829003601f168201915b505050505081526020016001820180546108f690613b69565b80601f016020809104026020016040519081016040528092919081815260200182805461092290613b69565b801561096f5780601f106109445761010080835404028352916020019161096f565b820191906000526020600020905b81548152906001019060200180831161095257829003601f168201915b5050505050815260200160028201805461098890613b69565b80601f01602080910402602001604051908101604052809291908181526020018280546109b490613b69565b8015610a015780601f106109d657610100808354040283529160200191610a01565b820191906000526020600020905b8154815290600101906020018083116109e457829003601f168201915b50505050508152602001600382018054610a1a90613b69565b80601f0160208091040260200160405190810160405280929190818152602001828054610a4690613b69565b8015610a935780601f10610a6857610100808354040283529160200191610a93565b820191906000526020600020905b815481529060010190602001808311610a7657829003601f168201915b5050505050815260200160048201805480602002602001604051908101604052809291908181526020016000905b82821015610b6d578382906000526020600020018054610ae090613b69565b80601f0160208091040260200160405190810160405280929190818152602001828054610b0c90613b69565b8015610b595780601f10610b2e57610100808354040283529160200191610b59565b820191906000526020600020905b815481529060010190602001808311610b3c57829003601f168201915b505050505081526020019060010190610ac1565b505050508152602001600582018054610b8590613b69565b80601f0160208091040260200160405190810160405280929190818152602001828054610bb190613b69565b8015610bfe5780601f10610bd357610100808354040283529160200191610bfe565b820191906000526020600020905b815481529060010190602001808311610be157829003601f168201915b5050509183525050600682015460209091019060ff166001811115610c2557610c25613815565b6001811115610c3657610c36613815565b8152602001600782018054610c4a90613b69565b80601f0160208091040260200160405190810160405280929190818152602001828054610c7690613b69565b8015610cc35780601f10610c9857610100808354040283529160200191610cc3565b820191906000526020600020905b815481529060010190602001808311610ca657829003601f168201915b5050505050815250506124b69092919063ffffffff16565b612657565b905080604051602001610cf39190613c80565b60405160208183030381529060405294505050505090565b610d13611796565b61060881610d1f610d51565b9061267d565b6060610282610d32610d51565b612747565b610d3f611796565b61060881610d4b610d51565b9061275c565b7f891edb31d4290cbdff8c209b5eca21c2b95e9062b5990b5cbe2a2922d96179e390565b6060816000018054610d8690613b69565b80601f0160208091040260200160405190810160405280929190818152602001828054610db290613b69565b8015610dff5780601f10610dd457610100808354040283529160200191610dff565b820191906000526020600020905b815481529060010190602001808311610de257829003601f168201915b50505050509050919050565b7f264f51f07aa3d51ea784d74d6ff6227c6463cf789f1512b893918a8860f146e490565b60008181526020839052604090205460609060ff1615610e615760405162461bcd60e51b81526004016102be90613cc5565b6000828152600284016020908152604080832080548251818502810185019093528083529193909284015b82821015610f38578382906000526020600020018054610eab90613b69565b80601f0160208091040260200160405190810160405280929190818152602001828054610ed790613b69565b8015610f245780601f10610ef957610100808354040283529160200191610f24565b820191906000526020600020905b815481529060010190602001808311610f0757829003601f168201915b505050505081526020019060010190610e8c565b50505050905092915050565b60606000610f50610e0b565b6000848152600282016020908152604080832080548251818502810185019093528083529495509293909291849084015b8282101561102d578382906000526020600020018054610fa090613b69565b80601f0160208091040260200160405190810160405280929190818152602001828054610fcc90613b69565b80156110195780601f10610fee57610100808354040283529160200191611019565b820191906000526020600020905b815481529060010190602001808311610ffc57829003601f168201915b505050505081526020019060010190610f81565b505050509050600081516001600160401b0381111561104e5761104e61357a565b60405190808252806020026020018201604052801561108157816020015b606081526020019060019003908161106c5790505b50825190915060005b8181101561118a576000878152600186016020526040902084518590839081106110b6576110b6613cf4565b60200260200101516040516110cb9190613d0a565b908152602001604051809103902060020180546110e790613b69565b80601f016020809104026020016040519081016040528092919081815260200182805461111390613b69565b80156111605780601f1061113557610100808354040283529160200191611160565b820191906000526020600020905b81548152906001019060200180831161114357829003601f168201915b505050505083828151811061117757611177613cf4565b602090810291909101015260010161108a565b509095945050505050565b600061119f612785565b600401546001600160a01b0316919050565b60008281526020849052604090205460ff16156111e05760405162461bcd60e51b81526004016102be90613cc5565b60008281526003840160205260409081902082519151909161120191613d0a565b908152602001604051809103902054600014801561125b575060008281526001840160205260409081902082519151909161123b91613d0a565b9081526020016040518091039020600201805461125790613b69565b1590505b156112e1576000828152600284016020908152604082208351815460018101835591845291909220909101906112919082613d82565b5060008281526002840160205260409020546112af90600190613e50565b6000838152600385016020526040908190208351915190916112d091613d0a565b908152604051908190036020019020555b60008281526001840160205260409081902082519151839261130291613d0a565b9081526040519081900360200190208151819061131f9082613d82565b50602082015160018083018054909160ff199091169083600681111561134757611347613815565b0217905550604082015160028201906113609082613d82565b505050505050565b6060816002018054610d8690613b69565b60008281526020849052604090205460ff16156113a85760405162461bcd60e51b81526004016102be90613cc5565b60008281526001840160205260409081902090516113c7908390613d0a565b90815260405190819003602001902060006113e28282613391565b60018201805460ff191690556113fc600283016000613391565b50506000828152600384016020526040808220905161141c908490613d0a565b908152604051908190036020019020549050805b600084815260028601602052604090205461144d90600190613e50565b811015611528576000848152600286016020526040902061146f826001613e63565b8154811061147f5761147f613cf4565b9060005260206000200185600201600086815260200190815260200160002082815481106114af576114af613cf4565b9060005260206000200190816114c59190613e76565b506000848152600386016020908152604080832060028901909252909120805483929190839081106114f9576114f9613cf4565b906000526020600020016040516115109190613f3d565b90815260405190819003602001902055600101611430565b5060008381526002850160205260409020805461154790600190613e50565b8154811061155757611557613cf4565b90600052602060002001600061156d9190613391565b306001600160a01b03167fffcd4276beea9d173d39ffb51709a0ea933bd9c40d270ef75bf6144ea69e00f184846040516115a8929190613f49565b60405180910390a250505050565b6060816001018054610d8690613b69565b6115cf613372565b60008381526020859052604090205460ff16156115fe5760405162461bcd60e51b81526004016102be90613cc5565b600083815260018501602052604090819020905161161d908490613d0a565b908152602001604051809103902060405180606001604052908160008201805461164690613b69565b80601f016020809104026020016040519081016040528092919081815260200182805461167290613b69565b80156116bf5780601f10611694576101008083540402835291602001916116bf565b820191906000526020600020905b8154815290600101906020018083116116a257829003601f168201915b5050509183525050600182015460209091019060ff1660068111156116e6576116e6613815565b60068111156116f7576116f7613815565b815260200160028201805461170b90613b69565b80601f016020809104026020016040519081016040528092919081815260200182805461173790613b69565b80156117845780601f1061175957610100808354040283529160200191611784565b820191906000526020600020905b81548152906001019060200180831161176757829003601f168201915b50505050508152505090509392505050565b61179e612785565b600401546001600160a01b031633146118045760405162461bcd60e51b815260206004820152602260248201527f4c69624469616d6f6e643a204d75737420626520636f6e7472616374206f776e60448201526132b960f11b60648201526084016102be565b565b600782016118148282613d82565b505050565b8154600090821080156107c457505060009081526005919091016020526040902054600160e01b900460ff161590565b606061031d826118bb8460ff60806001600160801b0383119081029290921c60406001600160401b0382119081029190911c602063ffffffff82119081029190911c61ffff811160108181029290921c9490941160029094026004909202600890930294029390930101919091010190565b6001016127a9565b606060006118d083612920565b60010190506000816001600160401b038111156118ef576118ef61357a565b6040519080825280601f01601f191660200182016040528015611919576020820181803683370190505b5090508181016020015b600019016f181899199a1a9b1b9c1cb0b131b232b360811b600a86061a8153600a850494508461192357509392505050565b6060600080611966878787876129f6565b91509150600081516001600160401b038111156119855761198561357a565b6040519080825280602002602001820160405280156119da57816020015b6119c760405180606001604052806060815260200160608152602001606081525090565b8152602001906001900390816119a35790505b50905060008760000160040180546119f190613b69565b80601f0160208091040260200160405190810160405280929190818152602001828054611a1d90613b69565b8015611a6a5780601f10611a3f57610100808354040283529160200191611a6a565b820191906000526020600020905b815481529060010190602001808311611a4d57829003601f168201915b5050505050905060005b8351811015611bc4576040518060600160405280604051806020016040528060008152508152602001858381518110611aaf57611aaf613cf4565b6020026020010151600001518152602001858381518110611ad257611ad2613cf4565b602002602001015160400151815250838281518110611af357611af3613cf4565b6020026020010181905250838181518110611b1057611b10613cf4565b602002602001015160000151805190602001207fa05e33768da60583875bb5256189397d790c6a14f448460d366d44805586c6ee148015611b945750838181518110611b5e57611b5e613cf4565b602002602001015160400151805190602001207fb8b758361d5e84380ef1e632f89d8e76a8677dbc3f4b93a4f9d75d2a6048f312145b15611bbc5781604051602001611baa9190613f62565b60405160208183030381529060405291505b600101611a74565b506000612059610cdb8b60405180610100016040529081600082018054611bea90613b69565b80601f0160208091040260200160405190810160405280929190818152602001828054611c1690613b69565b8015611c635780601f10611c3857610100808354040283529160200191611c63565b820191906000526020600020905b815481529060010190602001808311611c4657829003601f168201915b50505050508152602001600182018054611c7c90613b69565b80601f0160208091040260200160405190810160405280929190818152602001828054611ca890613b69565b8015611cf55780601f10611cca57610100808354040283529160200191611cf5565b820191906000526020600020905b815481529060010190602001808311611cd857829003601f168201915b50505050508152602001600282018054611d0e90613b69565b80601f0160208091040260200160405190810160405280929190818152602001828054611d3a90613b69565b8015611d875780601f10611d5c57610100808354040283529160200191611d87565b820191906000526020600020905b815481529060010190602001808311611d6a57829003601f168201915b50505050508152602001600382018054611da090613b69565b80601f0160208091040260200160405190810160405280929190818152602001828054611dcc90613b69565b8015611e195780601f10611dee57610100808354040283529160200191611e19565b820191906000526020600020905b815481529060010190602001808311611dfc57829003601f168201915b5050505050815260200160048201805480602002602001604051908101604052809291908181526020016000905b82821015611ef3578382906000526020600020018054611e6690613b69565b80601f0160208091040260200160405190810160405280929190818152602001828054611e9290613b69565b8015611edf5780601f10611eb457610100808354040283529160200191611edf565b820191906000526020600020905b815481529060010190602001808311611ec257829003601f168201915b505050505081526020019060010190611e47565b505050508152602001600582018054611f0b90613b69565b80601f0160208091040260200160405190810160405280929190818152602001828054611f3790613b69565b8015611f845780601f10611f5957610100808354040283529160200191611f84565b820191906000526020600020905b815481529060010190602001808311611f6757829003601f168201915b5050509183525050600682015460209091019060ff166001811115611fab57611fab613815565b6001811115611fbc57611fbc613815565b8152602001600782018054611fd090613b69565b80601f0160208091040260200160405190810160405280929190818152602001828054611ffc90613b69565b80156120495780601f1061201e57610100808354040283529160200191612049565b820191906000526020600020905b81548152906001019060200180831161202c57829003601f168201915b50505050508152505085886124b6565b90508060405160200161206c9190613c80565b60405160208183030381529060405295505050505050949350505050565b7fd6bd814cc1bc4b2e2e963d75e86b66330979dafa58695edbdc535ed90fc5986154604051630730493d60e11b81526000916060916001600160a01b03909116908190630e60927a906120e4906003880190600401613f8c565b602060405180830381865afa92505050801561211d575060408051601f3d908101601f1916820190925261211a91810190614018565b60015b6121e6573d80801561214b576040519150601f19603f3d011682016040523d82523d6000602084013e612150565b606091505b5084600301805461216090613b69565b80601f016020809104026020016040519081016040528092919081815260200182805461218c90613b69565b80156121d95780601f106121ae576101008083540402835291602001916121d9565b820191906000526020600020905b8154815290600101906020018083116121bc57829003601f168201915b50505050509250506124b0565b925082806001600160a01b0381166122395760405162461bcd60e51b81526020600482015260166024820152751b9bc81a5b5859d9481a185cda081899595b881cd95d60521b60448201526064016102be565b60408051600480825260a08201909252600091816020015b60608152602001906001900390816122515790505090506040518060400160405280600381526020016210d55560ea1b8152508160008151811061229757612297613cf4565b60200260200101819052506040518060400160405280600581526020016421a7a627a960d91b815250816001815181106122d3576122d3613cf4565b60200260200101819052506040518060400160405280600581526020016410d054905560da1b8152508160028151811061230f5761230f613cf4565b602002602001018190525060405180604001604052806007815260200166434c415249545960c81b8152508160038151811061234d5761234d613cf4565b6020026020010181905250600061243788600401805480602002602001604051908101604052809291908181526020016000905b8282101561242d5783829060005260206000200180546123a090613b69565b80601f01602080910402602001604051908101604052809291908181526020018280546123cc90613b69565b80156124195780601f106123ee57610100808354040283529160200191612419565b820191906000526020600020905b8154815290600101906020018083116123fc57829003601f168201915b505050505081526020019060010190612381565b5050505083612b47565b6040516253a5c760e01b81529091506001600160a01b038416906253a5c790612464908490600401614041565b600060405180830381865afa158015612481573d6000803e3d6000fd5b505050506040513d6000823e601f3d908101601f191682016040526124a991908101906140cd565b9550505050505b50915091565b60606124e560405180604001604052806002815260200161060f60f31b81525083612e4090919063ffffffff16565b61250c57816040516020016124fa919061413a565b60405160208183030381529060405291505b600061251784612edd565b90506000808660a00151511161254a576040516020016125369061416f565b60405160208183030381529060405261256f565b8560a0015160405160200161255f919061413a565b6040516020818303038152906040525b90506000808760a0015151116125a25760405160200161258e9061416f565b6040516020818303038152906040526125c7565b8660a001516040516020016125b7919061419f565b6040516020818303038152906040525b905060008760000151838960400151846040516020016125ea94939291906141e4565b604051602081830303815290604052905060008751111561262a5780846040516020016126189291906142a3565b60405160208183030381529060405290505b8060405160200161263b91906142ee565b6040516020818303038152906040529450505050509392505050565b606061031d82604051806060016040528060408152602001614500604091396001612fcc565b80612686610d51565b815181906126949082613d82565b50602082015160018201906126a99082613d82565b50604082015160028201906126be9082613d82565b50606082015160038201906126d39082613d82565b50608082015180516126ef9160048401916020909101906133cb565b5060a082015160058201906127049082613d82565b5060c082015160068201805460ff19166001838181111561272757612727613815565b021790555060e082015160078201906127409082613d82565b5050505050565b606060006127548361208a565b949350505050565b60068201805482919060ff19166001838181111561277c5761277c613815565b02179055505050565b7fc8fcad8db84d3cc18b4c41d551ea0ee66dd599cde068d998e57d5e09332c131c90565b60608260006127b9846002614313565b6127c4906002613e63565b6001600160401b038111156127db576127db61357a565b6040519080825280601f01601f191660200182016040528015612805576020820181803683370190505b509050600360fc1b8160008151811061282057612820613cf4565b60200101906001600160f81b031916908160001a905350600f60fb1b8160018151811061284f5761284f613cf4565b60200101906001600160f81b031916908160001a9053506000612873856002614313565b61287e906001613e63565b90505b60018111156128f6576f181899199a1a9b1b9c1cb0b131b232b360811b83600f16601081106128b2576128b2613cf4565b1a60f81b8282815181106128c8576128c8613cf4565b60200101906001600160f81b031916908160001a90535060049290921c916128ef8161432a565b9050612881565b5081156127545760405163e22e27eb60e01b815260048101869052602481018590526044016102be565b60008072184f03e93ff9f4daa797ed6e38ed64bf6a1f0160401b831061295f5772184f03e93ff9f4daa797ed6e38ed64bf6a1f0160401b830492506040015b6904ee2d6d415b85acef8160201b8310612989576904ee2d6d415b85acef8160201b830492506020015b662386f26fc1000083106129a757662386f26fc10000830492506010015b6305f5e10083106129bf576305f5e100830492506008015b61271083106129d357612710830492506004015b606483106129e5576064830492506002015b600a831061031d5760010192915050565b6060806000612a058585610e2f565b905080516001600160401b03811115612a2057612a2061357a565b604051908082528060200260200182016040528015612a5957816020015b612a46613372565b815260200190600190039081612a3e5790505b5091506000612a6785610f44565b905060005b8251811015612af9576040518060600160405280848381518110612a9257612a92613cf4565b6020026020010151815260200160016006811115612ab257612ab2613815565b8152602001838381518110612ac957612ac9613cf4565b6020026020010151815250848281518110612ae657612ae6613cf4565b6020908102919091010152600101612a6c565b506000612b05866118c3565b604051602001612b159190614341565b60405160208183030381529060405290506000612b338888846115c7565b604001519a94995093975050505050505050565b60608251600003612b8a5760408051600480825260a0820190925290816020015b612b70613421565b815260200190600190039081612b6857905050905061031d565b600083516004612b9a9190613e63565b6001600160401b03811115612bb157612bb161357a565b604051908082528060200260200182016040528015612bea57816020015b612bd7613421565b815260200190600190039081612bcf5790505b50905060005b8451811015612c73576040518060400160405280612c0d836118c3565b604051602001612c1d919061436f565b6040516020818303038152906040528152602001868381518110612c4357612c43613cf4565b6020026020010151815250828281518110612c6057612c60613cf4565b6020908102919091010152600101612bf0565b5083516040805160808101825260039181019182526210d55560ea1b6060820152908152845160208201908690600090612caf57612caf613cf4565b6020026020010151815250828281518110612ccc57612ccc613cf4565b602002602001018190525060405180604001604052806040518060400160405280600581526020016421a7a627a960d91b815250815260200185600181518110612d1857612d18613cf4565b602002602001015181525082826001612d319190613e63565b81518110612d4157612d41613cf4565b602002602001018190525060405180604001604052806040518060400160405280600581526020016410d054905560da1b815250815260200185600281518110612d8d57612d8d613cf4565b602002602001015181525082826002612da69190613e63565b81518110612db657612db6613cf4565b6020026020010181905250604051806040016040528060405180604001604052806007815260200166434c415249545960c81b815250815260200185600381518110612e0457612e04613cf4565b602002602001015181525082826003612e1d9190613e63565b81518110612e2d57612e2d613cf4565b6020908102919091010152509392505050565b81518151600091849184919081811115612e6157600094505050505061031d565b60005b81811015612ecf57838181518110612e7e57612e7e613cf4565b602001015160f81c60f81b6001600160f81b031916858281518110612ea557612ea5613cf4565b01602001516001600160f81b03191614612ec75760009550505050505061031d565b600101612e64565b506001979650505050505050565b6040805180820190915260018152605b60f81b602082015260609060005b8351811015612fa3576000848281518110612f1857612f18613cf4565b602002602001015190506000612f3b82600001518360200151846040015161314b565b90508381604051602001612f50929190614390565b604051602081830303815290604052935060018651612f6f9190613e50565b831015612f995783604051602001612f8791906143b6565b60405160208183030381529060405293505b5050600101612efb565b5080604051602001612fb591906143db565b604051602081830303815290604052915050919050565b60608351600003612fec57506040805160208101909152600081526107c4565b60008261301d576003855160046130039190614313565b61300e906002613e63565b6130189190614400565b613042565b60038551600261302d9190613e63565b6130379190614400565b613042906004614313565b90506000816001600160401b0381111561305e5761305e61357a565b6040519080825280601f01601f191660200182016040528015613088576020820181803683370190505b50905060018501602082018788518901602081018051600082525b828410156130fe576003840193508351603f8160121c168701518653600186019550603f81600c1c168701518653600186019550603f8160061c168701518653600186019550603f81168701518653506001850194506130a3565b90525050851561313f5760038851066001811461312257600281146131355761313d565b603d6001830353603d600283035361313d565b603d60018303535b505b50909695505050505050565b606060008351116131945760405162461bcd60e51b81526020600482015260136024820152726b65792063616e6e6f7420626520656d70747960681b60448201526064016102be565b83511580159061326e57846040516020016131af9190614422565b60408051601f198184030181528282019091526006825265373ab6b132b960d11b602083015295506000906131e5908790612e40565b806132175750613217866040518060400160405280600a81526020016970657263656e7461676560b01b8152506132bf565b905080613245578360405160200161322f919061413a565b6040516020818303038152906040529350613268565b836040516020016132569190613d0a565b60405160208183030381529060405293505b50613291565b8260405160200161327f919061413a565b60405160208183030381529060405292505b8484846040516020016132a693929190614468565b6040516020818303038152906040529150509392505050565b815181516000918491849190818111156132e057600094505050505061031d565b60005b81811015612ecf578360016132f88385613e50565b6133029190613e50565b8151811061331257613312613cf4565b01602001516001600160f81b03191685600161332e8487613e50565b6133389190613e50565b8151811061334857613348613cf4565b01602001516001600160f81b0319161461336a5760009550505050505061031d565b6001016132e3565b6040805160608082018352808252600060208301529181019190915290565b50805461339d90613b69565b6000825580601f106133ad575050565b601f016020900490600052602060002090810190610608919061343b565b828054828255906000526020600020908101928215613411579160200282015b8281111561341157825182906134019082613d82565b50916020019190600101906133eb565b5061341d929150613450565b5090565b604051806040016040528060608152602001606081525090565b5b8082111561341d576000815560010161343c565b8082111561341d5760006134648282613391565b50600101613450565b60005b83811015613488578181015183820152602001613470565b50506000910152565b600081518084526134a981602086016020860161346d565b601f01601f19169290920160200192915050565b6020815260006107c46020830184613491565b600082825180855260208501945060208160051b8301016020850160005b8381101561313f57601f1985840301885261350a838351613491565b60209889019890935091909101906001016134ee565b6020815260006107c460208301846134d0565b60006020828403121561354557600080fd5b5035919050565b60408152600061355f60408301856134d0565b828103602084015261357181856134d0565b95945050505050565b634e487b7160e01b600052604160045260246000fd5b60405161010081016001600160401b03811182821017156135b3576135b361357a565b60405290565b604051601f8201601f191681016001600160401b03811182821017156135e1576135e161357a565b604052919050565b60006001600160401b038211156136025761360261357a565b50601f01601f191660200190565b600082601f83011261362157600080fd5b813561363461362f826135e9565b6135b9565b81815284602083860101111561364957600080fd5b816020850160208301376000918101602001919091529392505050565b60006060828403121561367857600080fd5b604051606081016001600160401b038111828210171561369a5761369a61357a565b60405290508082356001600160401b038111156136b657600080fd5b6136c285828601613610565b8252506020830135600781106136d757600080fd5b602082015260408301356001600160401b038111156136f557600080fd5b61370185828601613610565b6040830152505092915050565b6000806040838503121561372157600080fd5b8235915060208301356001600160401b0381111561373e57600080fd5b61374a85828601613666565b9150509250929050565b6000806040838503121561376757600080fd5b82356001600160401b0381111561377d57600080fd5b61378985828601613610565b92505060208301356001600160401b0381111561373e57600080fd5b600080604083850312156137b857600080fd5b8235915060208301356001600160401b038111156137d557600080fd5b61374a85828601613610565b6000602082840312156137f357600080fd5b81356001600160401b0381111561380957600080fd5b61275484828501613610565b634e487b7160e01b600052602160045260246000fd5b60008151606084526138406060850182613491565b905060208301516007811061386557634e487b7160e01b600052602160045260246000fd5b80602086015250604083015184820360408601526135718282613491565b6020815260006107c4602083018461382b565b600082601f8301126138a757600080fd5b81356001600160401b038111156138c0576138c061357a565b8060051b6138d0602082016135b9565b918252602081850181019290810190868411156138ec57600080fd5b6020860192505b838310156107805782356001600160401b0381111561391157600080fd5b613920886020838a0101613610565b835250602092830192909101906138f3565b80356002811061394157600080fd5b919050565b60006020828403121561395857600080fd5b81356001600160401b0381111561396e57600080fd5b8201610100818503121561398157600080fd5b613989613590565b81356001600160401b0381111561399f57600080fd5b6139ab86828501613610565b82525060208201356001600160401b038111156139c757600080fd5b6139d386828501613610565b60208301525060408201356001600160401b038111156139f257600080fd5b6139fe86828501613610565b60408301525060608201356001600160401b03811115613a1d57600080fd5b613a2986828501613610565b60608301525060808201356001600160401b03811115613a4857600080fd5b613a5486828501613896565b60808301525060a08201356001600160401b03811115613a7357600080fd5b613a7f86828501613610565b60a083015250613a9160c08301613932565b60c082015260e08201356001600160401b03811115613aaf57600080fd5b613abb86828501613610565b60e083015250949350505050565b600060208284031215613adb57600080fd5b6107c482613932565b6020808252600f908201526e125b9d985b1a59081d1bdad95b9259608a1b604082015260600190565b6020808252601f908201527f6e6f7420617574686f72697a656420746f2063616c6c2066756e6374696f6e00604082015260600190565b604081526000613b576040830185613491565b8281036020840152613571818561382b565b600181811c90821680613b7d57607f821691505b602082108103613b9d57634e487b7160e01b600052602260045260246000fd5b50919050565b60008154613bb081613b69565b600182168015613bc75760018114613bdc57613c0c565b60ff1983168652811515820286019350613c0c565b84600052602060002060005b83811015613c0457815488820152600190910190602001613be8565b505081860193505b50505092915050565b6000613c218286613ba3565b8451613c3181836020890161346d565b602f60f81b91019081528351613c4e81600184016020880161346d565b0160010195945050505050565b6000613c678285613ba3565b8351613c7781836020880161346d565b01949350505050565b7f646174613a6170706c69636174696f6e2f6a736f6e3b6261736536342c000000815260008251613cb881601d85016020870161346d565b91909101601d0192915050565b602080825260159082015274151bdad95b881a185cc81899595b88189d5c9b9959605a1b604082015260600190565b634e487b7160e01b600052603260045260246000fd5b60008251613d1c81846020870161346d565b9190910192915050565b601f82111561181457806000526020600020601f840160051c81016020851015613d4d5750805b601f840160051c820191505b818110156127405760008155600101613d59565b600019600383901b1c191660019190911b1790565b81516001600160401b03811115613d9b57613d9b61357a565b613daf81613da98454613b69565b84613d26565b6020601f821160018114613ddd5760008315613dcb5750848201515b613dd58482613d6d565b855550612740565b600084815260208120601f198516915b82811015613e0d5787850151825560209485019460019092019101613ded565b5084821015613e2b5786840151600019600387901b60f8161c191681555b50505050600190811b01905550565b634e487b7160e01b600052601160045260246000fd5b8181038181111561031d5761031d613e3a565b8082018082111561031d5761031d613e3a565b818103613e81575050565b613e8b8254613b69565b6001600160401b03811115613ea257613ea261357a565b613eb081613da98454613b69565b6000601f821160018114613ed55760008315613dcb575084820154613dd58482613d6d565b600085815260209020601f19841690600086815260209020845b83811015613f0f5782860154825560019586019590910190602001613eef565b5085831015613f2d5781850154600019600388901b60f8161c191681555b5050505050600190811b01905550565b60006107c48284613ba3565b8281526040602082015260006127546040830184613491565b60008251613f7481846020870161346d565b6520436c61696d60d01b920191825250600601919050565b602081526000808354613f9e81613b69565b8060208601526001821660008114613fbd5760018114613fd95761400d565b60ff1983166040870152604082151560051b870101935061400d565b86600052602060002060005b8381101561400457815488820160400152600190910190602001613fe5565b87016040019450505b509195945050505050565b60006020828403121561402a57600080fd5b81516001600160a01b03811681146107c457600080fd5b6000602082016020835280845180835260408501915060408160051b86010192506020860160005b828110156140c157603f19878603018452815180516040875261408f6040880182613491565b90506020820151915086810360208801526140aa8183613491565b965050506020938401939190910190600101614069565b50929695505050505050565b6000602082840312156140df57600080fd5b81516001600160401b038111156140f557600080fd5b8201601f8101841361410657600080fd5b805161411461362f826135e9565b81815285602083850101111561412957600080fd5b61357182602083016020860161346d565b601160f91b8152815160009061415781600185016020870161346d565b601160f91b6001939091019283015250600201919050565b6d1132bc3a32b93730b62fbab9361160911b8152621d101160e91b600e820152601160f91b601182015260120190565b701132bc3a32b93730b62fbab936111d101160791b815281516000906141cc81601185016020870161346d565b601160f91b6011939091019283015250601201919050565b693d913730b6b2911d101160b11b8152845160009061420a81600a850160208a0161346d565b6b01116101134b6b0b3b2911d160a51b600a918401918201528551614236816016840160208a0161346d565b600a81830101915050711610113232b9b1b934b83a34b7b7111d101160711b600c820152845161426d81601e84016020890161346d565b600c818301019150506201116160ed1b6012820152835161429581601584016020880161346d565b016015019695505050505050565b600083516142b581846020880161346d565b6f016101130ba3a3934b13aba32b9911d160851b90830190815283516142e281601084016020880161346d565b01601001949350505050565b6000825161430081846020870161346d565b607d60f81b920191825250600101919050565b808202811582820484141761031d5761031d613e3a565b60008161433957614339613e3a565b506000190190565b65696d6167655f60d01b81526000825161436281600685016020870161346d565b9190910160060192915050565b65021a7a627a9160d51b81526000825161436281600685016020870161346d565b600083516143a281846020880161346d565b835190830190613c7781836020880161346d565b600082516143c881846020870161346d565b600b60fa1b920191825250600101919050565b600082516143ed81846020870161346d565b605d60f81b920191825250600101919050565b60008261441d57634e487b7160e01b600052601260045260246000fd5b500490565b70113234b9b83630bcafba3cb832911d101160791b8152815160009061444f81601185016020870161346d565b61088b60f21b6011939091019283015250601301919050565b607b60f81b81526000845161448481600185016020890161346d565b6e113a3930b4ba2fba3cb832911d101160891b60019184019182015284516144b381601084016020890161346d565b6001818301019150506b0111610113b30b63ab2911d160a51b600f82015283516144e481601b84016020880161346d565b607d60f81b601b9290910191820152601c019594505050505056fe4142434445464748494a4b4c4d4e4f505152535455565758595a6162636465666768696a6b6c6d6e6f707172737475767778797a303132333435363738392b2fa2646970667358221220c8c6230b68c50a9422447c64f04614b0cd8fb88340e583697a3e41b0a420fdc064736f6c634300081c0033",
  "libraries": {
    "AddressSet": "0x8aB21bf41B908d9CBee3E78e97033E3916840cA8",
    "AttributeLib": "0x9d0749b64bEDB024B1AaF596c84029E67635D43c",
    "Base64": "0x8d10857B6d2bEA12d67A888F3E995ea142Db701E",
    "Bytes32Set": "0xB01Cf1Baf9ABFa5309AE3ff649B31ae87A80AE62",
    "CarbonCreditLib": "0x44520E8dA039d4D7D460f5DBF6C1eC347De53A7C",
    "DiamondFactoryLib": "0x50353159348c63A448eDAfC6d5ef81CF9C1cdE9a",
    "DiamondLib": "0x2Be86045394c8096b3b9d9449A08Cc74afEd5717",
    "ERC721AEnumerationLib": "0x6a9A6D75AECEfB8dC969D5Ef5ea3EcF57e29706d",
    "ERC721ALib": "0x8F980CBDb943c2794FdA47D82d81a71d31A815DE",
    "Identity": "0x4C6fE457018d32B9aEc2aA99F655b5aCD7d0D658",
    "IdentityFactory": "0x5c970fD1E772548Be3Dc3de62381Fd8b2b3fAb96",
    "IdentitySystemStorage": "0x05d7966Acfa90f529e3844B1d1b7702dBde7789c",
    "LibDiamond": "0x30Fb10d923CfFC1151B8CFe683A937F414854570",
    "MerkleProver": "0x6361c8F2C7Fb1498C15C5e90Ed477ee8cEeC9f5f",
    "MetadataLib": "0xEA17bE869d528F2c3e4F7cae231ebE4BE42BeB75",
    "MultiSaleLib": "0x3b12B21202DaC69552E7b1f9D4D3E31085c7a378",
    "Strings": "0x26375f3210F1F8C90f53c663AC44F3d4a86b12A6",
    "StringsLib": "0x928c0A50586514D291087403befe3540E3631ECd",
    "SVGTemplatesLib": "0xFD3DfE346d5d5c8C90313036BC1b1E3De29FCb33",
    "UInt256Set": "0x908B9bE15117446dE01d076Ecb75D9210E182D97",
    "VariablePriceLib": "0x92E3cBf7226518CF757c48446067de1485CCCcBb"
  },
  "devdoc": {
    "errors": {
      "StringsInsufficientHexLength(uint256,uint256)": [
        {
          "details": "The `value` string doesn't fit in the specified `length`."
        }
      ]
    },
    "kind": "dev",
    "methods": {
      "baseUri()": {
        "details": "See {IERC721Metadata-symbol}."
      },
      "contractURI()": {
        "details": "Base URI for computing {tokenURI}. If set, the resulting URI for each token will be the concatenation of the `baseURI` and the `tokenId`. Empty by default, can be overriden in child contracts()."
      },
      "description()": {
        "details": "See {IERC721Metadata-symbol}."
      },
      "externalUri()": {
        "details": "See {IERC721Metadata-symbol}."
      },
      "image()": {
        "details": "See {IERC721Metadata-symbol}."
      },
      "name()": {
        "details": "See {IERC721Metadata-name}."
      },
      "symbol()": {
        "details": "See {IERC721Metadata-symbol}."
      },
      "tokenURI(uint256)": {
        "details": "See {IERC721Metadata-tokenURI}."
      }
    },
    "version": 1
  },
  "userdoc": {
    "kind": "user",
    "methods": {},
    "version": 1
  },
  "storageLayout": {
    "storage": [],
    "types": null
  }
}