{
  "address": "0xaED448D8a5CCc94BC54DCf97571e8F6F6973dF88",
  "abi": [
    {
      "inputs": [
        {
          "internalType": "address",
          "name": "token",
          "type": "address"
        }
      ],
      "name": "SafeERC20FailedOperation",
      "type": "error"
    },
    {
      "anonymous": false,
      "inputs": [
        {
          "indexed": false,
          "internalType": "address",
          "name": "principalAmountReceiver",
          "type": "address"
        },
        {
          "indexed": false,
          "internalType": "uint256",
          "name": "principalAmount",
          "type": "uint256"
        },
        {
          "indexed": false,
          "internalType": "address",
          "name": "adjustedAmountReceiver",
          "type": "address"
        },
        {
          "indexed": false,
          "internalType": "uint256",
          "name": "adjustedAmount",
          "type": "uint256"
        },
        {
          "indexed": false,
          "internalType": "address[]",
          "name": "feeReceivers",
          "type": "address[]"
        },
        {
          "indexed": false,
          "internalType": "uint256[]",
          "name": "feeAmounts",
          "type": "uint256[]"
        }
      ],
      "name": "AmountsDistributed",
      "type": "event"
    },
    {
      "anonymous": false,
      "inputs": [
        {
          "indexed": true,
          "internalType": "address",
          "name": "distributionToken",
          "type": "address"
        },
        {
          "indexed": false,
          "internalType": "uint256",
          "name": "totalWeightBasis",
          "type": "uint256"
        }
      ],
      "name": "FeeDistributorInitialized",
      "type": "event"
    },
    {
      "anonymous": false,
      "inputs": [
        {
          "indexed": false,
          "internalType": "address[]",
          "name": "feeReceivers",
          "type": "address[]"
        },
        {
          "indexed": false,
          "internalType": "uint256[]",
          "name": "feeWeights",
          "type": "uint256[]"
        }
      ],
      "name": "FeeReceiversSet",
      "type": "event"
    },
    {
      "inputs": [
        {
          "internalType": "uint256",
          "name": "principalAmount",
          "type": "uint256"
        }
      ],
      "name": "calculateAmounts",
      "outputs": [
        {
          "internalType": "uint256",
          "name": "adjustedAmount",
          "type": "uint256"
        },
        {
          "internalType": "uint256[]",
          "name": "feeAmounts",
          "type": "uint256[]"
        }
      ],
      "stateMutability": "view",
      "type": "function"
    },
    {
      "inputs": [
        {
          "internalType": "address",
          "name": "principalAmountReceiver",
          "type": "address"
        },
        {
          "internalType": "uint256",
          "name": "_principalAmount",
          "type": "uint256"
        }
      ],
      "name": "distributeAmounts",
      "outputs": [
        {
          "internalType": "address",
          "name": "adjustedAmountReceiver",
          "type": "address"
        },
        {
          "internalType": "uint256",
          "name": "adjustedAmount",
          "type": "uint256"
        },
        {
          "internalType": "address[]",
          "name": "feeReceivers",
          "type": "address[]"
        },
        {
          "internalType": "uint256[]",
          "name": "feeAmounts",
          "type": "uint256[]"
        }
      ],
      "stateMutability": "nonpayable",
      "type": "function"
    },
    {
      "inputs": [],
      "name": "getFeeReceivers",
      "outputs": [
        {
          "internalType": "address[]",
          "name": "feeReceivers",
          "type": "address[]"
        },
        {
          "internalType": "uint256[]",
          "name": "feeWeights",
          "type": "uint256[]"
        }
      ],
      "stateMutability": "view",
      "type": "function"
    },
    {
      "inputs": [
        {
          "internalType": "address",
          "name": "_distributionToken",
          "type": "address"
        },
        {
          "internalType": "uint256",
          "name": "_totalWeightBasis",
          "type": "uint256"
        }
      ],
      "name": "initializeFeeDistributor",
      "outputs": [],
      "stateMutability": "nonpayable",
      "type": "function"
    },
    {
      "inputs": [
        {
          "internalType": "address[]",
          "name": "_feeReceivers",
          "type": "address[]"
        },
        {
          "internalType": "uint256[]",
          "name": "_feeWeights",
          "type": "uint256[]"
        }
      ],
      "name": "setFeeReceivers",
      "outputs": [],
      "stateMutability": "nonpayable",
      "type": "function"
    }
  ],
  "transactionHash": "0xc3b7ba5b8343d3372e3e435b186d6a8b7f876377ba0762d330ffc67e26b71491",
  "args": [],
  "numDeployments": 1,
  "solcInputHash": "e39248fcba6c46a8a0b49ab62402d196",
  "bytecode": "0x6080604052348015600f57600080fd5b506115048061001f6000396000f3fe608060405234801561001057600080fd5b50600436106100575760003560e01c8063082936bc1461005c57806353a6a8b814610088578063baddb5201461009d578063bccfafd1146100b0578063e1df507c146100c6575b600080fd5b61006f61006a36600461115c565b6100e7565b60405161007f949392919061120b565b60405180910390f35b61009b61009636600461115c565b610155565b005b61009b6100ab366004611293565b610268565b6100b861035e565b60405161007f929190611302565b6100d96100d4366004611330565b61037a565b60405161007f929190611349565b6000806060806101006100f8610399565b3088886103bd565b604051939750919550935091507f8132563d0d615b0bb10f2fb1a288b94320a436b337196f93fb9325aed43536e9906101449088908890889088908890889061136a565b60405180910390a192959194509250565b3361015e6108b0565b6001600160a01b0316148061017257503033145b6101975760405162461bcd60e51b815260040161018e906113c3565b60405180910390fd5b6001600160a01b03821661020f5760405162461bcd60e51b815260206004820152603960248201527f4665654469737472696275746f723a20446973747269627574696f6e20746f6b604482015278656e2063616e6e6f74206265207a65726f206164647265737360381b606482015260840161018e565b61022161021a610399565b83836108de565b816001600160a01b03167f2c7da294db2591629345b5bbdf7b536c9ea3bd8924cbd723f8a7a95a4f5270f38260405161025c91815260200190565b60405180910390a25050565b336102716108b0565b6001600160a01b0316148061028557503033145b6102a15760405162461bcd60e51b815260040161018e906113c3565b6000806103196102af610399565b87878080602002602001604051908101604052809392919081815260200183836020028082843760009201919091525050604080516020808b0282810182019093528a82529093508a9250899182918501908490808284376000920191909152506109d592505050565b915091507f400e61f18101d61cc9e35bebfb5f56857f97663ab4784e0a5d193268505fc3ba828260405161034e929190611302565b60405180910390a1505050505050565b60608061037161036c610399565b610c89565b90939092509050565b6000606061038f610389610399565b84610d54565b9094909350915050565b7fbd516eb36b5d4489adb2e717e7d0ce56c1b814eda85e78ad9d8f240b24dd830d90565b600080606080603788016001600160a01b0387166104305760405162461bcd60e51b815260206004820152602a60248201527f4665654469737472696275746f723a20496e76616c6964207072696e6369706160448201526936103932b1b2b4bb32b960b11b606482015260840161018e565b60008061043d8b89610d54565b9150915060008360000180548060200260200160405190810160405280929190818152602001828054801561049b57602002820191906000526020600020905b81546001600160a01b0316815260019091019060200180831161047d575b505050600387015492935050506001600160a01b031615801561071057898c6001600160a01b03163110156105265760405162461bcd60e51b815260206004820152602b60248201527f4665654469737472696275746f723a20496e73756666696369656e74206e617460448201526a6976652062616c616e636560a81b606482015260840161018e565b60005b8251811015610646576000848281518110610546576105466113fa565b6020026020010151111561063e576000838281518110610568576105686113fa565b60200260200101516001600160a01b031685838151811061058b5761058b6113fa565b602002602001015160405160006040518083038185875af1925050503d80600081146105d3576040519150601f19603f3d011682016040523d82523d6000602084013e6105d8565b606091505b505090508061063c5760405162461bcd60e51b815260206004820152602a60248201527f4665654469737472696275746f723a204e617469766520666565207472616e7360448201526919995c8819985a5b195960b21b606482015260840161018e565b505b600101610529565b50831561070b5760008b6001600160a01b03168560405160006040518083038185875af1925050503d806000811461069a576040519150601f19603f3d011682016040523d82523d6000602084013e61069f565b606091505b50509050806107095760405162461bcd60e51b815260206004820152603060248201527f4665654469737472696275746f723a204e6174697665207072696e636970616c60448201526f081d1c985b9cd9995c8819985a5b195960821b606482015260840161018e565b505b61089e565b60008560030160009054906101000a90046001600160a01b031690508a816001600160a01b03166370a082318f6040518263ffffffff1660e01b81526004016107599190611410565b602060405180830381865afa158015610776573d6000803e3d6000fd5b505050506040513d601f19601f8201168201806040525081019061079a9190611424565b10156107fb5760405162461bcd60e51b815260206004820152602a60248201527f4665654469737472696275746f723a20496e73756666696369656e7420746f6b604482015269656e2062616c616e636560b01b606482015260840161018e565b60005b835181101561088157600085828151811061081b5761081b6113fa565b602002602001015111156108795761087984828151811061083e5761083e6113fa565b6020026020010151868381518110610858576108586113fa565b6020026020010151846001600160a01b0316610fe29092919063ffffffff16565b6001016107fe565b50841561089c5761089c6001600160a01b0382168d87610fe2565b505b50989b919a5097985095505050505050565b7fc8fcad8db84d3cc18b4c41d551ea0ee66dd599cde068d998e57d5e09332c1320546001600160a01b031690565b603a83015460378401906001600160a01b03161561094a5760405162461bcd60e51b815260206004820152602360248201527f4665654469737472696275746f723a20416c726561647920696e697469616c696044820152621e995960ea1b606482015260840161018e565b600082116109a95760405162461bcd60e51b815260206004820152602660248201527f4665654469737472696275746f723a204261736973206d75737420626520706f60448201526573697469766560d01b606482015260840161018e565b6003810180546001600160a01b0319166001600160a01b03949094169390931790925560029091015550565b60608060008560370190508351855114610a405760405162461bcd60e51b815260206004820152602660248201527f4665654469737472696275746f723a204172726179206c656e67746873206d696044820152650e6dac2e8c6d60d31b606482015260840161018e565b6000855111610aac5760405162461bcd60e51b815260206004820152603260248201527f4665654469737472696275746f723a204d7573742070726f76696465206174206044820152713632b0b9ba1037b732903932b1b2b4bb32b960711b606482015260840161018e565b6000805b8651811015610bed5760006001600160a01b0316878281518110610ad657610ad66113fa565b60200260200101516001600160a01b031603610b455760405162461bcd60e51b815260206004820152602860248201527f4665654469737472696275746f723a20496e76616c6964207265636569766572604482015267206164647265737360c01b606482015260840161018e565b6000868281518110610b5957610b596113fa565b602002602001015111610bbe5760405162461bcd60e51b815260206004820152602760248201527f4665654469737472696275746f723a20576569676874206d75737420626520706044820152666f73697469766560c81b606482015260840161018e565b858181518110610bd057610bd06113fa565b602002602001015182610be39190611453565b9150600101610ab0565b5081600201548114610c535760405162461bcd60e51b815260206004820152602960248201527f4665654469737472696275746f723a2057656967687473206d7573742073756d60448201526820746f20626173697360b81b606482015260840161018e565b8551610c6590839060208901906110a7565b508451610c7b906001840190602088019061110c565b509496939550929350505050565b6060806000836037019050806000018160010181805480602002602001604051908101604052809291908181526020018280548015610cf157602002820191906000526020600020905b81546001600160a01b03168152600190910190602001808311610cd3575b5050505050915080805480602002602001604051908101604052809291908181526020018280548015610d4357602002820191906000526020600020905b815481526020019060010190808311610d2f575b505050505090509250925050915091565b6037820180546040805160208084028201810190925282815260009360609390928592918491830182828015610db357602002820191906000526020600020905b81546001600160a01b03168152600190910190602001808311610d95575b5050505050905060008151905080600003610de55750506040805160008152602081019091528493509150610fdb9050565b6000836002015411610e525760405162461bcd60e51b815260206004820152603060248201527f4665654469737472696275746f723a204e6f7420696e697469616c697a65642060448201526f6f7220696e76616c696420626173697360801b606482015260840161018e565b600083600101805480602002602001604051908101604052809291908181526020018280548015610ea257602002820191906000526020600020905b815481526020019060010190808311610e8e575b50505050509050816001600160401b03811115610ec157610ec161146c565b604051908082528060200260200182016040528015610eea578160200160208202803683370190505b5094506000805b83811015610f645760008660020154848381518110610f1257610f126113fa565b60200260200101518b610f259190611482565b610f2f9190611499565b905080888381518110610f4457610f446113fa565b6020908102919091010152610f598184611453565b925050600101610ef1565b5087811115610fc95760405162461bcd60e51b815260206004820152602b60248201527f4665654469737472696275746f723a20546f74616c206665657320657863656560448201526a19081c1c9a5b98da5c185b60aa1b606482015260840161018e565b610fd381896114bb565b965050505050505b9250929050565b604080516001600160a01b038416602482015260448082018490528251808303909101815260649091019091526020810180516001600160e01b031663a9059cbb60e01b179052611034908490611039565b505050565b600080602060008451602086016000885af18061105c576040513d6000823e3d81fd5b50506000513d91508115611074578060011415611081565b6001600160a01b0384163b155b156110a15783604051635274afe760e01b815260040161018e9190611410565b50505050565b8280548282559060005260206000209081019282156110fc579160200282015b828111156110fc57825182546001600160a01b0319166001600160a01b039091161782556020909201916001909101906110c7565b50611108929150611147565b5090565b8280548282559060005260206000209081019282156110fc579160200282015b828111156110fc57825182559160200191906001019061112c565b5b808211156111085760008155600101611148565b6000806040838503121561116f57600080fd5b82356001600160a01b038116811461118657600080fd5b946020939093013593505050565b600081518084526020840193506020830160005b828110156111cf5781516001600160a01b03168652602095860195909101906001016111a8565b5093949350505050565b600081518084526020840193506020830160005b828110156111cf5781518652602095860195909101906001016111ed565b60018060a01b03851681528360208201526080604082015260006112326080830185611194565b828103606084015261124481856111d9565b979650505050505050565b60008083601f84011261126157600080fd5b5081356001600160401b0381111561127857600080fd5b6020830191508360208260051b8501011115610fdb57600080fd5b600080600080604085870312156112a957600080fd5b84356001600160401b038111156112bf57600080fd5b6112cb8782880161124f565b90955093505060208501356001600160401b038111156112ea57600080fd5b6112f68782880161124f565b95989497509550505050565b6040815260006113156040830185611194565b828103602084015261132781856111d9565b95945050505050565b60006020828403121561134257600080fd5b5035919050565b82815260406020820152600061136260408301846111d9565b949350505050565b6001600160a01b03878116825260208201879052851660408201526060810184905260c0608082018190526000906113a490830185611194565b82810360a08401526113b681856111d9565b9998505050505050505050565b6020808252601f908201527f6e6f7420617574686f72697a656420746f2063616c6c2066756e6374696f6e00604082015260600190565b634e487b7160e01b600052603260045260246000fd5b6001600160a01b0391909116815260200190565b60006020828403121561143657600080fd5b5051919050565b634e487b7160e01b600052601160045260246000fd5b808201808211156114665761146661143d565b92915050565b634e487b7160e01b600052604160045260246000fd5b80820281158282048414176114665761146661143d565b6000826114b657634e487b7160e01b600052601260045260246000fd5b500490565b818103818111156114665761146661143d56fea2646970667358221220b5a21e5a7f9050dec3c901889760f2fb9b53c5b489f3d3f83d80a3766af660bf64736f6c634300081c0033",
  "libraries": {
    "AddressSet": "0x8aB21bf41B908d9CBee3E78e97033E3916840cA8",
    "AttributeLib": "0x9d0749b64bEDB024B1AaF596c84029E67635D43c",
    "Base64": "0x8d10857B6d2bEA12d67A888F3E995ea142Db701E",
    "Bytes32Set": "0xB01Cf1Baf9ABFa5309AE3ff649B31ae87A80AE62",
    "CarbonCreditLib": "0x44520E8dA039d4D7D460f5DBF6C1eC347De53A7C",
    "DiamondFactoryLib": "0x50353159348c63A448eDAfC6d5ef81CF9C1cdE9a",
    "DiamondLib": "0x2Be86045394c8096b3b9d9449A08Cc74afEd5717",
    "ERC721AEnumerationLib": "0x6a9A6D75AECEfB8dC969D5Ef5ea3EcF57e29706d",
    "ERC721ALib": "0x8F980CBDb943c2794FdA47D82d81a71d31A815DE",
    "Identity": "0x4C6fE457018d32B9aEc2aA99F655b5aCD7d0D658",
    "IdentityFactory": "0x5c970fD1E772548Be3Dc3de62381Fd8b2b3fAb96",
    "IdentitySystemStorage": "0x05d7966Acfa90f529e3844B1d1b7702dBde7789c",
    "LibDiamond": "0x30Fb10d923CfFC1151B8CFe683A937F414854570",
    "MerkleProver": "0x6361c8F2C7Fb1498C15C5e90Ed477ee8cEeC9f5f",
    "MetadataLib": "0xEA17bE869d528F2c3e4F7cae231ebE4BE42BeB75",
    "MultiSaleLib": "0x3b12B21202DaC69552E7b1f9D4D3E31085c7a378",
    "Strings": "0x26375f3210F1F8C90f53c663AC44F3d4a86b12A6",
    "StringsLib": "0x928c0A50586514D291087403befe3540E3631ECd",
    "SVGTemplatesLib": "0xFD3DfE346d5d5c8C90313036BC1b1E3De29FCb33",
    "UInt256Set": "0x908B9bE15117446dE01d076Ecb75D9210E182D97",
    "VariablePriceLib": "0x92E3cBf7226518CF757c48446067de1485CCCcBb"
  },
  "devdoc": {
    "details": "A Diamond facet for managing and executing fee distributions.",
    "errors": {
      "SafeERC20FailedOperation(address)": [
        {
          "details": "An operation with an ERC-20 token failed."
        }
      ]
    },
    "events": {
      "AmountsDistributed(address,uint256,address,uint256,address[],uint256[])": {
        "details": "Emitted when principal and fee amounts are successfully distributed.",
        "params": {
          "adjustedAmount": "The adjusted principal amount transferred.",
          "adjustedAmountReceiver": "The address that received the adjusted principal amount (same as principalAmountReceiver).",
          "feeAmounts": "The individual fee amounts transferred.",
          "feeReceivers": "The addresses that received the fee amounts.",
          "principalAmount": "The original principal amount before fee deduction.",
          "principalAmountReceiver": "The address that received the adjusted principal amount."
        }
      },
      "FeeDistributorInitialized(address,uint256)": {
        "details": "Emitted when the Fee Distributor is initialized.",
        "params": {
          "distributionToken": "The address of the ERC20 token set for distribution.",
          "totalWeightBasis": "The basis used for calculating fee weights (e.g., 10000)."
        }
      },
      "FeeReceiversSet(address[],uint256[])": {
        "details": "Emitted when the fee receivers and weights are updated.",
        "params": {
          "feeReceivers": "The new array of fee receiver addresses.",
          "feeWeights": "The new array of corresponding fee weights."
        }
      }
    },
    "kind": "dev",
    "methods": {
      "calculateAmounts(uint256)": {
        "details": "This function is view-only and does not perform any state changes or transfers.",
        "params": {
          "principalAmount": "The total amount before fee deduction."
        },
        "returns": {
          "adjustedAmount": "The principal amount remaining after deducting total fees.",
          "feeAmounts": "Array of individual fee amounts calculated for each receiver."
        }
      },
      "distributeAmounts(address,uint256)": {
        "details": "Requires the contract to hold sufficient funds (e.g., USDC) or allowance to perform the transfers.",
        "params": {
          "_principalAmount": "The total amount to be distributed.",
          "principalAmountReceiver": "The address to receive the adjusted principal amount."
        },
        "returns": {
          "adjustedAmount": "The adjusted principal amount transferred.",
          "adjustedAmountReceiver": "The address that received the adjusted principal amount.",
          "feeAmounts": "The individual fee amounts transferred.",
          "feeReceivers": "The addresses that received the fee amounts."
        }
      },
      "getFeeReceivers()": {
        "returns": {
          "feeReceivers": "Array of addresses currently set to receive fees.",
          "feeWeights": "Array of weights corresponding to each receiver."
        }
      },
      "initializeFeeDistributor(address,uint256)": {
        "details": "Should only be called once, typically during deployment. Only callable by the contract owner.",
        "params": {
          "_distributionToken": "Address of the ERC20 token to be distributed (e.g., USDC). Cannot be address(0).",
          "_totalWeightBasis": "The basis for fee weights (e.g., 10000 for basis points). Must be greater than 0."
        }
      },
      "setFeeReceivers(address[],uint256[])": {
        "details": "Only callable by the contract owner. Weights determine the proportion of fees.",
        "params": {
          "_feeReceivers": "Array of addresses to receive fees.",
          "_feeWeights": "Array of weights corresponding to each receiver."
        }
      }
    },
    "title": "FeeDistributorFacet",
    "version": 1
  },
  "userdoc": {
    "kind": "user",
    "methods": {
      "calculateAmounts(uint256)": {
        "notice": "Calculates the adjusted principal amount and individual fee amounts based on the total principal."
      },
      "distributeAmounts(address,uint256)": {
        "notice": "Distributes a principal amount, sending calculated fees to receivers and the adjusted amount to the principal receiver."
      },
      "getFeeReceivers()": {
        "notice": "Gets the current fee receivers and their weights."
      },
      "initializeFeeDistributor(address,uint256)": {
        "notice": "Initializes the Fee Distributor settings."
      },
      "setFeeReceivers(address[],uint256[])": {
        "notice": "Sets the addresses that will receive fees and their corresponding weights."
      }
    },
    "version": 1
  },
  "storageLayout": {
    "storage": [],
    "types": null
  }
}