{
  "address": "0x97ecF7f1188b5471f8257D82a8Bc38F361Dc28C9",
  "abi": [
    {
      "inputs": [],
      "stateMutability": "nonpayable",
      "type": "constructor"
    },
    {
      "anonymous": false,
      "inputs": [
        {
          "indexed": false,
          "internalType": "address",
          "name": "trustedIssuer",
          "type": "address"
        },
        {
          "indexed": true,
          "internalType": "address",
          "name": "identity",
          "type": "address"
        },
        {
          "indexed": true,
          "internalType": "uint256",
          "name": "claimTopic",
          "type": "uint256"
        },
        {
          "indexed": false,
          "internalType": "bytes",
          "name": "claim",
          "type": "bytes"
        }
      ],
      "name": "ClaimAdded",
      "type": "event"
    },
    {
      "anonymous": false,
      "inputs": [
        {
          "indexed": false,
          "internalType": "address",
          "name": "trustedIssuer",
          "type": "address"
        },
        {
          "indexed": true,
          "internalType": "address",
          "name": "identity",
          "type": "address"
        },
        {
          "indexed": true,
          "internalType": "uint256",
          "name": "claimTopic",
          "type": "uint256"
        }
      ],
      "name": "ClaimRemoved",
      "type": "event"
    },
    {
      "anonymous": false,
      "inputs": [
        {
          "indexed": false,
          "internalType": "address",
          "name": "trustedIssuer",
          "type": "address"
        },
        {
          "indexed": true,
          "internalType": "address",
          "name": "identity",
          "type": "address"
        },
        {
          "indexed": false,
          "internalType": "uint256[]",
          "name": "claimTopics",
          "type": "uint256[]"
        }
      ],
      "name": "ClaimsRemoved",
      "type": "event"
    },
    {
      "anonymous": false,
      "inputs": [
        {
          "indexed": false,
          "internalType": "address",
          "name": "trustedIssuer",
          "type": "address"
        },
        {
          "indexed": true,
          "internalType": "address",
          "name": "identity",
          "type": "address"
        },
        {
          "indexed": false,
          "internalType": "uint256[]",
          "name": "claims",
          "type": "uint256[]"
        }
      ],
      "name": "ClaimsSet",
      "type": "event"
    },
    {
      "anonymous": false,
      "inputs": [],
      "name": "ContractAddressesSet",
      "type": "event"
    },
    {
      "anonymous": false,
      "inputs": [
        {
          "indexed": false,
          "internalType": "address",
          "name": "trustedIssuer",
          "type": "address"
        },
        {
          "indexed": true,
          "internalType": "address",
          "name": "_address",
          "type": "address"
        },
        {
          "indexed": false,
          "internalType": "contract IIdentity",
          "name": "identity",
          "type": "address"
        }
      ],
      "name": "IdentityAdded",
      "type": "event"
    },
    {
      "anonymous": false,
      "inputs": [
        {
          "indexed": false,
          "internalType": "address",
          "name": "trustedIssuer",
          "type": "address"
        },
        {
          "indexed": true,
          "internalType": "address",
          "name": "identity",
          "type": "address"
        },
        {
          "indexed": true,
          "internalType": "uint16",
          "name": "country",
          "type": "uint16"
        }
      ],
      "name": "IdentityCountryUpdated",
      "type": "event"
    },
    {
      "anonymous": false,
      "inputs": [
        {
          "indexed": false,
          "internalType": "address",
          "name": "trustedIssuer",
          "type": "address"
        },
        {
          "indexed": true,
          "internalType": "address",
          "name": "_address",
          "type": "address"
        },
        {
          "indexed": false,
          "internalType": "contract IIdentity",
          "name": "identity",
          "type": "address"
        }
      ],
      "name": "IdentityRemoved",
      "type": "event"
    },
    {
      "anonymous": false,
      "inputs": [
        {
          "indexed": false,
          "internalType": "address",
          "name": "trustedIssuer",
          "type": "address"
        },
        {
          "indexed": true,
          "internalType": "address",
          "name": "walletAddress",
          "type": "address"
        },
        {
          "indexed": true,
          "internalType": "bytes32",
          "name": "onchainID",
          "type": "bytes32"
        }
      ],
      "name": "WalletLinked",
      "type": "event"
    },
    {
      "anonymous": false,
      "inputs": [
        {
          "indexed": false,
          "internalType": "address",
          "name": "trustedIssuer",
          "type": "address"
        },
        {
          "indexed": true,
          "internalType": "address",
          "name": "walletAddress",
          "type": "address"
        },
        {
          "indexed": true,
          "internalType": "bytes32",
          "name": "onchainID",
          "type": "bytes32"
        }
      ],
      "name": "WalletUnlinked",
      "type": "event"
    },
    {
      "inputs": [
        {
          "internalType": "address",
          "name": "_address",
          "type": "address"
        },
        {
          "internalType": "uint256",
          "name": "_claimTopic",
          "type": "uint256"
        },
        {
          "internalType": "bytes",
          "name": "_claim",
          "type": "bytes"
        }
      ],
      "name": "addClaim",
      "outputs": [],
      "stateMutability": "nonpayable",
      "type": "function"
    },
    {
      "inputs": [
        {
          "internalType": "address",
          "name": "_address",
          "type": "address"
        },
        {
          "internalType": "contract IIdentity",
          "name": "identityData",
          "type": "address"
        }
      ],
      "name": "addIdentity",
      "outputs": [],
      "stateMutability": "nonpayable",
      "type": "function"
    },
    {
      "inputs": [
        {
          "internalType": "address[]",
          "name": "_addresses",
          "type": "address[]"
        },
        {
          "internalType": "contract IIdentity[]",
          "name": "identityDatas",
          "type": "address[]"
        }
      ],
      "name": "batchAddIdentity",
      "outputs": [],
      "stateMutability": "nonpayable",
      "type": "function"
    },
    {
      "inputs": [
        {
          "internalType": "address",
          "name": "_userAddress",
          "type": "address"
        }
      ],
      "name": "contains",
      "outputs": [
        {
          "internalType": "bool",
          "name": "",
          "type": "bool"
        }
      ],
      "stateMutability": "view",
      "type": "function"
    },
    {
      "inputs": [
        {
          "internalType": "address",
          "name": "_userAddress",
          "type": "address"
        }
      ],
      "name": "containsAddress",
      "outputs": [
        {
          "internalType": "bool",
          "name": "",
          "type": "bool"
        }
      ],
      "stateMutability": "view",
      "type": "function"
    },
    {
      "inputs": [
        {
          "internalType": "address",
          "name": "_address",
          "type": "address"
        },
        {
          "internalType": "uint256",
          "name": "_claimTopic",
          "type": "uint256"
        }
      ],
      "name": "getClaim",
      "outputs": [
        {
          "internalType": "uint256",
          "name": "",
          "type": "uint256"
        }
      ],
      "stateMutability": "view",
      "type": "function"
    },
    {
      "inputs": [
        {
          "internalType": "address",
          "name": "_address",
          "type": "address"
        }
      ],
      "name": "getClaims",
      "outputs": [
        {
          "internalType": "uint256[]",
          "name": "",
          "type": "uint256[]"
        }
      ],
      "stateMutability": "view",
      "type": "function"
    },
    {
      "inputs": [],
      "name": "getRegistryUsers",
      "outputs": [
        {
          "internalType": "address[]",
          "name": "",
          "type": "address[]"
        }
      ],
      "stateMutability": "view",
      "type": "function"
    },
    {
      "inputs": [
        {
          "internalType": "address",
          "name": "_address",
          "type": "address"
        },
        {
          "internalType": "uint256",
          "name": "_claimTopic",
          "type": "uint256"
        }
      ],
      "name": "hasClaim",
      "outputs": [
        {
          "internalType": "bool",
          "name": "",
          "type": "bool"
        }
      ],
      "stateMutability": "view",
      "type": "function"
    },
    {
      "inputs": [
        {
          "internalType": "address",
          "name": "_userAddress",
          "type": "address"
        }
      ],
      "name": "identity",
      "outputs": [
        {
          "internalType": "address",
          "name": "",
          "type": "address"
        }
      ],
      "stateMutability": "view",
      "type": "function"
    },
    {
      "inputs": [
        {
          "internalType": "address",
          "name": "_registryUser",
          "type": "address"
        }
      ],
      "name": "isRegistryUser",
      "outputs": [
        {
          "internalType": "bool",
          "name": "",
          "type": "bool"
        }
      ],
      "stateMutability": "view",
      "type": "function"
    },
    {
      "inputs": [
        {
          "internalType": "address",
          "name": "_address",
          "type": "address"
        }
      ],
      "name": "isVerified",
      "outputs": [
        {
          "internalType": "bool",
          "name": "",
          "type": "bool"
        }
      ],
      "stateMutability": "view",
      "type": "function"
    },
    {
      "inputs": [
        {
          "internalType": "address",
          "name": "_address",
          "type": "address"
        },
        {
          "internalType": "uint256",
          "name": "_claimTopic",
          "type": "uint256"
        }
      ],
      "name": "removeClaim",
      "outputs": [],
      "stateMutability": "nonpayable",
      "type": "function"
    },
    {
      "inputs": [
        {
          "internalType": "address",
          "name": "_identity",
          "type": "address"
        }
      ],
      "name": "removeIdentity",
      "outputs": [],
      "stateMutability": "nonpayable",
      "type": "function"
    },
    {
      "inputs": [
        {
          "internalType": "address",
          "name": "_address",
          "type": "address"
        },
        {
          "internalType": "uint256[]",
          "name": "_claims",
          "type": "uint256[]"
        }
      ],
      "name": "setClaims",
      "outputs": [],
      "stateMutability": "nonpayable",
      "type": "function"
    },
    {
      "inputs": [
        {
          "internalType": "address",
          "name": "_address",
          "type": "address"
        },
        {
          "internalType": "uint256[]",
          "name": "_claims",
          "type": "uint256[]"
        }
      ],
      "name": "unsetClaims",
      "outputs": [],
      "stateMutability": "nonpayable",
      "type": "function"
    }
  ],
  "transactionHash": "0x2c2649ae6b9cc452bd2a69736bb8c9e0c4f7a5ac5eb4cf099a8823d526bcec20",
  "args": [],
  "numDeployments": 1,
  "solcInputHash": "e39248fcba6c46a8a0b49ab62402d196",
  "bytecode": "0x6080604052348015600f57600080fd5b506119dc8061001f6000396000f3fe608060405234801561001057600080fd5b50600436106100d05760003560e01c80630f79ab39146100d557806316aedfdb146100fb57806325ef73b114610110578063322433e3146101235780635dbe47e814610123578063691a7dce146101465780638df2bf19146101235780638e0c3f6b14610159578063b54f5b301461016c578063b9209e3314610123578063c1f2f1aa1461017f578063d0d46a0b14610192578063dd9688c4146101b2578063dea9cd14146101c5578063e2c3828b146101da578063f0eb5e54146101ed575b600080fd5b6100e86100e3366004611419565b61020d565b6040519081526020015b60405180910390f35b61010e610109366004611419565b610256565b005b61010e61011e366004611445565b6104cc565b61013661013136600461147e565b61055f565b60405190151581526020016100f2565b61010e6101543660046114b1565b61058a565b61010e6101673660046115dd565b610842565b61013661017a366004611419565b61092e565b61010e61018d36600461147e565b6109cc565b6101a56101a036600461147e565b610c54565b6040516100f29190611688565b61010e6101c036600461169b565b610cdf565b6101cd610e43565b6040516100f29190611725565b61010e6101e83660046114b1565b610eaf565b6102006101fb36600461147e565b61119d565b6040516100f29190611771565b6000806102186111bb565b90506000610225856111df565b6001600160a01b03166000908152601690920160209081526040808420868552909152909120549150505b92915050565b8060006102616111bb565b905061026d8133611218565b6102925760405162461bcd60e51b815260040161028990611785565b60405180910390fd5b61029d81338461123d565b6102b95760405162461bcd60e51b8152600401610289906117b3565b60006102c36111bb565b905060006102d0866111df565b905060006102de83836112b3565b6001600160a01b0316036103045760405162461bcd60e51b8152600401610289906117f8565b336001600160a01b038216036103595760405162461bcd60e51b815260206004820152601a60248201527921b0b73737ba1039b2ba1031b630b4b6b9903337b91039b2b63360311b6044820152606401610289565b6001600160a01b03811660009081526017830160205260408120905b8154811015610486578682828154811061039157610391611829565b90600052602060002001540361047e57815482906103b190600190611855565b815481106103c1576103c1611829565b90600052602060002001548282815481106103de576103de611829565b9060005260206000200181905550818054806103fc576103fc611868565b6000828152602080822083016000199081018390559092019092556001600160a01b03851680835260168701825260408084208b855290925281832092909255518891907f0c8df48908c0ea535bfd853f98d669ef50f73e8f493551f4aa8904490f7eee0f9061046d903390611771565b60405180910390a3505050506104c6565b600101610375565b5060405162461bcd60e51b815260206004820152601460248201527310db185a5b48191bd95cc81b9bdd08195e1a5cdd60621b6044820152606401610289565b50505050565b60006104d66111bb565b90506104e28133611218565b6104fe5760405162461bcd60e51b81526004016102899061187e565b6001600160a01b03831661054f5760405162461bcd60e51b8152602060048201526018602482015277496e76616c6964206964656e74697479206164647265737360401b6044820152606401610289565b61055a3384846112d6565b505050565b60008061056a6111bb565b9050600061057882856113de565b6001600160a01b031614159392505050565b8060006105956111bb565b905060005b82518110156105f5576105d1338483815181106105b9576105b9611829565b60200260200101518461123d9092919063ffffffff16565b6105ed5760405162461bcd60e51b8152600401610289906117b3565b60010161059a565b5060006106006111bb565b9050600061060d866111df565b9050600061061b83836112b3565b6001600160a01b0316036106415760405162461bcd60e51b8152600401610289906117f8565b6001600160a01b0381166000908152601783016020526040812086519091906001600160401b038111156106775761067761149b565b6040519080825280602002602001820160405280156106a0578160200160208202803683370190505b5090506000805b88518110156107f05760008982815181106106c4576106c4611829565b6020026020010151905060005b85548110156107e657818682815481106106ed576106ed611829565b9060005260206000200154036107d4578554869061070d90600190611855565b8154811061071d5761071d611829565b906000526020600020015486828154811061073a5761073a611829565b90600052602060002001819055508580548061075857610758611868565b6000828152602080822083016000199081018390559092019092556001600160a01b038916825260168a0181526040808320858452909152812055845182908690869081106107a9576107a9611829565b6020908102919091010152836107be816118aa565b94505080806107cc906118c3565b9150506107e6565b806107de816118aa565b9150506106d1565b50506001016106a7565b50808252836001600160a01b03167fe73858c81d920339e76772c0c90a4b3b415bc730365c95f1012794ce60d2c2aa338460405161082f9291906118da565b60405180910390a2505050505050505050565b600061084c6111bb565b90506108588133611218565b6108745760405162461bcd60e51b81526004016102899061187e565b8382146108bc5760405162461bcd60e51b8152602060048201526016602482015275082e4e4c2f2e640d8cadccee8d040dad2e6dac2e8c6d60531b6044820152606401610289565b60005b848110156109265761091e338787848181106108dd576108dd611829565b90506020020160208101906108f2919061147e565b86868581811061090457610904611829565b9050602002016020810190610919919061147e565b6112d6565b6001016108bf565b505050505050565b6000806109396111bb565b90506000610946856111df565b905060005b6001600160a01b03821660009081526017840160205260409020548110156109c0576001600160a01b0382166000908152601784016020526040902080548691908390811061099c5761099c611829565b9060005260206000200154036109b85760019350505050610250565b60010161094b565b50600095945050505050565b60006109d66111bb565b90506109e28133611218565b6109fe5760405162461bcd60e51b81526004016102899061187e565b6000610a086111bb565b6001600160a01b03848116600090815260138301602052604090205491925016610a445760405162461bcd60e51b8152600401610289906117f8565b6001600160a01b038084166000908152601483016020526040902054168015610a90576001600160a01b0384166000908152601483016020526040902080546001600160a01b03191690555b6001600160a01b0384166000908152601383016020526040812080546001600160a01b03191690555b6015830154811015610c0a57846001600160a01b0316836015018281548110610ae457610ae4611829565b6000918252602090912001546001600160a01b031603610c025760158301805460009190610b1490600190611855565b81548110610b2457610b24611829565b6000918252602090912001546015850180546001600160a01b039092169250829184908110610b5557610b55611829565b600091825260209091200180546001600160a01b0319166001600160a01b03929092169190911790556015840154610b8f90600190611855565b821015610bc7576001600160a01b038181166000908152601486016020526040902080546001600160a01b0319169185169190911790555b83601501805480610bda57610bda611868565b600082815260209020810160001990810180546001600160a01b031916905501905550610c0a565b600101610ab9565b50836001600160a01b03167fe08c9a3c1d21f02066d00c9f7a9b2423a12b17569c3bc0cb4e84ca48d38e4a563386604051610c469291906118fe565b60405180910390a250505050565b60606000610c606111bb565b90506000610c6d846111df565b6001600160a01b03811660009081526017840160209081526040918290208054835181840281018401909452808452939450919290830182828015610cd157602002820191906000526020600020905b815481526020019060010190808311610cbd575b505050505092505050919050565b826000610cea6111bb565b9050610cf68133611218565b610d125760405162461bcd60e51b815260040161028990611785565b610d1d81338461123d565b610d395760405162461bcd60e51b8152600401610289906117b3565b6000610d436111bb565b90506000610d50886111df565b90506000610d5e83836112b3565b6001600160a01b031603610d845760405162461bcd60e51b8152600401610289906117f8565b6001600160a01b038116600090815260168301602090815260408083208a845290915290205415610dc75760405162461bcd60e51b815260040161028990611918565b6001600160a01b038116600081815260168401602090815260408083208b845282528083208b9055838352601786018252808320805460018101825590845291909220018990555188919060008051602061198783398151915290610e319033908b908b90611946565b60405180910390a35050505050505050565b60606000610e4f6111bb565b60158101805460408051602080840282018101909252828152939450830182828015610ea457602002820191906000526020600020905b81546001600160a01b03168152600190910190602001808311610e86575b505050505091505090565b806000610eba6111bb565b905060005b8251811015610f0257610ede338483815181106105b9576105b9611829565b610efa5760405162461bcd60e51b8152600401610289906117b3565b600101610ebf565b506000610f0d6111bb565b90506000610f1a866111df565b90506000610f2883836112b3565b6001600160a01b031603610f4e5760405162461bcd60e51b8152600401610289906117f8565b60005b8551811015611151576001600160a01b038216600090815260168401602052604081208751909190889084908110610f8b57610f8b611829565b6020026020010151815260200190815260200160002054600014610fc15760405162461bcd60e51b815260040161028990611918565b60005b601284015481101561114857868281518110610fe257610fe2611829565b6020026020010151846012018281548110610fff57610fff611829565b9060005260206000200154036111405786828151811061102157611021611829565b6020026020010151846016016000856001600160a01b03166001600160a01b03168152602001908152602001600020600089858151811061106457611064611829565b6020026020010151815260200190815260200160002081905550836017016000846001600160a01b03166001600160a01b031681526020019081526020016000208783815181106110b7576110b7611829565b6020908102919091018101518254600181018455600093845291909220015586518790839081106110ea576110ea611829565b6020026020010151836001600160a01b03166000805160206119878339815191523360405161113791906001600160a01b0391909116815260406020820181905260009082015260600190565b60405180910390a35b600101610fc4565b50600101610f51565b50806001600160a01b03167fef89323df07a1e5ace724fba7db5be7bcf159552046f9bb804776cb56400f47e338760405161118d9291906118da565b60405180910390a2505050505050565b6000806111a86111bb565b90506111b481846113de565b9392505050565b7fbd516eb36b5d4489adb2e717e7d0ce56c1b814eda85e78ad9d8f240b24dd830d90565b6000806111ea6111bb565b905060006111f882856113de565b90506001600160a01b03811661120e5783611210565b805b949350505050565b6001600160a01b038181166000908152600d8401602052604090205416151592915050565b60006112498484611218565b611255575060006111b4565b6001600160a01b0383166000908152600d850160205260408120600101905b81548110156109c0578382828154811061129057611290611829565b9060005260206000200154036112ab576001925050506111b4565b600101611274565b6001600160a01b0380821660009081526014840160205260409020541692915050565b60006112e06111bb565b6001600160a01b03848116600090815260138301602052604090205491925016156113475760405162461bcd60e51b81526020600482015260176024820152764964656e7469747920616c72656164792065786973747360481b6044820152606401610289565b6001600160a01b038084166000818152601384016020908152604080832080549588166001600160a01b03199687168117909155601587018054600181018255908552838520018054871686179055835260148601909152908190208054909316821790925590517fadd557309d2a6bb9ad26cad6d3219fe2c216fe5c598bdb00a88c2d149b4d95f690610c4690879086906118fe565b6001600160a01b0380821660009081526013840160205260409020541692915050565b6001600160a01b038116811461141657600080fd5b50565b6000806040838503121561142c57600080fd5b823561143781611401565b946020939093013593505050565b6000806040838503121561145857600080fd5b823561146381611401565b9150602083013561147381611401565b809150509250929050565b60006020828403121561149057600080fd5b81356111b481611401565b634e487b7160e01b600052604160045260246000fd5b600080604083850312156114c457600080fd5b82356114cf81611401565b915060208301356001600160401b038111156114ea57600080fd5b8301601f810185136114fb57600080fd5b80356001600160401b038111156115145761151461149b565b604051600582901b90603f8201601f191681016001600160401b03811182821017156115425761154261149b565b60405291825260208184018101929081018884111561156057600080fd5b6020850194505b8385101561158357843580825260209586019590935001611567565b50809450505050509250929050565b60008083601f8401126115a457600080fd5b5081356001600160401b038111156115bb57600080fd5b6020830191508360208260051b85010111156115d657600080fd5b9250929050565b600080600080604085870312156115f357600080fd5b84356001600160401b0381111561160957600080fd5b61161587828801611592565b90955093505060208501356001600160401b0381111561163457600080fd5b61164087828801611592565b95989497509550505050565b600081518084526020840193506020830160005b8281101561167e578151865260209586019590910190600101611660565b5093949350505050565b6020815260006111b4602083018461164c565b600080600080606085870312156116b157600080fd5b84356116bc81611401565b93506020850135925060408501356001600160401b038111156116de57600080fd5b8501601f810187136116ef57600080fd5b80356001600160401b0381111561170557600080fd5b87602082840101111561171757600080fd5b949793965060200194505050565b602080825282518282018190526000918401906040840190835b818110156117665783516001600160a01b031683526020938401939092019160010161173f565b509095945050505050565b6001600160a01b0391909116815260200190565b6020808252601490820152732737ba1030903a393ab9ba32b21034b9b9bab2b960611b604082015260600190565b60208082526025908201527f497373756572206e6f7420617574686f72697a656420666f7220636c61696d20604082015264746f70696360d81b606082015260800190565b6020808252601790820152761259195b9d1a5d1e48191bd95cc81b9bdd08195e1a5cdd604a1b604082015260600190565b634e487b7160e01b600052603260045260246000fd5b634e487b7160e01b600052601160045260246000fd5b818103818111156102505761025061183f565b634e487b7160e01b600052603160045260246000fd5b6020808252601290820152712737ba103a393ab9ba32b21034b9b9bab2b960711b604082015260600190565b6000600182016118bc576118bc61183f565b5060010190565b6000816118d2576118d261183f565b506000190190565b6001600160a01b03831681526040602082018190526000906112109083018461164c565b6001600160a01b0392831681529116602082015260400190565b602080825260149082015273436c61696d20616c72656164792065786973747360601b604082015260600190565b6001600160a01b03841681526040602082018190528101829052818360608301376000818301606090810191909152601f909201601f191601019291505056fe12606aa8b87da3566bf30adc6a702421c7da521375bbedf83d6ba87a486fb501a264697066735822122081d653682ea99cb9b0c9e93dbb4ade0e93c94c1760afeea210f84452ce562e9c64736f6c634300081c0033",
  "libraries": {
    "AddressSet": "0x8aB21bf41B908d9CBee3E78e97033E3916840cA8",
    "AttributeLib": "0x9d0749b64bEDB024B1AaF596c84029E67635D43c",
    "Base64": "0x8d10857B6d2bEA12d67A888F3E995ea142Db701E",
    "Bytes32Set": "0xB01Cf1Baf9ABFa5309AE3ff649B31ae87A80AE62",
    "CarbonCreditLib": "0x44520E8dA039d4D7D460f5DBF6C1eC347De53A7C",
    "DiamondFactoryLib": "0x50353159348c63A448eDAfC6d5ef81CF9C1cdE9a",
    "DiamondLib": "0x2Be86045394c8096b3b9d9449A08Cc74afEd5717",
    "ERC721AEnumerationLib": "0x6a9A6D75AECEfB8dC969D5Ef5ea3EcF57e29706d",
    "ERC721ALib": "0x8F980CBDb943c2794FdA47D82d81a71d31A815DE",
    "Identity": "0x4C6fE457018d32B9aEc2aA99F655b5aCD7d0D658",
    "IdentityFactory": "0x5c970fD1E772548Be3Dc3de62381Fd8b2b3fAb96",
    "IdentitySystemStorage": "0x05d7966Acfa90f529e3844B1d1b7702dBde7789c",
    "LibDiamond": "0x30Fb10d923CfFC1151B8CFe683A937F414854570",
    "MerkleProver": "0x6361c8F2C7Fb1498C15C5e90Ed477ee8cEeC9f5f",
    "MetadataLib": "0xEA17bE869d528F2c3e4F7cae231ebE4BE42BeB75",
    "MultiSaleLib": "0x3b12B21202DaC69552E7b1f9D4D3E31085c7a378",
    "Strings": "0x26375f3210F1F8C90f53c663AC44F3d4a86b12A6",
    "StringsLib": "0x928c0A50586514D291087403befe3540E3631ECd",
    "SVGTemplatesLib": "0xFD3DfE346d5d5c8C90313036BC1b1E3De29FCb33",
    "UInt256Set": "0x908B9bE15117446dE01d076Ecb75D9210E182D97",
    "VariablePriceLib": "0x92E3cBf7226518CF757c48446067de1485CCCcBb"
  },
  "devdoc": {
    "details": "This contract is implemented as a diamond facet following the EIP-2535 Diamond Standard.      It provides functionality for managing digital identities and their associated claims.      The identity system follows a claims-based model where trusted issuers can make      verifiable claims about identities. The contract enforces permissions so that only      authorized issuers can manage specific claim types.      Key functionalities include:      - Adding and removing identities to/from the registry      - Managing claims (attestations) about identities      - Verifying identity status and claim ownership      - Access control for trusted issuers      All state is stored via the diamond storage pattern in IdentitySystemStorage.",
    "events": {
      "ContractAddressesSet()": {
        "details": "Emitted when contract addresses are configured"
      }
    },
    "kind": "dev",
    "methods": {
      "addIdentity(address,address)": {
        "custom:access": "Restricted to trusted issuers (via isTrustedIssuer modifier)",
        "custom:event": "Emits IdentityAdded event upon successful registration",
        "details": "Registers a new identity in the system, associating the provided      address with an identity contract. This operation can only be performed      by approved trusted issuers. The function checks that the address is valid      and that no identity is already registered for the given address.",
        "params": {
          "_address": "The address of the user who will own the identity",
          "identityData": "The IIdentity contract instance representing the identity"
        }
      },
      "batchAddIdentity(address[],address[])": {
        "details": "this function can only be called by a trusted issuer",
        "params": {
          "_addresses": "array of addresses of the identities",
          "identityDatas": "array of addresses of the identity data contracts"
        }
      },
      "constructor": {
        "details": "Empty constructor as initialization happens through the diamond"
      },
      "contains(address)": {
        "params": {
          "_userAddress": "address of the identity user"
        },
        "returns": {
          "_0": "bool"
        }
      },
      "getRegistryUsers()": {
        "returns": {
          "_0": "array of addresses of the users"
        }
      },
      "identity(address)": {
        "params": {
          "_userAddress": "address of the identity user"
        },
        "returns": {
          "_0": "identityData address of the identity data contract"
        }
      },
      "isRegistryUser(address)": {
        "params": {
          "_registryUser": "address of the registry user"
        },
        "returns": {
          "_0": "bool"
        }
      },
      "isVerified(address)": {
        "params": {
          "_address": "address of the identity user or identity contract"
        },
        "returns": {
          "_0": "bool"
        }
      },
      "removeIdentity(address)": {
        "custom:access": "Restricted to trusted issuers (via isTrustedIssuer modifier)",
        "custom:event": "Emits IdentityRemoved event upon successful removal",
        "details": "Deletes an identity from the system, removing all its associated data      and mappings. This operation can only be performed by trusted issuers.      The function performs several cleanup steps:      1. Removes the identity from the identities mapping      2. Updates the owner mapping      3. Removes the identity from the identityOwners array (using swap and pop)",
        "params": {
          "_identity": "The address of the identity to remove"
        }
      }
    },
    "title": "IdentityRegistryFacet",
    "version": 1
  },
  "userdoc": {
    "kind": "user",
    "methods": {
      "addIdentity(address,address)": {
        "notice": "Adds a new identity to the registry"
      },
      "batchAddIdentity(address[],address[])": {
        "notice": "batch add identities to the registry"
      },
      "contains(address)": {
        "notice": "does an identity exist"
      },
      "getRegistryUsers()": {
        "notice": "get the users of the registry"
      },
      "identity(address)": {
        "notice": "get the identity data contract address of an identity"
      },
      "isRegistryUser(address)": {
        "notice": "is the user a registry user"
      },
      "isVerified(address)": {
        "notice": "is an identity verified"
      },
      "removeIdentity(address)": {
        "notice": "Removes an identity from the registry"
      }
    },
    "notice": "Manages a decentralized identity registry with claim verification capabilities",
    "version": 1
  },
  "storageLayout": {
    "storage": [],
    "types": null
  }
}