{
  "address": "0x4C6fE457018d32B9aEc2aA99F655b5aCD7d0D658",
  "abi": [
    {
      "inputs": [],
      "name": "InvalidInitialization",
      "type": "error"
    },
    {
      "inputs": [],
      "name": "NotInitializing",
      "type": "error"
    },
    {
      "anonymous": false,
      "inputs": [
        {
          "indexed": true,
          "internalType": "uint256",
          "name": "executionId",
          "type": "uint256"
        },
        {
          "indexed": false,
          "internalType": "bool",
          "name": "approved",
          "type": "bool"
        }
      ],
      "name": "Approved",
      "type": "event"
    },
    {
      "anonymous": false,
      "inputs": [
        {
          "indexed": false,
          "internalType": "string",
          "name": "key",
          "type": "string"
        },
        {
          "indexed": false,
          "internalType": "enum AttributeType",
          "name": "attributeType",
          "type": "uint8"
        },
        {
          "indexed": false,
          "internalType": "string",
          "name": "value",
          "type": "string"
        }
      ],
      "name": "AttributeSet",
      "type": "event"
    },
    {
      "anonymous": false,
      "inputs": [
        {
          "indexed": true,
          "internalType": "bytes32",
          "name": "claimId",
          "type": "bytes32"
        },
        {
          "indexed": true,
          "internalType": "uint256",
          "name": "topic",
          "type": "uint256"
        },
        {
          "indexed": false,
          "internalType": "uint256",
          "name": "scheme",
          "type": "uint256"
        },
        {
          "indexed": true,
          "internalType": "address",
          "name": "issuer",
          "type": "address"
        },
        {
          "indexed": false,
          "internalType": "bytes",
          "name": "signature",
          "type": "bytes"
        },
        {
          "indexed": false,
          "internalType": "bytes",
          "name": "data",
          "type": "bytes"
        },
        {
          "indexed": false,
          "internalType": "string",
          "name": "uri",
          "type": "string"
        }
      ],
      "name": "ClaimAdded",
      "type": "event"
    },
    {
      "anonymous": false,
      "inputs": [
        {
          "indexed": true,
          "internalType": "bytes32",
          "name": "claimId",
          "type": "bytes32"
        },
        {
          "indexed": true,
          "internalType": "uint256",
          "name": "topic",
          "type": "uint256"
        },
        {
          "indexed": false,
          "internalType": "uint256",
          "name": "scheme",
          "type": "uint256"
        },
        {
          "indexed": true,
          "internalType": "address",
          "name": "issuer",
          "type": "address"
        },
        {
          "indexed": false,
          "internalType": "bytes",
          "name": "signature",
          "type": "bytes"
        },
        {
          "indexed": false,
          "internalType": "bytes",
          "name": "data",
          "type": "bytes"
        },
        {
          "indexed": false,
          "internalType": "string",
          "name": "uri",
          "type": "string"
        }
      ],
      "name": "ClaimChanged",
      "type": "event"
    },
    {
      "anonymous": false,
      "inputs": [
        {
          "indexed": true,
          "internalType": "bytes32",
          "name": "claimId",
          "type": "bytes32"
        },
        {
          "indexed": true,
          "internalType": "uint256",
          "name": "topic",
          "type": "uint256"
        },
        {
          "indexed": false,
          "internalType": "uint256",
          "name": "scheme",
          "type": "uint256"
        },
        {
          "indexed": true,
          "internalType": "address",
          "name": "issuer",
          "type": "address"
        },
        {
          "indexed": false,
          "internalType": "bytes",
          "name": "signature",
          "type": "bytes"
        },
        {
          "indexed": false,
          "internalType": "bytes",
          "name": "data",
          "type": "bytes"
        },
        {
          "indexed": false,
          "internalType": "string",
          "name": "uri",
          "type": "string"
        }
      ],
      "name": "ClaimRemoved",
      "type": "event"
    },
    {
      "anonymous": false,
      "inputs": [
        {
          "indexed": true,
          "internalType": "uint256",
          "name": "claimRequestId",
          "type": "uint256"
        },
        {
          "indexed": true,
          "internalType": "uint256",
          "name": "topic",
          "type": "uint256"
        },
        {
          "indexed": false,
          "internalType": "uint256",
          "name": "scheme",
          "type": "uint256"
        },
        {
          "indexed": true,
          "internalType": "address",
          "name": "issuer",
          "type": "address"
        },
        {
          "indexed": false,
          "internalType": "bytes",
          "name": "signature",
          "type": "bytes"
        },
        {
          "indexed": false,
          "internalType": "bytes",
          "name": "data",
          "type": "bytes"
        },
        {
          "indexed": false,
          "internalType": "string",
          "name": "uri",
          "type": "string"
        }
      ],
      "name": "ClaimRequested",
      "type": "event"
    },
    {
      "anonymous": false,
      "inputs": [
        {
          "indexed": true,
          "internalType": "address",
          "name": "contractAddress",
          "type": "address"
        },
        {
          "indexed": true,
          "internalType": "address",
          "name": "controllerAddress",
          "type": "address"
        }
      ],
      "name": "ControllerAdded",
      "type": "event"
    },
    {
      "anonymous": false,
      "inputs": [
        {
          "indexed": true,
          "internalType": "address",
          "name": "contractAddress",
          "type": "address"
        },
        {
          "indexed": true,
          "internalType": "address",
          "name": "controllerAddress",
          "type": "address"
        }
      ],
      "name": "ControllerRemoved",
      "type": "event"
    },
    {
      "anonymous": false,
      "inputs": [
        {
          "indexed": true,
          "internalType": "uint256",
          "name": "executionId",
          "type": "uint256"
        },
        {
          "indexed": true,
          "internalType": "address",
          "name": "to",
          "type": "address"
        },
        {
          "indexed": true,
          "internalType": "uint256",
          "name": "value",
          "type": "uint256"
        },
        {
          "indexed": false,
          "internalType": "bytes",
          "name": "data",
          "type": "bytes"
        }
      ],
      "name": "Executed",
      "type": "event"
    },
    {
      "anonymous": false,
      "inputs": [
        {
          "indexed": true,
          "internalType": "uint256",
          "name": "executionId",
          "type": "uint256"
        },
        {
          "indexed": true,
          "internalType": "address",
          "name": "to",
          "type": "address"
        },
        {
          "indexed": true,
          "internalType": "uint256",
          "name": "value",
          "type": "uint256"
        },
        {
          "indexed": false,
          "internalType": "bytes",
          "name": "data",
          "type": "bytes"
        }
      ],
      "name": "ExecutionFailed",
      "type": "event"
    },
    {
      "anonymous": false,
      "inputs": [
        {
          "indexed": true,
          "internalType": "uint256",
          "name": "executionId",
          "type": "uint256"
        },
        {
          "indexed": true,
          "internalType": "address",
          "name": "to",
          "type": "address"
        },
        {
          "indexed": true,
          "internalType": "uint256",
          "name": "value",
          "type": "uint256"
        },
        {
          "indexed": false,
          "internalType": "bytes",
          "name": "data",
          "type": "bytes"
        }
      ],
      "name": "ExecutionRequested",
      "type": "event"
    },
    {
      "anonymous": false,
      "inputs": [
        {
          "indexed": false,
          "internalType": "uint64",
          "name": "version",
          "type": "uint64"
        }
      ],
      "name": "Initialized",
      "type": "event"
    },
    {
      "anonymous": false,
      "inputs": [
        {
          "indexed": true,
          "internalType": "bytes32",
          "name": "key",
          "type": "bytes32"
        },
        {
          "indexed": true,
          "internalType": "uint256",
          "name": "purpose",
          "type": "uint256"
        },
        {
          "indexed": true,
          "internalType": "uint256",
          "name": "keyType",
          "type": "uint256"
        }
      ],
      "name": "KeyAdded",
      "type": "event"
    },
    {
      "anonymous": false,
      "inputs": [
        {
          "indexed": true,
          "internalType": "bytes32",
          "name": "key",
          "type": "bytes32"
        },
        {
          "indexed": true,
          "internalType": "uint256",
          "name": "purpose",
          "type": "uint256"
        },
        {
          "indexed": true,
          "internalType": "uint256",
          "name": "keyType",
          "type": "uint256"
        }
      ],
      "name": "KeyRemoved",
      "type": "event"
    },
    {
      "inputs": [
        {
          "internalType": "uint256",
          "name": "_topic",
          "type": "uint256"
        },
        {
          "internalType": "uint256",
          "name": "_scheme",
          "type": "uint256"
        },
        {
          "internalType": "address",
          "name": "_issuer",
          "type": "address"
        },
        {
          "internalType": "bytes",
          "name": "_signature",
          "type": "bytes"
        },
        {
          "internalType": "bytes",
          "name": "_data",
          "type": "bytes"
        },
        {
          "internalType": "string",
          "name": "_uri",
          "type": "string"
        }
      ],
      "name": "addClaim",
      "outputs": [
        {
          "internalType": "uint256",
          "name": "claimRequestId",
          "type": "uint256"
        }
      ],
      "stateMutability": "nonpayable",
      "type": "function"
    },
    {
      "inputs": [
        {
          "internalType": "address",
          "name": "_controller",
          "type": "address"
        }
      ],
      "name": "addController",
      "outputs": [],
      "stateMutability": "nonpayable",
      "type": "function"
    },
    {
      "inputs": [
        {
          "internalType": "bytes32",
          "name": "_key",
          "type": "bytes32"
        },
        {
          "internalType": "uint256",
          "name": "_purpose",
          "type": "uint256"
        },
        {
          "internalType": "uint256",
          "name": "_keyType",
          "type": "uint256"
        }
      ],
      "name": "addKey",
      "outputs": [],
      "stateMutability": "nonpayable",
      "type": "function"
    },
    {
      "inputs": [
        {
          "internalType": "uint256",
          "name": "_id",
          "type": "uint256"
        },
        {
          "internalType": "bool",
          "name": "_approve",
          "type": "bool"
        }
      ],
      "name": "approve",
      "outputs": [],
      "stateMutability": "nonpayable",
      "type": "function"
    },
    {
      "inputs": [
        {
          "internalType": "bytes32",
          "name": "_claimId",
          "type": "bytes32"
        },
        {
          "internalType": "uint256",
          "name": "_topic",
          "type": "uint256"
        },
        {
          "internalType": "uint256",
          "name": "_scheme",
          "type": "uint256"
        },
        {
          "internalType": "address",
          "name": "_issuer",
          "type": "address"
        },
        {
          "internalType": "bytes",
          "name": "_signature",
          "type": "bytes"
        },
        {
          "internalType": "bytes",
          "name": "_data",
          "type": "bytes"
        },
        {
          "internalType": "string",
          "name": "_uri",
          "type": "string"
        }
      ],
      "name": "changeClaim",
      "outputs": [
        {
          "internalType": "bool",
          "name": "",
          "type": "bool"
        }
      ],
      "stateMutability": "nonpayable",
      "type": "function"
    },
    {
      "inputs": [
        {
          "internalType": "address",
          "name": "_to",
          "type": "address"
        },
        {
          "internalType": "uint256",
          "name": "_value",
          "type": "uint256"
        },
        {
          "internalType": "bytes",
          "name": "_data",
          "type": "bytes"
        }
      ],
      "name": "execute",
      "outputs": [
        {
          "internalType": "uint256",
          "name": "executionId",
          "type": "uint256"
        }
      ],
      "stateMutability": "payable",
      "type": "function"
    },
    {
      "inputs": [
        {
          "internalType": "string",
          "name": "_key",
          "type": "string"
        }
      ],
      "name": "getAttribute",
      "outputs": [
        {
          "components": [
            {
              "internalType": "string",
              "name": "key",
              "type": "string"
            },
            {
              "internalType": "enum AttributeType",
              "name": "attributeType",
              "type": "uint8"
            },
            {
              "internalType": "string",
              "name": "value",
              "type": "string"
            }
          ],
          "internalType": "struct Attribute",
          "name": "_attrib",
          "type": "tuple"
        }
      ],
      "stateMutability": "view",
      "type": "function"
    },
    {
      "inputs": [
        {
          "internalType": "bytes32",
          "name": "_claimId",
          "type": "bytes32"
        }
      ],
      "name": "getClaim",
      "outputs": [
        {
          "internalType": "uint256",
          "name": "topic",
          "type": "uint256"
        },
        {
          "internalType": "uint256",
          "name": "scheme",
          "type": "uint256"
        },
        {
          "internalType": "address",
          "name": "issuer",
          "type": "address"
        },
        {
          "internalType": "bytes",
          "name": "signature",
          "type": "bytes"
        },
        {
          "internalType": "bytes",
          "name": "data",
          "type": "bytes"
        },
        {
          "internalType": "string",
          "name": "uri",
          "type": "string"
        }
      ],
      "stateMutability": "view",
      "type": "function"
    },
    {
      "inputs": [
        {
          "internalType": "uint256",
          "name": "_topic",
          "type": "uint256"
        }
      ],
      "name": "getClaimIdsByTopic",
      "outputs": [
        {
          "internalType": "bytes32[]",
          "name": "claimIds_",
          "type": "bytes32[]"
        }
      ],
      "stateMutability": "view",
      "type": "function"
    },
    {
      "inputs": [],
      "name": "getClaimTopics",
      "outputs": [
        {
          "internalType": "uint256[]",
          "name": "",
          "type": "uint256[]"
        }
      ],
      "stateMutability": "view",
      "type": "function"
    },
    {
      "inputs": [
        {
          "internalType": "uint256",
          "name": "",
          "type": "uint256"
        }
      ],
      "name": "getExecution",
      "outputs": [
        {
          "internalType": "address",
          "name": "_addr",
          "type": "address"
        },
        {
          "internalType": "uint256",
          "name": "_value",
          "type": "uint256"
        },
        {
          "internalType": "bytes",
          "name": "_data",
          "type": "bytes"
        },
        {
          "internalType": "bool",
          "name": "_executed",
          "type": "bool"
        },
        {
          "internalType": "uint256",
          "name": "_approved",
          "type": "uint256"
        }
      ],
      "stateMutability": "pure",
      "type": "function"
    },
    {
      "inputs": [
        {
          "internalType": "bytes32",
          "name": "_key",
          "type": "bytes32"
        }
      ],
      "name": "getKey",
      "outputs": [
        {
          "internalType": "uint256[]",
          "name": "purposes",
          "type": "uint256[]"
        },
        {
          "internalType": "uint256",
          "name": "keyType",
          "type": "uint256"
        },
        {
          "internalType": "bytes32",
          "name": "key",
          "type": "bytes32"
        }
      ],
      "stateMutability": "view",
      "type": "function"
    },
    {
      "inputs": [
        {
          "internalType": "bytes32",
          "name": "_key",
          "type": "bytes32"
        }
      ],
      "name": "getKeyPurposes",
      "outputs": [
        {
          "internalType": "uint256[]",
          "name": "_purposes",
          "type": "uint256[]"
        }
      ],
      "stateMutability": "view",
      "type": "function"
    },
    {
      "inputs": [
        {
          "internalType": "uint256",
          "name": "_purpose",
          "type": "uint256"
        }
      ],
      "name": "getKeysByPurpose",
      "outputs": [
        {
          "internalType": "bytes32[]",
          "name": "_keys",
          "type": "bytes32[]"
        }
      ],
      "stateMutability": "view",
      "type": "function"
    },
    {
      "inputs": [
        {
          "internalType": "address",
          "name": "_owner",
          "type": "address"
        },
        {
          "internalType": "address",
          "name": "_identityRegistry",
          "type": "address"
        },
        {
          "internalType": "address",
          "name": "_trustedIssuerRegistry",
          "type": "address"
        }
      ],
      "name": "initialize",
      "outputs": [],
      "stateMutability": "nonpayable",
      "type": "function"
    },
    {
      "inputs": [
        {
          "internalType": "address",
          "name": "_address",
          "type": "address"
        }
      ],
      "name": "isController",
      "outputs": [
        {
          "internalType": "bool",
          "name": "allowed",
          "type": "bool"
        }
      ],
      "stateMutability": "view",
      "type": "function"
    },
    {
      "inputs": [],
      "name": "isVerified",
      "outputs": [
        {
          "internalType": "bool",
          "name": "",
          "type": "bool"
        }
      ],
      "stateMutability": "view",
      "type": "function"
    },
    {
      "inputs": [
        {
          "internalType": "bytes32",
          "name": "_key",
          "type": "bytes32"
        },
        {
          "internalType": "uint256",
          "name": "_purpose",
          "type": "uint256"
        }
      ],
      "name": "keyHasPurpose",
      "outputs": [
        {
          "internalType": "bool",
          "name": "exists",
          "type": "bool"
        }
      ],
      "stateMutability": "view",
      "type": "function"
    },
    {
      "inputs": [],
      "name": "relinquishControl",
      "outputs": [],
      "stateMutability": "nonpayable",
      "type": "function"
    },
    {
      "inputs": [
        {
          "internalType": "bytes32",
          "name": "_claimId",
          "type": "bytes32"
        }
      ],
      "name": "removeClaim",
      "outputs": [
        {
          "internalType": "bool",
          "name": "success",
          "type": "bool"
        }
      ],
      "stateMutability": "nonpayable",
      "type": "function"
    },
    {
      "inputs": [
        {
          "internalType": "bytes32",
          "name": "_key",
          "type": "bytes32"
        },
        {
          "internalType": "uint256",
          "name": "_purpose",
          "type": "uint256"
        }
      ],
      "name": "removeKey",
      "outputs": [],
      "stateMutability": "nonpayable",
      "type": "function"
    },
    {
      "inputs": [
        {
          "internalType": "string",
          "name": "key",
          "type": "string"
        },
        {
          "internalType": "enum AttributeType",
          "name": "attributeType",
          "type": "uint8"
        },
        {
          "internalType": "string",
          "name": "value",
          "type": "string"
        }
      ],
      "name": "setAttribute",
      "outputs": [],
      "stateMutability": "nonpayable",
      "type": "function"
    },
    {
      "inputs": [
        {
          "internalType": "bytes4",
          "name": "interfaceId",
          "type": "bytes4"
        }
      ],
      "name": "supportsInterface",
      "outputs": [
        {
          "internalType": "bool",
          "name": "",
          "type": "bool"
        }
      ],
      "stateMutability": "pure",
      "type": "function"
    }
  ],
  "transactionHash": "0x5f148a5d268b7b1d18509c1583f00c94f80093da92dd55a918bd5ecfea76773f",
  "args": [],
  "numDeployments": 1,
  "solcInputHash": "e39248fcba6c46a8a0b49ab62402d196",
  "bytecode": "0x6080604052348015600f57600080fd5b506126618061001f6000396000f3fe6080604052600436106101105760003560e01c806301ffc9a71461011557806312aaac701461015b5780631d3812401461018a5780634eee424a146101ac57806353d413c5146101cc578063747442d3146101ec57806380007e831461020c57806380e9e9e11461022357806389000275146102505780639010f72614610270578063a7fc7a0714610290578063b1a34e0d146102b0578063b429afeb146102de578063b61d27f6146102fe578063c0c53b8b14610311578063c9100bcb14610331578063d202158d14610363578063db6a20a514610383578063df09d604146103a3578063e1c28bef146103c5578063e326fbd4146103da578063e8a51fca1461040b578063fb307b3414610438575b600080fd5b34801561012157600080fd5b50610146610130366004611a6f565b6001600160e01b031916635f09a88760e01b1490565b60405190151581526020015b60405180910390f35b34801561016757600080fd5b5061017b610176366004611a99565b610458565b60405161015293929190611aee565b34801561019657600080fd5b506101aa6101a5366004611b13565b6104d1565b005b3480156101b857600080fd5b506101466101c7366004611a99565b6105e5565b3480156101d857600080fd5b506101aa6101e7366004611b3f565b61071b565b3480156101f857600080fd5b506101aa610207366004611b61565b610893565b34801561021857600080fd5b506008541515610146565b34801561022f57600080fd5b5061024361023e366004611a99565b6108d3565b6040516101529190611b96565b34801561025c57600080fd5b506101aa61026b366004611c83565b610935565b34801561027c57600080fd5b5061024361028b366004611a99565b610a92565b34801561029c57600080fd5b506101aa6102ab366004611d1c565b610af2565b3480156102bc57600080fd5b506102d06102cb366004611d37565b610b3c565b604051908152602001610152565b3480156102ea57600080fd5b506101466102f9366004611d1c565b610d72565b6102d061030c366004611deb565b610d95565b34801561031d57600080fd5b506101aa61032c366004611e73565b610fe2565b34801561033d57600080fd5b5061035161034c366004611a99565b611121565b60405161015296959493929190611f06565b34801561036f57600080fd5b5061014661037e366004611b3f565b61132a565b34801561038f57600080fd5b5061014661039e366004611f66565b61133d565b3480156103af57600080fd5b506103b8611459565b6040516101529190612025565b3480156103d157600080fd5b506101aa61150b565b3480156103e657600080fd5b506103fa6103f5366004611a99565b611553565b604051610152959493929190612038565b34801561041757600080fd5b5061042b610426366004612073565b611634565b60405161015291906120e7565b34801561044457600080fd5b506103b8610453366004611a99565b6117d4565b6000818152600160208181526040808420928301546002840154845483518186028101860190945280845260609695869590949185918301828280156104bd57602002820191906000526020600020905b8154815260200190600101908083116104a9575b505050505092509250925092509193909250565b60006104db611834565b9050333014806104f057506104f08133611858565b6105155760405162461bcd60e51b815260040161050c9061213c565b60405180910390fd5b60008481526001602052604090206002015484900361056b5760405162461bcd60e51b81526020600482015260126024820152714b657920616c72656164792065786973747360701b604482015260640161050c565b600084815260016020818152604080842060028082018a905581548086018355828752848720018990559084018790558785528252808420805493840181558452908320909101869055518391859187917f480000bb1edad8ca1470381cc334b1917fbd51c6531f3a623ea8e0ec7e38a6e991a450505050565b6000806105f0611834565b90503330148061060557506106058133611858565b6106215760405162461bcd60e51b815260040161050c9061213c565b600083815260076020526040902060028101546001600160a01b03166106595760405162461bcd60e51b815260040161050c90612173565b6000848152600760205260408120818155600181018290556002810180546001600160a01b0319169055906106916003830182611a02565b61069f600483016000611a02565b6106ad600583016000611a02565b50506002810154815460018301546040516001600160a01b039093169287917f3cf57863a89432c61c4a27073c6ee39e8a764bff5a05aebfbcdcdc80b2e6130a9161070791906003880190600489019060058a0190612258565b60405180910390a460019250505b50919050565b6000610725611834565b90503330148061073a575061073a8133611858565b6107565760405162461bcd60e51b815260040161050c9061213c565b60008381526001602052604090206002015483146107a45760405162461bcd60e51b815260206004820152600b60248201526a4e6f2073756368206b657960a81b604482015260640161050c565b60005b6000848152600160205260409020548110156108245760008481526001602052604090208054849190839081106107e0576107e06122a2565b90600052602060002001540361081c576000848152600160205260409020805482908110610810576108106122a2565b60009182526020822001555b6001016107a7565b5060008381526001602081905260408083209091015490519091849186917f585a4aef50f8267a92b32412b331b20f7f8b96f2245b253b9cc50dcc621d339791a460008381526001602052604081209061087e8282611a3c565b50600060018201819055600290910155505050565b600061089d611834565b9050333014806108b257506108b28133611858565b6108ce5760405162461bcd60e51b815260040161050c9061213c565b505050565b60008181526009602090815260409182902080548351818402810184019094528084526060939283018282801561092957602002820191906000526020600020905b815481526020019060010190808311610915575b50505050509050919050565b600061093f611834565b90503330148061095457506109548133611858565b6109705760405162461bcd60e51b815260040161050c9061213c565b6040518060600160405280858152602001846006811115610993576109936120af565b8152602001838152506003856040516109ac91906122b8565b908152604051908190036020019020815181906109c99082612337565b50602082015160018083018054909160ff19909116908360068111156109f1576109f16120af565b021790555060408201516002820190610a0a9082612337565b5090505060046000846006811115610a2457610a246120af565b81526020808201929092526040016000908120805460018101825590825291902001610a508582612337565b507f6e67a5f9bc83ea701198a3b41ffeac208cbd933c11238c154e9259ca8cb696a4848484604051610a84939291906123ef565b60405180910390a150505050565b60008181526002602090815260409182902080548351818402810184019094528084526060939283018282801561092957602002820191906000526020600020908154815260200190600101908083116109155750505050509050919050565b3360009081526020819052604090205460ff16151560011480610b1457503033145b610b305760405162461bcd60e51b815260040161050c9061242b565b610b398161187d565b50565b6000866000610b49611834565b9050610b568133846118a1565b610b725760405162461bcd60e51b815260040161050c9061245f565b6040516001600160601b0319606089901b166020820152603481018a905260009060540160408051808303601f1901815291815281516020928301206000818152600790935291208b8155600181018b90556002810180546001600160a01b0319166001600160a01b038c1617905590915060038101610bf28982612337565b5060048101610c018882612337565b5060058101610c108782612337565b5060008b815260096020908152604080832080546001818101835591855283852001869055600a80548083019091557fc65a7bb8d6351c1cf70c95a316cc6a92839c986682d98bc35f958f4883f9d2a801869055858452600790925290912082548155828201549181019190915560028083015490820180546001600160a01b0319166001600160a01b039092169190911790558190600380820190610cb8908401826124a4565b50600481810190610ccb908401826124a4565b50600581810190610cde908401826124a4565b5050600880546001810182556000919091527ff3f7a9fe364faab93b216da50a3214154f22a0a2b415b23a84c8169e8b636ee301839055506040516001600160a01b038a16908c9084907f46149b18aa084502c3f12bc75e19eda8bda8d102b82cce8474677a6d0d5f43c590610d5b908f908e908e908e9061256b565b60405180910390a450989998505050505050505050565b6001600160a01b03811660009081526020819052604081205460ff165b92915050565b600080610da0611834565b905033301480610db55750610db58133611858565b610dd15760405162461bcd60e51b815260040161050c9061213c565b6040516001600160601b03193360601b166020820152610e0b90603401604051602081830303815290604052805190602001206001611923565b610e665760405162461bcd60e51b815260206004820152602660248201527f53656e64657220646f6573206e6f742068617665206d616e6167656d656e742060448201526572696768747360d01b606482015260840161050c565b423387878787604051602001610e81969594939291906125aa565b6040516020818303038152906040528051906020012060001c91506000866001600160a01b0316868686604051610eb99291906125ec565b60006040518083038185875af1925050503d8060008114610ef6576040519150601f19603f3d011682016040523d82523d6000602084013e610efb565b606091505b5050905080610f425760405162461bcd60e51b8152602060048201526013602482015272115512081d1c985b9cd9995c8819985a5b1959606a1b604482015260640161050c565b8015610f925785876001600160a01b0316847f1f920dbda597d7bf95035464170fa58d0a4b57f13a1c315ace6793b9f63688b88888604051610f859291906125fc565b60405180910390a4610fd8565b85876001600160a01b0316847fe10c49d9f7c71da23262367013434763cfdb2332267641728d25cd712c5c6a688888604051610fcf9291906125fc565b60405180910390a45b5050949350505050565b7ff0c57e16840df040f15088dc2f81fe391c3923bec73e23a9662efc9c229c6a008054600160401b810460ff1615906001600160401b03166000811580156110275750825b90506000826001600160401b031660011480156110435750303b155b905081158015611051575080155b1561106f5760405163f92ee8a960e01b815260040160405180910390fd5b84546001600160401b0319166001178555831561109857845460ff60401b1916600160401b1785555b6110a18861187d565b600580546001600160a01b03808a166001600160a01b0319928316179092556006805492891692909116919091179055831561111757845460ff60401b19168555604051600181527fc7f505b2f371ae2175ee4913f4499e1f2633a7b5936321eed1cdaeb6115181d29060200160405180910390a15b5050505050505050565b600080600060608060606000600760008981526020019081526020016000209050806000015481600101548260020160009054906101000a90046001600160a01b031683600301846004018560050182805461117c906121a1565b80601f01602080910402602001604051908101604052809291908181526020018280546111a8906121a1565b80156111f55780601f106111ca576101008083540402835291602001916111f5565b820191906000526020600020905b8154815290600101906020018083116111d857829003601f168201915b50505050509250818054611208906121a1565b80601f0160208091040260200160405190810160405280929190818152602001828054611234906121a1565b80156112815780601f1061125657610100808354040283529160200191611281565b820191906000526020600020905b81548152906001019060200180831161126457829003601f168201915b50505050509150808054611294906121a1565b80601f01602080910402602001604051908101604052809291908181526020018280546112c0906121a1565b801561130d5780601f106112e25761010080835404028352916020019161130d565b820191906000526020600020905b8154815290600101906020018083116112f057829003601f168201915b505050505090509650965096509650965096505091939550919395565b60006113368383611923565b9392505050565b600086600061134a611834565b90506113578133846118a1565b6113735760405162461bcd60e51b815260040161050c9061245f565b60008a815260076020526040902060028101546001600160a01b03166113ab5760405162461bcd60e51b815260040161050c90612173565b898155600181018990556002810180546001600160a01b0319166001600160a01b038a16179055600381016113e08882612337565b50600481016113ef8782612337565b50600581016113fe8682612337565b50876001600160a01b03168a8c7f3bab293fc00db832d7619a9299914251b8747c036867ec056cbd506f60135b138c8b8b8b604051611440949392919061256b565b60405180910390a45060019a9950505050505050505050565b600a546060906000906001600160401b0381111561147957611479611bd9565b6040519080825280602002602001820160405280156114a2578160200160208202803683370190505b50905060005b600a548110156107155760076000600a83815481106114c9576114c96122a2565b90600052602060002001548152602001908152602001600020600001548282815181106114f8576114f86122a2565b60209081029190910101526001016114a8565b3360009081526020819052604090205460ff1615156001148061152d57503033145b6115495760405162461bcd60e51b815260040161050c9061242b565b6115516119ab565b565b604080516020810182526000808252915162461bcd60e51b81528291908290819061050c9060040160208082526087908201527f4944454e544954595f455845435554494f4e5f4e4f545f494d504c454d454e5460408201527f45443a20457865637574696f6e2066756e6374696f6e616c697479206973206e60608201527f6f7420737570706f7274656420696e207468697320696d706c656d656e74617460808201527f696f6e2e20557365206469726563742066756e6374696f6e2063616c6c73206960a0820152663739ba32b0b21760c91b60c082015260e00190565b60408051606080820183528082526000602083015281830152905160039061165d9084906122b8565b9081526020016040518091039020604051806060016040529081600082018054611686906121a1565b80601f01602080910402602001604051908101604052809291908181526020018280546116b2906121a1565b80156116ff5780601f106116d4576101008083540402835291602001916116ff565b820191906000526020600020905b8154815290600101906020018083116116e257829003601f168201915b5050509183525050600182015460209091019060ff166006811115611726576117266120af565b6006811115611737576117376120af565b815260200160028201805461174b906121a1565b80601f0160208091040260200160405190810160405280929190818152602001828054611777906121a1565b80156117c45780601f10611799576101008083540402835291602001916117c4565b820191906000526020600020905b8154815290600101906020018083116117a757829003601f168201915b5050505050815250509050919050565b60008181526001602090815260409182902080548351818402810184019094528084526060939283018282801561092957602002820191906000526020600020908154815260200190600101908083116109155750505050509050919050565b7fbd516eb36b5d4489adb2e717e7d0ce56c1b814eda85e78ad9d8f240b24dd830d90565b6001600160a01b038181166000908152600d8401602052604090205416151592915050565b6001600160a01b03166000908152602081905260409020805460ff19166001179055565b60006118ad8484611858565b6118b957506000611336565b6001600160a01b0383166000908152600d850160205260408120600101905b815481101561191757838282815481106118f4576118f46122a2565b90600052602060002001540361190f57600192505050611336565b6001016118d8565b50600095945050505050565b600082815260016020526040812060020154810361194357506000610d8f565b60005b6000848152600160205260409020548110156119a157600084815260016020526040902080548491908390811061197f5761197f6122a2565b906000526020600020015403611999576001915050610d8f565b600101611946565b5060009392505050565b3360009081526020819052604090205460ff161515600114806119cd57503033145b6119e95760405162461bcd60e51b815260040161050c9061242b565b336000908152602081905260409020805460ff19169055565b508054611a0e906121a1565b6000825580601f10611a1e575050565b601f016020900490600052602060002090810190610b399190611a56565b5080546000825590600052602060002090810190610b3991905b5b80821115611a6b5760008155600101611a57565b5090565b600060208284031215611a8157600080fd5b81356001600160e01b03198116811461133657600080fd5b600060208284031215611aab57600080fd5b5035919050565b600081518084526020840193506020830160005b82811015611ae4578151865260209586019590910190600101611ac6565b5093949350505050565b606081526000611b016060830186611ab2565b60208301949094525060400152919050565b600080600060608486031215611b2857600080fd5b505081359360208301359350604090920135919050565b60008060408385031215611b5257600080fd5b50508035926020909101359150565b60008060408385031215611b7457600080fd5b8235915060208301358015158114611b8b57600080fd5b809150509250929050565b602080825282518282018190526000918401906040840190835b81811015611bce578351835260209384019390920191600101611bb0565b509095945050505050565b634e487b7160e01b600052604160045260246000fd5b600082601f830112611c0057600080fd5b8135602083016000806001600160401b03841115611c2057611c20611bd9565b50604051601f19601f85018116603f011681018181106001600160401b0382111715611c4e57611c4e611bd9565b604052838152905080828401871015611c6657600080fd5b838360208301376000602085830101528094505050505092915050565b600080600060608486031215611c9857600080fd5b83356001600160401b03811115611cae57600080fd5b611cba86828701611bef565b935050602084013560078110611ccf57600080fd5b915060408401356001600160401b03811115611cea57600080fd5b611cf686828701611bef565b9150509250925092565b80356001600160a01b0381168114611d1757600080fd5b919050565b600060208284031215611d2e57600080fd5b61133682611d00565b60008060008060008060c08789031215611d5057600080fd5b8635955060208701359450611d6760408801611d00565b935060608701356001600160401b03811115611d8257600080fd5b611d8e89828a01611bef565b93505060808701356001600160401b03811115611daa57600080fd5b611db689828a01611bef565b92505060a08701356001600160401b03811115611dd257600080fd5b611dde89828a01611bef565b9150509295509295509295565b60008060008060608587031215611e0157600080fd5b611e0a85611d00565b93506020850135925060408501356001600160401b03811115611e2c57600080fd5b8501601f81018713611e3d57600080fd5b80356001600160401b03811115611e5357600080fd5b876020828401011115611e6557600080fd5b949793965060200194505050565b600080600060608486031215611e8857600080fd5b611e9184611d00565b9250611e9f60208501611d00565b9150611ead60408501611d00565b90509250925092565b60005b83811015611ed1578181015183820152602001611eb9565b50506000910152565b60008151808452611ef2816020860160208601611eb6565b601f01601f19169290920160200192915050565b86815285602082015260018060a01b038516604082015260c060608201526000611f3360c0830186611eda565b8281036080840152611f458186611eda565b905082810360a0840152611f598185611eda565b9998505050505050505050565b600080600080600080600060e0888a031215611f8157600080fd5b873596506020880135955060408801359450611f9f60608901611d00565b935060808801356001600160401b03811115611fba57600080fd5b611fc68a828b01611bef565b93505060a08801356001600160401b03811115611fe257600080fd5b611fee8a828b01611bef565b92505060c08801356001600160401b0381111561200a57600080fd5b6120168a828b01611bef565b91505092959891949750929550565b6020815260006113366020830184611ab2565b60018060a01b038616815284602082015260a06040820152600061205f60a0830186611eda565b931515606083015250608001529392505050565b60006020828403121561208557600080fd5b81356001600160401b0381111561209b57600080fd5b6120a784828501611bef565b949350505050565b634e487b7160e01b600052602160045260246000fd5b600781106120e357634e487b7160e01b600052602160045260246000fd5b9052565b6020815260008251606060208401526121036080840182611eda565b9050602084015161211760408501826120c5565b506040840151838203601f190160608501526121338282611eda565b95945050505050565b6020808252601e908201527f53656e646572206973206e6f7420612074727573746564206973737565720000604082015260600190565b60208082526014908201527310db185a5b48191bd95cc81b9bdd08195e1a5cdd60621b604082015260600190565b600181811c908216806121b557607f821691505b60208210810361071557634e487b7160e01b600052602260045260246000fd5b600081546121e2816121a1565b8085526001821680156121fc57600181146122185761224f565b60ff1983166020870152602082151560051b870101935061224f565b84600052602060002060005b838110156122465781546020828a010152600182019150602081019050612224565b87016020019450505b50505092915050565b84815260806020820152600061227160808301866121d5565b828103604084015261228381866121d5565b9050828103606084015261229781856121d5565b979650505050505050565b634e487b7160e01b600052603260045260246000fd5b600082516122ca818460208701611eb6565b9190910192915050565b601f8211156108ce57806000526020600020601f840160051c810160208510156122fb5750805b601f840160051c820191505b8181101561231b5760008155600101612307565b5050505050565b600019600383901b1c191660019190911b1790565b81516001600160401b0381111561235057612350611bd9565b6123648161235e84546121a1565b846122d4565b6020601f82116001811461239257600083156123805750848201515b61238a8482612322565b85555061231b565b600084815260208120601f198516915b828110156123c257878501518255602094850194600190920191016123a2565b50848210156123e05786840151600019600387901b60f8161c191681555b50505050600190811b01905550565b6060815260006124026060830186611eda565b61240f60208401866120c5565b82810360408401526124218185611eda565b9695505050505050565b6020808252601a908201527931b0b63632b91034b9903737ba10309031b7b73a3937b63632b960311b604082015260600190565b60208082526025908201527f497373756572206e6f7420617574686f72697a656420666f7220636c61696d20604082015264746f70696360d81b606082015260800190565b8181036124af575050565b6124b982546121a1565b6001600160401b038111156124d0576124d0611bd9565b6124de8161235e84546121a1565b6000601f821160018114612503576000831561238057508482015461238a8482612322565b600085815260209020601f19841690600086815260209020845b8381101561253d578286015482556001958601959091019060200161251d565b508583101561255b5781850154600019600388901b60f8161c191681555b5050505050600190811b01905550565b8481526080602082015260006125846080830186611eda565b82810360408401526125968186611eda565b905082810360608401526122978185611eda565b8681526001600160601b0319606087811b8216602084015286901b16603482015260488101849052818360688301376000910160680190815295945050505050565b8183823760009101908152919050565b60208152816020820152818360408301376000818301604090810191909152601f909201601f1916010191905056fea2646970667358221220d59e094c1023e8e6e09a01809aa4e44c9a441ecad8de136ca682d24df19d39d264736f6c634300081c0033",
  "devdoc": {
    "details": "This contract is used to store the claims of a user",
    "errors": {
      "InvalidInitialization()": [
        {
          "details": "The contract is already initialized."
        }
      ],
      "NotInitializing()": [
        {
          "details": "The contract is not initializing."
        }
      ]
    },
    "events": {
      "Initialized(uint64)": {
        "details": "Triggered when the contract has been initialized or reinitialized."
      }
    },
    "kind": "dev",
    "methods": {
      "addController(address)": {
        "details": "Add an address allowed to control this contract"
      },
      "changeClaim(bytes32,uint256,uint256,address,bytes,bytes,string)": {
        "details": "Implementation is minimal to satisfy the interface requirement"
      },
      "getExecution(uint256)": {
        "details": "This function is part of the ERC734 interface but not implemented in this version"
      },
      "initialize(address,address,address)": {
        "params": {
          "_identityRegistry": "the identity registry",
          "_owner": "the owner of the contract",
          "_trustedIssuerRegistry": "the trusted issuer registry"
        }
      },
      "isController(address)": {
        "details": "Check if this address is a controller"
      },
      "isVerified()": {
        "returns": {
          "_0": "true if the identity has at least one valid claim, false otherwise"
        }
      },
      "relinquishControl()": {
        "details": "Remove the sender address from the list of controllers"
      },
      "supportsInterface(bytes4)": {
        "details": "Interface identification is specified in ERC-165. This function  uses less than 30,000 gas.",
        "params": {
          "interfaceId": "The interface identifier, as specified in ERC-165"
        },
        "returns": {
          "_0": "`true` if the contract implements `interfaceID` and  `interfaceID` is not 0xffffffff, `false` otherwise"
        }
      }
    },
    "title": "Identity",
    "version": 1
  },
  "userdoc": {
    "events": {
      "ControllerAdded(address,address)": {
        "notice": "emitted when a controller is added."
      },
      "ControllerRemoved(address,address)": {
        "notice": "emitted when a controller is removed."
      }
    },
    "kind": "user",
    "methods": {
      "addClaim(uint256,uint256,address,bytes,bytes,string)": {
        "notice": "add a claim to the identity"
      },
      "addKey(bytes32,uint256,uint256)": {
        "notice": "add a key to the identity"
      },
      "changeClaim(bytes32,uint256,uint256,address,bytes,bytes,string)": {
        "notice": "Change an existing claim"
      },
      "getAttribute(string)": {
        "notice": "get an attribute for a tokenid keyed by string"
      },
      "getClaim(bytes32)": {
        "notice": "get the claim of an identity"
      },
      "getClaimIdsByTopic(uint256)": {
        "notice": "get the claim ids of an identity"
      },
      "getExecution(uint256)": {
        "notice": "Get execution details for a given execution ID"
      },
      "getKey(bytes32)": {
        "notice": "get a key from the identity"
      },
      "getKeyPurposes(bytes32)": {
        "notice": "get the purposes of a key"
      },
      "getKeysByPurpose(uint256)": {
        "notice": "get the keys of a purpose"
      },
      "initialize(address,address,address)": {
        "notice": "initialize the contract"
      },
      "isVerified()": {
        "notice": "Check if this identity has been verified"
      },
      "keyHasPurpose(bytes32,uint256)": {
        "notice": "check if a key has a purpose"
      },
      "removeKey(bytes32,uint256)": {
        "notice": "remove a key from the identity"
      },
      "supportsInterface(bytes4)": {
        "notice": "Query if a contract implements an interface"
      }
    },
    "notice": "This contract represents an identity of a user",
    "version": 1
  },
  "storageLayout": {
    "storage": [
      {
        "astId": 36753,
        "contract": "contracts/identity/Identity.sol:Identity",
        "label": "_controllers",
        "offset": 0,
        "slot": "0",
        "type": "t_mapping(t_address,t_bool)"
      },
      {
        "astId": 14212,
        "contract": "contracts/identity/Identity.sol:Identity",
        "label": "keys",
        "offset": 0,
        "slot": "1",
        "type": "t_mapping(t_bytes32,t_struct(Key)14430_storage)"
      },
      {
        "astId": 14217,
        "contract": "contracts/identity/Identity.sol:Identity",
        "label": "keysByPurpose",
        "offset": 0,
        "slot": "2",
        "type": "t_mapping(t_uint256,t_array(t_bytes32)dyn_storage)"
      },
      {
        "astId": 14222,
        "contract": "contracts/identity/Identity.sol:Identity",
        "label": "attributes",
        "offset": 0,
        "slot": "3",
        "type": "t_mapping(t_string_memory_ptr,t_struct(Attribute)18042_storage)"
      },
      {
        "astId": 14227,
        "contract": "contracts/identity/Identity.sol:Identity",
        "label": "attributeKeys",
        "offset": 0,
        "slot": "4",
        "type": "t_mapping(t_uint256,t_array(t_string_storage)dyn_storage)"
      },
      {
        "astId": 14229,
        "contract": "contracts/identity/Identity.sol:Identity",
        "label": "identityRegistry",
        "offset": 0,
        "slot": "5",
        "type": "t_address"
      },
      {
        "astId": 14231,
        "contract": "contracts/identity/Identity.sol:Identity",
        "label": "trustedIssuerRegistry",
        "offset": 0,
        "slot": "6",
        "type": "t_address"
      },
      {
        "astId": 14783,
        "contract": "contracts/identity/Identity.sol:Identity",
        "label": "claims",
        "offset": 0,
        "slot": "7",
        "type": "t_mapping(t_bytes32,t_struct(Claim)18168_storage)"
      },
      {
        "astId": 14786,
        "contract": "contracts/identity/Identity.sol:Identity",
        "label": "claimIds",
        "offset": 0,
        "slot": "8",
        "type": "t_array(t_bytes32)dyn_storage"
      },
      {
        "astId": 14791,
        "contract": "contracts/identity/Identity.sol:Identity",
        "label": "claimsByTopic",
        "offset": 0,
        "slot": "9",
        "type": "t_mapping(t_uint256,t_array(t_bytes32)dyn_storage)"
      },
      {
        "astId": 14794,
        "contract": "contracts/identity/Identity.sol:Identity",
        "label": "claimTopics",
        "offset": 0,
        "slot": "10",
        "type": "t_array(t_bytes32)dyn_storage"
      }
    ],
    "types": {
      "t_address": {
        "encoding": "inplace",
        "label": "address",
        "numberOfBytes": "20"
      },
      "t_array(t_bytes32)dyn_storage": {
        "base": "t_bytes32",
        "encoding": "dynamic_array",
        "label": "bytes32[]",
        "numberOfBytes": "32"
      },
      "t_array(t_string_storage)dyn_storage": {
        "base": "t_string_storage",
        "encoding": "dynamic_array",
        "label": "string[]",
        "numberOfBytes": "32"
      },
      "t_array(t_uint256)dyn_storage": {
        "base": "t_uint256",
        "encoding": "dynamic_array",
        "label": "uint256[]",
        "numberOfBytes": "32"
      },
      "t_bool": {
        "encoding": "inplace",
        "label": "bool",
        "numberOfBytes": "1"
      },
      "t_bytes32": {
        "encoding": "inplace",
        "label": "bytes32",
        "numberOfBytes": "32"
      },
      "t_bytes_storage": {
        "encoding": "bytes",
        "label": "bytes",
        "numberOfBytes": "32"
      },
      "t_enum(AttributeType)18034": {
        "encoding": "inplace",
        "label": "enum AttributeType",
        "numberOfBytes": "1"
      },
      "t_mapping(t_address,t_bool)": {
        "encoding": "mapping",
        "key": "t_address",
        "label": "mapping(address => bool)",
        "numberOfBytes": "32",
        "value": "t_bool"
      },
      "t_mapping(t_bytes32,t_struct(Claim)18168_storage)": {
        "encoding": "mapping",
        "key": "t_bytes32",
        "label": "mapping(bytes32 => struct Claim)",
        "numberOfBytes": "32",
        "value": "t_struct(Claim)18168_storage"
      },
      "t_mapping(t_bytes32,t_struct(Key)14430_storage)": {
        "encoding": "mapping",
        "key": "t_bytes32",
        "label": "mapping(bytes32 => struct Identity.Key)",
        "numberOfBytes": "32",
        "value": "t_struct(Key)14430_storage"
      },
      "t_mapping(t_string_memory_ptr,t_struct(Attribute)18042_storage)": {
        "encoding": "mapping",
        "key": "t_string_memory_ptr",
        "label": "mapping(string => struct Attribute)",
        "numberOfBytes": "32",
        "value": "t_struct(Attribute)18042_storage"
      },
      "t_mapping(t_uint256,t_array(t_bytes32)dyn_storage)": {
        "encoding": "mapping",
        "key": "t_uint256",
        "label": "mapping(uint256 => bytes32[])",
        "numberOfBytes": "32",
        "value": "t_array(t_bytes32)dyn_storage"
      },
      "t_mapping(t_uint256,t_array(t_string_storage)dyn_storage)": {
        "encoding": "mapping",
        "key": "t_uint256",
        "label": "mapping(uint256 => string[])",
        "numberOfBytes": "32",
        "value": "t_array(t_string_storage)dyn_storage"
      },
      "t_string_memory_ptr": {
        "encoding": "bytes",
        "label": "string",
        "numberOfBytes": "32"
      },
      "t_string_storage": {
        "encoding": "bytes",
        "label": "string",
        "numberOfBytes": "32"
      },
      "t_struct(Attribute)18042_storage": {
        "encoding": "inplace",
        "label": "struct Attribute",
        "members": [
          {
            "astId": 18036,
            "contract": "contracts/identity/Identity.sol:Identity",
            "label": "key",
            "offset": 0,
            "slot": "0",
            "type": "t_string_storage"
          },
          {
            "astId": 18039,
            "contract": "contracts/identity/Identity.sol:Identity",
            "label": "attributeType",
            "offset": 0,
            "slot": "1",
            "type": "t_enum(AttributeType)18034"
          },
          {
            "astId": 18041,
            "contract": "contracts/identity/Identity.sol:Identity",
            "label": "value",
            "offset": 0,
            "slot": "2",
            "type": "t_string_storage"
          }
        ],
        "numberOfBytes": "96"
      },
      "t_struct(Claim)18168_storage": {
        "encoding": "inplace",
        "label": "struct Claim",
        "members": [
          {
            "astId": 18157,
            "contract": "contracts/identity/Identity.sol:Identity",
            "label": "topic",
            "offset": 0,
            "slot": "0",
            "type": "t_uint256"
          },
          {
            "astId": 18159,
            "contract": "contracts/identity/Identity.sol:Identity",
            "label": "scheme",
            "offset": 0,
            "slot": "1",
            "type": "t_uint256"
          },
          {
            "astId": 18161,
            "contract": "contracts/identity/Identity.sol:Identity",
            "label": "issuer",
            "offset": 0,
            "slot": "2",
            "type": "t_address"
          },
          {
            "astId": 18163,
            "contract": "contracts/identity/Identity.sol:Identity",
            "label": "signature",
            "offset": 0,
            "slot": "3",
            "type": "t_bytes_storage"
          },
          {
            "astId": 18165,
            "contract": "contracts/identity/Identity.sol:Identity",
            "label": "data",
            "offset": 0,
            "slot": "4",
            "type": "t_bytes_storage"
          },
          {
            "astId": 18167,
            "contract": "contracts/identity/Identity.sol:Identity",
            "label": "uri",
            "offset": 0,
            "slot": "5",
            "type": "t_string_storage"
          }
        ],
        "numberOfBytes": "192"
      },
      "t_struct(Key)14430_storage": {
        "encoding": "inplace",
        "label": "struct Identity.Key",
        "members": [
          {
            "astId": 14425,
            "contract": "contracts/identity/Identity.sol:Identity",
            "label": "purposes",
            "offset": 0,
            "slot": "0",
            "type": "t_array(t_uint256)dyn_storage"
          },
          {
            "astId": 14427,
            "contract": "contracts/identity/Identity.sol:Identity",
            "label": "keyType",
            "offset": 0,
            "slot": "1",
            "type": "t_uint256"
          },
          {
            "astId": 14429,
            "contract": "contracts/identity/Identity.sol:Identity",
            "label": "key",
            "offset": 0,
            "slot": "2",
            "type": "t_bytes32"
          }
        ],
        "numberOfBytes": "96"
      },
      "t_uint256": {
        "encoding": "inplace",
        "label": "uint256",
        "numberOfBytes": "32"
      }
    }
  }
}