{
  "address": "0x5F7f4140D8A316035e372aBA11F37cE9E414e94E",
  "abi": [
    {
      "inputs": [],
      "name": "ApprovalQueryForNonexistentToken",
      "type": "error"
    },
    {
      "inputs": [],
      "name": "OwnerQueryForNonexistentToken",
      "type": "error"
    },
    {
      "inputs": [],
      "name": "ReentrancyGuardReentrantCall",
      "type": "error"
    },
    {
      "inputs": [
        {
          "internalType": "address",
          "name": "token",
          "type": "address"
        }
      ],
      "name": "SafeERC20FailedOperation",
      "type": "error"
    },
    {
      "inputs": [],
      "name": "TransferCallerNotOwnerNorApproved",
      "type": "error"
    },
    {
      "inputs": [],
      "name": "TransferFromIncorrectOwner",
      "type": "error"
    },
    {
      "inputs": [],
      "name": "TransferToZeroAddress",
      "type": "error"
    },
    {
      "anonymous": false,
      "inputs": [
        {
          "indexed": true,
          "internalType": "address",
          "name": "owner",
          "type": "address"
        },
        {
          "indexed": true,
          "internalType": "address",
          "name": "approved",
          "type": "address"
        },
        {
          "indexed": true,
          "internalType": "uint256",
          "name": "tokenId",
          "type": "uint256"
        }
      ],
      "name": "Approval",
      "type": "event"
    },
    {
      "anonymous": false,
      "inputs": [
        {
          "indexed": true,
          "internalType": "uint256",
          "name": "itemId",
          "type": "uint256"
        },
        {
          "indexed": false,
          "internalType": "address",
          "name": "bidder",
          "type": "address"
        },
        {
          "indexed": false,
          "internalType": "uint256",
          "name": "amount",
          "type": "uint256"
        }
      ],
      "name": "Bids",
      "type": "event"
    },
    {
      "anonymous": false,
      "inputs": [
        {
          "indexed": true,
          "internalType": "uint256",
          "name": "itemId",
          "type": "uint256"
        }
      ],
      "name": "Delisted",
      "type": "event"
    },
    {
      "anonymous": false,
      "inputs": [
        {
          "indexed": true,
          "internalType": "address",
          "name": "nftContract",
          "type": "address"
        },
        {
          "indexed": true,
          "internalType": "uint256",
          "name": "tokenId",
          "type": "uint256"
        },
        {
          "indexed": false,
          "internalType": "address",
          "name": "seller",
          "type": "address"
        },
        {
          "indexed": false,
          "internalType": "address",
          "name": "receiver",
          "type": "address"
        },
        {
          "indexed": false,
          "internalType": "address",
          "name": "owner",
          "type": "address"
        },
        {
          "indexed": false,
          "internalType": "uint256",
          "name": "price",
          "type": "uint256"
        },
        {
          "indexed": false,
          "internalType": "bool",
          "name": "sold",
          "type": "bool"
        },
        {
          "indexed": false,
          "internalType": "address",
          "name": "paymentToken",
          "type": "address"
        }
      ],
      "name": "Listings",
      "type": "event"
    },
    {
      "anonymous": false,
      "inputs": [
        {
          "components": [
            {
              "internalType": "address payable",
              "name": "receiver",
              "type": "address"
            },
            {
              "internalType": "uint256",
              "name": "sharePerMillion",
              "type": "uint256"
            }
          ],
          "indexed": false,
          "internalType": "struct FeeReceiver[]",
          "name": "feeReceivers",
          "type": "tuple[]"
        }
      ],
      "name": "MarketplaceInitialized",
      "type": "event"
    },
    {
      "anonymous": false,
      "inputs": [
        {
          "indexed": false,
          "internalType": "address",
          "name": "token",
          "type": "address"
        },
        {
          "indexed": false,
          "internalType": "address",
          "name": "receiver",
          "type": "address"
        },
        {
          "indexed": false,
          "internalType": "uint256",
          "name": "amount",
          "type": "uint256"
        }
      ],
      "name": "PaymentDistributed",
      "type": "event"
    },
    {
      "anonymous": false,
      "inputs": [
        {
          "indexed": true,
          "internalType": "address",
          "name": "tokenAddress",
          "type": "address"
        },
        {
          "indexed": true,
          "internalType": "uint256",
          "name": "tokenId",
          "type": "uint256"
        },
        {
          "indexed": true,
          "internalType": "address",
          "name": "owner",
          "type": "address"
        }
      ],
      "name": "Sales",
      "type": "event"
    },
    {
      "anonymous": false,
      "inputs": [
        {
          "indexed": true,
          "internalType": "address",
          "name": "from",
          "type": "address"
        },
        {
          "indexed": true,
          "internalType": "address",
          "name": "to",
          "type": "address"
        },
        {
          "indexed": true,
          "internalType": "uint256",
          "name": "tokenId",
          "type": "uint256"
        }
      ],
      "name": "Transfer",
      "type": "event"
    },
    {
      "inputs": [
        {
          "internalType": "address",
          "name": "",
          "type": "address"
        },
        {
          "internalType": "uint256",
          "name": "tokenId",
          "type": "uint256"
        }
      ],
      "name": "delistItem",
      "outputs": [],
      "stateMutability": "nonpayable",
      "type": "function"
    },
    {
      "inputs": [
        {
          "internalType": "address",
          "name": "",
          "type": "address"
        },
        {
          "internalType": "uint256",
          "name": "tokenId",
          "type": "uint256"
        }
      ],
      "name": "fetchItem",
      "outputs": [
        {
          "components": [
            {
              "internalType": "address",
              "name": "nftContract",
              "type": "address"
            },
            {
              "internalType": "uint256",
              "name": "tokenId",
              "type": "uint256"
            },
            {
              "internalType": "address",
              "name": "seller",
              "type": "address"
            },
            {
              "internalType": "address",
              "name": "owner",
              "type": "address"
            },
            {
              "internalType": "uint256",
              "name": "price",
              "type": "uint256"
            },
            {
              "internalType": "bool",
              "name": "sold",
              "type": "bool"
            },
            {
              "internalType": "address",
              "name": "receiver",
              "type": "address"
            },
            {
              "internalType": "address",
              "name": "paymentToken",
              "type": "address"
            }
          ],
          "internalType": "struct MarketItem",
          "name": "",
          "type": "tuple"
        }
      ],
      "stateMutability": "view",
      "type": "function"
    },
    {
      "inputs": [],
      "name": "fetchItems",
      "outputs": [
        {
          "components": [
            {
              "internalType": "address",
              "name": "nftContract",
              "type": "address"
            },
            {
              "internalType": "uint256",
              "name": "tokenId",
              "type": "uint256"
            },
            {
              "internalType": "address",
              "name": "seller",
              "type": "address"
            },
            {
              "internalType": "address",
              "name": "owner",
              "type": "address"
            },
            {
              "internalType": "uint256",
              "name": "price",
              "type": "uint256"
            },
            {
              "internalType": "bool",
              "name": "sold",
              "type": "bool"
            },
            {
              "internalType": "address",
              "name": "receiver",
              "type": "address"
            },
            {
              "internalType": "address",
              "name": "paymentToken",
              "type": "address"
            }
          ],
          "internalType": "struct MarketItem[]",
          "name": "",
          "type": "tuple[]"
        }
      ],
      "stateMutability": "view",
      "type": "function"
    },
    {
      "inputs": [],
      "name": "getMarketplaceFeeReceivers",
      "outputs": [
        {
          "components": [
            {
              "internalType": "address payable",
              "name": "receiver",
              "type": "address"
            },
            {
              "internalType": "uint256",
              "name": "sharePerMillion",
              "type": "uint256"
            }
          ],
          "internalType": "struct FeeReceiver[]",
          "name": "",
          "type": "tuple[]"
        }
      ],
      "stateMutability": "view",
      "type": "function"
    },
    {
      "inputs": [
        {
          "components": [
            {
              "internalType": "address payable",
              "name": "receiver",
              "type": "address"
            },
            {
              "internalType": "uint256",
              "name": "sharePerMillion",
              "type": "uint256"
            }
          ],
          "internalType": "struct FeeReceiver[]",
          "name": "_feeReceivers",
          "type": "tuple[]"
        }
      ],
      "name": "initializeMarketplace",
      "outputs": [],
      "stateMutability": "nonpayable",
      "type": "function"
    },
    {
      "inputs": [
        {
          "internalType": "address",
          "name": "",
          "type": "address"
        },
        {
          "internalType": "address payable",
          "name": "receiver",
          "type": "address"
        },
        {
          "internalType": "uint256",
          "name": "tokenId",
          "type": "uint256"
        },
        {
          "internalType": "uint256",
          "name": "price",
          "type": "uint256"
        },
        {
          "internalType": "bool",
          "name": "transferNFT",
          "type": "bool"
        },
        {
          "internalType": "address",
          "name": "paymentToken",
          "type": "address"
        }
      ],
      "name": "listItem",
      "outputs": [],
      "stateMutability": "payable",
      "type": "function"
    },
    {
      "inputs": [
        {
          "internalType": "address",
          "name": "",
          "type": "address"
        },
        {
          "internalType": "uint256",
          "name": "itemId",
          "type": "uint256"
        }
      ],
      "name": "purchaseItem",
      "outputs": [],
      "stateMutability": "payable",
      "type": "function"
    },
    {
      "inputs": [
        {
          "internalType": "address",
          "name": "",
          "type": "address"
        },
        {
          "internalType": "uint256",
          "name": "tokenId",
          "type": "uint256"
        },
        {
          "internalType": "uint256",
          "name": "maxPrice",
          "type": "uint256"
        }
      ],
      "name": "purchaseItem",
      "outputs": [],
      "stateMutability": "payable",
      "type": "function"
    }
  ],
  "transactionHash": "0x1b55d81333a88b2d2421b4b8c316b5a140d6e0bdc1906a1b846aaac965d23164",
  "args": [],
  "numDeployments": 1,
  "solcInputHash": "e39248fcba6c46a8a0b49ab62402d196",
  "bytecode": "0x6080604052348015600f57600080fd5b506001600055612bea806100246000396000f3fe60806040526004361061006b5760003560e01c80633272490014610070578063807e610a146100855780638e6c60ba14610098578063ad78ba7b146100ce578063ad9a0369146100f0578063b19545fe14610110578063efadaa1714610130578063fe6a30ca14610152575b600080fd5b61008361007e366004612632565b610165565b005b61008361009336600461265e565b6101ef565b3480156100a457600080fd5b506100b86100b3366004612632565b6107b3565b6040516100c59190612756565b60405180910390f35b3480156100da57600080fd5b506100e36108f0565b6040516100c59190612765565b3480156100fc57600080fd5b5061008361010b366004612632565b6109c3565b34801561011c57600080fd5b5061008361012b366004612822565b610dd1565b34801561013c57600080fd5b506101456110c0565b6040516100c59190612900565b61008361016036600461294d565b611135565b600061016f611872565b6000838152601e82016020526040908190206004808201549251637f35186560e11b8152309181018290526024810187905260448101849052939450909263fe6a30ca90606401600060405180830381600087803b1580156101d057600080fd5b505af11580156101e4573d6000803e3d6000fd5b505050505050505050565b6101f7611896565b6000831161024b5760405162461bcd60e51b815260206004820152601c60248201527b05072696365206d7573742062652067726561746572207468616e20360241b60448201526064015b60405180910390fd5b6000610255611872565b6040516331a9108f60e11b81526004810187905290915033903090636352211e90602401602060405180830381865afa158015610296573d6000803e3d6000fd5b505050506040513d601f19601f820116820180604052508101906102ba9190612982565b6001600160a01b0316146103245760405162461bcd60e51b815260206004820152603d6024820152600080516020612b9583398151915260448201527f65204e4654206f776e65722063616e206c69737420746865206974656d0000006064820152608401610242565b6000858152601f8201602052604090205460ff161561037e5760405162461bcd60e51b8152602060048201526016602482015275125d195b481a5cc8185b1c9958591e481b1a5cdd195960521b6044820152606401610242565b821561039357610393813380308960016118c0565b604051806101000160405280306001600160a01b03168152602001868152602001336001600160a01b03168152602001336001600160a01b03168152602001858152602001600015158152602001876001600160a01b03168152602001836001600160a01b031681525081601e01600087815260200190815260200160002060008201518160000160006101000a8154816001600160a01b0302191690836001600160a01b031602179055506020820151816001015560408201518160020160006101000a8154816001600160a01b0302191690836001600160a01b0316021790555060608201518160030160006101000a8154816001600160a01b0302191690836001600160a01b031602179055506080820151816004015560a08201518160050160006101000a81548160ff02191690831515021790555060c08201518160050160016101000a8154816001600160a01b0302191690836001600160a01b0316021790555060e08201518160060160006101000a8154816001600160a01b0302191690836001600160a01b03160217905550905050600181601f01600087815260200190815260200160002060006101000a81548160ff0219169083151502179055508060200181601e01600087815260200190815260200160002090806001815401808255809150506001900390600052602060002090600702016000909190919091506000820160009054906101000a90046001600160a01b03168160000160006101000a8154816001600160a01b0302191690836001600160a01b03160217905550600182015481600101556002820160009054906101000a90046001600160a01b03168160020160006101000a8154816001600160a01b0302191690836001600160a01b031602179055506003820160009054906101000a90046001600160a01b03168160030160006101000a8154816001600160a01b0302191690836001600160a01b03160217905550600482015481600401556005820160009054906101000a900460ff168160050160006101000a81548160ff0219169083151502179055506005820160019054906101000a90046001600160a01b03168160050160016101000a8154816001600160a01b0302191690836001600160a01b031602179055506006820160009054906101000a90046001600160a01b03168160060160006101000a8154816001600160a01b0302191690836001600160a01b03160217905550505084306001600160a01b03167f1c4bace53786c697521915d51679b39d96c6ae3e735ddabf362ee3d3ebe1cdff3389600089600089604051610798969594939291906001600160a01b0396871681529486166020860152928516604085015260608401919091521515608083015290911660a082015260c00190565b60405180910390a3506107ab6001600055565b505050505050565b6040805161010081018252600080825260208201819052918101829052606081018290526080810182905260a0810182905260c0810182905260e08101829052906107fc611872565b6000848152601e820160205260409020600301549091506001600160a01b03166108645760405162461bcd60e51b815260206004820152601960248201527854686973206974656d206973206e6f7420666f722073616c6560381b6044820152606401610242565b6000838152601e90910160209081526040918290208251610100808201855282546001600160a01b039081168352600184015494830194909452600283015484169482019490945260038201548316606082015260048201546080820152600582015460ff8116151560a083015293909304821660c0840152600601541660e082015290505b92915050565b606060006108fc611872565b905080602001805480602002602001604051908101604052809291908181526020016000905b828210156109b95760008481526020908190206040805161010080820183526007870290930180546001600160a01b03908116835260018083015484880152600283015482169484019490945260038201548116606084015260048201546080840152600582015460ff8116151560a085015294909404841660c08301526006015490921660e08301529083529092019101610922565b5050505091505090565b6109cb611896565b60006109d5611872565b6000838152601e8201602052604090206005015490915060ff1615610a0c5760405162461bcd60e51b81526004016102429061299f565b6000828152601e82016020526040908190205490516331a9108f60e11b81526004810184905233916001600160a01b031690636352211e90602401602060405180830381865afa158015610a64573d6000803e3d6000fd5b505050506040513d601f19601f82011682018060405250810190610a889190612982565b6001600160a01b031614610af25760405162461bcd60e51b815260206004820152603f6024820152600080516020612b9583398151915260448201527f65204e4654206f776e65722063616e2064656c69737420746865206974656d006064820152608401610242565b6000828152601e8201602052604090206005015460ff1615610b265760405162461bcd60e51b81526004016102429061299f565b6000828152601e8201602090815260408083206003810180546001600160a01b031916905560048101849055600501805460ff19908116909155601f85019092528220805490911690555b6020820154811015610d8757306001600160a01b0316826020018281548110610b9c57610b9c6129ca565b60009182526020909120600790910201546001600160a01b0316148015610be8575082826020018281548110610bd457610bd46129ca565b906000526020600020906007020160010154145b15610d7f57602082018054610bff906001906129f6565b81548110610c0f57610c0f6129ca565b9060005260206000209060070201826020018281548110610c3257610c326129ca565b6000918252602091829020835460079092020180546001600160a01b03199081166001600160a01b039384161782556001808601549083015560028086015490830180548316918516919091179055600380860154908301805483169185169190911790556004808601549083015560058086018054918401805460ff909316151560ff19841681178255915461010090819004871602610100600160a81b03199092166001600160a81b03199093169290921717905560069485015494909101805490911693909116929092179091558201805480610d1457610d14612a09565b60008281526020812060076000199093019283020180546001600160a01b0319908116825560018201839055600282018054821690556003820180548216905560048201929092556005810180546001600160a81b0319169055600601805490911690559055610d87565b600101610b71565b50610d97813080338660016118c0565b60405182907fc40fdc946efe80191c467f60727c4abc08254a056035d467a4516a86005ab76390600090a250610dcd6001600055565b5050565b33610e037fc8fcad8db84d3cc18b4c41d551ea0ee66dd599cde068d998e57d5e09332c1320546001600160a01b031690565b6001600160a01b03161480610e1757503033145b610e635760405162461bcd60e51b815260206004820152601f60248201527f6e6f7420617574686f72697a656420746f2063616c6c2066756e6374696f6e006044820152606401610242565b60015415610eb35760405162461bcd60e51b815260206004820152601f60248201527f4d61726b6574706c61636520616c726561647920696e697469616c697a6564006044820152606401610242565b6000805b82518110156110365760006001600160a01b0316838281518110610edd57610edd6129ca565b6020026020010151600001516001600160a01b031603610f3e5760405162461bcd60e51b815260206004820152601c60248201527b496e76616c696420666565207265636569766572206164647265737360201b6044820152606401610242565b6000838281518110610f5257610f526129ca565b60200260200101516020015111610fa75760405162461bcd60e51b815260206004820152601960248201527824b73b30b634b21039b430b932903832b91036b4b63634b7b760391b6044820152606401610242565b828181518110610fb957610fb96129ca565b60200260200101516020015182610fd09190612a1f565b91506001838281518110610fe657610fe66129ca565b602090810291909101810151825460018082018555600094855293839020825160029092020180546001600160a01b0319166001600160a01b039092169190911781559101519082015501610eb7565b50620f42408111156110855760405162461bcd60e51b8152602060048201526018602482015277546f74616c2073686172657320657863656564203130302560401b6044820152606401610242565b7fc2c0a806d14641656428def5c922e8a9cec0ee5a5b9edbc215dcae8c0152a0ed826040516110b49190612900565b60405180910390a15050565b60606001805480602002602001604051908101604052809291908181526020016000905b8282101561112c576000848152602090819020604080518082019091526002850290910180546001600160a01b031682526001908101548284015290835290920191016110e4565b50505050905090565b61113d611896565b6000611147611872565b6000848152601e8201602052604090206005015490915060ff1615156001036111d85760405162461bcd60e51b815260206004820152603d60248201527f4d41524b4554504c4143453a2053414c455f434f4d504c45544544202d20546860448201527f6973206974656d2068617320616c7265616479206265656e20736f6c640000006064820152608401610242565b6000838152601f8201602052604090205460ff16151560011461127d5760405162461bcd60e51b815260206004820152605160248201527f4d41524b4554504c4143453a20494e56414c49445f4c495354494e47202d205460448201527f686973206c697374696e6720646f6573206e6f74206578697374206f72206973606482015270206e6f206c6f6e6765722061637469766560781b608482015260a401610242565b3360009081526013820160205260409020546001600160a01b03166113245760405162461bcd60e51b815260206004820152605160248201527f4d41524b4554504c4143453a20554e524547495354455245445f42555945522060448201527f2d204275796572206d757374206265207265676973746572656420696e20746860648201527065206964656e746974792073797374656d60781b608482015260a401610242565b6000838152601e8201602052604090206004810154600682015460058301546001600160a01b039182169161010090910416816113f857823410156113d3576040805162461bcd60e51b81526020600482015260248101919091527f4d41524b4554504c4143453a20494e53554646494349454e545f455448202d2060448201527f4e6f7420656e6f756768204554482073656e7420666f722070757263686173656064820152608401610242565b858311156113f35760405162461bcd60e51b815260040161024290612a32565b611510565b6040516370a0823160e01b8152829084906001600160a01b038316906370a0823190611428903390600401612aa4565b602060405180830381865afa158015611445573d6000803e3d6000fd5b505050506040513d601f19601f820116820180604052508101906114699190612ab8565b10156114ee5760405162461bcd60e51b815260206004820152604860248201527f4d41524b4554504c4143453a20494e53554646494349454e545f544f4b454e5360448201527f202d204e6f7420656e6f75676820746f6b656e2062616c616e636520666f7220606482015267707572636861736560c01b608482015260a401610242565b8684111561150e5760405162461bcd60e51b815260040161024290612a32565b505b6003840180546001600160a01b0319163317905560058401805460ff1990811660019081179092556000898152601f88016020526040902080549091169055601d86015461155d91612a1f565b601d86015560005b602086015481101561177b57306001600160a01b0316866020018281548110611590576115906129ca565b60009182526020909120600790910201546001600160a01b03161480156115dc5750878660200182815481106115c8576115c86129ca565b906000526020600020906007020160010154145b15611773576020860180546115f3906001906129f6565b81548110611603576116036129ca565b9060005260206000209060070201866020018281548110611626576116266129ca565b6000918252602091829020835460079092020180546001600160a01b03199081166001600160a01b039384161782556001808601549083015560028086015490830180548316918516919091179055600380860154908301805483169185169190911790556004808601549083015560058086018054918401805460ff909316151560ff19841681178255915461010090819004871602610100600160a81b03199092166001600160a81b0319909316929092171790556006948501549490910180549091169390911692909217909155860180548061170857611708612a09565b60008281526020812060076000199093019283020180546001600160a01b0319908116825560018201839055600282018054821690556003820180548216905560048201929092556005810180546001600160a81b031916905560060180549091169055905561177b565b600101611565565b5061178b853080338b60006118c0565b6001600160a01b038216611821576117a38184611b91565b8234111561181c576000336117b885346129f6565b604051600081818185875af1925050503d80600081146117f4576040519150601f19603f3d011682016040523d82523d6000602084013e6117f9565b606091505b505090508061181a5760405162461bcd60e51b815260040161024290612ad1565b505b61182f565b8161182d818386611d92565b505b6040513390889030907ff7dbb9400f221b1005c670f251e6d4ec982caa3041d6e00d9de8d898ae65033190600090a4505050505061186d6001600055565b505050565b7fbd516eb36b5d4489adb2e717e7d0ce56c1b814eda85e78ad9d8f240b24dd830d90565b6002600054036118b957604051633ee5aeb560e01b815260040160405180910390fd5b6002600055565b60006118cc8784611ed2565b9050600081600001516001600160a01b0316876001600160a01b031614806118fd575081516118fd90899089611ff4565b8061192257506001600160a01b0387166119178986612027565b6001600160a01b0316145b905080158015611930575082155b1561194e57604051632ce44b5f60e11b815260040160405180910390fd5b856001600160a01b031682600001516001600160a01b031614158015611972575082155b1561198f5760405162a1148160e81b815260040160405180910390fd5b6001600160a01b0385166119b657604051633a954ecd60e21b815260040160405180910390fd5b6119c38887878787612070565b6001600160a01b0386166119e0576119db8885612159565b611a04565b846001600160a01b0316866001600160a01b031614611a0457611a04888786612197565b6001600160a01b038516611a2157611a1c88856122a1565b611a45565b856001600160a01b0316856001600160a01b031614611a4557611a45888686612360565b8151611a579089906000908790612402565b6001600160a01b03868116600090815260068a016020908152604080832080546001600160401b03198082166001600160401b03928316600019018316179092558a86168086528386208054938416938316600190810184169490941790558a865260058f0190945282852080546001600160e01b031916909417600160a01b429092169190910217909255908701808352912054909116611b45578854811015611b45578251600082815260058b01602090815260409091208054918601516001600160401b0316600160a01b026001600160e01b03199092166001600160a01b03909316929092171790555b5083856001600160a01b0316876001600160a01b03167fddf252ad1be2c89b69c2b068fc378daa952ba7f163c4a11628f55a4df523b3ef60405160405180910390a45050505050505050565b8060005b600154811015611ce8576000620f424060018381548110611bb857611bb86129ca565b90600052602060002090600202016001015485611bd59190612afe565b611bdf9190612b15565b90508015611cdf57600060018381548110611bfc57611bfc6129ca565b600091825260208220600290910201546040516001600160a01b039091169184919081818185875af1925050503d8060008114611c55576040519150601f19603f3d011682016040523d82523d6000602084013e611c5a565b606091505b5050905080611c7b5760405162461bcd60e51b815260040161024290612ad1565b611c8582856129f6565b9350600080516020612b75833981519152600060018581548110611cab57611cab6129ca565b6000918252602090912060029091020154604051611cd592916001600160a01b0316908690612b37565b60405180910390a1505b50600101611b95565b50801561186d576000836001600160a01b03168260405160006040518083038185875af1925050503d8060008114611d3c576040519150601f19603f3d011682016040523d82523d6000602084013e611d41565b606091505b5050905080611d625760405162461bcd60e51b815260040161024290612ad1565b600080516020612b7583398151915260008584604051611d8493929190612b37565b60405180910390a150505050565b8060005b600154811015611e8f576000620f424060018381548110611db957611db96129ca565b90600052602060002090600202016001015485611dd69190612afe565b611de09190612b15565b90508015611e8657611e243360018481548110611dff57611dff6129ca565b60009182526020909120600290910201546001600160a01b0389811692911684612461565b611e2e81846129f6565b9250600080516020612b758339815191528660018481548110611e5357611e536129ca565b6000918252602090912060029091020154604051611e7d92916001600160a01b0316908590612b37565b60405180910390a15b50600101611d96565b508015611ecc57611eab6001600160a01b038516338584612461565b600080516020612b75833981519152848483604051611d8493929190612b37565b50505050565b604080516060810182526000808252602082018190529181019190915282548290811015611fdb576000818152600585016020908152604091829020825160608101845290546001600160a01b0381168252600160a01b81046001600160401b031692820192909252600160e01b90910460ff16151591810182905290611fd95780516001600160a01b031615611f6c5791506108ea9050565b50600019016000818152600585016020908152604091829020825160608101845290546001600160a01b038116808352600160a01b82046001600160401b031693830193909352600160e01b900460ff1615159281019290925215611fd45791506108ea9050565b611f6c565b505b604051636f96cda160e11b815260040160405180910390fd5b6001600160a01b03808316600090815260088501602090815260408083209385168352929052205460ff165b9392505050565b600061203383836124bb565b612050576040516333d1c03960e21b815260040160405180910390fd5b50600090815260079190910160205260409020546001600160a01b031690565b8061215257600060015b816120e357600061208c8888846124ec565b8061209f57506001600160a01b03871630145b90508080156120b457506120b48887846124ec565b156120c257600192506120dd565b816120cc81612b5b565b925050816000036120dd57506120e3565b5061207a565b8161214f5760405162461bcd60e51b815260206004820152603660248201527f4552433732313a2073656e64657220616e6420726563656976657220646f206e6044820152756f742068617665206120636f6d6d6f6e20636c61696d60501b6064820152608401610242565b50505b5050505050565b600b820154612169906001612a1f565b6000828152600c840160209081526040822092909255600b9093018054600181018255908452922090910155565b6040516370a0823160e01b8152309060009060019083906370a08231906121c2908890600401612aa4565b602060405180830381865afa1580156121df573d6000803e3d6000fd5b505050506040513d601f19601f820116820180604052508101906122039190612ab8565b61220d91906129f6565b6000848152600a87016020526040902054909150808214612266576001600160a01b038516600090815260098701602090815260408083208584528252808320548484528184208190558352600a890190915290208190555b506000928352600a8501602090815260408085208590556001600160a01b039095168452600990950185528383209083529093529081205550565b600b8201546000906122b5906001906129f6565b6000838152600c85016020526040812054600b860180549394509092849081106122e1576122e16129ca565b906000526020600020015490508085600001600b018381548110612307576123076129ca565b6000918252602080832090910192909255828152600c87019091526040808220849055858252812055600b850180548061234357612343612a09565b600190038181906000526020600020016000905590555050505050565b6040516370a0823160e01b815260009030906370a0823190612386908690600401612aa4565b602060405180830381865afa1580156123a3573d6000803e3d6000fd5b505050506040513d601f19601f820116820180604052508101906123c79190612ab8565b6001600160a01b03909316600090815260098501602090815260408083208684528252808320859055938252600a9095019094525090912055565b600082815260078501602052604080822080546001600160a01b0319166001600160a01b0387811691821790925591518593918516917f8c5be1e5ebec7d5bd14f71427d1e84f3dd0314c0f7b2291e5b200ac8c7c3b92591a450505050565b611ecc84856001600160a01b03166323b872dd86868660405160240161248993929190612b37565b604051602081830303815290604052915060e01b6020820180516001600160e01b03838183161783525050505061257e565b81546000908210801561202057506000828152600584016020526040902054600160e01b900460ff16159392505050565b6000806124f985856125e6565b905060005b6001600160a01b0382166000908152601787016020526040902054811015612572576001600160a01b0382166000908152601787016020526040902080548591908390811061254f5761254f6129ca565b90600052602060002001540361256a57600192505050612020565b6001016124fe565b50600095945050505050565b600080602060008451602086016000885af1806125a1576040513d6000823e3d81fd5b50506000513d915081156125b95780600114156125c6565b6001600160a01b0384163b155b15611ecc5783604051635274afe760e01b81526004016102429190612aa4565b6001600160a01b038181166000908152601384016020526040812054909116806126105782612612565b805b949350505050565b6001600160a01b038116811461262f57600080fd5b50565b6000806040838503121561264557600080fd5b82356126508161261a565b946020939093013593505050565b60008060008060008060c0878903121561267757600080fd5b86356126828161261a565b955060208701356126928161261a565b94506040870135935060608701359250608087013580151581146126b557600080fd5b915060a08701356126c58161261a565b809150509295509295509295565b6001600160a01b03169052565b80516001600160a01b03908116835260208083015190840152604080830151821690840152606080830151909116908301526080808201519083015260a081810151906127309084018215159052565b5060c081015161274360c08401826126d3565b5060e081015161186d60e08401826126d3565b61010081016108ea82846126e0565b602080825282518282018190526000918401906040840190835b818110156127a9576127928385516126e0565b60209390930192610100929092019160010161277f565b509095945050505050565b634e487b7160e01b600052604160045260246000fd5b604080519081016001600160401b03811182821017156127ec576127ec6127b4565b60405290565b604051601f8201601f191681016001600160401b038111828210171561281a5761281a6127b4565b604052919050565b60006020828403121561283457600080fd5b81356001600160401b0381111561284a57600080fd5b8201601f8101841361285b57600080fd5b80356001600160401b03811115612874576128746127b4565b61288360208260051b016127f2565b8082825260208201915060208360061b8501019250868311156128a557600080fd5b6020840193505b828410156128f657604084880312156128c457600080fd5b6128cc6127ca565b84356128d78161261a565b81526020858101358183015290835260409094019391909101906128ac565b9695505050505050565b602080825282518282018190526000918401906040840190835b818110156127a957835180516001600160a01b03168452602090810151818501529093019260409092019160010161291a565b60008060006060848603121561296257600080fd5b833561296d8161261a565b95602085013595506040909401359392505050565b60006020828403121561299457600080fd5b81516126108161261a565b602080825260119082015270125d195b48185b1c9958591e481cdbdb19607a1b604082015260600190565b634e487b7160e01b600052603260045260246000fd5b634e487b7160e01b600052601160045260246000fd5b818103818111156108ea576108ea6129e0565b634e487b7160e01b600052603160045260246000fd5b808201808211156108ea576108ea6129e0565b6020808252604c908201527f4d41524b4554504c4143453a2050524943455f544f4f5f48494748202d204c6960408201527f7374696e672070726963652065786365656473206d6178696d756d206163636560608201526b707461626c6520707269636560a01b608082015260a00190565b6001600160a01b0391909116815260200190565b600060208284031215612aca57600080fd5b5051919050565b602080825260139082015272115512081d1c985b9cd9995c8819985a5b1959606a1b604082015260600190565b80820281158282048414176108ea576108ea6129e0565b600082612b3257634e487b7160e01b600052601260045260246000fd5b500490565b6001600160a01b039384168152919092166020820152604081019190915260600190565b600060018201612b6d57612b6d6129e0565b506001019056fe98bb22c3c42abde31f252df283464a56424c4cff25468b2c7d270a7a857c90314d41524b4554504c4143453a204e4f545f4f574e4552202d204f6e6c79207468a26469706673582212200e28f6a98d7a78ef0b0b79badce41bb5aace6fadd5603e786aa7a393bef34ec864736f6c634300081c0033",
  "libraries": {
    "AddressSet": "0x8aB21bf41B908d9CBee3E78e97033E3916840cA8",
    "AttributeLib": "0x9d0749b64bEDB024B1AaF596c84029E67635D43c",
    "Base64": "0x8d10857B6d2bEA12d67A888F3E995ea142Db701E",
    "Bytes32Set": "0xB01Cf1Baf9ABFa5309AE3ff649B31ae87A80AE62",
    "CarbonCreditLib": "0x44520E8dA039d4D7D460f5DBF6C1eC347De53A7C",
    "DiamondFactoryLib": "0x50353159348c63A448eDAfC6d5ef81CF9C1cdE9a",
    "DiamondLib": "0x2Be86045394c8096b3b9d9449A08Cc74afEd5717",
    "ERC721AEnumerationLib": "0x6a9A6D75AECEfB8dC969D5Ef5ea3EcF57e29706d",
    "ERC721ALib": "0x8F980CBDb943c2794FdA47D82d81a71d31A815DE",
    "Identity": "0x4C6fE457018d32B9aEc2aA99F655b5aCD7d0D658",
    "IdentityFactory": "0x5c970fD1E772548Be3Dc3de62381Fd8b2b3fAb96",
    "IdentitySystemStorage": "0x05d7966Acfa90f529e3844B1d1b7702dBde7789c",
    "LibDiamond": "0x30Fb10d923CfFC1151B8CFe683A937F414854570",
    "MerkleProver": "0x6361c8F2C7Fb1498C15C5e90Ed477ee8cEeC9f5f",
    "MetadataLib": "0xEA17bE869d528F2c3e4F7cae231ebE4BE42BeB75",
    "MultiSaleLib": "0x3b12B21202DaC69552E7b1f9D4D3E31085c7a378",
    "Strings": "0x26375f3210F1F8C90f53c663AC44F3d4a86b12A6",
    "StringsLib": "0x928c0A50586514D291087403befe3540E3631ECd",
    "SVGTemplatesLib": "0xFD3DfE346d5d5c8C90313036BC1b1E3De29FCb33",
    "UInt256Set": "0x908B9bE15117446dE01d076Ecb75D9210E182D97",
    "VariablePriceLib": "0x92E3cBf7226518CF757c48446067de1485CCCcBb"
  },
  "devdoc": {
    "details": "Provides NFT marketplace functionality for the Gemforce diamond.      This facet enables users to list, purchase, and delist NFTs with      support for both ETH and ERC20 token payments. It includes a      configurable fee distribution system where a portion of each sale      can be sent to multiple fee receivers.      The facet interacts with the IdentitySystemStorage for NFT transfers      and marketplace state management. It implements reentrancy protection      via the ReentrancyGuard to ensure security during payment operations.",
    "errors": {
      "ReentrancyGuardReentrantCall()": [
        {
          "details": "Unauthorized reentrant call."
        }
      ],
      "SafeERC20FailedOperation(address)": [
        {
          "details": "An operation with an ERC-20 token failed."
        }
      ]
    },
    "events": {
      "Approval(address,address,uint256)": {
        "details": "Emitted when `owner` enables `approved` to manage the `tokenId` token."
      },
      "MarketplaceInitialized((address,uint256)[])": {
        "details": "Emitted when the marketplace is initialized with fee receivers",
        "params": {
          "feeReceivers": "Array of fee receivers with their shares"
        }
      },
      "PaymentDistributed(address,address,uint256)": {
        "details": "Emitted when a payment is distributed to a receiver",
        "params": {
          "amount": "Amount of tokens or ETH distributed",
          "receiver": "Address receiving the payment",
          "token": "Address of the token used for payment (address(0) for ETH)"
        }
      },
      "Transfer(address,address,uint256)": {
        "details": "Emitted when `tokenId` token is transferred from `from` to `to`."
      }
    },
    "kind": "dev",
    "methods": {
      "delistItem(address,uint256)": {
        "custom:event": "Emits Delisted event upon successful delisting",
        "custom:security": "Uses nonReentrant modifier to prevent reentrancy attacks",
        "details": "Allows the seller of a listed NFT to delist it, canceling the sale.      This function returns ownership and control of the NFT to the seller      if it was previously transferred to the contract. Only the original      seller or the contract itself can delist an item, and it must not have      been sold already. The function implements nonReentrant modifier to      prevent potential reentrancy attacks during execution.      The delisting process:      1. Verifies the item exists and hasn't been sold      2. Checks caller is the seller or the contract itself      3. Resets listing variables and removes from active listings      4. Transfers NFT back to seller if it was held by the contract The first parameter (address) is unused but kept for interface compatibility.",
        "params": {
          "tokenId": "The ID of the NFT to delist"
        }
      },
      "getMarketplaceFeeReceivers()": {
        "returns": {
          "_0": "Array of marketplace fee receivers with their shares"
        }
      },
      "initializeMarketplace((address,uint256)[])": {
        "custom:restriction": "Can only be called once",
        "custom:security": "Only callable by the contract owner",
        "details": "Sets up the fee distribution system for the marketplace. Once initialized,      it cannot be modified. This one-time setup defines what percentage of each      sale will go to different recipients (e.g., platform fees, community treasury).      The sum of all fee shares must not exceed 100% (1,000,000 parts per million).",
        "params": {
          "_feeReceivers": "Array of fee receivers with their respective shares"
        }
      },
      "listItem(address,address,uint256,uint256,bool,address)": {
        "custom:event": "Emits Listings event with listing details",
        "custom:security": "Uses nonReentrant modifier to prevent reentrancy attacks",
        "details": "Creates a new market item listing for the specified NFT. The NFT can either      remain in the seller's wallet or be transferred to the contract based on      the transferNFT parameter. This function implements the nonReentrant modifier      to prevent potential reentrancy attacks during execution.      The first parameter is unused but kept for interface compatibility.",
        "params": {
          "paymentToken": "Address of ERC20 token for payment, or address(0) for ETH",
          "price": "The listing price (in ETH or ERC20 tokens)",
          "receiver": "The address that will receive payment when item is sold",
          "tokenId": "The ID of the NFT being listed",
          "transferNFT": "If true, transfers the NFT to the contract; if false, keeps it with seller"
        }
      },
      "purchaseItem(address,uint256,uint256)": {
        "custom:event": "Emits Sales event upon successful purchase",
        "custom:payment": "Accepts ETH (if paymentToken is address(0)) or ERC20 tokens",
        "custom:security": "Uses nonReentrant modifier and checks-effects-interactions pattern",
        "details": "Allows a registered user to purchase a listed NFT, handling both ETH and ERC20 payments.      The function follows the checks-effects-interactions pattern for security, updating      state variables before transferring tokens or NFTs. A portion of the payment is      distributed to configured fee receivers, with the remainder going to the listing's      payment receiver. The function implements nonReentrant modifier to prevent reentrancy attacks.      The purchase process:      1. Verifies the listing exists and hasn't been sold      2. Checks buyer is registered in the identity system      3. Validates sufficient payment was provided      4. Updates state to mark item as sold      5. Transfers NFT to buyer      6. Distributes payment to fee receivers and seller      The first parameter (address) is unused but kept for interface compatibility.",
        "params": {
          "tokenId": "The ID of the NFT to purchase"
        }
      }
    },
    "stateVariables": {
      "SHARE_PRECISION": {
        "details": "Precision for fee calculations (1,000,000 = 100%)"
      },
      "feeReceivers": {
        "details": "Array of fee receivers who get a percentage of each sale"
      }
    },
    "title": "MarketplaceFacet",
    "version": 1
  },
  "userdoc": {
    "kind": "user",
    "methods": {
      "delistItem(address,uint256)": {
        "notice": "Remove an NFT from the marketplace listings"
      },
      "getMarketplaceFeeReceivers()": {
        "notice": "Get the fee receivers configured specifically for this marketplace"
      },
      "initializeMarketplace((address,uint256)[])": {
        "notice": "Initialize the marketplace with fee receivers"
      },
      "listItem(address,address,uint256,uint256,bool,address)": {
        "notice": "List an NFT for sale in the marketplace"
      },
      "purchaseItem(address,uint256,uint256)": {
        "notice": "Purchase a listed NFT from the marketplace"
      }
    },
    "version": 1
  },
  "storageLayout": {
    "storage": [
      {
        "astId": 2926,
        "contract": "contracts/facets/MarketplaceFacet.sol:MarketplaceFacet",
        "label": "_status",
        "offset": 0,
        "slot": "0",
        "type": "t_uint256"
      },
      {
        "astId": 10626,
        "contract": "contracts/facets/MarketplaceFacet.sol:MarketplaceFacet",
        "label": "feeReceivers",
        "offset": 0,
        "slot": "1",
        "type": "t_array(t_struct(FeeReceiver)19743_storage)dyn_storage"
      }
    ],
    "types": {
      "t_address_payable": {
        "encoding": "inplace",
        "label": "address payable",
        "numberOfBytes": "20"
      },
      "t_array(t_struct(FeeReceiver)19743_storage)dyn_storage": {
        "base": "t_struct(FeeReceiver)19743_storage",
        "encoding": "dynamic_array",
        "label": "struct FeeReceiver[]",
        "numberOfBytes": "32"
      },
      "t_struct(FeeReceiver)19743_storage": {
        "encoding": "inplace",
        "label": "struct FeeReceiver",
        "members": [
          {
            "astId": 19740,
            "contract": "contracts/facets/MarketplaceFacet.sol:MarketplaceFacet",
            "label": "receiver",
            "offset": 0,
            "slot": "0",
            "type": "t_address_payable"
          },
          {
            "astId": 19742,
            "contract": "contracts/facets/MarketplaceFacet.sol:MarketplaceFacet",
            "label": "sharePerMillion",
            "offset": 0,
            "slot": "1",
            "type": "t_uint256"
          }
        ],
        "numberOfBytes": "64"
      },
      "t_uint256": {
        "encoding": "inplace",
        "label": "uint256",
        "numberOfBytes": "32"
      }
    }
  }
}