{
  "address": "0xE6Ccc4284AFF145f86a8EABB688b453b99f57FE6",
  "abi": [
    {
      "inputs": [],
      "stateMutability": "nonpayable",
      "type": "constructor"
    },
    {
      "inputs": [],
      "name": "Create2EmptyBytecode",
      "type": "error"
    },
    {
      "inputs": [],
      "name": "FailedDeployment",
      "type": "error"
    },
    {
      "inputs": [
        {
          "internalType": "uint256",
          "name": "balance",
          "type": "uint256"
        },
        {
          "internalType": "uint256",
          "name": "needed",
          "type": "uint256"
        }
      ],
      "name": "InsufficientBalance",
      "type": "error"
    },
    {
      "anonymous": false,
      "inputs": [
        {
          "indexed": true,
          "internalType": "address",
          "name": "contractAddress",
          "type": "address"
        },
        {
          "indexed": true,
          "internalType": "address",
          "name": "controllerAddress",
          "type": "address"
        }
      ],
      "name": "ControllerAdded",
      "type": "event"
    },
    {
      "anonymous": false,
      "inputs": [
        {
          "indexed": true,
          "internalType": "address",
          "name": "contractAddress",
          "type": "address"
        },
        {
          "indexed": true,
          "internalType": "address",
          "name": "controllerAddress",
          "type": "address"
        }
      ],
      "name": "ControllerRemoved",
      "type": "event"
    },
    {
      "anonymous": false,
      "inputs": [
        {
          "indexed": false,
          "internalType": "string",
          "name": "name",
          "type": "string"
        },
        {
          "indexed": false,
          "internalType": "address",
          "name": "template",
          "type": "address"
        }
      ],
      "name": "SVGTemplateCreated",
      "type": "event"
    },
    {
      "inputs": [
        {
          "internalType": "address",
          "name": "_controller",
          "type": "address"
        }
      ],
      "name": "addController",
      "outputs": [],
      "stateMutability": "nonpayable",
      "type": "function"
    },
    {
      "inputs": [
        {
          "internalType": "address",
          "name": "sender",
          "type": "address"
        },
        {
          "internalType": "string",
          "name": "_name",
          "type": "string"
        }
      ],
      "name": "createSVG",
      "outputs": [
        {
          "internalType": "address",
          "name": "_tplAddress",
          "type": "address"
        }
      ],
      "stateMutability": "nonpayable",
      "type": "function"
    },
    {
      "inputs": [
        {
          "internalType": "address",
          "name": "_address",
          "type": "address"
        }
      ],
      "name": "isController",
      "outputs": [
        {
          "internalType": "bool",
          "name": "allowed",
          "type": "bool"
        }
      ],
      "stateMutability": "view",
      "type": "function"
    },
    {
      "inputs": [],
      "name": "relinquishControl",
      "outputs": [],
      "stateMutability": "nonpayable",
      "type": "function"
    },
    {
      "inputs": [
        {
          "internalType": "string",
          "name": "_name",
          "type": "string"
        }
      ],
      "name": "svgAddress",
      "outputs": [
        {
          "internalType": "address",
          "name": "_svgAddress",
          "type": "address"
        }
      ],
      "stateMutability": "view",
      "type": "function"
    },
    {
      "inputs": [
        {
          "internalType": "string",
          "name": "_name",
          "type": "string"
        }
      ],
      "name": "svgString",
      "outputs": [
        {
          "internalType": "string",
          "name": "data_",
          "type": "string"
        }
      ],
      "stateMutability": "view",
      "type": "function"
    },
    {
      "inputs": [],
      "name": "svgs",
      "outputs": [
        {
          "internalType": "string[]",
          "name": "",
          "type": "string[]"
        }
      ],
      "stateMutability": "view",
      "type": "function"
    }
  ],
  "transactionHash": "0xb3e1c9de9eaed9a94f39130fa3db89dc1eee4c82163a8b5251dc9c3f0e9f1ec5",
  "args": [],
  "numDeployments": 1,
  "solcInputHash": "ccf876918ad4728259522ce4e695c811",
  "bytecode": "0x6080604052348015600f57600080fd5b506037336001600160a01b03166000908152602081905260409020805460ff19166001179055565b611ecb806100466000396000f3fe608060405234801561001057600080fd5b506004361061006d5760003560e01c80630e60927a146100725780631373d4e81461009b5780631f2cd4c6146100b0578063642cd091146100d0578063a7fc7a07146100e3578063b429afeb146100f8578063e1c28bef1461011b575b600080fd5b6100856100803660046108d3565b610123565b604051610092919061090f565b60405180910390f35b6100a361013d565b6040516100929190610973565b6100c36100be3660046108d3565b610154565b60405161009291906109d8565b6100856100de366004610a02565b610202565b6100f66100f1366004610a4f565b61029e565b005b61010b610106366004610a4f565b610307565b6040519015158152602001610092565b6100f6610328565b600061013782610131610370565b90610394565b92915050565b606061014f61014a610370565b6103f7565b905090565b606061016282610131610370565b6001600160a01b0316633851e5e46040518163ffffffff1660e01b8152600401600060405180830381865afa9250505080156101c057506040513d6000823e601f3d908101601f191682016040526101bd9190810190610a6a565b60015b6101fa573d8080156101ee576040519150601f19603f3d011682016040523d82523d6000602084013e6101f3565b606091505b5050919050565b90505b919050565b3360009081526020819052604081205460ff1615156001148061022457503033145b6102495760405162461bcd60e51b815260040161024090610ae0565b60405180910390fd5b61025d8383610256610370565b91906104d4565b90507f9def9fa0200e8a75d052e2441695912f07be1a15bbce5e2cbd822ecd0d981a668282604051610290929190610b14565b60405180910390a192915050565b3360009081526020819052604090205460ff161515600114806102c057503033145b6102dc5760405162461bcd60e51b815260040161024090610ae0565b610304816001600160a01b03166000908152602081905260409020805460ff19166001179055565b50565b6001600160a01b03811660009081526020819052604081205460ff16610137565b3360009081526020819052604090205460ff1615156001148061034a57503033145b6103665760405162461bcd60e51b815260040161024090610ae0565b61036e6106d5565b565b7fd6bd814cc1bc4b2e2e963d75e86b66330979dafa58695edbdc535ed90fc5985e90565b60006103f0826040516020016103aa9190610b3e565b60405160208183030381529060405280519060200120604051806020016103d090610803565b6020820181038252601f19601f820116604052508051906020012061072c565b9392505050565b606081600101805480602002602001604051908101604052809291908181526020016000905b828210156104c957838290600052602060002001805461043c90610b5a565b80601f016020809104026020016040519081016040528092919081815260200182805461046890610b5a565b80156104b55780601f1061048a576101008083540402835291602001916104b5565b820191906000526020600020905b81548152906001019060200180831161049857829003601f168201915b50505050508152602001906001019061041d565b505050509050919050565b604051600090819085906104e9908590610b3e565b908152604051908190036020019020546001600160a01b03161461054b5760405162461bcd60e51b81526020600482015260196024820152781d195b5c1b185d1948185b1c9958591e4819195c1b1bde5959603a1b6044820152606401610240565b60006105578584610394565b90506105ad60008460405160200161056f9190610b3e565b604051602081830303815290604052805190602001206040518060200161059590610803565b601f1982820381018352601f90910116604052610739565b9150816001600160a01b0316816001600160a01b03161461060c5760405162461bcd60e51b81526020600482015260196024820152780e8cadae0d8c2e8ca40c2c8c8e4cae6e640dad2e6dac2e8c6d603b1b6044820152606401610240565b60405163f2fde38b60e01b81526001600160a01b0383169063f2fde38b9061063890879060040161090f565b600060405180830381600087803b15801561065257600080fd5b505af1158015610666573d6000803e3d6000fd5b505050506001858101805491820181556000908152602090200161068a8482610be3565b5081856000018460405161069e9190610b3e565b90815260405190819003602001902080546001600160a01b03929092166001600160a01b0319909216919091179055509392505050565b3360009081526020819052604090205460ff161515600114806106f757503033145b6107135760405162461bcd60e51b815260040161024090610ae0565b336000908152602081905260409020805460ff19169055565b60006103f08383306107d0565b6000834710156107655760405163cf47918160e01b815247600482015260248101859052604401610240565b815160000361078757604051631328927760e21b815260040160405180910390fd5b8282516020840186f590503d1519811516156107a9576040513d6000823e3d81fd5b6001600160a01b0381166103f05760405163b06ebf3d60e01b815260040160405180910390fd5b6000604051836040820152846020820152828152600b8101905060ff8153605590206001600160a01b0316949350505050565b6111f480610ca283390190565b634e487b7160e01b600052604160045260246000fd5b604051601f8201601f191681016001600160401b038111828210171561084e5761084e610810565b604052919050565b60006001600160401b0382111561086f5761086f610810565b50601f01601f191660200190565b600082601f83011261088e57600080fd5b81356108a161089c82610856565b610826565b8181528460208386010111156108b657600080fd5b816020850160208301376000918101602001919091529392505050565b6000602082840312156108e557600080fd5b81356001600160401b038111156108fb57600080fd5b6109078482850161087d565b949350505050565b6001600160a01b0391909116815260200190565b60005b8381101561093e578181015183820152602001610926565b50506000910152565b6000815180845261095f816020860160208601610923565b601f01601f19169290920160200192915050565b6000602082016020835280845180835260408501915060408160051b86010192506020860160005b828110156109cc57603f198786030184526109b7858351610947565b9450602093840193919091019060010161099b565b50929695505050505050565b6020815260006103f06020830184610947565b80356001600160a01b03811681146101fd57600080fd5b60008060408385031215610a1557600080fd5b610a1e836109eb565b915060208301356001600160401b03811115610a3957600080fd5b610a458582860161087d565b9150509250929050565b600060208284031215610a6157600080fd5b6103f0826109eb565b600060208284031215610a7c57600080fd5b81516001600160401b03811115610a9257600080fd5b8201601f81018413610aa357600080fd5b8051610ab161089c82610856565b818152856020838501011115610ac657600080fd5b610ad7826020830160208601610923565b95945050505050565b6020808252601a908201527931b0b63632b91034b9903737ba10309031b7b73a3937b63632b960311b604082015260600190565b604081526000610b276040830185610947565b905060018060a01b03831660208301529392505050565b60008251610b50818460208701610923565b9190910192915050565b600181811c90821680610b6e57607f821691505b602082108103610b8e57634e487b7160e01b600052602260045260246000fd5b50919050565b601f821115610bde57806000526020600020601f840160051c81016020851015610bbb5750805b601f840160051c820191505b81811015610bdb5760008155600101610bc7565b50505b505050565b81516001600160401b03811115610bfc57610bfc610810565b610c1081610c0a8454610b5a565b84610b94565b6020601f821160018114610c445760008315610c2c5750848201515b600019600385901b1c1916600184901b178455610bdb565b600084815260208120601f198516915b82811015610c745787850151825560209485019460019092019101610c54565b5084821015610c925786840151600019600387901b60f8161c191681555b50505050600190811b0190555056fe6080604052348015600f57600080fd5b503380603557604051631e4fbdf760e01b81526000600482015260240160405180910390fd5b603c816041565b506091565b600080546001600160a01b038381166001600160a01b0319831681178455604051919092169283917f8be0079c531659141344cd1fd0a4f28419497f9722a3daafe3b4186f6b6457e09190a35050565b611154806100a06000396000f3fe608060405234801561001057600080fd5b50600436106100985760003560e01c806253a5c71461009d57806325a1f8f7146100c65780632763b63c146100db5780633851e5e4146100fc57806352efea6e1461010457806365ece3e91461010e578063715018a6146101165780638da5cb5b1461011e578063b0c8f9dc14610133578063c53936b114610146578063f2fde38b14610159575b600080fd5b6100b06100ab36600461099d565b61016c565b6040516100bd9190610b11565b60405180910390f35b6100ce6101f9565b6040516100bd9190610b2b565b6100ee6100e9366004610c1c565b6102d8565b6040519081526020016100bd565b6100b0610374565b61010c610383565b005b6100b0610395565b61010c610439565b61012661044b565b6040516100bd9190610c58565b6100ee610141366004610c6c565b61045a565b61010c610154366004610ca0565b6104b9565b61010c610167366004610d07565b61062f565b606073928c0A50586514D291087403befe3540E3631ECd6320134c5c610190610676565b846040518363ffffffff1660e01b81526004016101ae929190610de7565b600060405180830381865af41580156101cb573d6000803e3d6000fd5b505050506040513d6000823e601f3d908101601f191682016040526101f39190810190610ed3565b92915050565b6060610203610676565b805480602002602001604051908101604052809291908181526020016000905b828210156102cf57838290600052602060002001805461024290610d30565b80601f016020809104026020016040519081016040528092919081815260200182805461026e90610d30565b80156102bb5780601f10610290576101008083540402835291602001916102bb565b820191906000526020600020905b81548152906001019060200180831161029e57829003601f168201915b505050505081526020019060010190610223565b50505050905090565b60006102e2610688565b60005b82518110156103195761031083828151811061030357610303610f49565b60200260200101516106ba565b506001016102e5565b5050805160006103276106f8565b600401905030337f2feaa7d3b0dd621e7cad5cfc3691f0dd694e4df1ec0cacdaa75168f732a5429c8361035861071c565b604051610366929190610f5f565b60405180910390a350919050565b606061037e61071c565b905090565b61038b610688565b6103936107a4565b565b606060006103a16106f8565b60040190508060000180546103b590610d30565b80601f01602080910402602001604051908101604052809291908181526020018280546103e190610d30565b801561042e5780601f106104035761010080835404028352916020019161042e565b820191906000526020600020905b81548152906001019060200180831161041157829003601f168201915b505050505091505090565b610441610688565b61039360006107ba565b6000546001600160a01b031690565b6000610464610688565b61046d826106ba565b905030337f06655b3acec5ad67072e7d20045a297095f255f96184d146a1b1604362507a0361049a6106f8565b6040516104ac91600401908790610f5f565b60405180910390a3919050565b7ff0c57e16840df040f15088dc2f81fe391c3923bec73e23a9662efc9c229c6a008054600160401b810460ff1615906001600160401b03166000811580156104fe5750825b90506000826001600160401b0316600114801561051a5750303b155b905081158015610528575080155b156105465760405163f92ee8a960e01b815260040160405180910390fd5b84546001600160401b0319166001178555831561056f57845460ff60401b1916600160401b1785555b60006105796106f8565b6004019050806105898982610fd3565b5060005b87518110156105de57816001018882815181106105ac576105ac610f49565b602090810291909101810151825460018101845560009384529190922001906105d59082610fd3565b5060010161058d565b5050831561062657845460ff60401b19168555604051600181527fc7f505b2f371ae2175ee4913f4499e1f2633a7b5936321eed1cdaeb6115181d29060200160405180910390a15b50505050505050565b610637610688565b6001600160a01b03811661066a576000604051631e4fbdf760e01b81526004016106619190610c58565b60405180910390fd5b610673816107ba565b50565b60006106806106f8565b600501919050565b3361069161044b565b6001600160a01b031614610393573360405163118cdaa760e01b81526004016106619190610c58565b60006106c46106f8565b6005015490506106d26106f8565b600501805460018101825560009182526020909120016106f28382610fd3565b50919050565b7fd6bd814cc1bc4b2e2e963d75e86b66330979dafa58695edbdc535ed90fc5985e90565b60408051602081019091526000808252606091906107386106f8565b60050154905060005b8181101561079c57826107526106f8565b60050180548390811061076757610767610f49565b90600052602060002001604051602001610782929190611091565b60408051601f198184030181529190529250600101610741565b509092915050565b6107ac6106f8565b61039390600501600061080a565b600080546001600160a01b038381166001600160a01b0319831681178455604051919092169283917f8be0079c531659141344cd1fd0a4f28419497f9722a3daafe3b4186f6b6457e09190a35050565b508054600082559060005260206000209081019061067391905b808211156108415760006108388282610845565b50600101610824565b5090565b50805461085190610d30565b6000825580601f10610861575050565b601f01602090049060005260206000209081019061067391905b80821115610841576000815560010161087b565b634e487b7160e01b600052604160045260246000fd5b604080519081016001600160401b03811182821017156108c7576108c761088f565b60405290565b604051601f8201601f191681016001600160401b03811182821017156108f5576108f561088f565b604052919050565b60006001600160401b038211156109165761091661088f565b5060051b60200190565b60006001600160401b038211156109395761093961088f565b50601f01601f191660200190565b600082601f83011261095857600080fd5b813561096b61096682610920565b6108cd565b81815284602083860101111561098057600080fd5b816020850160208301376000918101602001919091529392505050565b6000602082840312156109af57600080fd5b81356001600160401b038111156109c557600080fd5b8201601f810184136109d657600080fd5b80356109e4610966826108fd565b8082825260208201915060208360051b850101925086831115610a0657600080fd5b602084015b83811015610ab65780356001600160401b03811115610a2957600080fd5b85016040818a03601f19011215610a3f57600080fd5b610a476108a5565b60208201356001600160401b03811115610a6057600080fd5b610a6f8b602083860101610947565b82525060408201356001600160401b03811115610a8b57600080fd5b610a9a8b602083860101610947565b6020830152508085525050602083019250602081019050610a0b565b509695505050505050565b60005b83811015610adc578181015183820152602001610ac4565b50506000910152565b60008151808452610afd816020860160208601610ac1565b601f01601f19169290920160200192915050565b602081526000610b246020830184610ae5565b9392505050565b6000602082016020835280845180835260408501915060408160051b86010192506020860160005b82811015610b8457603f19878603018452610b6f858351610ae5565b94506020938401939190910190600101610b53565b50929695505050505050565b600082601f830112610ba157600080fd5b8135610baf610966826108fd565b8082825260208201915060208360051b860101925085831115610bd157600080fd5b602085015b83811015610c125780356001600160401b03811115610bf457600080fd5b610c03886020838a0101610947565b84525060209283019201610bd6565b5095945050505050565b600060208284031215610c2e57600080fd5b81356001600160401b03811115610c4457600080fd5b610c5084828501610b90565b949350505050565b6001600160a01b0391909116815260200190565b600060208284031215610c7e57600080fd5b81356001600160401b03811115610c9457600080fd5b610c5084828501610947565b60008060408385031215610cb357600080fd5b82356001600160401b03811115610cc957600080fd5b610cd585828601610947565b92505060208301356001600160401b03811115610cf157600080fd5b610cfd85828601610b90565b9150509250929050565b600060208284031215610d1957600080fd5b81356001600160a01b0381168114610b2457600080fd5b600181811c90821680610d4457607f821691505b6020821081036106f257634e487b7160e01b600052602260045260246000fd5b60008154610d7181610d30565b808552600182168015610d8b5760018114610da757610dde565b60ff1983166020870152602082151560051b8701019350610dde565b84600052602060002060005b83811015610dd55781546020828a010152600182019150602081019050610db3565b87016020019450505b50505092915050565b6000604082016040835280855480835260608501915060608160051b860101925086600052602060002060005b82811015610e4457868503605f19018452610e2f8583610d64565b94506020939093019260019182019101610e14565b50505050828103602084015280845180835260208301915060208160051b8401016020870160005b83811015610ec557601f198684030185528151805160408552610e926040860182610ae5565b9050602082015191508481036020860152610ead8183610ae5565b60209788019790955093909301925050600101610e6c565b509098975050505050505050565b600060208284031215610ee557600080fd5b81516001600160401b03811115610efb57600080fd5b8201601f81018413610f0c57600080fd5b8051610f1a61096682610920565b818152856020838501011115610f2f57600080fd5b610f40826020830160208601610ac1565b95945050505050565b634e487b7160e01b600052603260045260246000fd5b604081526000610f726040830185610d64565b8281036020840152610f408185610ae5565b601f821115610fce57806000526020600020601f840160051c81016020851015610fab5750805b601f840160051c820191505b81811015610fcb5760008155600101610fb7565b50505b505050565b81516001600160401b03811115610fec57610fec61088f565b61100081610ffa8454610d30565b84610f84565b6020601f821160018114611034576000831561101c5750848201515b600019600385901b1c1916600184901b178455610fcb565b600084815260208120601f198516915b828110156110645787850151825560209485019460019092019101611044565b50848210156110825786840151600019600387901b60f8161c191681555b50505050600190811b01905550565b600083516110a3818460208801610ac1565b8083019050600084546110b581610d30565b6001821680156110cc57600181146110e157611111565b60ff1983168552811515820285019350611111565b87600052602060002060005b83811015611109578154878201526001909101906020016110ed565b505081850193505b509197965050505050505056fea2646970667358221220930da364361b6cea16831a96492d1fe3d1de398fed1e40c846ed56c4b299abe364736f6c634300081c0033a2646970667358221220d05be11588b71f43e17dca4da4e16b889045552963f592bba20a9058926385d064736f6c634300081c0033",
  "deployedBytecode": "0x608060405234801561001057600080fd5b506004361061006d5760003560e01c80630e60927a146100725780631373d4e81461009b5780631f2cd4c6146100b0578063642cd091146100d0578063a7fc7a07146100e3578063b429afeb146100f8578063e1c28bef1461011b575b600080fd5b6100856100803660046108d3565b610123565b604051610092919061090f565b60405180910390f35b6100a361013d565b6040516100929190610973565b6100c36100be3660046108d3565b610154565b60405161009291906109d8565b6100856100de366004610a02565b610202565b6100f66100f1366004610a4f565b61029e565b005b61010b610106366004610a4f565b610307565b6040519015158152602001610092565b6100f6610328565b600061013782610131610370565b90610394565b92915050565b606061014f61014a610370565b6103f7565b905090565b606061016282610131610370565b6001600160a01b0316633851e5e46040518163ffffffff1660e01b8152600401600060405180830381865afa9250505080156101c057506040513d6000823e601f3d908101601f191682016040526101bd9190810190610a6a565b60015b6101fa573d8080156101ee576040519150601f19603f3d011682016040523d82523d6000602084013e6101f3565b606091505b5050919050565b90505b919050565b3360009081526020819052604081205460ff1615156001148061022457503033145b6102495760405162461bcd60e51b815260040161024090610ae0565b60405180910390fd5b61025d8383610256610370565b91906104d4565b90507f9def9fa0200e8a75d052e2441695912f07be1a15bbce5e2cbd822ecd0d981a668282604051610290929190610b14565b60405180910390a192915050565b3360009081526020819052604090205460ff161515600114806102c057503033145b6102dc5760405162461bcd60e51b815260040161024090610ae0565b610304816001600160a01b03166000908152602081905260409020805460ff19166001179055565b50565b6001600160a01b03811660009081526020819052604081205460ff16610137565b3360009081526020819052604090205460ff1615156001148061034a57503033145b6103665760405162461bcd60e51b815260040161024090610ae0565b61036e6106d5565b565b7fd6bd814cc1bc4b2e2e963d75e86b66330979dafa58695edbdc535ed90fc5985e90565b60006103f0826040516020016103aa9190610b3e565b60405160208183030381529060405280519060200120604051806020016103d090610803565b6020820181038252601f19601f820116604052508051906020012061072c565b9392505050565b606081600101805480602002602001604051908101604052809291908181526020016000905b828210156104c957838290600052602060002001805461043c90610b5a565b80601f016020809104026020016040519081016040528092919081815260200182805461046890610b5a565b80156104b55780601f1061048a576101008083540402835291602001916104b5565b820191906000526020600020905b81548152906001019060200180831161049857829003601f168201915b50505050508152602001906001019061041d565b505050509050919050565b604051600090819085906104e9908590610b3e565b908152604051908190036020019020546001600160a01b03161461054b5760405162461bcd60e51b81526020600482015260196024820152781d195b5c1b185d1948185b1c9958591e4819195c1b1bde5959603a1b6044820152606401610240565b60006105578584610394565b90506105ad60008460405160200161056f9190610b3e565b604051602081830303815290604052805190602001206040518060200161059590610803565b601f1982820381018352601f90910116604052610739565b9150816001600160a01b0316816001600160a01b03161461060c5760405162461bcd60e51b81526020600482015260196024820152780e8cadae0d8c2e8ca40c2c8c8e4cae6e640dad2e6dac2e8c6d603b1b6044820152606401610240565b60405163f2fde38b60e01b81526001600160a01b0383169063f2fde38b9061063890879060040161090f565b600060405180830381600087803b15801561065257600080fd5b505af1158015610666573d6000803e3d6000fd5b505050506001858101805491820181556000908152602090200161068a8482610be3565b5081856000018460405161069e9190610b3e565b90815260405190819003602001902080546001600160a01b03929092166001600160a01b0319909216919091179055509392505050565b3360009081526020819052604090205460ff161515600114806106f757503033145b6107135760405162461bcd60e51b815260040161024090610ae0565b336000908152602081905260409020805460ff19169055565b60006103f08383306107d0565b6000834710156107655760405163cf47918160e01b815247600482015260248101859052604401610240565b815160000361078757604051631328927760e21b815260040160405180910390fd5b8282516020840186f590503d1519811516156107a9576040513d6000823e3d81fd5b6001600160a01b0381166103f05760405163b06ebf3d60e01b815260040160405180910390fd5b6000604051836040820152846020820152828152600b8101905060ff8153605590206001600160a01b0316949350505050565b6111f480610ca283390190565b634e487b7160e01b600052604160045260246000fd5b604051601f8201601f191681016001600160401b038111828210171561084e5761084e610810565b604052919050565b60006001600160401b0382111561086f5761086f610810565b50601f01601f191660200190565b600082601f83011261088e57600080fd5b81356108a161089c82610856565b610826565b8181528460208386010111156108b657600080fd5b816020850160208301376000918101602001919091529392505050565b6000602082840312156108e557600080fd5b81356001600160401b038111156108fb57600080fd5b6109078482850161087d565b949350505050565b6001600160a01b0391909116815260200190565b60005b8381101561093e578181015183820152602001610926565b50506000910152565b6000815180845261095f816020860160208601610923565b601f01601f19169290920160200192915050565b6000602082016020835280845180835260408501915060408160051b86010192506020860160005b828110156109cc57603f198786030184526109b7858351610947565b9450602093840193919091019060010161099b565b50929695505050505050565b6020815260006103f06020830184610947565b80356001600160a01b03811681146101fd57600080fd5b60008060408385031215610a1557600080fd5b610a1e836109eb565b915060208301356001600160401b03811115610a3957600080fd5b610a458582860161087d565b9150509250929050565b600060208284031215610a6157600080fd5b6103f0826109eb565b600060208284031215610a7c57600080fd5b81516001600160401b03811115610a9257600080fd5b8201601f81018413610aa357600080fd5b8051610ab161089c82610856565b818152856020838501011115610ac657600080fd5b610ad7826020830160208601610923565b95945050505050565b6020808252601a908201527931b0b63632b91034b9903737ba10309031b7b73a3937b63632b960311b604082015260600190565b604081526000610b276040830185610947565b905060018060a01b03831660208301529392505050565b60008251610b50818460208701610923565b9190910192915050565b600181811c90821680610b6e57607f821691505b602082108103610b8e57634e487b7160e01b600052602260045260246000fd5b50919050565b601f821115610bde57806000526020600020601f840160051c81016020851015610bbb5750805b601f840160051c820191505b81811015610bdb5760008155600101610bc7565b50505b505050565b81516001600160401b03811115610bfc57610bfc610810565b610c1081610c0a8454610b5a565b84610b94565b6020601f821160018114610c445760008315610c2c5750848201515b600019600385901b1c1916600184901b178455610bdb565b600084815260208120601f198516915b82811015610c745787850151825560209485019460019092019101610c54565b5084821015610c925786840151600019600387901b60f8161c191681555b50505050600190811b0190555056fe6080604052348015600f57600080fd5b503380603557604051631e4fbdf760e01b81526000600482015260240160405180910390fd5b603c816041565b506091565b600080546001600160a01b038381166001600160a01b0319831681178455604051919092169283917f8be0079c531659141344cd1fd0a4f28419497f9722a3daafe3b4186f6b6457e09190a35050565b611154806100a06000396000f3fe608060405234801561001057600080fd5b50600436106100985760003560e01c806253a5c71461009d57806325a1f8f7146100c65780632763b63c146100db5780633851e5e4146100fc57806352efea6e1461010457806365ece3e91461010e578063715018a6146101165780638da5cb5b1461011e578063b0c8f9dc14610133578063c53936b114610146578063f2fde38b14610159575b600080fd5b6100b06100ab36600461099d565b61016c565b6040516100bd9190610b11565b60405180910390f35b6100ce6101f9565b6040516100bd9190610b2b565b6100ee6100e9366004610c1c565b6102d8565b6040519081526020016100bd565b6100b0610374565b61010c610383565b005b6100b0610395565b61010c610439565b61012661044b565b6040516100bd9190610c58565b6100ee610141366004610c6c565b61045a565b61010c610154366004610ca0565b6104b9565b61010c610167366004610d07565b61062f565b606073__$0ac7d8a8f304b8a74db4984a296882688e$__6320134c5c610190610676565b846040518363ffffffff1660e01b81526004016101ae929190610de7565b600060405180830381865af41580156101cb573d6000803e3d6000fd5b505050506040513d6000823e601f3d908101601f191682016040526101f39190810190610ed3565b92915050565b6060610203610676565b805480602002602001604051908101604052809291908181526020016000905b828210156102cf57838290600052602060002001805461024290610d30565b80601f016020809104026020016040519081016040528092919081815260200182805461026e90610d30565b80156102bb5780601f10610290576101008083540402835291602001916102bb565b820191906000526020600020905b81548152906001019060200180831161029e57829003601f168201915b505050505081526020019060010190610223565b50505050905090565b60006102e2610688565b60005b82518110156103195761031083828151811061030357610303610f49565b60200260200101516106ba565b506001016102e5565b5050805160006103276106f8565b600401905030337f2feaa7d3b0dd621e7cad5cfc3691f0dd694e4df1ec0cacdaa75168f732a5429c8361035861071c565b604051610366929190610f5f565b60405180910390a350919050565b606061037e61071c565b905090565b61038b610688565b6103936107a4565b565b606060006103a16106f8565b60040190508060000180546103b590610d30565b80601f01602080910402602001604051908101604052809291908181526020018280546103e190610d30565b801561042e5780601f106104035761010080835404028352916020019161042e565b820191906000526020600020905b81548152906001019060200180831161041157829003601f168201915b505050505091505090565b610441610688565b61039360006107ba565b6000546001600160a01b031690565b6000610464610688565b61046d826106ba565b905030337f06655b3acec5ad67072e7d20045a297095f255f96184d146a1b1604362507a0361049a6106f8565b6040516104ac91600401908790610f5f565b60405180910390a3919050565b7ff0c57e16840df040f15088dc2f81fe391c3923bec73e23a9662efc9c229c6a008054600160401b810460ff1615906001600160401b03166000811580156104fe5750825b90506000826001600160401b0316600114801561051a5750303b155b905081158015610528575080155b156105465760405163f92ee8a960e01b815260040160405180910390fd5b84546001600160401b0319166001178555831561056f57845460ff60401b1916600160401b1785555b60006105796106f8565b6004019050806105898982610fd3565b5060005b87518110156105de57816001018882815181106105ac576105ac610f49565b602090810291909101810151825460018101845560009384529190922001906105d59082610fd3565b5060010161058d565b5050831561062657845460ff60401b19168555604051600181527fc7f505b2f371ae2175ee4913f4499e1f2633a7b5936321eed1cdaeb6115181d29060200160405180910390a15b50505050505050565b610637610688565b6001600160a01b03811661066a576000604051631e4fbdf760e01b81526004016106619190610c58565b60405180910390fd5b610673816107ba565b50565b60006106806106f8565b600501919050565b3361069161044b565b6001600160a01b031614610393573360405163118cdaa760e01b81526004016106619190610c58565b60006106c46106f8565b6005015490506106d26106f8565b600501805460018101825560009182526020909120016106f28382610fd3565b50919050565b7fd6bd814cc1bc4b2e2e963d75e86b66330979dafa58695edbdc535ed90fc5985e90565b60408051602081019091526000808252606091906107386106f8565b60050154905060005b8181101561079c57826107526106f8565b60050180548390811061076757610767610f49565b90600052602060002001604051602001610782929190611091565b60408051601f198184030181529190529250600101610741565b509092915050565b6107ac6106f8565b61039390600501600061080a565b600080546001600160a01b038381166001600160a01b0319831681178455604051919092169283917f8be0079c531659141344cd1fd0a4f28419497f9722a3daafe3b4186f6b6457e09190a35050565b508054600082559060005260206000209081019061067391905b808211156108415760006108388282610845565b50600101610824565b5090565b50805461085190610d30565b6000825580601f10610861575050565b601f01602090049060005260206000209081019061067391905b80821115610841576000815560010161087b565b634e487b7160e01b600052604160045260246000fd5b604080519081016001600160401b03811182821017156108c7576108c761088f565b60405290565b604051601f8201601f191681016001600160401b03811182821017156108f5576108f561088f565b604052919050565b60006001600160401b038211156109165761091661088f565b5060051b60200190565b60006001600160401b038211156109395761093961088f565b50601f01601f191660200190565b600082601f83011261095857600080fd5b813561096b61096682610920565b6108cd565b81815284602083860101111561098057600080fd5b816020850160208301376000918101602001919091529392505050565b6000602082840312156109af57600080fd5b81356001600160401b038111156109c557600080fd5b8201601f810184136109d657600080fd5b80356109e4610966826108fd565b8082825260208201915060208360051b850101925086831115610a0657600080fd5b602084015b83811015610ab65780356001600160401b03811115610a2957600080fd5b85016040818a03601f19011215610a3f57600080fd5b610a476108a5565b60208201356001600160401b03811115610a6057600080fd5b610a6f8b602083860101610947565b82525060408201356001600160401b03811115610a8b57600080fd5b610a9a8b602083860101610947565b6020830152508085525050602083019250602081019050610a0b565b509695505050505050565b60005b83811015610adc578181015183820152602001610ac4565b50506000910152565b60008151808452610afd816020860160208601610ac1565b601f01601f19169290920160200192915050565b602081526000610b246020830184610ae5565b9392505050565b6000602082016020835280845180835260408501915060408160051b86010192506020860160005b82811015610b8457603f19878603018452610b6f858351610ae5565b94506020938401939190910190600101610b53565b50929695505050505050565b600082601f830112610ba157600080fd5b8135610baf610966826108fd565b8082825260208201915060208360051b860101925085831115610bd157600080fd5b602085015b83811015610c125780356001600160401b03811115610bf457600080fd5b610c03886020838a0101610947565b84525060209283019201610bd6565b5095945050505050565b600060208284031215610c2e57600080fd5b81356001600160401b03811115610c4457600080fd5b610c5084828501610b90565b949350505050565b6001600160a01b0391909116815260200190565b600060208284031215610c7e57600080fd5b81356001600160401b03811115610c9457600080fd5b610c5084828501610947565b60008060408385031215610cb357600080fd5b82356001600160401b03811115610cc957600080fd5b610cd585828601610947565b92505060208301356001600160401b03811115610cf157600080fd5b610cfd85828601610b90565b9150509250929050565b600060208284031215610d1957600080fd5b81356001600160a01b0381168114610b2457600080fd5b600181811c90821680610d4457607f821691505b6020821081036106f257634e487b7160e01b600052602260045260246000fd5b60008154610d7181610d30565b808552600182168015610d8b5760018114610da757610dde565b60ff1983166020870152602082151560051b8701019350610dde565b84600052602060002060005b83811015610dd55781546020828a010152600182019150602081019050610db3565b87016020019450505b50505092915050565b6000604082016040835280855480835260608501915060608160051b860101925086600052602060002060005b82811015610e4457868503605f19018452610e2f8583610d64565b94506020939093019260019182019101610e14565b50505050828103602084015280845180835260208301915060208160051b8401016020870160005b83811015610ec557601f198684030185528151805160408552610e926040860182610ae5565b9050602082015191508481036020860152610ead8183610ae5565b60209788019790955093909301925050600101610e6c565b509098975050505050505050565b600060208284031215610ee557600080fd5b81516001600160401b03811115610efb57600080fd5b8201601f81018413610f0c57600080fd5b8051610f1a61096682610920565b818152856020838501011115610f2f57600080fd5b610f40826020830160208601610ac1565b95945050505050565b634e487b7160e01b600052603260045260246000fd5b604081526000610f726040830185610d64565b8281036020840152610f408185610ae5565b601f821115610fce57806000526020600020601f840160051c81016020851015610fab5750805b601f840160051c820191505b81811015610fcb5760008155600101610fb7565b50505b505050565b81516001600160401b03811115610fec57610fec61088f565b61100081610ffa8454610d30565b84610f84565b6020601f821160018114611034576000831561101c5750848201515b600019600385901b1c1916600184901b178455610fcb565b600084815260208120601f198516915b828110156110645787850151825560209485019460019092019101611044565b50848210156110825786840151600019600387901b60f8161c191681555b50505050600190811b01905550565b600083516110a3818460208801610ac1565b8083019050600084546110b581610d30565b6001821680156110cc57600181146110e157611111565b60ff1983168552811515820285019350611111565b87600052602060002060005b83811015611109578154878201526001909101906020016110ed565b505081850193505b509197965050505050505056fea2646970667358221220930da364361b6cea16831a96492d1fe3d1de398fed1e40c846ed56c4b299abe364736f6c634300081c0033a2646970667358221220d05be11588b71f43e17dca4da4e16b889045552963f592bba20a9058926385d064736f6c634300081c0033",
  "libraries": {
    "AddressSet": "0x8aB21bf41B908d9CBee3E78e97033E3916840cA8",
    "AttributeLib": "0x9d0749b64bEDB024B1AaF596c84029E67635D43c",
    "Base64": "0x8d10857B6d2bEA12d67A888F3E995ea142Db701E",
    "Bytes32Set": "0xB01Cf1Baf9ABFa5309AE3ff649B31ae87A80AE62",
    "CarbonCreditLib": "0x44520E8dA039d4D7D460f5DBF6C1eC347De53A7C",
    "DiamondFactoryLib": "0x50353159348c63A448eDAfC6d5ef81CF9C1cdE9a",
    "DiamondLib": "0x2Be86045394c8096b3b9d9449A08Cc74afEd5717",
    "ERC721AEnumerationLib": "0x6a9A6D75AECEfB8dC969D5Ef5ea3EcF57e29706d",
    "ERC721ALib": "0x8F980CBDb943c2794FdA47D82d81a71d31A815DE",
    "Identity": "0x4C6fE457018d32B9aEc2aA99F655b5aCD7d0D658",
    "IdentityFactory": "0x5c970fD1E772548Be3Dc3de62381Fd8b2b3fAb96",
    "IdentitySystemStorage": "0x05d7966Acfa90f529e3844B1d1b7702dBde7789c",
    "LibDiamond": "0x30Fb10d923CfFC1151B8CFe683A937F414854570",
    "MerkleProver": "0x6361c8F2C7Fb1498C15C5e90Ed477ee8cEeC9f5f",
    "MetadataLib": "0xEA17bE869d528F2c3e4F7cae231ebE4BE42BeB75",
    "MultiSaleLib": "0x3b12B21202DaC69552E7b1f9D4D3E31085c7a378",
    "Strings": "0x26375f3210F1F8C90f53c663AC44F3d4a86b12A6",
    "StringsLib": "0x928c0A50586514D291087403befe3540E3631ECd",
    "SVGTemplatesLib": "0xFD3DfE346d5d5c8C90313036BC1b1E3De29FCb33",
    "UInt256Set": "0x908B9bE15117446dE01d076Ecb75D9210E182D97",
    "VariablePriceLib": "0x92E3cBf7226518CF757c48446067de1485CCCcBb"
  },
  "devdoc": {
    "errors": {
      "Create2EmptyBytecode()": [
        {
          "details": "There's no code to deploy."
        }
      ],
      "FailedDeployment()": [
        {
          "details": "The deployment failed."
        }
      ],
      "InsufficientBalance(uint256,uint256)": [
        {
          "details": "The ETH balance of the account is not enough to perform the operation."
        }
      ]
    },
    "kind": "dev",
    "methods": {
      "addController(address)": {
        "details": "Add an address allowed to control this contract"
      },
      "isController(address)": {
        "details": "Check if this address is a controller"
      },
      "relinquishControl()": {
        "details": "Remove the sender address from the list of controllers"
      }
    },
    "version": 1
  },
  "userdoc": {
    "events": {
      "ControllerAdded(address,address)": {
        "notice": "emitted when a controller is added."
      },
      "ControllerRemoved(address,address)": {
        "notice": "emitted when a controller is removed."
      }
    },
    "kind": "user",
    "methods": {
      "createSVG(address,string)": {
        "notice": "add a new gem pool"
      },
      "svgAddress(string)": {
        "notice": "get the svg address of the given svg name. does not mean the file exists"
      },
      "svgString(string)": {
        "notice": "get the svg data of the given svg name as a string"
      },
      "svgs()": {
        "notice": "get all the svg namea in the contract"
      }
    },
    "version": 1
  },
  "storageLayout": {
    "storage": [
      {
        "astId": 37139,
        "contract": "contracts/utilities/SVGManager.sol:SVGManager",
        "label": "_controllers",
        "offset": 0,
        "slot": "0",
        "type": "t_mapping(t_address,t_bool)"
      }
    ],
    "types": {
      "t_address": {
        "encoding": "inplace",
        "label": "address",
        "numberOfBytes": "20"
      },
      "t_bool": {
        "encoding": "inplace",
        "label": "bool",
        "numberOfBytes": "1"
      },
      "t_mapping(t_address,t_bool)": {
        "encoding": "mapping",
        "key": "t_address",
        "label": "mapping(address => bool)",
        "numberOfBytes": "32",
        "value": "t_bool"
      }
    }
  }
}