{
  "address": "0x5b44eBcBF0De2A64c74dE2D1A54304E740C60482",
  "abi": [
    {
      "anonymous": false,
      "inputs": [
        {
          "indexed": false,
          "internalType": "string",
          "name": "name",
          "type": "string"
        },
        {
          "indexed": false,
          "internalType": "address",
          "name": "template",
          "type": "address"
        }
      ],
      "name": "SVGTemplateCreated",
      "type": "event"
    },
    {
      "inputs": [
        {
          "internalType": "string",
          "name": "_name",
          "type": "string"
        }
      ],
      "name": "createSVG",
      "outputs": [
        {
          "internalType": "address",
          "name": "_tplAddress",
          "type": "address"
        }
      ],
      "stateMutability": "nonpayable",
      "type": "function"
    },
    {
      "inputs": [
        {
          "internalType": "address",
          "name": "_manager",
          "type": "address"
        }
      ],
      "name": "setSVGManager",
      "outputs": [],
      "stateMutability": "nonpayable",
      "type": "function"
    },
    {
      "inputs": [
        {
          "internalType": "string",
          "name": "_name",
          "type": "string"
        }
      ],
      "name": "svgAddress",
      "outputs": [
        {
          "internalType": "address",
          "name": "_svgAddress",
          "type": "address"
        }
      ],
      "stateMutability": "view",
      "type": "function"
    },
    {
      "inputs": [
        {
          "internalType": "string",
          "name": "_name",
          "type": "string"
        }
      ],
      "name": "svgString",
      "outputs": [
        {
          "internalType": "string",
          "name": "data_",
          "type": "string"
        }
      ],
      "stateMutability": "view",
      "type": "function"
    },
    {
      "inputs": [],
      "name": "svgs",
      "outputs": [
        {
          "internalType": "string[]",
          "name": "",
          "type": "string[]"
        }
      ],
      "stateMutability": "view",
      "type": "function"
    }
  ],
  "transactionHash": "0xd00a9466b854ea396362a1c915cd3b009cde800ff015ff867e193f6c048390be",
  "args": [],
  "numDeployments": 1,
  "solcInputHash": "ccf876918ad4728259522ce4e695c811",
  "bytecode": "0x6080604052348015600f57600080fd5b506107c88061001f6000396000f3fe608060405234801561001057600080fd5b50600436106100575760003560e01c80630e60927a1461005c5780631373d4e81461008c5780631f2cd4c6146100a1578063719acbd4146100c157806393327929146100d4575b600080fd5b61006f61006a36600461044e565b6100e9565b6040516001600160a01b0390911681526020015b60405180910390f35b610094610170565b604051610083919061051d565b6100b46100af36600461044e565b610201565b6040516100839190610582565b61006f6100cf36600461044e565b610286565b6100e76100e23660046105ad565b610329565b005b6000806100f461038f565b60030154604051630730493d60e11b81526001600160a01b0390911691508190630e60927a90610128908690600401610582565b602060405180830381865afa158015610145573d6000803e3d6000fd5b505050506040513d601f19601f8201168201806040525081019061016991906105ca565b9392505050565b6060600061017c61038f565b60030160009054906101000a90046001600160a01b03169050806001600160a01b0316631373d4e86040518163ffffffff1660e01b8152600401600060405180830381865afa1580156101d3573d6000803e3d6000fd5b505050506040513d6000823e601f3d908101601f191682016040526101fb9190810190610634565b91505090565b6060600061020d61038f565b60030154604051630f966a6360e11b81526001600160a01b0390911691508190631f2cd4c690610241908690600401610582565b600060405180830381865afa15801561025e573d6000803e3d6000fd5b505050506040513d6000823e601f3d908101601f191682016040526101699190810190610703565b6000336102916103b3565b6001600160a01b031614806102a557503033145b6102ca5760405162461bcd60e51b81526004016102c190610737565b60405180910390fd5b60006102d461038f565b6003015460405163642cd09160e01b81526001600160a01b039091169150819063642cd0919061030a903390879060040161076e565b6020604051808303816000875af1158015610145573d6000803e3d6000fd5b336103326103b3565b6001600160a01b0316148061034657503033145b6103625760405162461bcd60e51b81526004016102c190610737565b8061036b61038f565b60030180546001600160a01b0319166001600160a01b039290921691909117905550565b7fd6bd814cc1bc4b2e2e963d75e86b66330979dafa58695edbdc535ed90fc5985e90565b7fc8fcad8db84d3cc18b4c41d551ea0ee66dd599cde068d998e57d5e09332c1320546001600160a01b031690565b634e487b7160e01b600052604160045260246000fd5b604051601f8201601f191681016001600160401b038111828210171561041f5761041f6103e1565b604052919050565b60006001600160401b03821115610440576104406103e1565b50601f01601f191660200190565b60006020828403121561046057600080fd5b81356001600160401b0381111561047657600080fd5b8201601f8101841361048757600080fd5b803561049a61049582610427565b6103f7565b8181528560208385010111156104af57600080fd5b81602084016020830137600091810160200191909152949350505050565b60005b838110156104e85781810151838201526020016104d0565b50506000910152565b600081518084526105098160208601602086016104cd565b601f01601f19169290920160200192915050565b6000602082016020835280845180835260408501915060408160051b86010192506020860160005b8281101561057657603f198786030184526105618583516104f1565b94506020938401939190910190600101610545565b50929695505050505050565b60208152600061016960208301846104f1565b6001600160a01b03811681146105aa57600080fd5b50565b6000602082840312156105bf57600080fd5b813561016981610595565b6000602082840312156105dc57600080fd5b815161016981610595565b600082601f8301126105f857600080fd5b815161060661049582610427565b81815284602083860101111561061b57600080fd5b61062c8260208301602087016104cd565b949350505050565b60006020828403121561064657600080fd5b81516001600160401b0381111561065c57600080fd5b8201601f8101841361066d57600080fd5b80516001600160401b03811115610686576106866103e1565b8060051b610696602082016103f7565b918252602081840181019290810190878411156106b257600080fd5b6020850192505b838310156106f85782516001600160401b038111156106d757600080fd5b6106e6896020838901016105e7565b835250602092830192909101906106b9565b979650505050505050565b60006020828403121561071557600080fd5b81516001600160401b0381111561072b57600080fd5b61062c848285016105e7565b6020808252601f908201527f6e6f7420617574686f72697a656420746f2063616c6c2066756e6374696f6e00604082015260600190565b6001600160a01b038316815260406020820181905260009061062c908301846104f156fea2646970667358221220e3c417402660639b0af8c41f1f717f212b4c4399eba9318482f3f12ee686f46764736f6c634300081c0033",
  "libraries": {
    "AddressSet": "0x8aB21bf41B908d9CBee3E78e97033E3916840cA8",
    "AttributeLib": "0x9d0749b64bEDB024B1AaF596c84029E67635D43c",
    "Base64": "0x8d10857B6d2bEA12d67A888F3E995ea142Db701E",
    "Bytes32Set": "0xB01Cf1Baf9ABFa5309AE3ff649B31ae87A80AE62",
    "CarbonCreditLib": "0x44520E8dA039d4D7D460f5DBF6C1eC347De53A7C",
    "DiamondFactoryLib": "0x50353159348c63A448eDAfC6d5ef81CF9C1cdE9a",
    "DiamondLib": "0x2Be86045394c8096b3b9d9449A08Cc74afEd5717",
    "ERC721AEnumerationLib": "0x6a9A6D75AECEfB8dC969D5Ef5ea3EcF57e29706d",
    "ERC721ALib": "0x8F980CBDb943c2794FdA47D82d81a71d31A815DE",
    "Identity": "0x4C6fE457018d32B9aEc2aA99F655b5aCD7d0D658",
    "IdentityFactory": "0x5c970fD1E772548Be3Dc3de62381Fd8b2b3fAb96",
    "IdentitySystemStorage": "0x05d7966Acfa90f529e3844B1d1b7702dBde7789c",
    "LibDiamond": "0x30Fb10d923CfFC1151B8CFe683A937F414854570",
    "MerkleProver": "0x6361c8F2C7Fb1498C15C5e90Ed477ee8cEeC9f5f",
    "MetadataLib": "0xEA17bE869d528F2c3e4F7cae231ebE4BE42BeB75",
    "MultiSaleLib": "0x3b12B21202DaC69552E7b1f9D4D3E31085c7a378",
    "Strings": "0x26375f3210F1F8C90f53c663AC44F3d4a86b12A6",
    "StringsLib": "0x928c0A50586514D291087403befe3540E3631ECd",
    "SVGTemplatesLib": "0xFD3DfE346d5d5c8C90313036BC1b1E3De29FCb33",
    "UInt256Set": "0x908B9bE15117446dE01d076Ecb75D9210E182D97",
    "VariablePriceLib": "0x92E3cBf7226518CF757c48446067de1485CCCcBb"
  },
  "devdoc": {
    "kind": "dev",
    "methods": {
      "createSVG(string)": {
        "params": {
          "_name": "the name of the svg",
          "_tplAddress": "the svg data as a string"
        }
      },
      "setSVGManager(address)": {
        "params": {
          "_manager": "the address of the svg manager"
        }
      },
      "svgAddress(string)": {
        "params": {
          "_name": "the name of the svg"
        },
        "returns": {
          "_svgAddress": "the address of the svg"
        }
      },
      "svgString(string)": {
        "params": {
          "_name": "the name of the svg"
        },
        "returns": {
          "data_": "the svg data as a string"
        }
      },
      "svgs()": {
        "returns": {
          "_0": "the names of the svgs"
        }
      }
    },
    "title": "SVGTemplatesFacet",
    "version": 1
  },
  "userdoc": {
    "kind": "user",
    "methods": {
      "createSVG(string)": {
        "notice": "add a new svg template and return the template address to the caller"
      },
      "setSVGManager(address)": {
        "notice": "set the svg manager"
      },
      "svgAddress(string)": {
        "notice": "get the svg address of the given svg name. does not mean the file exists."
      },
      "svgString(string)": {
        "notice": "get the svg data of the given svg name as a string"
      },
      "svgs()": {
        "notice": "get all the svgs stored in the contract"
      }
    },
    "notice": "This contract is used to create and manage SVG templates",
    "version": 1
  },
  "storageLayout": {
    "storage": [],
    "types": null
  }
}