{
  "address": "0x0879C3915b706dF98a01A4a68Dc623AF59931A1b",
  "abi": [
    {
      "inputs": [
        {
          "internalType": "address",
          "name": "token",
          "type": "address"
        }
      ],
      "name": "SafeERC20FailedOperation",
      "type": "error"
    },
    {
      "anonymous": false,
      "inputs": [
        {
          "indexed": true,
          "internalType": "uint256",
          "name": "tradeDealId",
          "type": "uint256"
        },
        {
          "indexed": true,
          "internalType": "address",
          "name": "recipient",
          "type": "address"
        },
        {
          "indexed": false,
          "internalType": "uint256",
          "name": "amount",
          "type": "uint256"
        }
      ],
      "name": "CollateralTokensDistributed",
      "type": "event"
    },
    {
      "anonymous": false,
      "inputs": [
        {
          "indexed": true,
          "internalType": "uint256",
          "name": "tradeDealId",
          "type": "uint256"
        },
        {
          "indexed": true,
          "internalType": "address",
          "name": "redeemer",
          "type": "address"
        },
        {
          "indexed": false,
          "internalType": "uint256",
          "name": "collateralAmount",
          "type": "uint256"
        },
        {
          "indexed": false,
          "internalType": "uint256",
          "name": "usdcAmount",
          "type": "uint256"
        }
      ],
      "name": "CollateralTokensRedeemed",
      "type": "event"
    },
    {
      "anonymous": false,
      "inputs": [
        {
          "indexed": true,
          "internalType": "uint256",
          "name": "tradeDealId",
          "type": "uint256"
        },
        {
          "indexed": false,
          "internalType": "uint256",
          "name": "totalInterest",
          "type": "uint256"
        },
        {
          "indexed": false,
          "internalType": "uint256",
          "name": "invoicePoolInterest",
          "type": "uint256"
        },
        {
          "indexed": false,
          "internalType": "uint256",
          "name": "interestInterest",
          "type": "uint256"
        },
        {
          "indexed": false,
          "internalType": "uint256",
          "name": "interestTokensMinted",
          "type": "uint256"
        }
      ],
      "name": "InterestDistributedForTradeDeal",
      "type": "event"
    },
    {
      "anonymous": false,
      "inputs": [
        {
          "indexed": true,
          "internalType": "uint256",
          "name": "tradeDealId",
          "type": "uint256"
        },
        {
          "indexed": true,
          "internalType": "uint256",
          "name": "tokenId",
          "type": "uint256"
        }
      ],
      "name": "InvoiceDepositedToTradeDeal",
      "type": "event"
    },
    {
      "anonymous": false,
      "inputs": [
        {
          "indexed": true,
          "internalType": "uint256",
          "name": "tradeDealId",
          "type": "uint256"
        },
        {
          "indexed": true,
          "internalType": "uint256",
          "name": "tokenId",
          "type": "uint256"
        }
      ],
      "name": "InvoiceWithdrawnFromTradeDeal",
      "type": "event"
    },
    {
      "anonymous": false,
      "inputs": [
        {
          "indexed": true,
          "internalType": "uint256",
          "name": "tradeDealId",
          "type": "uint256"
        }
      ],
      "name": "TradeDealActivated",
      "type": "event"
    },
    {
      "anonymous": false,
      "inputs": [
        {
          "indexed": true,
          "internalType": "uint256",
          "name": "tradeDealId",
          "type": "uint256"
        },
        {
          "indexed": false,
          "internalType": "string",
          "name": "name",
          "type": "string"
        },
        {
          "indexed": false,
          "internalType": "string",
          "name": "symbol",
          "type": "string"
        },
        {
          "indexed": false,
          "internalType": "uint256",
          "name": "interestRate",
          "type": "uint256"
        },
        {
          "indexed": false,
          "internalType": "uint256",
          "name": "collateralToInterestRatio",
          "type": "uint256"
        },
        {
          "indexed": false,
          "internalType": "bool",
          "name": "active",
          "type": "bool"
        },
        {
          "indexed": false,
          "internalType": "address",
          "name": "nftAddress",
          "type": "address"
        },
        {
          "indexed": false,
          "internalType": "address",
          "name": "collateralAddress",
          "type": "address"
        },
        {
          "indexed": false,
          "internalType": "address",
          "name": "interestAddress",
          "type": "address"
        },
        {
          "indexed": false,
          "internalType": "address",
          "name": "usdcAddress",
          "type": "address"
        },
        {
          "indexed": false,
          "internalType": "enum TradeDealLib.OperationMode",
          "name": "operationMode",
          "type": "uint8"
        }
      ],
      "name": "TradeDealCreated",
      "type": "event"
    },
    {
      "anonymous": false,
      "inputs": [
        {
          "indexed": true,
          "internalType": "uint256",
          "name": "tradeDealId",
          "type": "uint256"
        }
      ],
      "name": "TradeDealDeactivated",
      "type": "event"
    },
    {
      "anonymous": false,
      "inputs": [
        {
          "indexed": true,
          "internalType": "uint256",
          "name": "tradeDealId",
          "type": "uint256"
        },
        {
          "indexed": false,
          "internalType": "address[]",
          "name": "feeReceivers",
          "type": "address[]"
        },
        {
          "indexed": false,
          "internalType": "uint256[]",
          "name": "feeAmounts",
          "type": "uint256[]"
        }
      ],
      "name": "TradeDealFeesDistributed",
      "type": "event"
    },
    {
      "anonymous": false,
      "inputs": [
        {
          "indexed": true,
          "internalType": "uint256",
          "name": "tradeDealId",
          "type": "uint256"
        },
        {
          "indexed": false,
          "internalType": "uint256",
          "name": "fundingTarget",
          "type": "uint256"
        }
      ],
      "name": "TradeDealFullyFunded",
      "type": "event"
    },
    {
      "anonymous": false,
      "inputs": [
        {
          "indexed": true,
          "internalType": "uint256",
          "name": "tradeDealId",
          "type": "uint256"
        },
        {
          "indexed": true,
          "internalType": "address",
          "name": "recipient",
          "type": "address"
        },
        {
          "indexed": false,
          "internalType": "uint256",
          "name": "amount",
          "type": "uint256"
        }
      ],
      "name": "TradeDealFundingWithdrawn",
      "type": "event"
    },
    {
      "anonymous": false,
      "inputs": [
        {
          "indexed": true,
          "internalType": "uint256",
          "name": "tradeDealId",
          "type": "uint256"
        },
        {
          "indexed": true,
          "internalType": "address",
          "name": "participant",
          "type": "address"
        }
      ],
      "name": "TradeDealParticipantAdded",
      "type": "event"
    },
    {
      "anonymous": false,
      "inputs": [
        {
          "indexed": true,
          "internalType": "uint256",
          "name": "tradeDealId",
          "type": "uint256"
        },
        {
          "indexed": true,
          "internalType": "address",
          "name": "participant",
          "type": "address"
        }
      ],
      "name": "TradeDealParticipantRemoved",
      "type": "event"
    },
    {
      "anonymous": false,
      "inputs": [
        {
          "indexed": true,
          "internalType": "uint256",
          "name": "tradeDealId",
          "type": "uint256"
        },
        {
          "indexed": true,
          "internalType": "address",
          "name": "repayer",
          "type": "address"
        },
        {
          "indexed": false,
          "internalType": "uint256",
          "name": "amount",
          "type": "uint256"
        },
        {
          "indexed": false,
          "internalType": "bool",
          "name": "fullyRepaid",
          "type": "bool"
        }
      ],
      "name": "TradeDealRepaid",
      "type": "event"
    },
    {
      "anonymous": false,
      "inputs": [
        {
          "indexed": true,
          "internalType": "uint256",
          "name": "tradeDealId",
          "type": "uint256"
        },
        {
          "indexed": false,
          "internalType": "uint256[]",
          "name": "claimTopics",
          "type": "uint256[]"
        }
      ],
      "name": "TradeDealRequiredClaimTopicsSet",
      "type": "event"
    },
    {
      "anonymous": false,
      "inputs": [
        {
          "indexed": true,
          "internalType": "uint256",
          "name": "tradeDealId",
          "type": "uint256"
        },
        {
          "indexed": false,
          "internalType": "string",
          "name": "name",
          "type": "string"
        },
        {
          "indexed": false,
          "internalType": "string",
          "name": "symbol",
          "type": "string"
        },
        {
          "indexed": false,
          "internalType": "uint256",
          "name": "interestRate",
          "type": "uint256"
        },
        {
          "indexed": false,
          "internalType": "uint256",
          "name": "collateralToInterestRatio",
          "type": "uint256"
        },
        {
          "indexed": false,
          "internalType": "bool",
          "name": "active",
          "type": "bool"
        },
        {
          "indexed": false,
          "internalType": "address",
          "name": "collateralAddress",
          "type": "address"
        },
        {
          "indexed": false,
          "internalType": "address",
          "name": "interestAddress",
          "type": "address"
        },
        {
          "indexed": false,
          "internalType": "address",
          "name": "usdcAddress",
          "type": "address"
        }
      ],
      "name": "TradeDealUpdated",
      "type": "event"
    },
    {
      "anonymous": false,
      "inputs": [
        {
          "indexed": true,
          "internalType": "uint256",
          "name": "tradeDealId",
          "type": "uint256"
        },
        {
          "indexed": false,
          "internalType": "uint256",
          "name": "amount",
          "type": "uint256"
        },
        {
          "indexed": false,
          "internalType": "address",
          "name": "depositor",
          "type": "address"
        }
      ],
      "name": "USDCDepositedToTradeDeal",
      "type": "event"
    },
    {
      "anonymous": false,
      "inputs": [
        {
          "indexed": true,
          "internalType": "uint256",
          "name": "tradeDealId",
          "type": "uint256"
        },
        {
          "indexed": false,
          "internalType": "uint256",
          "name": "amount",
          "type": "uint256"
        }
      ],
      "name": "USDCWithdrawnFromTradeDeal",
      "type": "event"
    },
    {
      "inputs": [
        {
          "internalType": "uint256",
          "name": "tradeDealId",
          "type": "uint256"
        }
      ],
      "name": "activateTradeDeal",
      "outputs": [],
      "stateMutability": "nonpayable",
      "type": "function"
    },
    {
      "inputs": [
        {
          "internalType": "uint256",
          "name": "tradeDealId",
          "type": "uint256"
        },
        {
          "internalType": "address",
          "name": "participant",
          "type": "address"
        }
      ],
      "name": "addTradeDealParticipant",
      "outputs": [],
      "stateMutability": "nonpayable",
      "type": "function"
    },
    {
      "inputs": [
        {
          "internalType": "string",
          "name": "name",
          "type": "string"
        },
        {
          "internalType": "string",
          "name": "symbol",
          "type": "string"
        },
        {
          "internalType": "uint256",
          "name": "interestRate",
          "type": "uint256"
        },
        {
          "internalType": "uint256",
          "name": "collateralToInterestRatio",
          "type": "uint256"
        },
        {
          "internalType": "uint256[]",
          "name": "requiredClaimTopics",
          "type": "uint256[]"
        },
        {
          "internalType": "address",
          "name": "collateralAddress",
          "type": "address"
        },
        {
          "internalType": "address",
          "name": "interestAddress",
          "type": "address"
        },
        {
          "internalType": "address",
          "name": "usdcAddress",
          "type": "address"
        },
        {
          "internalType": "enum TradeDealLib.OperationMode",
          "name": "operationMode",
          "type": "uint8"
        }
      ],
      "name": "createTradeDeal",
      "outputs": [
        {
          "internalType": "uint256",
          "name": "",
          "type": "uint256"
        }
      ],
      "stateMutability": "nonpayable",
      "type": "function"
    },
    {
      "inputs": [
        {
          "internalType": "uint256",
          "name": "tradeDealId",
          "type": "uint256"
        }
      ],
      "name": "deactivateTradeDeal",
      "outputs": [],
      "stateMutability": "nonpayable",
      "type": "function"
    },
    {
      "inputs": [],
      "name": "getAllTradeDealIds",
      "outputs": [
        {
          "internalType": "uint256[]",
          "name": "",
          "type": "uint256[]"
        }
      ],
      "stateMutability": "view",
      "type": "function"
    },
    {
      "inputs": [
        {
          "internalType": "uint256",
          "name": "tokenId",
          "type": "uint256"
        }
      ],
      "name": "getNFTInvoiceTotalAmount",
      "outputs": [
        {
          "internalType": "uint256",
          "name": "",
          "type": "uint256"
        }
      ],
      "stateMutability": "view",
      "type": "function"
    },
    {
      "inputs": [
        {
          "internalType": "uint256",
          "name": "tradeDealId",
          "type": "uint256"
        }
      ],
      "name": "getTradeDealFullStatus",
      "outputs": [
        {
          "internalType": "uint256",
          "name": "fundingTarget",
          "type": "uint256"
        },
        {
          "internalType": "uint256",
          "name": "currentBalance",
          "type": "uint256"
        },
        {
          "internalType": "bool",
          "name": "isFunded",
          "type": "bool"
        },
        {
          "internalType": "bool",
          "name": "isFundingWithdrawn",
          "type": "bool"
        },
        {
          "internalType": "uint256",
          "name": "totalDebt",
          "type": "uint256"
        },
        {
          "internalType": "uint256",
          "name": "repaidAmount",
          "type": "uint256"
        },
        {
          "internalType": "bool",
          "name": "isRepaid",
          "type": "bool"
        }
      ],
      "stateMutability": "view",
      "type": "function"
    },
    {
      "inputs": [
        {
          "internalType": "uint256",
          "name": "tradeDealId",
          "type": "uint256"
        }
      ],
      "name": "getTradeDealInfo",
      "outputs": [
        {
          "internalType": "string",
          "name": "name",
          "type": "string"
        },
        {
          "internalType": "string",
          "name": "symbol",
          "type": "string"
        },
        {
          "internalType": "uint256",
          "name": "interestRate",
          "type": "uint256"
        },
        {
          "internalType": "uint256",
          "name": "collateralToInterestRatio",
          "type": "uint256"
        },
        {
          "internalType": "bool",
          "name": "active",
          "type": "bool"
        },
        {
          "internalType": "enum TradeDealLib.OperationMode",
          "name": "operationMode",
          "type": "uint8"
        }
      ],
      "stateMutability": "view",
      "type": "function"
    },
    {
      "inputs": [
        {
          "internalType": "uint256",
          "name": "tradeDealId",
          "type": "uint256"
        }
      ],
      "name": "getTradeDealRequiredClaimTopics",
      "outputs": [
        {
          "internalType": "uint256[]",
          "name": "",
          "type": "uint256[]"
        }
      ],
      "stateMutability": "view",
      "type": "function"
    },
    {
      "inputs": [
        {
          "internalType": "uint256",
          "name": "tradeDealId",
          "type": "uint256"
        }
      ],
      "name": "getTradeDealTokenAddresses",
      "outputs": [
        {
          "internalType": "address",
          "name": "nftAddress",
          "type": "address"
        },
        {
          "internalType": "address",
          "name": "collateralAddress",
          "type": "address"
        },
        {
          "internalType": "address",
          "name": "interestAddress",
          "type": "address"
        },
        {
          "internalType": "address",
          "name": "usdcAddress",
          "type": "address"
        }
      ],
      "stateMutability": "view",
      "type": "function"
    },
    {
      "inputs": [
        {
          "internalType": "uint256",
          "name": "tradeDealId",
          "type": "uint256"
        }
      ],
      "name": "isTradeDealFunded",
      "outputs": [
        {
          "internalType": "bool",
          "name": "",
          "type": "bool"
        }
      ],
      "stateMutability": "view",
      "type": "function"
    },
    {
      "inputs": [
        {
          "internalType": "uint256",
          "name": "tradeDealId",
          "type": "uint256"
        },
        {
          "internalType": "address",
          "name": "user",
          "type": "address"
        }
      ],
      "name": "isTradeDealParticipant",
      "outputs": [
        {
          "internalType": "bool",
          "name": "",
          "type": "bool"
        }
      ],
      "stateMutability": "view",
      "type": "function"
    },
    {
      "inputs": [
        {
          "internalType": "uint256",
          "name": "tradeDealId",
          "type": "uint256"
        }
      ],
      "name": "isTradeDealRepaid",
      "outputs": [
        {
          "internalType": "bool",
          "name": "",
          "type": "bool"
        }
      ],
      "stateMutability": "view",
      "type": "function"
    },
    {
      "inputs": [
        {
          "internalType": "uint256",
          "name": "tradeDealId",
          "type": "uint256"
        },
        {
          "internalType": "uint256",
          "name": "collateralAmount",
          "type": "uint256"
        }
      ],
      "name": "redeemCollateralTokens",
      "outputs": [],
      "stateMutability": "nonpayable",
      "type": "function"
    },
    {
      "inputs": [
        {
          "internalType": "uint256",
          "name": "tradeDealId",
          "type": "uint256"
        },
        {
          "internalType": "address",
          "name": "participant",
          "type": "address"
        }
      ],
      "name": "removeTradeDealParticipant",
      "outputs": [],
      "stateMutability": "nonpayable",
      "type": "function"
    },
    {
      "inputs": [
        {
          "internalType": "uint256",
          "name": "tradeDealId",
          "type": "uint256"
        },
        {
          "internalType": "uint256",
          "name": "amount",
          "type": "uint256"
        }
      ],
      "name": "repayTradeDeal",
      "outputs": [],
      "stateMutability": "nonpayable",
      "type": "function"
    },
    {
      "inputs": [
        {
          "internalType": "uint256",
          "name": "tradeDealId",
          "type": "uint256"
        },
        {
          "internalType": "address",
          "name": "borrower",
          "type": "address"
        },
        {
          "internalType": "uint256",
          "name": "amount",
          "type": "uint256"
        }
      ],
      "name": "repayTradeDealForBorrower",
      "outputs": [],
      "stateMutability": "nonpayable",
      "type": "function"
    },
    {
      "inputs": [
        {
          "internalType": "uint256",
          "name": "",
          "type": "uint256"
        },
        {
          "internalType": "address",
          "name": "",
          "type": "address"
        }
      ],
      "name": "setTradeDealNFTAddress",
      "outputs": [],
      "stateMutability": "nonpayable",
      "type": "function"
    },
    {
      "inputs": [
        {
          "internalType": "uint256",
          "name": "tradeDealId",
          "type": "uint256"
        },
        {
          "internalType": "uint256[]",
          "name": "claimTopics",
          "type": "uint256[]"
        }
      ],
      "name": "setTradeDealRequiredClaimTopics",
      "outputs": [],
      "stateMutability": "nonpayable",
      "type": "function"
    },
    {
      "inputs": [
        {
          "internalType": "uint256",
          "name": "tradeDealId",
          "type": "uint256"
        },
        {
          "internalType": "address",
          "name": "",
          "type": "address"
        },
        {
          "internalType": "address",
          "name": "collateralAddress",
          "type": "address"
        },
        {
          "internalType": "address",
          "name": "interestAddress",
          "type": "address"
        },
        {
          "internalType": "address",
          "name": "usdcAddress",
          "type": "address"
        }
      ],
      "name": "setTradeDealTokenAddresses",
      "outputs": [],
      "stateMutability": "nonpayable",
      "type": "function"
    },
    {
      "inputs": [
        {
          "internalType": "uint256",
          "name": "tradeDealId",
          "type": "uint256"
        },
        {
          "internalType": "uint256",
          "name": "tokenId",
          "type": "uint256"
        }
      ],
      "name": "tdDepositInvoice",
      "outputs": [],
      "stateMutability": "nonpayable",
      "type": "function"
    },
    {
      "inputs": [
        {
          "internalType": "uint256",
          "name": "tradeDealId",
          "type": "uint256"
        },
        {
          "internalType": "uint256",
          "name": "amount",
          "type": "uint256"
        }
      ],
      "name": "tdDepositUSDC",
      "outputs": [],
      "stateMutability": "nonpayable",
      "type": "function"
    },
    {
      "inputs": [
        {
          "internalType": "uint256",
          "name": "tradeDealId",
          "type": "uint256"
        }
      ],
      "name": "tdDistributeInterest",
      "outputs": [],
      "stateMutability": "nonpayable",
      "type": "function"
    },
    {
      "inputs": [
        {
          "internalType": "uint256",
          "name": "tradeDealId",
          "type": "uint256"
        },
        {
          "internalType": "uint256",
          "name": "tokenId",
          "type": "uint256"
        }
      ],
      "name": "tdWithdrawInvoice",
      "outputs": [],
      "stateMutability": "nonpayable",
      "type": "function"
    },
    {
      "inputs": [
        {
          "internalType": "uint256",
          "name": "tradeDealId",
          "type": "uint256"
        },
        {
          "internalType": "uint256",
          "name": "amount",
          "type": "uint256"
        }
      ],
      "name": "tdWithdrawUSDC",
      "outputs": [],
      "stateMutability": "nonpayable",
      "type": "function"
    },
    {
      "inputs": [
        {
          "internalType": "uint256",
          "name": "tradeDealId",
          "type": "uint256"
        },
        {
          "internalType": "string",
          "name": "name",
          "type": "string"
        },
        {
          "internalType": "string",
          "name": "symbol",
          "type": "string"
        },
        {
          "internalType": "uint256",
          "name": "interestRate",
          "type": "uint256"
        },
        {
          "internalType": "uint256",
          "name": "collateralToInterestRatio",
          "type": "uint256"
        },
        {
          "internalType": "address",
          "name": "collateralAddress",
          "type": "address"
        },
        {
          "internalType": "address",
          "name": "interestAddress",
          "type": "address"
        },
        {
          "internalType": "address",
          "name": "usdcAddress",
          "type": "address"
        }
      ],
      "name": "updateTradeDeal",
      "outputs": [],
      "stateMutability": "nonpayable",
      "type": "function"
    },
    {
      "inputs": [
        {
          "internalType": "uint256",
          "name": "tradeDealId",
          "type": "uint256"
        },
        {
          "internalType": "address",
          "name": "borrowerAddress",
          "type": "address"
        }
      ],
      "name": "withdrawTradeDealFundingForBorrower",
      "outputs": [],
      "stateMutability": "nonpayable",
      "type": "function"
    },
    {
      "inputs": [
        {
          "internalType": "uint256",
          "name": "tradeDealId",
          "type": "uint256"
        }
      ],
      "name": "withdrawTradeDealFundingSelf",
      "outputs": [],
      "stateMutability": "nonpayable",
      "type": "function"
    }
  ],
  "transactionHash": "0x1c98feb00817d22cb12ff3839d5bfb20d07cd8da51e96d3dbaa85e8853162a86",
  "args": [],
  "numDeployments": 1,
  "solcInputHash": "e39248fcba6c46a8a0b49ab62402d196",
  "bytecode": "0x6080604052348015600f57600080fd5b50615e6c8061001f6000396000f3fe608060405234801561001057600080fd5b50600436106101545760003560e01c806313d6b5f6146101595780631504e3e1146101a45780631718d7af146101b957806340de79da146101dc5780634b0b57f6146101fd5780634c9f67dc146102105780634db2bd33146102235780635a6e71c31461023657806370ad7833146102495780637949ba001461025c5780637ba142591461026f5780637d1f54b8146102825780637d2549151461029557806382870b63146102a8578063837e3d02146102bb5780638dcb9331146102ce5780639362285a146102e157806397f29d09146103315780639ee0770814610344578063b68f012514610359578063c415fc471461036c578063d2a6f69c1461037f578063d332343a14610392578063d57106e9146103a5578063e246a8ce146103b8578063e3f7cc92146103cb578063e6ad4611146103f0578063e71accc814610403575b600080fd5b61016c610167366004614e5b565b610416565b604080516001600160a01b03958616815293851660208501529184169183019190915290911660608201526080015b60405180910390f35b6101b76101b2366004614e5b565b61044a565b005b6101cc6101c7366004614e99565b6104ca565b604051901515815260200161019b565b6101ef6101ea36600461501d565b6104df565b60405190815260200161019b565b6101b761020b366004615105565b6109af565b6101b761021e366004615105565b610a3d565b6101ef610231366004614e5b565b610ae5565b6101b7610244366004614e99565b610af0565b6101b7610257366004615127565b610b2d565b6101b761026a3660046151e5565b610bda565b6101b761027d366004615105565b610df9565b6101b761029036600461524d565b61101a565b6101b76102a3366004614e5b565b611087565b6101b76102b6366004615293565b611139565b6101b76102c9366004615105565b611219565b6101cc6102dc366004614e5b565b61132c565b6102f46102ef366004614e5b565b611337565b604080519788526020880196909652931515948601949094529015156060850152608084015260a0830191909152151560c082015260e00161019b565b6101cc61033f366004614e5b565b6113f1565b61034c6113fc565b60405161019b91906152cb565b61034c610367366004614e5b565b61140b565b6101b761037a366004614e5b565b611416565b6101b761038d366004615105565b611534565b6101b76103a0366004614e99565b6115c3565b6101b76103b3366004614e99565b61164c565b6101b76103c6366004615105565b611732565b6103de6103d9366004614e5b565b611858565b60405161019b96959493929190615396565b6101b76103fe366004614e5b565b6118a1565b6101b7610411366004614e99565b611918565b6000806000806000610427866119a1565b60e081015161010082015161012090920151309991985091965090945092505050565b33610453611c15565b6001600160a01b0316148061046757503033145b61048c5760405162461bcd60e51b8152600401610483906153df565b60405180910390fd5b600061049782611c43565b8051604051919250907fbf2b21995a82cd2a31b4577ee5317f810aeeedf94f54f11104d5e8abc79f3f3b90600090a25050565b60006104d68383611caf565b90505b92915050565b6000336104ea611c15565b6001600160a01b031614806104fe57503033145b61051a5760405162461bcd60e51b8152600401610483906153df565b60008a51116105835760405162461bcd60e51b815260206004820152602f60248201527f54524144455f4445414c3a20494e56414c49445f4e414d45202d204e616d652060448201526e63616e6e6f7420626520656d70747960881b6064820152608401610483565b60008951116105f05760405162461bcd60e51b815260206004820152603360248201527f54524144455f4445414c3a20494e56414c49445f53594d424f4c202d2053796d604482015272626f6c2063616e6e6f7420626520656d70747960681b6064820152608401610483565b61271088111561068d5760405162461bcd60e51b815260206004820152605c60248201527f54524144455f4445414c3a20494e56414c49445f494e5445524553545f52415460448201527f45202d204d757374206265206265747765656e203120616e642031303030302060648201527b626173697320706f696e74732028302e30312520746f20313030252960201b608482015260a401610483565b6000871161071a5760405162461bcd60e51b815260206004820152604e60248201527f54524144455f4445414c3a20494e56414c49445f524154494f202d20436f6c6c60448201527f61746572616c20746f205641424920726174696f206d7573742062652067726560648201526d61746572207468616e207a65726f60901b608482015260a401610483565b6001600160a01b038416156107b757846001600160a01b0316846001600160a01b0316036107b75760405162461bcd60e51b81526020600482015260506024820152600080516020615e1783398151915260448201527f5641424920616e6420436f6c6c61746572616c2061646472657373657320636160648201526f6e6e6f74206265207468652073616d6560801b608482015260a401610483565b6001600160a01b0383161561087857846001600160a01b0316836001600160a01b0316141580156107fa5750836001600160a01b0316836001600160a01b031614155b6108785760405162461bcd60e51b81526020600482015260556024820152600080516020615e1783398151915260448201527f5553444320616464726573732063616e6e6f74206265207468652073616d6520606482015274617320436f6c6c61746572616c206f72205641424960581b608482015260a401610483565b60006040518061012001604052808c81526020018b81526020018a8152602001898152602001888152602001876001600160a01b03168152602001866001600160a01b03168152602001856001600160a01b031681526020018460038111156108e3576108e361535e565b9052905060006108f282611e32565b805160208201516040808401516060850151608086015160a087015160c088015160e08901516101008a01516101208b01516101808c015198519b9c50999a7f25516bca2df592248be22ee4cd6e0e1f22356994f4a2c321961142ffb96f8b359a61095f9a999091615416565b60405180910390a28061014001511561099f578051610160820151604051600080516020615db783398151915291610996916152cb565b60405180910390a25b519b9a5050505050505050505050565b336109b8611c15565b6001600160a01b031614806109cc57503033145b6109e85760405162461bcd60e51b8152600401610483906153df565b60006109f4838361212a565b905080600001517fa539a9eb6d64ed99d8198bd12034f5b51a1e0a78e730858ba9b30c253c6e966f8260200151604051610a3091815260200190565b60405180910390a2505050565b6000610a4983836122ad565b905080600001517fc1b8947c6758630f23bff8bd2780c81fe365b6cdf5372314590ea21245fb8083826020015133604051610a979291909182526001600160a01b0316602082015260400190565b60405180910390a2806040015115610ae057805160608201516040519081527f61e4e7bdd5b89b0b3b83a8990dae7d759e603f368d2d86454c8f31136a075f3690602001610a30565b505050565b60006104d9826125e8565b33610af9611c15565b6001600160a01b03161480610b0d57503033145b610b295760405162461bcd60e51b8152600401610483906153df565b5050565b33610b36611c15565b6001600160a01b03161480610b4a57503033145b610b665760405162461bcd60e51b8152600401610483906153df565b6000610b788989898989898989612776565b805160208201516040808401516060850151608086015160a087015160c088015160e08901516101008a01519651999a509798600080516020615df783398151915298610bc79897909161549c565b60405180910390a2505050505050505050565b33610be3611c15565b6001600160a01b03161480610bf757503033145b610c135760405162461bcd60e51b8152600401610483906153df565b6000610c1d61288f565b905060298101610c2c876128b3565b610c485760405162461bcd60e51b815260040161048390615501565b6001600160a01b038516610ca85760405162461bcd60e51b815260206004820152602160248201527f436f6c6c61746572616c20616464726573732063616e6e6f74206265207a65726044820152606f60f81b6064820152608401610483565b6001600160a01b038416610cfc5760405162461bcd60e51b815260206004820152601b60248201527a5641424920616464726573732063616e6e6f74206265207a65726f60281b6044820152606401610483565b6001600160a01b038316610d505760405162461bcd60e51b815260206004820152601b60248201527a5553444320616464726573732063616e6e6f74206265207a65726f60281b6044820152606401610483565b600087815260208290526040908190206007810180546001600160a01b03808a166001600160a01b03199283161790925560088301805489841690831617905560098301805492881692909116919091179055600381015460048201546005830154935192938b93600080516020615df783398151915293610de7936001880193600289019360ff909116908e908e908e906155f1565b60405180910390a25050505050505050565b60008111610e805760405162461bcd60e51b815260206004820152604860248201527f54524144455f4445414c3a20494e56414c49445f414d4f554e54202d20436f6c60448201527f6c61746572616c20616d6f756e74206d7573742062652067726561746572207460648201526768616e207a65726f60c01b608482015260a401610483565b610e89826128b3565b610ea55760405162461bcd60e51b815260040161048390615618565b610eae826128ee565b610f1b5760405162461bcd60e51b815260206004820152603860248201527f54524144455f4445414c3a204e4f545f524550414944202d205472616465206460448201527719585b081b5d5cdd08189948199d5b1b1e481c995c185a5960421b6064820152608401610483565b610f258233611caf565b80610f365750610f36823383612966565b610faa576040805162461bcd60e51b81526020600482015260248101919091527f54524144455f4445414c3a20554e415554484f52495a4544202d204e6f74206160448201527f7574686f72697a656420746f2072656465656d20746865736520746f6b656e736064820152608401610483565b6000610fb68383612a4c565b905080602001516001600160a01b031681600001517f3d96303bbf0be9d609d234671a9e1fc38988fa1c4d413de9eca4accd6eb05cb58360400151846060015160405161100d929190918252602082015260400190565b60405180910390a3505050565b33611023611c15565b6001600160a01b0316148061103757503033145b6110535760405162461bcd60e51b8152600401610483906153df565b600061105f8383612f00565b90508060000151600080516020615db78339815191528260200151604051610a3091906152cb565b33611090611c15565b6001600160a01b031614806110a457503033145b6110c05760405162461bcd60e51b8152600401610483906153df565b60006110cb82613029565b905080600001517f4ddc37c9b2de1d019f8484c159dcde5663dbe44fecc540fad47b4a608e8e70f2826020015183604001518460600151856080015160405161112d949392919093845260208401929092526040830152606082015260800190565b60405180910390a25050565b33611142611c15565b6001600160a01b0316148061115657503033145b6111725760405162461bcd60e51b8152600401610483906153df565b600081116111925760405162461bcd60e51b81526004016104839061566b565b61119b836128b3565b6111b75760405162461bcd60e51b815260040161048390615618565b60006111c4848484613102565b905080602001516001600160a01b03168160000151600080516020615dd78339815191528360400151846060015160405161120b9291909182521515602082015260400190565b60405180910390a350505050565b6112238233611caf565b806112465750611231611c15565b6001600160a01b0316336001600160a01b0316145b6112625760405162461bcd60e51b8152600401610483906156d8565b600061126d826125e8565b9050600081116112e55760405162461bcd60e51b815260206004820152603f60248201527f54524144455f4445414c3a20494e56414c49445f4e4654202d20496e766f696360448201527f65204e4654206d757374206861766520746f74616c416d6f756e7420736574006064820152608401610483565b60006112f184846132fc565b6020810151815160405192935090917f0b66693e511e1dc453c70056959759d92966a30195684323c1a530209e3e323090600090a350505050565b60006104d98261347e565b60008060008060008060008061134b61288f565b90506029810161135a8a6128b3565b6113765760405162461bcd60e51b815260040161048390615501565b60008a8152600982016020908152604080832054600485019092529091205490995097506113a38a61347e565b60008b8152600a83016020908152604080832054600c8601835281842054600b870190935292205492995060ff9091169750955093506113e28a6128ee565b92505050919395979092949650565b60006104d9826128ee565b60606114066134f6565b905090565b60606104d982613561565b61141f816128b3565b61143b5760405162461bcd60e51b815260040161048390615618565b6000611446826119a1565b9050600181610140015160038111156114615761146161535e565b146114de5760405162461bcd60e51b815260206004820152604160248201527f54524144455f4445414c3a20494e56414c49445f4d4f4445202d20547261646560448201527f206465616c206973206e6f7420696e2073656c662d73657276696365206d6f646064820152606560f81b608482015260a401610483565b60006114ea83336135fc565b905080602001516001600160a01b031681600001517f92fd71072fa44ba11968090604eaea2a1d7665490983ea784ab89233ec8f58c6836040015160405161100d91815260200190565b61153e8233611caf565b80611561575061154c611c15565b6001600160a01b0316336001600160a01b0316145b61157d5760405162461bcd60e51b8152600401610483906156d8565b60006115898383613a07565b6020810151815160405192935090917fa92b2c8f01281ad4d8e4dff3f27cbe455644c050115ef8a0521ed35ab210b3bd90600090a3505050565b336115cc611c15565b6001600160a01b031614806115e057503033145b6115fc5760405162461bcd60e51b8152600401610483906153df565b60006116088383613e0b565b602081015181516040519293506001600160a01b03909116917f5041827bd1a63edf87c8312a18921fd74511667957087b4a3178d604399686c990600090a3505050565b33611655611c15565b6001600160a01b0316148061166957503033145b6116855760405162461bcd60e51b8152600401610483906153df565b61168e826128b3565b6116aa5760405162461bcd60e51b815260040161048390615618565b6001600160a01b0381166117265760405162461bcd60e51b815260206004820152603e60248201527f54524144455f4445414c3a20494e56414c49445f424f52524f574552202d204260448201527f6f72726f77657220616464726573732063616e6e6f74206265207a65726f00006064820152608401610483565b60006114ea8383613e96565b600081116117525760405162461bcd60e51b81526004016104839061566b565b61175b826128b3565b6117775760405162461bcd60e51b815260040161048390615618565b6117818233611caf565b6118055760405162461bcd60e51b815260206004820152604960248201527f54524144455f4445414c3a20554e415554484f52495a4544202d2043616c6c6560448201527f72206973206e6f742061207061727469636970616e7420696e207468697320746064820152681c985919481919585b60ba1b608482015260a401610483565b6000611811838361417b565b905080602001516001600160a01b03168160000151600080516020615dd78339815191528360400151846060015160405161100d9291909182521515602082015260400190565b606080600080600080600061186c886119a1565b602081015160408201516060830151608084015160a085015161014090950151939d929c50909a509850919650945092505050565b336118aa611c15565b6001600160a01b031614806118be57503033145b6118da5760405162461bcd60e51b8152600401610483906153df565b60006118e58261436d565b8051604051919250907f18a646ad5e9e25d43bd35451aefc591a1c2ec6fc53626bc814c3e5561da5f57b90600090a25050565b33611921611c15565b6001600160a01b0316148061193557503033145b6119515760405162461bcd60e51b8152600401610483906153df565b600061195d83836143cb565b602081015181516040519293506001600160a01b03909116917fb67f899af36796c45ae07e9f4288797fe176233ac46a04a15bf0715aec053e0b90600090a3505050565b6119a9614b51565b60006119b361288f565b9050602981016119c2846128b3565b6119de5760405162461bcd60e51b815260040161048390615501565b6000848152602082815260409182902082516101608101909352805483526001810180549192840191611a1090615534565b80601f0160208091040260200160405190810160405280929190818152602001828054611a3c90615534565b8015611a895780601f10611a5e57610100808354040283529160200191611a89565b820191906000526020600020905b815481529060010190602001808311611a6c57829003601f168201915b50505050508152602001600282018054611aa290615534565b80601f0160208091040260200160405190810160405280929190818152602001828054611ace90615534565b8015611b1b5780601f10611af057610100808354040283529160200191611b1b565b820191906000526020600020905b815481529060010190602001808311611afe57829003601f168201915b5050505050815260200160038201548152602001600482015481526020016005820160009054906101000a900460ff1615151515815260200160068201805480602002602001604051908101604052809291908181526020018280548015611ba257602002820191906000526020600020905b815481526020019060010190808311611b8e575b505050918352505060078201546001600160a01b03908116602083015260088301548116604083015260098301549081166060830152608090910190600160a01b900460ff166003811115611bf957611bf961535e565b6003811115611c0a57611c0a61535e565b905250949350505050565b7fc8fcad8db84d3cc18b4c41d551ea0ee66dd599cde068d998e57d5e09332c1320546001600160a01b031690565b611c4b614bd8565b6000611c5561288f565b905060298101611c64846128b3565b611c805760405162461bcd60e51b815260040161048390615501565b6000848152602082905260409020600501805460ff19166001179055611ca4614bd8565b938452509192915050565b600080611cba61288f565b905060298101611cc9856128b3565b611ce55760405162461bcd60e51b815260040161048390615501565b600085815260058201602090815260408083206001600160a01b038816845290915290205460ff1615611d1d576001925050506104d9565b60008581526006820160205260408120549003611d3f576000925050506104d9565b6001600160a01b0380851660009081526013840160205260409020541680611d6d57600093505050506104d9565b6001600160a01b038116600090815260178401602090815260408083208984526006860190925282205490915b81811015611e235760008981526006860160205260408120805483908110611dc457611dc461571c565b9060005260206000200154905060005b8454811015611e195781858281548110611df057611df061571c565b906000526020600020015403611e11576001985050505050505050506104d9565b600101611dd4565b5050600101611d9a565b50600098975050505050505050565b611e3a614beb565b6000611e4461288f565b602b81018054919250602983019160009182611e5f83615748565b9091555060008181526020849052604090208181558651919250906001820190611e8990826157af565b5060208601516002820190611e9e90826157af565b50604086015160038201556060860151600482015560058101805460ff1916600117905560a08601516001600160a01b038116611ee657611ee383886020015161443c565b90505b6007820180546001600160a01b038084166001600160a01b03199283161790925560c089015160088501805491841691831691909117905560e089015160098501805491909316918116821783556101008a015192916001600160a81b031990911617600160a01b836003811115611f6057611f6061535e565b02179055506080870151511580159061200e5760808801515160005b8181101561200b57846006018a608001518281518110611f9e57611f9e61571c565b6020908102919091018101518254600181018455600093845282842001558782526006890190526040902060808b0151805183908110611fe057611fe061571c565b6020908102919091018101518254600181810185556000948552929093209092019190915501611f7c565b50505b60008481526009860160209081526040808320839055600b88018252808320839055600c88018252808320839055600a880182528220805460ff191690556001808801805491820181558352912001849055612068614beb565b8481528851602080830191909152890151604080830191909152890151606080830191909152890151608080830191909152600160a0830152600060c0808401919091526001600160a01b0385811660e080860191909152918c0151811661010080860191909152918c015116610120840152831515610140840152908a015161016083015289015161018082019060038111156121085761210861535e565b9081600381111561211b5761211b61535e565b90525098975050505050505050565b612132614c86565b600061213c61288f565b90506029810161214b856128b3565b6121675760405162461bcd60e51b815260040161048390615501565b60008581526004820160205260409020548411156121975760405162461bcd60e51b81526004016104839061586d565b600085815260208290526040902060098101546001600160a01b03166121cf5760405162461bcd60e51b8152600401610483906158b4565b600981015460405163a9059cbb60e01b81526001600160a01b039091169063a9059cbb9061220390339089906004016158eb565b6020604051808303816000875af1158015612222573d6000803e3d6000fd5b505050506040513d601f19601f820116820180604052508101906122469190615904565b6122625760405162461bcd60e51b815260040161048390615926565b600086815260048301602052604081208054879290612282908490615954565b909155506122909050614c86565b958652505050506020820152600060408201819052606082015290565b6122b5614c86565b60006122bf61288f565b9050602981016122ce856128b3565b6122ea5760405162461bcd60e51b815260040161048390615501565b60008581526020829052604090206005015460ff1661231b5760405162461bcd60e51b815260040161048390615967565b6000858152600a8201602052604090205460ff161561234c5760405162461bcd60e51b815260040161048390615999565b600085815260208290526040902060098101546001600160a01b03166123845760405162461bcd60e51b8152600401610483906158b4565b6000868152600983016020908152604080832054600486019092529091205481156124275760008183116123b95760006123c3565b6123c38284615954565b9050808811156124255760405162461bcd60e51b815260206004820152602760248201527f416d6f756e7420657863656564732072656d61696e696e672066756e64696e67604482015266081b995959195960ca1b6064820152608401610483565b505b60098301543390612443906001600160a01b031682308b614721565b6000898152600486016020526040812080548a92906124639084906159cc565b9091555061247390508982611caf565b612483576124818982613e0b565b505b60078401546001600160a01b03161561254657600784015460058501805460ff1981166001179091556001600160a01b039091169060ff1660006124cc8b64e8d4a510006159df565b6040516340c10f1960e01b81529091506001600160a01b038416906340c10f19906124fd90879085906004016158eb565b600060405180830381600087803b15801561251757600080fd5b505af115801561252b573d6000803e3d6000fd5b5050505060058701805460ff19169215159290921790915550505b60008311801561255f57508261255c89846159cc565b10155b156125a257600061271085600301548561257991906159df565b61258391906159f6565b905061258f81856159cc565b60008b8152600c88016020526040902055505b6125aa614c86565b8981526020810189905283158015906125cc5750836125c98a856159cc565b10155b1515604082015260608101939093525090979650505050505050565b6040516331a9108f60e11b81526004810182905260009081903090636352211e90602401602060405180830381865afa158015612629573d6000803e3d6000fd5b505050506040513d601f19601f8201168201806040525081019061264d9190615a18565b6001600160a01b03160361269a5760405162461bcd60e51b8152602060048201526014602482015273151bdad95b88191bd95cc81b9bdd08195e1a5cdd60621b6044820152606401610483565b60408051808201909152600b81526a1d1bdd185b105b5bdd5b9d60aa1b60208201527f264f51f07aa3d51ea784d74d6ff6227c6463cf789f1512b893918a8860f146e49081906000906126f09083908790614781565b6040810151519091501561271757600061270d826040015161498c565b9695505050505050565b6000612742838760405180604001604052806006815260200165185b5bdd5b9d60d21b815250614781565b6040810151519091501561276a57600061275f826040015161498c565b979650505050505050565b50600095945050505050565b61277e614cb0565b600061278861288f565b9050602981016127978b6128b3565b6127b35760405162461bcd60e51b815260040161048390615501565b60008b8152602082905260409020600181016127cf8c826157af565b50600281016127de8b826157af565b5060038101899055600481018890556007810180546001600160a01b03808a166001600160a01b03199283161790925560088301805489841690831617905560098301805492881692909116919091179055612838614cb0565b9b8c5260208c019a909a5250505060408801959095526060870193909352608086019190915260059093015460ff16151560a08501526001600160a01b0392831660c0850152821660e08401521661010082015290565b7fbd516eb36b5d4489adb2e717e7d0ce56c1b814eda85e78ad9d8f240b24dd830d90565b6000806128be61288f565b602b8101549091506029820190841080156128e6575060008481526020829052604090205484145b949350505050565b6000806128f961288f565b905060298101612908846128b3565b6129245760405162461bcd60e51b815260040161048390615501565b6000848152600c820160205260408120549081900361294857506000949350505050565b6000948552600b909101602052604090932054929092101592915050565b60008061297161288f565b905060298101612980866128b3565b61299c5760405162461bcd60e51b815260040161048390615501565b600086815260208290526040902060078101546001600160a01b0316806129ca576000945050505050612a45565b6040516370a0823160e01b81526000906001600160a01b038316906370a08231906129f9908b90600401615a35565b602060405180830381865afa158015612a16573d6000803e3d6000fd5b505050506040513d601f19601f82011682018060405250810190612a3a9190615a49565b871115955050505050505b9392505050565b612a54614d19565b6000612a5e61288f565b905060298101612a6d856128b3565b612a895760405162461bcd60e51b815260040161048390615501565b612a92856128ee565b612adc5760405162461bcd60e51b815260206004820152601b60248201527a151c985919481919585b081b9bdd08199d5b1b1e481c995c185a59602a1b6044820152606401610483565b6000858152602082905260409020600781015460098201546001600160a01b03918216911681612b4e5760405162461bcd60e51b815260206004820181905260248201527f436f6c6c61746572616c20746f6b656e2061646472657373206e6f74207365746044820152606401610483565b6001600160a01b038116612ba15760405162461bcd60e51b815260206004820152601a6024820152791554d110c81d1bdad95b881859191c995cdcc81b9bdd081cd95d60321b6044820152606401610483565b6040516370a0823160e01b81526000906001600160a01b038416906370a0823190612bd0903390600401615a35565b602060405180830381865afa158015612bed573d6000803e3d6000fd5b505050506040513d601f19601f82011682018060405250810190612c119190615a49565b905087811015612c635760405162461bcd60e51b815260206004820152601f60248201527f496e73756666696369656e7420436f6c6c61746572616c2062616c616e6365006044820152606401610483565b6000836001600160a01b03166318160ddd6040518163ffffffff1660e01b8152600401602060405180830381865afa158015612ca3573d6000803e3d6000fd5b505050506040513d601f19601f82011682018060405250810190612cc79190615a49565b905060008111612d255760405162461bcd60e51b815260206004820152602360248201527f4e6f20436f6c6c61746572616c20746f6b656e7320696e2063697263756c617460448201526234b7b760e91b6064820152608401610483565b60008a81526004870160205260408120549082612d428c846159df565b612d4c91906159f6565b905060008111612d9e5760405162461bcd60e51b815260206004820152601e60248201527f43616c63756c61746564205553444320616d6f756e74206973207a65726f00006044820152606401610483565b80821015612dbe5760405162461bcd60e51b81526004016104839061586d565b604051632770a7eb60e21b81526001600160a01b03871690639dc29fac90612dec9033908f906004016158eb565b600060405180830381600087803b158015612e0657600080fd5b505af1158015612e1a573d6000803e3d6000fd5b505060405163a9059cbb60e01b81526001600160a01b038816925063a9059cbb9150612e4c90339085906004016158eb565b6020604051808303816000875af1158015612e6b573d6000803e3d6000fd5b505050506040513d601f19601f82011682018060405250810190612e8f9190615904565b612eab5760405162461bcd60e51b815260040161048390615926565b60008c815260048901602052604081208054839290612ecb908490615954565b90915550612ed99050614d19565b9b8c523360208d015260408c019a909a525050505060608701959095525093949350505050565b612f08614d4a565b6000612f1261288f565b905060298101612f21856128b3565b612f3d5760405162461bcd60e51b815260040161048390615501565b60008581526006820160205260408120612f5691614d64565b6000858152602082905260408120612f7391600690910190614d64565b835160005b8181101561301157600087815260068401602052604090208651879083908110612fa457612fa461571c565b602090810291909101810151825460018101845560009384528284200155888252849052604090208651600690910190879083908110612fe657612fe661571c565b6020908102919091018101518254600181810185556000948552929093209092019190915501612f78565b5061301a614d4a565b95865250505050602082015290565b613031614d85565b600061303b61288f565b90506029810161304a846128b3565b6130665760405162461bcd60e51b815260040161048390615501565b60008481526020829052604090206005015460ff166130975760405162461bcd60e51b815260040161048390615967565b60008481526020828152604080832060048501909252822054600382015491929091612710906130c790846159df565b6130d191906159f6565b90506130db614d85565b96875260208701819052604087015250506000606085018190526080850152509192915050565b61310a614db4565b600061311461288f565b905060298101613123866128b3565b61313f5760405162461bcd60e51b815260040161048390615501565b60008681526020829052604090206005015460ff166131705760405162461bcd60e51b815260040161048390615967565b6000868152600a8201602052604090205460ff166131a05760405162461bcd60e51b815260040161048390615a62565b6000868152600c82016020908152604080832054600b850190925282205490918183116131ce5760006131d8565b6131d88284615954565b9050600081116131fa5760405162461bcd60e51b815260040161048390615a95565b8087111561321a5760405162461bcd60e51b815260040161048390615ac9565b600089815260208590526040902060098101546001600160a01b0316806132535760405162461bcd60e51b8152600401610483906158b4565b6132686001600160a01b03821633308c614721565b60008b8152600b87016020526040812080548b92906132889084906159cc565b909155505060008b8152600487016020526040812080548b92906132ad9084906159cc565b909155505060008b8152600b870160205260409020548511156132ce614db4565b9b8c526001600160a01b039a909a1660208c0152505050506040870194909452505050501515606082015290565b613304614de7565b600061330e61288f565b90506029810161331d856128b3565b6133395760405162461bcd60e51b815260040161048390615501565b60008581526020829052604090206005015460ff1661336a5760405162461bcd60e51b815260040161048390615967565b604080516020810182526000815290516326aac97560e11b81523090634d5592ea906133a090339084908a908790600401615b00565b6020604051808303816000875af11580156133bf573d6000803e3d6000fd5b505050506040513d601f19601f820116820180604052508101906133e39190615904565b5060008681526003830160209081526040808320805460018101825590845282842001889055888352600d85018252808320888452909152812080546001600160a01b03191633179055613436866125e8565b905080836009016000898152602001908152602001600020600082825461345d91906159cc565b9091555061346b9050614de7565b9687525050505060208301919091525090565b60008061348961288f565b905060298101613498846128b3565b6134b45760405162461bcd60e51b815260040161048390615501565b6000848152600982016020526040812054908190036134d857506000949350505050565b60009485526004909101602052604090932054929092101592915050565b6060600061350261288f565b602a8101805460408051602080840282018101909252828152939450602985019392919083018282801561355557602002820191906000526020600020905b815481526020019060010190808311613541575b50505050509250505090565b6060600061356d61288f565b90506029810161357c846128b3565b6135985760405162461bcd60e51b815260040161048390615501565b6000848152600682016020908152604091829020805483518184028101840190945280845290918301828280156135ee57602002820191906000526020600020905b8154815260200190600101908083116135da575b505050505092505050919050565b613604614e01565b600061360e61288f565b90506029810161361d856128b3565b6136395760405162461bcd60e51b815260040161048390615501565b6000858152602082905260409020600581015460ff1661366b5760405162461bcd60e51b815260040161048390615967565b60016009820154600160a01b900460ff16600381111561368d5761368d61535e565b146136e95760405162461bcd60e51b815260206004820152602660248201527f5472616465206465616c206973206e6f7420696e2073656c662d73657276696360448201526565206d6f646560d01b6064820152608401610483565b6136f28661347e565b61370e5760405162461bcd60e51b815260040161048390615b33565b6000868152600a8301602052604090205460ff161561373f5760405162461bcd60e51b815260040161048390615999565b6137498686611caf565b6137655760405162461bcd60e51b8152600401610483906156d8565b61377186866003614a08565b6137cf5760405162461bcd60e51b815260206004820152602960248201527f4d757374206861766520626f72726f77657220726f6c6520746f2077697468646044820152687261772066756e647360b81b6064820152608401610483565b60008681526003830160205260408120815b8154811015613855576000898152600d86016020526040812083546001600160a01b038b16929085908590811061381a5761381a61571c565b600091825260208083209091015483528201929092526040019020546001600160a01b03160361384d5760019250613855565b6001016137e1565b50816138b35760405162461bcd60e51b815260206004820152602760248201527f426f72726f77657220686173206e6f74206465706f736974656420616e7920696044820152666e766f6963657360c81b6064820152608401610483565b60098301546001600160a01b0316806138de5760405162461bcd60e51b8152600401610483906158b4565b6000898152600986016020908152604080832054600a8901909252808320805460ff191660011790555163020a4daf60e21b8152909130918190839063082936bc90613930908f9088906004016158eb565b6000604051808303816000875af115801561394f573d6000803e3d6000fd5b505050506040513d6000823e601f3d908101601f191682016040526139779190810190615bc8565b5050915091508b6001600160a01b0316826001600160a01b0316146139ae5760405162461bcd60e51b815260040161048390615cb0565b60008d815260048a016020526040812080548692906139ce908490615954565b909155506139dc9050614e01565b8d81526001600160a01b038d1660208201526040810191909152995050505050505050505092915050565b613a0f614de7565b6000613a1961288f565b905060298101613a28856128b3565b613a445760405162461bcd60e51b815260040161048390615501565b6040516331a9108f60e11b81526004810185905230908190636352211e90602401602060405180830381865afa158015613a82573d6000803e3d6000fd5b505050506040513d601f19601f82011682018060405250810190613aa69190615a18565b6001600160a01b031614613afc5760405162461bcd60e51b815260206004820152601e60248201527f4e4654206e6f74206f776e6564206279207468697320636f6e747261637400006044820152606401610483565b6000858152600d8201602090815260408083208784529091529020546001600160a01b0316331480613b465750613b31611c15565b6001600160a01b0316336001600160a01b0316145b613bc85760405162461bcd60e51b815260206004820152604760248201527f4f6e6c7920746865206f726967696e616c206465706f7369746f72206f72206360448201527f6f6e7472616374206f776e65722063616e207769746864726177207468697320606482015266696e766f69636560c81b608482015260a401610483565b600085815260038201602052604081208054909190815b81811015613c8c5787848281548110613bfa57613bfa61571c565b906000526020600020015403613c845783548490613c1a90600190615954565b81548110613c2a57613c2a61571c565b9060005260206000200154848281548110613c4757613c4761571c565b906000526020600020018190555083805480613c6557613c65615d06565b6001900381819060005260206000200160009055905560019250613c8c565b600101613bdf565b5081613ce65760405162461bcd60e51b8152602060048201526024808201527f496e766f696365206e6f7420666f756e6420696e2074686973207472616465206044820152631919585b60e21b6064820152608401610483565b6000613cf1886125e8565b60008a81526009870160205260409020549091508111613d3657600089815260098601602052604081208054839290613d2b908490615954565b90915550613d489050565b60008981526009860160205260408120555b604080516020810182526000815290516326aac97560e11b81523090634d5592ea90613d7e90839033908e908790600401615b00565b6020604051808303816000875af1158015613d9d573d6000803e3d6000fd5b505050506040513d601f19601f82011682018060405250810190613dc19190615904565b5060008a8152600d8701602090815260408083208c8452909152902080546001600160a01b0319169055613df3614de7565b998a5250505050602086019490945250929392505050565b613e13614e2b565b6000613e1d61288f565b905060298101613e2c856128b3565b613e485760405162461bcd60e51b815260040161048390615501565b600085815260058201602090815260408083206001600160a01b03881684529091529020805460ff19166001179055613e7f614e2b565b9485525050506001600160a01b0316602082015290565b613e9e614e01565b6000613ea861288f565b905060298101613eb7856128b3565b613ed35760405162461bcd60e51b815260040161048390615501565b60008581526020829052604090206005015460ff16613f045760405162461bcd60e51b815260040161048390615967565b613f0d8561347e565b613f295760405162461bcd60e51b815260040161048390615b33565b6000858152600a8201602052604090205460ff1615613f5a5760405162461bcd60e51b815260040161048390615999565b6001600160a01b038416613fb05760405162461bcd60e51b815260206004820152601f60248201527f426f72726f77657220616464726573732063616e6e6f74206265207a65726f006044820152606401610483565b60008581526003820160205260409020805461401a5760405162461bcd60e51b815260206004820152602360248201527f4e6f20696e766f69636573206465706f736974656420617320636f6c6c6174656044820152621c985b60ea1b6064820152608401610483565b600086815260208390526040902060098101546001600160a01b0316806140535760405162461bcd60e51b8152600401610483906158b4565b6000888152600985016020908152604080832054600a8801909252808320805460ff191660011790555163020a4daf60e21b8152909130918190839063082936bc906140a5908e9088906004016158eb565b6000604051808303816000875af11580156140c4573d6000803e3d6000fd5b505050506040513d6000823e601f3d908101601f191682016040526140ec9190810190615bc8565b5050915091508a6001600160a01b0316826001600160a01b0316146141235760405162461bcd60e51b815260040161048390615cb0565b60008c815260048901602052604081208054869290614143908490615954565b909155506141519050614e01565b8c81526001600160a01b038c16602082015260408101919091529850505050505050505092915050565b614183614db4565b600061418d61288f565b90506029810161419c856128b3565b6141b85760405162461bcd60e51b815260040161048390615501565b60008581526020829052604090206005015460ff166141e95760405162461bcd60e51b815260040161048390615967565b6000858152600a8201602052604090205460ff166142195760405162461bcd60e51b815260040161048390615a62565b6000858152600c82016020908152604080832054600b85019092528220549091818311614247576000614251565b6142518284615954565b9050600081116142735760405162461bcd60e51b815260040161048390615a95565b808711156142935760405162461bcd60e51b815260040161048390615ac9565b600088815260208590526040902060098101546001600160a01b0316806142cc5760405162461bcd60e51b8152600401610483906158b4565b6142e16001600160a01b03821633308c614721565b60008a8152600b87016020526040812080548b92906143019084906159cc565b909155505060008a8152600487016020526040812080548b92906143269084906159cc565b909155505060008a8152600b87016020526040902054851115614347614db4565b9a8b523360208c015260408b019990995250505050931515606086015250929392505050565b614375614bd8565b600061437f61288f565b90506029810161438e846128b3565b6143aa5760405162461bcd60e51b815260040161048390615501565b6000848152602082905260409020600501805460ff19169055611ca4614bd8565b6143d3614e2b565b60006143dd61288f565b9050602981016143ec856128b3565b6144085760405162461bcd60e51b815260040161048390615501565b600085815260058201602090815260408083206001600160a01b03881684529091529020805460ff19169055613e7f614e2b565b60405160248101839052600090819081908190309060440160408051601f198184030181529181526020820180516001600160e01b0316634aee985b60e01b179052516144899190615d1c565b600060405180830381855afa9150503d80600081146144c4576040519150601f19603f3d011682016040523d82523d6000602084013e6144c9565b606091505b50915091508180156144dc575060008151115b15614515576000818060200190518101906144f79190615a18565b90506001600160a01b038116156145135793506104d992505050565b505b6000856040516020016145289190615d38565b604051602081830303815290604052905060008660405160200161454c9190615d38565b6040516020818303038152906040529050600080306001600160a01b03168a858560016040516024016145829493929190615d5e565b60408051601f198184030181529181526020820180516001600160e01b03166309ddbd1160e41b179052516145b79190615d1c565b6000604051808303816000865af19150503d80600081146145f4576040519150601f19603f3d011682016040523d82523d6000602084013e6145f9565b606091505b509150915081801561460c575060008151115b1561462857808060200190518101906146259190615a18565b96505b6001600160a01b03871661471357600080306001600160a01b03168c60405160240161465691815260200190565b60408051601f198184030181529181526020820180516001600160e01b0316634aee985b60e01b1790525161468b9190615d1c565b600060405180830381855afa9150503d80600081146146c6576040519150601f19603f3d011682016040523d82523d6000602084013e6146cb565b606091505b50915091508180156146de575060008151115b15614710576000818060200190518101906146f99190615a18565b90506001600160a01b0381161561470e578099505b505b50505b509498975050505050505050565b604080516001600160a01b0385811660248301528416604482015260648082018490528251808303909101815260849091019091526020810180516001600160e01b03166323b872dd60e01b17905261477b908590614ae9565b50505050565b6040805160608082018352808252600060208301529181019190915260008381526020859052604090205460ff16156147f45760405162461bcd60e51b8152602060048201526015602482015274151bdad95b881a185cc81899595b88189d5c9b9959605a1b6044820152606401610483565b6000838152600185016020526040908190209051614813908490615d1c565b908152602001604051809103902060405180606001604052908160008201805461483c90615534565b80601f016020809104026020016040519081016040528092919081815260200182805461486890615534565b80156148b55780601f1061488a576101008083540402835291602001916148b5565b820191906000526020600020905b81548152906001019060200180831161489857829003601f168201915b5050509183525050600182015460209091019060ff1660068111156148dc576148dc61535e565b60068111156148ed576148ed61535e565b815260200160028201805461490190615534565b80601f016020809104026020016040519081016040528092919081815260200182805461492d90615534565b801561497a5780601f1061494f5761010080835404028352916020019161497a565b820191906000526020600020905b81548152906001019060200180831161495d57829003601f168201915b50505050508152505090509392505050565b600081815b8151811015614a015760008282815181106149ae576149ae61571c565b016020015160f81c9050603081108015906149cd575060398160ff1611155b156149f8576149dd603082615d9d565b60ff166149eb85600a6159df565b6149f591906159cc565b93505b50600101614991565b5050919050565b600080614a1361288f565b905060298101614a22866128b3565b614a3157600092505050612a45565b6001600160a01b038516614a4a57600092505050612a45565b6001846005811115614a5e57614a5e61535e565b148015614a835750614a6e611c15565b6001600160a01b0316856001600160a01b0316145b15614a9357600192505050612a45565b836005811115614aa557614aa561535e565b600087815260078301602090815260408083206001600160a01b038a16845290915290205460ff166005811115614ade57614ade61535e565b149695505050505050565b600080602060008451602086016000885af180614b0c576040513d6000823e3d81fd5b50506000513d91508115614b24578060011415614b31565b6001600160a01b0384163b155b1561477b5783604051635274afe760e01b81526004016104839190615a35565b60405180610160016040528060008152602001606081526020016060815260200160008152602001600081526020016000151581526020016060815260200160006001600160a01b0316815260200160006001600160a01b0316815260200160006001600160a01b0316815260200160006003811115614bd357614bd361535e565b905290565b6040518060200160405280600081525090565b604051806101a00160405280600081526020016060815260200160608152602001600081526020016000815260200160001515815260200160006001600160a01b0316815260200160006001600160a01b0316815260200160006001600160a01b0316815260200160006001600160a01b031681526020016000151581526020016060815260200160006003811115614bd357614bd361535e565b60405180608001604052806000815260200160008152602001600015158152602001600081525090565b604051806101200160405280600081526020016060815260200160608152602001600081526020016000815260200160001515815260200160006001600160a01b0316815260200160006001600160a01b0316815260200160006001600160a01b031681525090565b60405180608001604052806000815260200160006001600160a01b0316815260200160008152602001600081525090565b604051806040016040528060008152602001606081525090565b5080546000825590600052602060002090810190614d829190614e42565b50565b6040518060a0016040528060008152602001600081526020016000815260200160008152602001600081525090565b60405180608001604052806000815260200160006001600160a01b03168152602001600081526020016000151581525090565b604051806040016040528060008152602001600081525090565b60405180606001604052806000815260200160006001600160a01b03168152602001600081525090565b604080518082019091526000808252602082015290565b5b80821115614e575760008155600101614e43565b5090565b600060208284031215614e6d57600080fd5b5035919050565b6001600160a01b0381168114614d8257600080fd5b8035614e9481614e74565b919050565b60008060408385031215614eac57600080fd5b823591506020830135614ebe81614e74565b809150509250929050565b634e487b7160e01b600052604160045260246000fd5b604051601f8201601f191681016001600160401b0381118282101715614f0757614f07614ec9565b604052919050565b600082601f830112614f2057600080fd5b81356001600160401b03811115614f3957614f39614ec9565b614f4c601f8201601f1916602001614edf565b818152846020838601011115614f6157600080fd5b816020850160208301376000918101602001919091529392505050565b60006001600160401b03821115614f9757614f97614ec9565b5060051b60200190565b600082601f830112614fb257600080fd5b8135614fc5614fc082614f7e565b614edf565b8082825260208201915060208360051b860101925085831115614fe757600080fd5b602085015b83811015615004578035835260209283019201614fec565b5095945050505050565b803560048110614e9457600080fd5b60008060008060008060008060006101208a8c03121561503c57600080fd5b89356001600160401b0381111561505257600080fd5b61505e8c828d01614f0f565b99505060208a01356001600160401b0381111561507a57600080fd5b6150868c828d01614f0f565b98505060408a0135965060608a0135955060808a01356001600160401b038111156150b057600080fd5b6150bc8c828d01614fa1565b9550506150cb60a08b01614e89565b93506150d960c08b01614e89565b92506150e760e08b01614e89565b91506150f66101008b0161500e565b90509295985092959850929598565b6000806040838503121561511857600080fd5b50508035926020909101359150565b600080600080600080600080610100898b03121561514457600080fd5b8835975060208901356001600160401b0381111561516157600080fd5b61516d8b828c01614f0f565b97505060408901356001600160401b0381111561518957600080fd5b6151958b828c01614f0f565b965050606089013594506080890135935060a08901356151b481614e74565b925060c08901356151c481614e74565b915060e08901356151d481614e74565b809150509295985092959890939650565b600080600080600060a086880312156151fd57600080fd5b85359450602086013561520f81614e74565b9350604086013561521f81614e74565b9250606086013561522f81614e74565b9150608086013561523f81614e74565b809150509295509295909350565b6000806040838503121561526057600080fd5b8235915060208301356001600160401b0381111561527d57600080fd5b61528985828601614fa1565b9150509250929050565b6000806000606084860312156152a857600080fd5b8335925060208401356152ba81614e74565b929592945050506040919091013590565b602080825282518282018190526000918401906040840190835b818110156153035783518352602093840193909201916001016152e5565b509095945050505050565b60005b83811015615329578181015183820152602001615311565b50506000910152565b6000815180845261534a81602086016020860161530e565b601f01601f19169290920160200192915050565b634e487b7160e01b600052602160045260246000fd5b6004811061539257634e487b7160e01b600052602160045260246000fd5b9052565b60c0815260006153a960c0830189615332565b82810360208401526153bb8189615332565b915050856040830152846060830152831515608083015261275f60a0830184615374565b6020808252601f908201527f6e6f7420617574686f72697a656420746f2063616c6c2066756e6374696f6e00604082015260600190565b6101408152600061542b61014083018d615332565b828103602084015261543d818d615332565b604084018c9052606084018b905289151560808501526001600160a01b0389811660a086015288811660c086015287811660e08601528616610100850152915061548d9050610120830184615374565b9b9a5050505050505050505050565b610100815260006154b161010083018b615332565b82810360208401526154c3818b615332565b60408401999099525050606081019590955292151560808501526001600160a01b0391821660a0850152811660c08401521660e09091015292915050565b602080825260199082015278151c985919481919585b08191bd95cc81b9bdd08195e1a5cdd603a1b604082015260600190565b600181811c9082168061554857607f821691505b60208210810361556857634e487b7160e01b600052602260045260246000fd5b50919050565b6000815461557b81615534565b80855260018216801561559557600181146155b1576155e8565b60ff1983166020870152602082151560051b87010193506155e8565b84600052602060002060005b838110156155df5781546020828a0101526001820191506020810190506155bd565b87016020019450505b50505092915050565b6101008152600061560661010083018b61556e565b82810360208401526154c3818b61556e565b60208082526033908201527f54524144455f4445414c3a204e4f4e4558495354454e54202d205472616465206040820152721919585b08191bd95cc81b9bdd08195e1a5cdd606a1b606082015260800190565b60208082526047908201527f54524144455f4445414c3a20494e56414c49445f414d4f554e54202d2052657060408201527f61796d656e7420616d6f756e74206d7573742062652067726561746572207468606082015266616e207a65726f60c81b608082015260a00190565b60208082526024908201527f4e6f742061207061727469636970616e7420696e2074686973207472616465206040820152631919585b60e21b606082015260800190565b634e487b7160e01b600052603260045260246000fd5b634e487b7160e01b600052601160045260246000fd5b60006001820161575a5761575a615732565b5060010190565b601f821115610ae057806000526020600020601f840160051c810160208510156157885750805b601f840160051c820191505b818110156157a85760008155600101615794565b5050505050565b81516001600160401b038111156157c8576157c8614ec9565b6157dc816157d68454615534565b84615761565b6020601f82116001811461581057600083156157f85750848201515b600019600385901b1c1916600184901b1784556157a8565b600084815260208120601f198516915b828110156158405787850151825560209485019460019092019101615820565b508482101561585e5786840151600019600387901b60f8161c191681555b50505050600190811b01905550565b60208082526027908201527f496e73756666696369656e7420555344432062616c616e636520696e207472616040820152661919481919585b60ca1b606082015260800190565b6020808252601f908201527f5472616465206465616c20555344432061646472657373206e6f742073657400604082015260600190565b6001600160a01b03929092168252602082015260400190565b60006020828403121561591657600080fd5b81518015158114612a4557600080fd5b6020808252601490820152731554d110c81d1c985b9cd9995c8819985a5b195960621b604082015260600190565b818103818111156104d9576104d9615732565b6020808252601890820152775472616465206465616c206973206e6f742061637469766560401b604082015260600190565b602080825260199082015278233ab73234b7339030b63932b0b23c903bb4ba34323930bbb760391b604082015260600190565b808201808211156104d9576104d9615732565b80820281158282048414176104d9576104d9615732565b600082615a1357634e487b7160e01b600052601260045260246000fd5b500490565b600060208284031215615a2a57600080fd5b8151612a4581614e74565b6001600160a01b0391909116815260200190565b600060208284031215615a5b57600080fd5b5051919050565b602080825260199082015278233ab73234b733903737ba103cb2ba103bb4ba34323930bbb760391b604082015260600190565b6020808252601a90820152794e6f2072656d61696e696e67206465627420746f20726570617960301b604082015260600190565b6020808252601d908201527f416d6f756e7420657863656564732072656d61696e696e672064656274000000604082015260600190565b6001600160a01b038581168252841660208201526040810183905260806060820181905260009061270d90830184615332565b6020808252601e908201527f5472616465206465616c206973206e6f742066756c6c792066756e6465640000604082015260600190565b600082601f830112615b7b57600080fd5b8151615b89614fc082614f7e565b8082825260208201915060208360051b860101925085831115615bab57600080fd5b602085015b83811015615004578051835260209283019201615bb0565b60008060008060808587031215615bde57600080fd5b8451615be981614e74565b6020860151604087015191955093506001600160401b03811115615c0c57600080fd5b8501601f81018713615c1d57600080fd5b8051615c2b614fc082614f7e565b8082825260208201915060208360051b850101925089831115615c4d57600080fd5b6020840193505b82841015615c78578351615c6781614e74565b825260209384019390910190615c54565b6060890151909550925050506001600160401b03811115615c9857600080fd5b615ca487828801615b6a565b91505092959194509250565b60208082526036908201527f4665654469737472696275746f723a2041646a757374656420616d6f756e742060408201527539b2b73a103a37903bb937b733903932b1b2b4bb32b960511b606082015260800190565b634e487b7160e01b600052603160045260246000fd5b60008251615d2e81846020870161530e565b9190910192915050565b60008251615d4a81846020870161530e565b612d4360f01b920191825250600201919050565b848152608060208201526000615d776080830186615332565b8281036040840152615d898186615332565b915050821515606083015295945050505050565b60ff82811682821603908111156104d9576104d961573256fed870e4f0b23e1b6feaf7b25c39f808295f3c1bcd9e7208b3a2fc10b19db802e9910d02d88dc4db903a003bcb42832276104ff07a90c46ad3f5f2425499362923481f4c7283b81a95f22f60e167e146a8e25140deba7bc5c5816dfd5268a809cb54524144455f4445414c3a20494e56414c49445f414444524553534553202d20a2646970667358221220ec6bcd9589d6289b2c355009fa0b9d72687fe5ab013105211a7d4ecff9bbe39b64736f6c634300081c0033",
  "libraries": {
    "AddressSet": "0x8aB21bf41B908d9CBee3E78e97033E3916840cA8",
    "AttributeLib": "0x9d0749b64bEDB024B1AaF596c84029E67635D43c",
    "Base64": "0x8d10857B6d2bEA12d67A888F3E995ea142Db701E",
    "Bytes32Set": "0xB01Cf1Baf9ABFa5309AE3ff649B31ae87A80AE62",
    "CarbonCreditLib": "0x44520E8dA039d4D7D460f5DBF6C1eC347De53A7C",
    "DiamondFactoryLib": "0x50353159348c63A448eDAfC6d5ef81CF9C1cdE9a",
    "DiamondLib": "0x2Be86045394c8096b3b9d9449A08Cc74afEd5717",
    "ERC721AEnumerationLib": "0x6a9A6D75AECEfB8dC969D5Ef5ea3EcF57e29706d",
    "ERC721ALib": "0x8F980CBDb943c2794FdA47D82d81a71d31A815DE",
    "Identity": "0x4C6fE457018d32B9aEc2aA99F655b5aCD7d0D658",
    "IdentityFactory": "0x5c970fD1E772548Be3Dc3de62381Fd8b2b3fAb96",
    "IdentitySystemStorage": "0x05d7966Acfa90f529e3844B1d1b7702dBde7789c",
    "LibDiamond": "0x30Fb10d923CfFC1151B8CFe683A937F414854570",
    "MerkleProver": "0x6361c8F2C7Fb1498C15C5e90Ed477ee8cEeC9f5f",
    "MetadataLib": "0xEA17bE869d528F2c3e4F7cae231ebE4BE42BeB75",
    "MultiSaleLib": "0x3b12B21202DaC69552E7b1f9D4D3E31085c7a378",
    "Strings": "0x26375f3210F1F8C90f53c663AC44F3d4a86b12A6",
    "StringsLib": "0x928c0A50586514D291087403befe3540E3631ECd",
    "SVGTemplatesLib": "0xFD3DfE346d5d5c8C90313036BC1b1E3De29FCb33",
    "UInt256Set": "0x908B9bE15117446dE01d076Ecb75D9210E182D97",
    "VariablePriceLib": "0x92E3cBf7226518CF757c48446067de1485CCCcBb"
  },
  "devdoc": {
    "errors": {
      "SafeERC20FailedOperation(address)": [
        {
          "details": "An operation with an ERC-20 token failed."
        }
      ]
    },
    "events": {
      "CollateralTokensDistributed(uint256,address,uint256)": {
        "details": "Emitted when Collateral tokens are distributed (minted) to a participant upon USDC deposit",
        "params": {
          "amount": "Amount of Collateral tokens distributed",
          "recipient": "Address receiving the Collateral tokens",
          "tradeDealId": "Unique identifier for the trade deal"
        }
      },
      "CollateralTokensRedeemed(uint256,address,uint256,uint256)": {
        "details": "Emitted when Collateral tokens are redeemed for USDC",
        "params": {
          "collateralAmount": "Amount of Collateral tokens being redeemed",
          "redeemer": "Address redeeming the Collateral tokens",
          "tradeDealId": "Unique identifier for the trade deal",
          "usdcAmount": "Amount of USDC received in exchange"
        }
      },
      "InterestDistributedForTradeDeal(uint256,uint256,uint256,uint256,uint256)": {
        "details": "Emitted when interest is distributed for a trade deal",
        "params": {
          "interestInterest": "Amount of interest distributed as Interest tokens",
          "interestTokensMinted": "Number of Interest tokens minted for interest",
          "invoicePoolInterest": "Amount of interest distributed to invoice pool",
          "totalInterest": "Total interest calculated for distribution",
          "tradeDealId": "Unique identifier for the trade deal"
        }
      },
      "InvoiceDepositedToTradeDeal(uint256,uint256)": {
        "details": "Emitted when an invoice is deposited to a trade deal as collateral",
        "params": {
          "tokenId": "NFT token ID of the invoice being deposited",
          "tradeDealId": "Unique identifier for the trade deal"
        }
      },
      "InvoiceWithdrawnFromTradeDeal(uint256,uint256)": {
        "details": "Emitted when an invoice is withdrawn from a trade deal",
        "params": {
          "tokenId": "NFT token ID of the invoice being withdrawn",
          "tradeDealId": "Unique identifier for the trade deal"
        }
      },
      "TradeDealActivated(uint256)": {
        "details": "Emitted when a trade deal is activated",
        "params": {
          "tradeDealId": "Unique identifier for the trade deal being activated"
        }
      },
      "TradeDealCreated(uint256,string,string,uint256,uint256,bool,address,address,address,address,uint8)": {
        "details": "Emitted when a new trade deal is created",
        "params": {
          "active": "Whether the trade deal is active upon creation",
          "collateralAddress": "Address of the Collateral token contract",
          "collateralToInterestRatio": "Conversion ratio for Collateral to Interest tokens",
          "interestAddress": "Address of the Interest token contract",
          "interestRate": "Interest rate in basis points (100 = 1%)",
          "name": "Human-readable name of the trade deal",
          "nftAddress": "Address of the NFT contract for invoices",
          "symbol": "Symbol for the trade deal's Collateral token",
          "tradeDealId": "Unique identifier for the trade deal",
          "usdcAddress": "Address of the USDC token contract"
        }
      },
      "TradeDealDeactivated(uint256)": {
        "details": "Emitted when a trade deal is deactivated",
        "params": {
          "tradeDealId": "Unique identifier for the trade deal being deactivated"
        }
      },
      "TradeDealFullyFunded(uint256,uint256)": {
        "details": "Emitted when a trade deal reaches its funding target and becomes fully funded",
        "params": {
          "fundingTarget": "The total amount of USDC required to fully fund the deal",
          "tradeDealId": "Unique identifier for the trade deal"
        }
      },
      "TradeDealFundingWithdrawn(uint256,address,uint256)": {
        "details": "Emitted when funding is withdrawn from a fully funded trade deal",
        "params": {
          "amount": "Amount of USDC being withdrawn",
          "recipient": "Address receiving the withdrawn funds",
          "tradeDealId": "Unique identifier for the trade deal"
        }
      },
      "TradeDealParticipantAdded(uint256,address)": {
        "details": "Emitted when a participant is added to a trade deal",
        "params": {
          "participant": "Address of the participant being added",
          "tradeDealId": "Unique identifier for the trade deal"
        }
      },
      "TradeDealParticipantRemoved(uint256,address)": {
        "details": "Emitted when a participant is removed from a trade deal",
        "params": {
          "participant": "Address of the participant being removed",
          "tradeDealId": "Unique identifier for the trade deal"
        }
      },
      "TradeDealRepaid(uint256,address,uint256,bool)": {
        "details": "Emitted when a trade deal is repaid",
        "params": {
          "amount": "Amount of USDC being repaid",
          "fullyRepaid": "Boolean indicating if the trade deal is now fully repaid",
          "repayer": "Address making the repayment",
          "tradeDealId": "Unique identifier for the trade deal"
        }
      },
      "TradeDealRequiredClaimTopicsSet(uint256,uint256[])": {
        "details": "Emitted when required claim topics are set for a trade deal",
        "params": {
          "claimTopics": "Array of claim topic IDs required for participation",
          "tradeDealId": "Unique identifier for the trade deal"
        }
      },
      "TradeDealUpdated(uint256,string,string,uint256,uint256,bool,address,address,address)": {
        "details": "Emitted when a trade deal's core details are updated",
        "params": {
          "active": "Updated active status",
          "collateralAddress": "Updated Collateral token address",
          "collateralToInterestRatio": "Updated conversion ratio",
          "interestAddress": "Updated Interest token address",
          "interestRate": "Updated interest rate in basis points",
          "name": "Updated human-readable name",
          "symbol": "Updated symbol for the Collateral token",
          "tradeDealId": "Unique identifier for the trade deal",
          "usdcAddress": "Updated USDC token address"
        }
      },
      "USDCDepositedToTradeDeal(uint256,uint256,address)": {
        "details": "Emitted when USDC is deposited to a trade deal",
        "params": {
          "amount": "Amount of USDC being deposited",
          "depositor": "Address of the depositor",
          "tradeDealId": "Unique identifier for the trade deal"
        }
      },
      "USDCWithdrawnFromTradeDeal(uint256,uint256)": {
        "details": "Emitted when USDC is withdrawn from a trade deal",
        "params": {
          "amount": "Amount of USDC being withdrawn",
          "tradeDealId": "Unique identifier for the trade deal"
        }
      }
    },
    "kind": "dev",
    "methods": {
      "activateTradeDeal(uint256)": {
        "details": "Only callable by the contract owner",
        "params": {
          "tradeDealId": "ID of the trade deal to activate"
        }
      },
      "addTradeDealParticipant(uint256,address)": {
        "details": "Only callable by the contract owner",
        "params": {
          "participant": "Address of the participant to add",
          "tradeDealId": "ID of the trade deal to add participant to"
        }
      },
      "createTradeDeal(string,string,uint256,uint256,uint256[],address,address,address,uint8)": {
        "params": {
          "collateralAddress": "Address of existing Collateral token (or zero to create new)",
          "collateralToInterestRatio": "Ratio for converting Collateral to VABI tokens",
          "interestAddress": "Address of VABI token",
          "interestRate": "Interest rate in basis points (100 = 1%)",
          "name": "Name of the trade deal",
          "operationMode": "The operation mode (CENTRALIZED or SELF_SERVICE)",
          "requiredClaimTopics": "Array of claim topics required for participation",
          "symbol": "Symbol for the trade deal tokens",
          "usdcAddress": "Address of USDC token"
        },
        "returns": {
          "_0": "The ID of the created trade deal"
        }
      },
      "deactivateTradeDeal(uint256)": {
        "details": "Only callable by the contract owner",
        "params": {
          "tradeDealId": "ID of the trade deal to deactivate"
        }
      },
      "getAllTradeDealIds()": {
        "returns": {
          "_0": "Array of all trade deal IDs"
        }
      },
      "getNFTInvoiceTotalAmount(uint256)": {
        "params": {
          "tokenId": "The token ID of the NFT invoice"
        },
        "returns": {
          "_0": "The totalAmount value from the metadata"
        }
      },
      "getTradeDealFullStatus(uint256)": {
        "details": "Returns all relevant financial and status information about a trade deal in one call",
        "params": {
          "tradeDealId": "ID of the trade deal to get status for"
        },
        "returns": {
          "currentBalance": "The current USDC balance of the trade deal",
          "fundingTarget": "The target amount of funding in USDC",
          "isFunded": "Whether the trade deal has reached its funding target",
          "isFundingWithdrawn": "Whether the funding has been withdrawn by the fundee",
          "isRepaid": "Whether the trade deal has been fully repaid",
          "repaidAmount": "The amount that has been repaid so far",
          "totalDebt": "The total debt including principal and interest"
        }
      },
      "getTradeDealInfo(uint256)": {
        "params": {
          "tradeDealId": "ID of the trade deal to query"
        },
        "returns": {
          "active": "Whether the trade deal is currently active",
          "collateralToInterestRatio": "The conversion ratio for Collateral to VABI tokens",
          "interestRate": "The interest rate in basis points",
          "name": "The name of the trade deal",
          "operationMode": "The operation mode (CENTRALIZED or SELF_SERVICE)",
          "symbol": "The symbol of the trade deal tokens"
        }
      },
      "getTradeDealRequiredClaimTopics(uint256)": {
        "params": {
          "tradeDealId": "ID of the trade deal to query"
        },
        "returns": {
          "_0": "Array of claim topic IDs required for participation"
        }
      },
      "getTradeDealTokenAddresses(uint256)": {
        "params": {
          "tradeDealId": "ID of the trade deal to query"
        },
        "returns": {
          "collateralAddress": "Address of the Collateral token contract",
          "interestAddress": "Address of the VABI token contract",
          "nftAddress": "Address of the NFT contract (this contract's address)",
          "usdcAddress": "Address of the USDC token contract"
        }
      },
      "isTradeDealFunded(uint256)": {
        "params": {
          "tradeDealId": "ID of the trade deal to check"
        },
        "returns": {
          "_0": "True if the trade deal is fully funded, false otherwise"
        }
      },
      "isTradeDealParticipant(uint256,address)": {
        "params": {
          "tradeDealId": "ID of the trade deal to check",
          "user": "Address of the user to check"
        },
        "returns": {
          "_0": "True if the user is a participant, false otherwise"
        }
      },
      "isTradeDealRepaid(uint256)": {
        "params": {
          "tradeDealId": "ID of the trade deal to check"
        },
        "returns": {
          "_0": "True if the trade deal is fully repaid, false otherwise"
        }
      },
      "redeemCollateralTokens(uint256,uint256)": {
        "params": {
          "collateralAmount": "The amount of Collateral tokens to redeem",
          "tradeDealId": "The ID of the trade deal"
        }
      },
      "removeTradeDealParticipant(uint256,address)": {
        "details": "Only callable by the contract owner",
        "params": {
          "participant": "Address of the participant to remove",
          "tradeDealId": "ID of the trade deal to remove participant from"
        }
      },
      "repayTradeDeal(uint256,uint256)": {
        "params": {
          "amount": "The amount to repay",
          "tradeDealId": "The ID of the trade deal to repay"
        }
      },
      "setTradeDealNFTAddress(uint256,address)": {
        "details": "Kept as a no-op for backward compatibility since we're using the Diamond's ERC721PermissionedTokenFacet"
      },
      "setTradeDealRequiredClaimTopics(uint256,uint256[])": {
        "details": "Only callable by the contract owner",
        "params": {
          "claimTopics": "Array of claim topic IDs required for participation",
          "tradeDealId": "ID of the trade deal to set claim topics for"
        }
      },
      "setTradeDealTokenAddresses(uint256,address,address,address,address)": {
        "details": "Only callable by the contract owner",
        "params": {
          "collateralAddress": "Address of the Collateral token contract (cannot be zero)",
          "interestAddress": "Address of the VABI token contract (cannot be zero)",
          "tradeDealId": "ID of the trade deal to set token addresses for",
          "usdcAddress": "Address of the USDC token contract (cannot be zero)"
        }
      },
      "tdDepositInvoice(uint256,uint256)": {
        "details": "Caller must be a participant in the trade deal or the contract ownerThe NFT must have totalAmount set in its metadata",
        "params": {
          "tokenId": "Token ID of the invoice NFT to deposit",
          "tradeDealId": "ID of the trade deal to deposit to"
        }
      },
      "tdDepositUSDC(uint256,uint256)": {
        "details": "Caller must be a participant in the trade deal or the contract ownerIf this deposit completes the funding target, the TradeDealFullyFunded event is emitted",
        "params": {
          "amount": "Amount of USDC to deposit",
          "tradeDealId": "ID of the trade deal to deposit to"
        }
      },
      "tdDistributeInterest(uint256)": {
        "details": "Only callable by the contract owner",
        "params": {
          "tradeDealId": "ID of the trade deal to distribute interest for"
        }
      },
      "tdWithdrawInvoice(uint256,uint256)": {
        "details": "Caller must be the original depositor of the invoice or the contract owner",
        "params": {
          "tokenId": "Token ID of the invoice NFT to withdraw",
          "tradeDealId": "ID of the trade deal to withdraw from"
        }
      },
      "tdWithdrawUSDC(uint256,uint256)": {
        "details": "Only callable by the contract owner",
        "params": {
          "amount": "Amount of USDC to withdraw",
          "tradeDealId": "ID of the trade deal to withdraw from"
        }
      },
      "updateTradeDeal(uint256,string,string,uint256,uint256,address,address,address)": {
        "details": "Only callable by the contract owner",
        "params": {
          "collateralAddress": "New Collateral token address",
          "collateralToInterestRatio": "New ratio for converting Collateral to VABI tokens",
          "interestAddress": "New VABI token address",
          "interestRate": "New interest rate in basis points (100 = 1%)",
          "name": "New name for the trade deal",
          "symbol": "New symbol for the trade deal tokens",
          "tradeDealId": "ID of the trade deal to update",
          "usdcAddress": "New USDC token address"
        }
      },
      "withdrawTradeDealFundingForBorrower(uint256,address)": {
        "params": {
          "tradeDealId": "The ID of the trade deal to withdraw funding from"
        }
      },
      "withdrawTradeDealFundingSelf(uint256)": {
        "params": {
          "tradeDealId": "The ID of the trade deal to withdraw funding from"
        }
      }
    },
    "version": 1
  },
  "userdoc": {
    "kind": "user",
    "methods": {
      "activateTradeDeal(uint256)": {
        "notice": "Activate a trade deal that was previously deactivated"
      },
      "addTradeDealParticipant(uint256,address)": {
        "notice": "Add a participant to a trade deal"
      },
      "createTradeDeal(string,string,uint256,uint256,uint256[],address,address,address,uint8)": {
        "notice": "Create a new trade deal with specified parameters and operation mode"
      },
      "deactivateTradeDeal(uint256)": {
        "notice": "Deactivate an active trade deal to prevent further deposits"
      },
      "getAllTradeDealIds()": {
        "notice": "Get the IDs of all trade deals in the system"
      },
      "getNFTInvoiceTotalAmount(uint256)": {
        "notice": "Get the total amount from an NFT invoice's metadata"
      },
      "getTradeDealFullStatus(uint256)": {
        "notice": "Get comprehensive status information about a trade deal"
      },
      "getTradeDealInfo(uint256)": {
        "notice": "Get basic information about a trade deal"
      },
      "getTradeDealRequiredClaimTopics(uint256)": {
        "notice": "Get the required claim topics for participation in a trade deal"
      },
      "getTradeDealTokenAddresses(uint256)": {
        "notice": "Get the token addresses associated with a trade deal"
      },
      "isTradeDealFunded(uint256)": {
        "notice": "Check if a trade deal has reached its funding target"
      },
      "isTradeDealParticipant(uint256,address)": {
        "notice": "Check if a user is a participant in a trade deal"
      },
      "isTradeDealRepaid(uint256)": {
        "notice": "Check if a trade deal has been fully repaid"
      },
      "redeemCollateralTokens(uint256,uint256)": {
        "notice": "Allow funders to redeem their Collateral tokens for USDC after the trade deal is repaid"
      },
      "removeTradeDealParticipant(uint256,address)": {
        "notice": "Remove a participant from a trade deal"
      },
      "repayTradeDeal(uint256,uint256)": {
        "notice": "Allow fundees to repay their debt"
      },
      "setTradeDealNFTAddress(uint256,address)": {
        "notice": "This function is deprecated and has no effect"
      },
      "setTradeDealRequiredClaimTopics(uint256,uint256[])": {
        "notice": "Set the required claim topics for participation in a trade deal"
      },
      "setTradeDealTokenAddresses(uint256,address,address,address,address)": {
        "notice": "Set the token addresses for a specific trade deal"
      },
      "tdDepositInvoice(uint256,uint256)": {
        "notice": "Deposit an invoice NFT as collateral into a trade deal"
      },
      "tdDepositUSDC(uint256,uint256)": {
        "notice": "Deposit USDC to a trade deal as funding"
      },
      "tdDistributeInterest(uint256)": {
        "notice": "Distribute interest for a trade deal"
      },
      "tdWithdrawInvoice(uint256,uint256)": {
        "notice": "Withdraw a previously deposited invoice NFT from a trade deal"
      },
      "tdWithdrawUSDC(uint256,uint256)": {
        "notice": "Withdraw USDC from a trade deal"
      },
      "updateTradeDeal(uint256,string,string,uint256,uint256,address,address,address)": {
        "notice": "Update an existing trade deal's properties"
      },
      "withdrawTradeDealFundingForBorrower(uint256,address)": {
        "notice": "Allow fundees to withdraw USDC once the trade deal is fully funded (centrally-assisted mode)"
      },
      "withdrawTradeDealFundingSelf(uint256)": {
        "notice": "Allow borrowers to withdraw funds directly in self-service mode"
      }
    },
    "version": 1
  },
  "storageLayout": {
    "storage": [],
    "types": null
  }
}